:040000003f8000003d
:040001003f8000003c
:040002003f8000003b
:040003003f7fffff3d
:040004003f7fffff3c
:040005003f7ffffe3c
:040006003f7ffffd3c
:040007003f7ffffc3c
:040008003f7ffffb3c
:040009003f7ffffa3c
:04000a003f7ffff83d
:04000b003f7ffff73d
:04000c003f7ffff53e
:04000d003f7ffff33f
:04000e003f7ffff140
:04000f003f7fffef41
:040010003f7fffec43
:040011003f7fffea44
:040012003f7fffe746
:040013003f7fffe448
:040014003f7fffe14a
:040015003f7fffde4c
:040016003f7fffdb4e
:040017003f7fffd751
:040018003f7fffd453
:040019003f7fffd056
:04001a003f7fffcc59
:04001b003f7fffc85c
:04001c003f7fffc45f
:04001d003f7fffbf63
:04001e003f7fffbb66
:04001f003f7fffb66a
:040020003f7fffb16e
:040021003f7fffac72
:040022003f7fffa776
:040023003f7fffa27a
:040024003f7fff9c7f
:040025003f7fff9684
:040026003f7fff9188
:040027003f7fff8b8d
:040028003f7fff8592
:040029003f7fff7e98
:04002a003f7fff789d
:04002b003f7fff71a3
:04002c003f7fff6ba8
:04002d003f7fff64ae
:04002e003f7fff5db4
:04002f003f7fff56ba
:040030003f7fff4ec1
:040031003f7fff47c7
:040032003f7fff3fce
:040033003f7fff37d5
:040034003f7fff30db
:040035003f7fff27e3
:040036003f7fff1fea
:040037003f7fff17f1
:040038003f7fff0ef9
:040039003f7fff0501
:04003a003f7ffefd09
:04003b003f7ffef411
:04003c003f7ffeea1a
:04003d003f7ffee122
:04003e003f7ffed82a
:04003f003f7ffece33
:040040003f7ffec43c
:040041003f7ffeba45
:040042003f7ffeb04e
:040043003f7ffea657
:040044003f7ffe9b61
:040045003f7ffe916a
:040046003f7ffe8674
:040047003f7ffe7b7e
:040048003f7ffe7088
:040049003f7ffe6592
:04004a003f7ffe5a9c
:04004b003f7ffe4ea7
:04004c003f7ffe43b1
:04004d003f7ffe37bc
:04004e003f7ffe2bc7
:04004f003f7ffe1fd2
:040050003f7ffe13dd
:040051003f7ffe06e9
:040052003f7ffdfaf5
:040053003f7ffded01
:040054003f7ffde00d
:040055003f7ffdd319
:040056003f7ffdc625
:040057003f7ffdb832
:040058003f7ffdab3e
:040059003f7ffd9d4b
:04005a003f7ffd8f58
:04005b003f7ffd8165
:04005c003f7ffd7372
:04005d003f7ffd657f
:04005e003f7ffd578c
:04005f003f7ffd489a
:040060003f7ffd39a8
:040061003f7ffd2bb5
:040062003f7ffd1bc4
:040063003f7ffd0cd2
:040064003f7ffcfde1
:040065003f7ffcedf0
:040066003f7ffcdefe
:040067003f7ffcce0d
:040068003f7ffcbe1c
:040069003f7ffcae2b
:04006a003f7ffc9e3a
:04006b003f7ffc8d4a
:04006c003f7ffc7d59
:04006d003f7ffc6c69
:04006e003f7ffc5b79
:04006f003f7ffc4a89
:040070003f7ffc3999
:040071003f7ffc27aa
:040072003f7ffc16ba
:040073003f7ffc04cb
:040074003f7ffbf2dd
:040075003f7ffbe1ed
:040076003f7ffbceff
:040077003f7ffbbc10
:040078003f7ffbaa21
:040079003f7ffb9733
:04007a003f7ffb8445
:04007b003f7ffb7157
:04007c003f7ffb5e69
:04007d003f7ffb4b7b
:04007e003f7ffb388d
:04007f003f7ffb24a0
:040080003f7ffb11b2
:040081003f7ffafdc6
:040082003f7ffae9d9
:040083003f7ffad5ec
:040084003f7ffac1ff
:040085003f7ffaac13
:040086003f7ffa9727
:040087003f7ffa833a
:040088003f7ffa6e4e
:040089003f7ffa5962
:04008a003f7ffa4476
:04008b003f7ffa2e8b
:04008c003f7ffa199f
:04008d003f7ffa03b4
:04008e003f7ff9edca
:04008f003f7ff9d7df
:040090003f7ff9c1f4
:040091003f7ff9ab09
:040092003f7ff9941f
:040093003f7ff97e34
:040094003f7ff9674a
:040095003f7ff95060
:040096003f7ff93976
:040097003f7ff9228c
:040098003f7ff90ba2
:040099003f7ff8f3ba
:04009a003f7ff8dbd1
:04009b003f7ff8c4e7
:04009c003f7ff8acfe
:04009d003f7ff89316
:04009e003f7ff87b2d
:04009f003f7ff86344
:0400a0003f7ff84a5c
:0400a1003f7ff83174
:0400a2003f7ff8188c
:0400a3003f7ff7ffa5
:0400a4003f7ff7e6bd
:0400a5003f7ff7cdd5
:0400a6003f7ff7b3ee
:0400a7003f7ff79a06
:0400a8003f7ff7801f
:0400a9003f7ff76638
:0400aa003f7ff74c51
:0400ab003f7ff7316b
:0400ac003f7ff71784
:0400ad003f7ff6fc9f
:0400ae003f7ff6e2b8
:0400af003f7ff6c7d2
:0400b0003f7ff6acec
:0400b1003f7ff69007
:0400b2003f7ff67521
:0400b3003f7ff6593c
:0400b4003f7ff63e56
:0400b5003f7ff62271
:0400b6003f7ff6068c
:0400b7003f7ff5eaa8
:0400b8003f7ff5cec3
:0400b9003f7ff5b1df
:0400ba003f7ff595fa
:0400bb003f7ff57816
:0400bc003f7ff55b32
:0400bd003f7ff53e4e
:0400be003f7ff5216a
:0400bf003f7ff50387
:0400c0003f7ff4e6a4
:0400c1003f7ff4c8c1
:0400c2003f7ff4aade
:0400c3003f7ff48cfb
:0400c4003f7ff46e18
:0400c5003f7ff45035
:0400c6003f7ff43153
:0400c7003f7ff41370
:0400c8003f7ff3f48f
:0400c9003f7ff3d5ad
:0400ca003f7ff3b6cb
:0400cb003f7ff397e9
:0400cc003f7ff37708
:0400cd003f7ff35826
:0400ce003f7ff33845
:0400cf003f7ff31864
:0400d0003f7ff2f884
:0400d1003f7ff2d8a3
:0400d2003f7ff2b8c2
:0400d3003f7ff297e2
:0400d4003f7ff27701
:0400d5003f7ff25621
:0400d6003f7ff23541
:0400d7003f7ff21461
:0400d8003f7ff1f382
:0400d9003f7ff1d1a3
:0400da003f7ff1b0c3
:0400db003f7ff18ee4
:0400dc003f7ff16c05
:0400dd003f7ff14a26
:0400de003f7ff12847
:0400df003f7ff10668
:0400e0003f7ff0e38b
:0400e1003f7ff0c1ac
:0400e2003f7ff09ece
:0400e3003f7ff07bf0
:0400e4003f7ff05812
:0400e5003f7ff03534
:0400e6003f7ff01157
:0400e7003f7fefee7a
:0400e8003f7fefca9d
:0400e9003f7fefa6c0
:0400ea003f7fef82e3
:0400eb003f7fef5e06
:0400ec003f7fef3a29
:0400ed003f7fef154d
:0400ee003f7feef171
:0400ef003f7feecc95
:0400f0003f7feea7b9
:0400f1003f7fee82dd
:0400f2003f7fee5d01
:0400f3003f7fee3726
:0400f4003f7fee124a
:0400f5003f7fedec70
:0400f6003f7fedc695
:0400f7003f7feda0ba
:0400f8003f7fed7adf
:0400f9003f7fed5404
:0400fa003f7fed2d2a
:0400fb003f7fed0650
:0400fc003f7fece076
:0400fd003f7fecb99c
:0400fe003f7fec92c2
:0400ff003f7fec6ae9
:040100003f7fec430e
:040101003f7fec1b35
:040102003f7febf45c
:040103003f7febcc83
:040104003f7feba4aa
:040105003f7feb7cd1
:040106003f7feb53f9
:040107003f7feb2b20
:040108003f7feb0248
:040109003f7feada70
:04010a003f7feab198
:04010b003f7fea87c1
:04010c003f7fea5ee9
:04010d003f7fea3511
:04010e003f7fea0b3a
:04010f003f7fe9e263
:040110003f7fe9b88c
:040111003f7fe98eb5
:040112003f7fe964de
:040113003f7fe93908
:040114003f7fe90f31
:040115003f7fe8e45c
:040116003f7fe8b986
:040117003f7fe88eb0
:040118003f7fe863da
:040119003f7fe83804
:04011a003f7fe80d2e
:04011b003f7fe7e15a
:04011c003f7fe7b585
:04011d003f7fe789b0
:04011e003f7fe75ddb
:04011f003f7fe73106
:040120003f7fe70531
:040121003f7fe6d85e
:040122003f7fe6ac89
:040123003f7fe67fb5
:040124003f7fe652e1
:040125003f7fe6250d
:040126003f7fe5f83a
:040127003f7fe5ca67
:040128003f7fe59d93
:040129003f7fe56fc0
:04012a003f7fe541ed
:04012b003f7fe5131a
:04012c003f7fe4e548
:04012d003f7fe4b775
:04012e003f7fe488a3
:04012f003f7fe459d1
:040130003f7fe42bfe
:040131003f7fe3fc2d
:040132003f7fe3cd5b
:040133003f7fe39d8a
:040134003f7fe36eb8
:040135003f7fe33ee7
:040136003f7fe30f15
:040137003f7fe2df45
:040138003f7fe2af74
:040139003f7fe27fa3
:04013a003f7fe24ed3
:04013b003f7fe21e02
:04013c003f7fe1ed33
:04013d003f7fe1bc63
:04013e003f7fe18b93
:04013f003f7fe15ac3
:040140003f7fe129f3
:040141003f7fe0f824
:040142003f7fe0c655
:040143003f7fe09486
:040144003f7fe062b7
:040145003f7fe030e8
:040146003f7fdffe1a
:040147003f7fdfcc4b
:040148003f7fdf997d
:040149003f7fdf67ae
:04014a003f7fdf34e0
:04014b003f7fdf0112
:04014c003f7fdece45
:04014d003f7fde9a78
:04014e003f7fde67aa
:04014f003f7fde33dd
:040150003f7fde000f
:040151003f7fddcc43
:040152003f7fdd9876
:040153003f7fdd64a9
:040154003f7fdd2fdd
:040155003f7fdcfb11
:040156003f7fdcc645
:040157003f7fdc9179
:040158003f7fdc5cad
:040159003f7fdc27e1
:04015a003f7fdbf216
:04015b003f7fdbbd4a
:04015c003f7fdb877f
:04015d003f7fdb51b4
:04015e003f7fdb1be9
:04015f003f7fdae51f
:040160003f7fdaaf54
:040161003f7fda7989
:040162003f7fda42bf
:040163003f7fda0cf4
:040164003f7fd9d52b
:040165003f7fd99e61
:040166003f7fd96797
:040167003f7fd92fce
:040168003f7fd8f805
:040169003f7fd8c03c
:04016a003f7fd88972
:04016b003f7fd851a9
:04016c003f7fd819e0
:04016d003f7fd7e118
:04016e003f7fd7a850
:04016f003f7fd77087
:040170003f7fd737bf
:040171003f7fd6fef8
:040172003f7fd6c530
:040173003f7fd68c68
:040174003f7fd653a0
:040175003f7fd619d9
:040176003f7fd5e012
:040177003f7fd5a64b
:040178003f7fd56c84
:040179003f7fd532bd
:04017a003f7fd4f8f7
:04017b003f7fd4be30
:04017c003f7fd4836a
:04017d003f7fd448a4
:04017e003f7fd40edd
:04017f003f7fd3d318
:040180003f7fd39753
:040181003f7fd35c8d
:040182003f7fd321c7
:040183003f7fd2e503
:040184003f7fd2a93e
:040185003f7fd26e78
:040186003f7fd232b3
:040187003f7fd1f5f0
:040188003f7fd1b92b
:040189003f7fd17c67
:04018a003f7fd140a2
:04018b003f7fd103de
:04018c003f7fd0c61b
:04018d003f7fd08957
:04018e003f7fd04c93
:04018f003f7fd00ed0
:040190003f7fcfd10d
:040191003f7fcf934a
:040192003f7fcf5587
:040193003f7fcf17c4
:040194003f7fced902
:040195003f7fce9a40
:040196003f7fce5c7d
:040197003f7fce1dbb
:040198003f7fcddefa
:040199003f7fcd9f38
:04019a003f7fcd6076
:04019b003f7fcd21b4
:04019c003f7fcce1f4
:04019d003f7fcca232
:04019e003f7fcc6271
:04019f003f7fcc22b0
:0401a0003f7fcbe2f0
:0401a1003f7fcba22f
:0401a2003f7fcb616f
:0401a3003f7fcb21ae
:0401a4003f7fcae0ef
:0401a5003f7fca9f2f
:0401a6003f7fca5e6f
:0401a7003f7fca1daf
:0401a8003f7fc9dcf0
:0401a9003f7fc99b30
:0401aa003f7fc95971
:0401ab003f7fc917b2
:0401ac003f7fc8d5f4
:0401ad003f7fc89335
:0401ae003f7fc85176
:0401af003f7fc80fb7
:0401b0003f7fc7ccfa
:0401b1003f7fc7893c
:0401b2003f7fc7477d
:0401b3003f7fc704bf
:0401b4003f7fc6c102
:0401b5003f7fc67d45
:0401b6003f7fc63a87
:0401b7003f7fc5f6cb
:0401b8003f7fc5b20e
:0401b9003f7fc56f50
:0401ba003f7fc52a94
:0401bb003f7fc4e6d8
:0401bc003f7fc4a21b
:0401bd003f7fc45d5f
:0401be003f7fc419a2
:0401bf003f7fc3d4e7
:0401c0003f7fc38f2b
:0401c1003f7fc34a6f
:0401c2003f7fc304b4
:0401c3003f7fc2bff9
:0401c4003f7fc2793e
:0401c5003f7fc23482
:0401c6003f7fc1eec8
:0401c7003f7fc1a80d
:0401c8003f7fc16153
:0401c9003f7fc11b98
:0401ca003f7fc0d4df
:0401cb003f7fc08e24
:0401cc003f7fc0476a
:0401cd003f7fc000b0
:0401ce003f7fbfb9f7
:0401cf003f7fbf723d
:0401d0003f7fbf2a84
:0401d1003f7fbee2cc
:0401d2003f7fbe9b12
:0401d3003f7fbe5359
:0401d4003f7fbe0ba0
:0401d5003f7fbdc2e9
:0401d6003f7fbd7a30
:0401d7003f7fbd3277
:0401d8003f7fbce9c0
:0401d9003f7fbca008
:0401da003f7fbc5750
:0401db003f7fbc0e98
:0401dc003f7fbbc5e1
:0401dd003f7fbb7b2a
:0401de003f7fbb3272
:0401df003f7fbae8bc
:0401e0003f7fba9e05
:0401e1003f7fba544e
:0401e2003f7fba0a97
:0401e3003f7fb9bfe2
:0401e4003f7fb9752b
:0401e5003f7fb92a75
:0401e6003f7fb8dfc0
:0401e7003f7fb8940a
:0401e8003f7fb84954
:0401e9003f7fb7fe9f
:0401ea003f7fb7b2ea
:0401eb003f7fb76734
:0401ec003f7fb71b7f
:0401ed003f7fb6cfcb
:0401ee003f7fb68316
:0401ef003f7fb63761
:0401f0003f7fb5eaae
:0401f1003f7fb59ef9
:0401f2003f7fb55145
:0401f3003f7fb50491
:0401f4003f7fb4b7de
:0401f5003f7fb46a2a
:0401f6003f7fb41d76
:0401f7003f7fb3cfc4
:0401f8003f7fb38210
:0401f9003f7fb3345d
:0401fa003f7fb2e6ab
:0401fb003f7fb298f8
:0401fc003f7fb24a45
:0401fd003f7fb1fb94
:0401fe003f7fb1ade1
:0401ff003f7fb15e2f
:040200003f7fb10f7c
:040201003f7fb0c0cb
:040202003f7fb07119
:040203003f7fb02267
:040204003f7fafd2b7
:040205003f7faf8305
:040206003f7faf3354
:040207003f7faee3a4
:040208003f7fae93f3
:040209003f7fae4342
:04020a003f7fadf293
:04020b003f7fada2e2
:04020c003f7fad5132
:04020d003f7fad0082
:04020e003f7facafd3
:04020f003f7fac5e23
:040210003f7fac0d73
:040211003f7fabbbc5
:040212003f7fab6a15
:040213003f7fab1866
:040214003f7faac6b8
:040215003f7faa7409
:040216003f7faa215b
:040217003f7fa9cfad
:040218003f7fa97dfe
:040219003f7fa92a50
:04021a003f7fa8d7a3
:04021b003f7fa884f5
:04021c003f7fa83147
:04021d003f7fa7de9a
:04021e003f7fa78aed
:04021f003f7fa73640
:040220003f7fa6e393
:040221003f7fa68fe6
:040222003f7fa63b39
:040223003f7fa5e68e
:040224003f7fa592e1
:040225003f7fa53d35
:040226003f7fa4e989
:040227003f7fa494dd
:040228003f7fa43f31
:040229003f7fa3ea86
:04022a003f7fa394db
:04022b003f7fa33f2f
:04022c003f7fa2e985
:04022d003f7fa294d9
:04022e003f7fa23e2e
:04022f003f7fa1e884
:040230003f7fa191da
:040231003f7fa13b2f
:040232003f7fa0e486
:040233003f7fa08edb
:040234003f7fa03731
:040235003f7f9fe088
:040236003f7f9f89de
:040237003f7f9f3135
:040238003f7f9eda8c
:040239003f7f9e82e3
:04023a003f7f9e2a3a
:04023b003f7f9dd292
:04023c003f7f9d7ae9
:04023d003f7f9d2240
:04023e003f7f9cca98
:04023f003f7f9c71f0
:040240003f7f9c1848
:040241003f7f9bc0a0
:040242003f7f9b67f8
:040243003f7f9b0d51
:040244003f7f9ab4aa
:040245003f7f9a5b02
:040246003f7f9a015b
:040247003f7f99a7b5
:040248003f7f994d0e
:040249003f7f98f368
:04024a003f7f9899c1
:04024b003f7f983f1a
:04024c003f7f97e475
:04024d003f7f9789cf
:04024e003f7f972e29
:04024f003f7f96d384
:040250003f7f9678de
:040251003f7f961d38
:040252003f7f95c194
:040253003f7f9566ee
:040254003f7f950a49
:040255003f7f94aea5
:040256003f7f945200
:040257003f7f93f65c
:040258003f7f9399b8
:040259003f7f933d13
:04025a003f7f92e070
:04025b003f7f9283cc
:04025c003f7f922628
:04025d003f7f91c985
:04025e003f7f916ce1
:04025f003f7f910e3e
:040260003f7f90b19b
:040261003f7f9053f8
:040262003f7f8ff556
:040263003f7f8f97b3
:040264003f7f8f3910
:040265003f7f8eda6f
:040266003f7f8e7ccc
:040267003f7f8e1d2a
:040268003f7f8dbe89
:040269003f7f8d5fe7
:04026a003f7f8d0045
:04026b003f7f8ca1a4
:04026c003f7f8c4103
:04026d003f7f8be163
:04026e003f7f8b82c1
:04026f003f7f8b2220
:040270003f7f8ac280
:040271003f7f8a61e0
:040272003f7f8a013f
:040273003f7f89a0a0
:040274003f7f8940ff
:040275003f7f88df60
:040276003f7f887ec0
:040277003f7f881d20
:040278003f7f87bb82
:040279003f7f875ae2
:04027a003f7f86f844
:04027b003f7f8696a5
:04027c003f7f863406
:04027d003f7f85d268
:04027e003f7f8570c9
:04027f003f7f850e2a
:040280003f7f84ab8d
:040281003f7f8448ef
:040282003f7f83e651
:040283003f7f8383b3
:040284003f7f831f16
:040285003f7f82bc79
:040286003f7f8259db
:040287003f7f81f53f
:040288003f7f8191a2
:040289003f7f812d05
:04028a003f7f80c969
:04028b003f7f8065cc
:04028c003f7f800030
:04028d003f7f7f9c94
:04028e003f7f7f37f8
:04028f003f7f7ed25d
:040290003f7f7e6dc1
:040291003f7f7e0825
:040292003f7f7da38a
:040293003f7f7d3def
:040294003f7f7cd854
:040295003f7f7c72b9
:040296003f7f7c0c1e
:040297003f7f7ba684
:040298003f7f7b40e9
:040299003f7f7ad950
:04029a003f7f7a73b5
:04029b003f7f7a0c1b
:04029c003f7f79a582
:04029d003f7f793ee8
:04029e003f7f78d74f
:04029f003f7f7870b5
:0402a0003f7f78081c
:0402a1003f7f77a084
:0402a2003f7f7739ea
:0402a3003f7f76d152
:0402a4003f7f7669b9
:0402a5003f7f760021
:0402a6003f7f759889
:0402a7003f7f752ff1
:0402a8003f7f74c759
:0402a9003f7f745ec1
:0402aa003f7f73f52a
:0402ab003f7f738c92
:0402ac003f7f7322fb
:0402ad003f7f72b964
:0402ae003f7f724fcd
:0402af003f7f71e537
:0402b0003f7f717ba0
:0402b1003f7f711109
:0402b2003f7f70a773
:0402b3003f7f703ddc
:0402b4003f7f6fd247
:0402b5003f7f6f67b1
:0402b6003f7f6efd1b
:0402b7003f7f6e9285
:0402b8003f7f6e26f0
:0402b9003f7f6dbb5b
:0402ba003f7f6d50c5
:0402bb003f7f6ce431
:0402bc003f7f6c789c
:0402bd003f7f6c0c07
:0402be003f7f6ba073
:0402bf003f7f6b34de
:0402c0003f7f6ac74b
:0402c1003f7f6a5bb6
:0402c2003f7f69ee23
:0402c3003f7f69818f
:0402c4003f7f6914fb
:0402c5003f7f68a768
:0402c6003f7f683ad4
:0402c7003f7f67cc42
:0402c8003f7f675fae
:0402c9003f7f66f11c
:0402ca003f7f668389
:0402cb003f7f6615f6
:0402cc003f7f65a764
:0402cd003f7f6538d2
:0402ce003f7f64ca40
:0402cf003f7f645bae
:0402d0003f7f63ec1d
:0402d1003f7f637d8b
:0402d2003f7f630ef9
:0402d3003f7f629e69
:0402d4003f7f622fd7
:0402d5003f7f61bf47
:0402d6003f7f6150b5
:0402d7003f7f60e025
:0402d8003f7f606f95
:0402d9003f7f5fff05
:0402da003f7f5f8f74
:0402db003f7f5f1ee4
:0402dc003f7f5eae54
:0402dd003f7f5e3dc4
:0402de003f7f5dcc35
:0402df003f7f5d5aa6
:0402e0003f7f5ce917
:0402e1003f7f5c7887
:0402e2003f7f5c06f8
:0402e3003f7f5b946a
:0402e4003f7f5b22db
:0402e5003f7f5ab04d
:0402e6003f7f5a3ebe
:0402e7003f7f59cc30
:0402e8003f7f5959a2
:0402e9003f7f58e615
:0402ea003f7f587387
:0402eb003f7f5800f9
:0402ec003f7f578d6c
:0402ed003f7f571ade
:0402ee003f7f56a652
:0402ef003f7f5633c4
:0402f0003f7f55bf38
:0402f1003f7f554bab
:0402f2003f7f54d71f
:0402f3003f7f546392
:0402f4003f7f53ee07
:0402f5003f7f537a7a
:0402f6003f7f5305ee
:0402f7003f7f529063
:0402f8003f7f521bd7
:0402f9003f7f51a64c
:0402fa003f7f5131c0
:0402fb003f7f50bb36
:0402fc003f7f5045ab
:0402fd003f7f4fd020
:0402fe003f7f4f5a95
:0402ff003f7f4ee40b
:040300003f7f4e6d80
:040301003f7f4df7f6
:040302003f7f4d806c
:040303003f7f4d0ae1
:040304003f7f4c9358
:040305003f7f4c1cce
:040306003f7f4ba545
:040307003f7f4b2dbc
:040308003f7f4ab633
:040309003f7f4a3eaa
:04030a003f7f49c622
:04030b003f7f494e99
:04030c003f7f48d611
:04030d003f7f485e88
:04030e003f7f47e600
:04030f003f7f476d78
:040310003f7f46f4f1
:040311003f7f467c68
:040312003f7f4603e0
:040313003f7f45895a
:040314003f7f4510d2
:040315003f7f44974b
:040316003f7f441dc4
:040317003f7f43a33e
:040318003f7f4329b7
:040319003f7f42af31
:04031a003f7f4235aa
:04031b003f7f41ba25
:04031c003f7f41409e
:04031d003f7f40c519
:04031e003f7f404a93
:04031f003f7f3fcf0e
:040320003f7f3f5488
:040321003f7f3ed903
:040322003f7f3e5d7e
:040323003f7f3de2f9
:040324003f7f3d6674
:040325003f7f3ceaf0
:040326003f7f3c6e6b
:040327003f7f3bf2e7
:040328003f7f3b7563
:040329003f7f3af9df
:04032a003f7f3a7c5b
:04032b003f7f39ffd8
:04032c003f7f398254
:04032d003f7f3905d0
:04032e003f7f38884d
:04032f003f7f380aca
:040330003f7f378c48
:040331003f7f370fc4
:040332003f7f369142
:040333003f7f3613bf
:040334003f7f35943e
:040335003f7f3516bb
:040336003f7f34973a
:040337003f7f3419b7
:040338003f7f339a36
:040339003f7f331bb4
:04033a003f7f329c33
:04033b003f7f321cb2
:04033c003f7f319d31
:04033d003f7f311db0
:04033e003f7f309e2f
:04033f003f7f301eae
:040340003f7f2f9d2f
:040341003f7f2f1dae
:040342003f7f2e9d2e
:040343003f7f2e1cae
:040344003f7f2d9c2e
:040345003f7f2d1bae
:040346003f7f2c9a2f
:040347003f7f2c19af
:040348003f7f2b9731
:040349003f7f2b16b1
:04034a003f7f2a9433
:04034b003f7f2a12b4
:04034c003f7f299036
:04034d003f7f290eb7
:04034e003f7f288c39
:04034f003f7f280aba
:040350003f7f27873d
:040351003f7f2704bf
:040352003f7f268241
:040353003f7f25ffc4
:040354003f7f257b47
:040355003f7f24f8ca
:040356003f7f24754c
:040357003f7f23f1d0
:040358003f7f236d53
:040359003f7f22e9d7
:04035a003f7f22655a
:04035b003f7f21e1de
:04035c003f7f215c62
:04035d003f7f20d8e6
:04035e003f7f20536a
:04035f003f7f1fceef
:040360003f7f1f4973
:040361003f7f1ec4f8
:040362003f7f1e3f7c
:040363003f7f1db902
:040364003f7f1d3486
:040365003f7f1cae0c
:040366003f7f1c2891
:040367003f7f1ba217
:040368003f7f1b1c9c
:040369003f7f1a9523
:04036a003f7f1a0fa8
:04036b003f7f19882f
:04036c003f7f1901b5
:04036d003f7f187a3c
:04036e003f7f17f3c3
:04036f003f7f176c49
:040370003f7f16e4d1
:040371003f7f165d57
:040372003f7f15d5df
:040373003f7f154d66
:040374003f7f14c5ee
:040375003f7f143d75
:040376003f7f13b4fe
:040377003f7f132c85
:040378003f7f12a30e
:040379003f7f121a96
:04037a003f7f11911f
:04037b003f7f1108a7
:04037c003f7f107f30
:04037d003f7f0ff5ba
:04037e003f7f0f6c42
:04037f003f7f0ee2cc
:040380003f7f0e5855
:040381003f7f0dcedf
:040382003f7f0d4468
:040383003f7f0cb9f3
:040384003f7f0c2f7c
:040385003f7f0ba407
:040386003f7f0b1991
:040387003f7f0a8e1c
:040388003f7f0a03a6
:040389003f7f097831
:04038a003f7f08ecbd
:04038b003f7f086147
:04038c003f7f07d5d3
:04038d003f7f07495e
:04038e003f7f06bdea
:04038f003f7f063175
:040390003f7f05a402
:040391003f7f05188d
:040392003f7f048b1a
:040393003f7f03fea7
:040394003f7f037133
:040395003f7f02e4c0
:040396003f7f02574c
:040397003f7f01c9da
:040398003f7f013c66
:040399003f7f00aef4
:04039a003f7f002081
:04039b003f7eff9210
:04039c003f7eff049d
:04039d003f7efe752c
:04039e003f7efde7ba
:04039f003f7efd5848
:0403a0003f7efcc9d7
:0403a1003f7efc3a65
:0403a2003f7efbabf4
:0403a3003f7efb1c82
:0403a4003f7efa8c12
:0403a5003f7ef9fda1
:0403a6003f7ef96d30
:0403a7003f7ef8ddc0
:0403a8003f7ef84d4f
:0403a9003f7ef7bddf
:0403aa003f7ef72c6f
:0403ab003f7ef69cff
:0403ac003f7ef60b8f
:0403ad003f7ef57a20
:0403ae003f7ef4e9b1
:0403af003f7ef45841
:0403b0003f7ef3c7d2
:0403b1003f7ef33563
:0403b2003f7ef2a4f4
:0403b3003f7ef21285
:0403b4003f7ef18017
:0403b5003f7ef0eea9
:0403b6003f7ef05c3a
:0403b7003f7eefc9cd
:0403b8003f7eef375e
:0403b9003f7eeea4f1
:0403ba003f7eee1183
:0403bb003f7eed7e16
:0403bc003f7eeceba9
:0403bd003f7eec583b
:0403be003f7eebc4cf
:0403bf003f7eeb3161
:0403c0003f7eea9df5
:0403c1003f7eea0988
:0403c2003f7ee9751c
:0403c3003f7ee8e1b0
:0403c4003f7ee84c44
:0403c5003f7ee7b8d8
:0403c6003f7ee7236c
:0403c7003f7ee68e01
:0403c8003f7ee5f996
:0403c9003f7ee5642a
:0403ca003f7ee4cfbf
:0403cb003f7ee43a53
:0403cc003f7ee3a4e9
:0403cd003f7ee30e7e
:0403ce003f7ee27814
:0403cf003f7ee1e2aa
:0403d0003f7ee14c3f
:0403d1003f7ee0b6d5
:0403d2003f7ee01f6b
:0403d3003f7edf8802
:0403d4003f7edef298
:0403d5003f7ede5b2e
:0403d6003f7eddc3c6
:0403d7003f7edd2c5c
:0403d8003f7edc95f3
:0403d9003f7edbfd8b
:0403da003f7edb6522
:0403db003f7edacdba
:0403dc003f7eda3551
:0403dd003f7ed99de9
:0403de003f7ed90580
:0403df003f7ed86c19
:0403e0003f7ed7d4b1
:0403e1003f7ed73b49
:0403e2003f7ed6a2e2
:0403e3003f7ed6097a
:0403e4003f7ed56f14
:0403e5003f7ed4d6ad
:0403e6003f7ed43c46
:0403e7003f7ed3a3df
:0403e8003f7ed30978
:0403e9003f7ed26f12
:0403ea003f7ed1d4ad
:0403eb003f7ed13a46
:0403ec003f7ed0a0e0
:0403ed003f7ed0057a
:0403ee003f7ecf6a15
:0403ef003f7ececfb0
:0403f0003f7ece344a
:0403f1003f7ecd99e5
:0403f2003f7eccfd81
:0403f3003f7ecc621b
:0403f4003f7ecbc6b7
:0403f5003f7ecb2a52
:0403f6003f7eca8eee
:0403f7003f7ec9f28a
:0403f8003f7ec95526
:0403f9003f7ec8b9c2
:0403fa003f7ec81c5e
:0403fb003f7ec780fa
:0403fc003f7ec6e397
:0403fd003f7ec64534
:0403fe003f7ec5a8d1
:0403ff003f7ec50b6d
:040400003f7ec46d0a
:040401003f7ec3cfa8
:040402003f7ec33145
:040403003f7ec293e3
:040404003f7ec1f581
:040405003f7ec1571e
:040406003f7ec0b8bd
:040407003f7ec01a5a
:040408003f7ebf7bf9
:040409003f7ebedc98
:04040a003f7ebe3d36
:04040b003f7ebd9ed5
:04040c003f7ebcfe75
:04040d003f7ebc5f13
:04040e003f7ebbbfb3
:04040f003f7ebb1f52
:040410003f7eba7ff2
:040411003f7eb9df92
:040412003f7eb93e32
:040413003f7eb89ed2
:040414003f7eb7fd73
:040415003f7eb75c13
:040416003f7eb6bbb4
:040417003f7eb61a54
:040418003f7eb579f5
:040419003f7eb4d896
:04041a003f7eb43637
:04041b003f7eb394d9
:04041c003f7eb2f27b
:04041d003f7eb2501c
:04041e003f7eb1aebe
:04041f003f7eb10c5f
:040420003f7eb06902
:040421003f7eafc7a4
:040422003f7eaf2446
:040423003f7eae81e9
:040424003f7eadde8c
:040425003f7ead3b2e
:040426003f7eac97d2
:040427003f7eabf475
:040428003f7eab5018
:040429003f7eaaacbc
:04042a003f7eaa085f
:04042b003f7ea96403
:04042c003f7ea8c0a7
:04042d003f7ea81b4b
:04042e003f7ea776f0
:04042f003f7ea6d294
:040430003f7ea62d38
:040431003f7ea588dd
:040432003f7ea4e283
:040433003f7ea43d27
:040434003f7ea397cd
:040435003f7ea2f272
:040436003f7ea24c17
:040437003f7ea1a6bd
:040438003f7ea10062
:040439003f7ea05909
:04043a003f7e9fb3af
:04043b003f7e9f0c55
:04043c003f7e9e65fc
:04043d003f7e9dbea3
:04043e003f7e9d1749
:04043f003f7e9c70f0
:040440003f7e9bc997
:040441003f7e9b213e
:040442003f7e9a79e6
:040443003f7e99d28d
:040444003f7e992935
:040445003f7e9881dd
:040446003f7e97d985
:040447003f7e97312c
:040448003f7e9688d5
:040449003f7e95df7e
:04044a003f7e953626
:04044b003f7e948dcf
:04044c003f7e93e478
:04044d003f7e933a21
:04044e003f7e9291ca
:04044f003f7e91e774
:040450003f7e913d1d
:040451003f7e9093c7
:040452003f7e8fe971
:040453003f7e8f3f1a
:040454003f7e8e94c5
:040455003f7e8dea6f
:040456003f7e8d3f19
:040457003f7e8c94c4
:040458003f7e8be96f
:040459003f7e8b3e19
:04045a003f7e8a92c5
:04045b003f7e89e770
:04045c003f7e893b1b
:04045d003f7e888fc7
:04045e003f7e87e373
:04045f003f7e87371e
:040460003f7e868bca
:040461003f7e85de77
:040462003f7e853222
:040463003f7e8485cf
:040464003f7e83d87c
:040465003f7e832b28
:040466003f7e827ed5
:040467003f7e81d083
:040468003f7e81232f
:040469003f7e8075dd
:04046a003f7e7fc78b
:04046b003f7e7f1938
:04046c003f7e7e6be6
:04046d003f7e7dbd94
:04046e003f7e7d0e42
:04046f003f7e7c60f0
:040470003f7e7bb19f
:040471003f7e7b024d
:040472003f7e7a53fc
:040473003f7e79a4ab
:040474003f7e78f45b
:040475003f7e784509
:040476003f7e7795b9
:040477003f7e76e569
:040478003f7e763518
:040479003f7e7585c8
:04047a003f7e74d578
:04047b003f7e742428
:04047c003f7e7374d8
:04047d003f7e72c389
:04047e003f7e721239
:04047f003f7e7161ea
:040480003f7e70b09b
:040481003f7e6fff4c
:040482003f7e6f4dfd
:040483003f7e6e9baf
:040484003f7e6dea60
:040485003f7e6d3811
:040486003f7e6c85c4
:040487003f7e6bd376
:040488003f7e6b2127
:040489003f7e6a6eda
:04048a003f7e69bb8d
:04048b003f7e69083f
:04048c003f7e6855f2
:04048d003f7e67a2a5
:04048e003f7e66ef58
:04048f003f7e663b0b
:040490003f7e6588be
:040491003f7e64d472
:040492003f7e642025
:040493003f7e636cd9
:040494003f7e62b78e
:040495003f7e620341
:040496003f7e614ef6
:040497003f7e609aaa
:040498003f7e5fe55f
:040499003f7e5f3013
:04049a003f7e5e7bc8
:04049b003f7e5dc57e
:04049c003f7e5d1032
:04049d003f7e5c5ae8
:04049e003f7e5ba49e
:04049f003f7e5aee54
:0404a0003f7e5a3809
:0404a1003f7e5982bf
:0404a2003f7e58cb76
:0404a3003f7e58152b
:0404a4003f7e575ee2
:0404a5003f7e56a799
:0404a6003f7e55f050
:0404a7003f7e553906
:0404a8003f7e5482bd
:0404a9003f7e53ca75
:0404aa003f7e53122c
:0404ab003f7e525be3
:0404ac003f7e51a39b
:0404ad003f7e50eb53
:0404ae003f7e50320b
:0404af003f7e4f7ac3
:0404b0003f7e4ec17c
:0404b1003f7e4e0933
:0404b2003f7e4d50ec
:0404b3003f7e4c97a5
:0404b4003f7e4bde5e
:0404b5003f7e4b2417
:0404b6003f7e4a6bd0
:0404b7003f7e49b18a
:0404b8003f7e48f744
:0404b9003f7e483dfd
:0404ba003f7e4783b7
:0404bb003f7e46c971
:0404bc003f7e460f2a
:0404bd003f7e4554e5
:0404be003f7e4499a0
:0404bf003f7e43de5b
:0404c0003f7e432315
:0404c1003f7e4268d0
:0404c2003f7e41ad8b
:0404c3003f7e40f147
:0404c4003f7e403601
:0404c5003f7e3f7abd
:0404c6003f7e3ebe79
:0404c7003f7e3e0234
:0404c8003f7e3d46f0
:0404c9003f7e3c89ad
:0404ca003f7e3bcd69
:0404cb003f7e3b1025
:0404cc003f7e3a53e2
:0404cd003f7e39969f
:0404ce003f7e38d95c
:0404cf003f7e381c18
:0404d0003f7e375ed6
:0404d1003f7e36a193
:0404d2003f7e35e351
:0404d3003f7e35250e
:0404d4003f7e3467cc
:0404d5003f7e33a98a
:0404d6003f7e32ea49
:0404d7003f7e322c06
:0404d8003f7e316dc5
:0404d9003f7e30ae84
:0404da003f7e2fef43
:0404db003f7e2f3001
:0404dc003f7e2e71c0
:0404dd003f7e2db180
:0404de003f7e2cf23f
:0404df003f7e2c32fe
:0404e0003f7e2b72be
:0404e1003f7e2ab27e
:0404e2003f7e29f23e
:0404e3003f7e2931fe
:0404e4003f7e2871be
:0404e5003f7e27b07f
:0404e6003f7e26ef40
:0404e7003f7e262e00
:0404e8003f7e256dc1
:0404e9003f7e24ac82
:0404ea003f7e23ea44
:0404eb003f7e232904
:0404ec003f7e2267c6
:0404ed003f7e21a588
:0404ee003f7e20e34a
:0404ef003f7e20210b
:0404f0003f7e1f5ece
:0404f1003f7e1e9c90
:0404f2003f7e1dd953
:0404f3003f7e1d1615
:0404f4003f7e1c53d8
:0404f5003f7e1b909b
:0404f6003f7e1acd5e
:0404f7003f7e1a0921
:0404f8003f7e1946e4
:0404f9003f7e1882a8
:0404fa003f7e17be6c
:0404fb003f7e16fa30
:0404fc003f7e1636f3
:0404fd003f7e1572b7
:0404fe003f7e14ad7c
:0404ff003f7e13e841
:040500003f7e132403
:040501003f7e125fc8
:040502003f7e11998e
:040503003f7e10d453
:040504003f7e100f17
:040505003f7e0f49dd
:040506003f7e0e83a3
:040507003f7e0dbd69
:040508003f7e0cf72f
:040509003f7e0c31f4
:04050a003f7e0b6bba
:04050b003f7e0aa481
:04050c003f7e09de47
:04050d003f7e09170d
:04050e003f7e0850d4
:04050f003f7e07899b
:040510003f7e06c262
:040511003f7e05fa2a
:040512003f7e0533f0
:040513003f7e046bb8
:040514003f7e03a380
:040515003f7e02db48
:040516003f7e02130f
:040517003f7e014ad8
:040518003f7e0082a0
:040519003f7dffb96a
:04051a003f7dfef033
:04051b003f7dfe28fa
:04051c003f7dfd5ec4
:04051d003f7dfc958d
:04051e003f7dfbcc56
:04051f003f7dfb021f
:040520003f7dfa38e9
:040521003f7df96fb2
:040522003f7df8a57c
:040523003f7df7da47
:040524003f7df71010
:040525003f7df646da
:040526003f7df57ba5
:040527003f7df4b070
:040528003f7df3e53b
:040529003f7df31a05
:04052a003f7df24fd0
:04052b003f7df1839c
:04052c003f7df0b867
:04052d003f7defec33
:04052e003f7def20fe
:04052f003f7dee54ca
:040530003f7ded8896
:040531003f7decbc62
:040532003f7debef2f
:040533003f7deb23fa
:040534003f7dea56c7
:040535003f7de98994
:040536003f7de8bc61
:040537003f7de7ef2e
:040538003f7de721fb
:040539003f7de654c8
:04053a003f7de58696
:04053b003f7de4b864
:04053c003f7de3ea32
:04053d003f7de31cff
:04053e003f7de24ecd
:04053f003f7de17f9c
:040540003f7de0b16a
:040541003f7ddfe239
:040542003f7ddf1307
:040543003f7dde44d6
:040544003f7ddd75a5
:040545003f7ddca575
:040546003f7ddbd644
:040547003f7ddb0613
:040548003f7dda36e3
:040549003f7dd966b3
:04054a003f7dd89683
:04054b003f7dd7c653
:04054c003f7dd6f524
:04054d003f7dd625f3
:04054e003f7dd554c4
:04054f003f7dd48395
:040550003f7dd3b266
:040551003f7dd2e137
:040552003f7dd21007
:040553003f7dd13ed9
:040554003f7dd06cab
:040555003f7dcf9b7c
:040556003f7dcec94e
:040557003f7dcdf621
:040558003f7dcd24f2
:040559003f7dcc52c4
:04055a003f7dcb7f97
:04055b003f7dcaac6a
:04055c003f7dc9da3c
:04055d003f7dc9060f
:04055e003f7dc833e2
:04055f003f7dc760b5
:040560003f7dc68c89
:040561003f7dc5b95c
:040562003f7dc4e530
:040563003f7dc41103
:040564003f7dc33dd7
:040565003f7dc269ab
:040566003f7dc19480
:040567003f7dc0c054
:040568003f7dbfeb29
:040569003f7dbf16fd
:04056a003f7dbe41d2
:04056b003f7dbd6ca7
:04056c003f7dbc967d
:04056d003f7dbbc152
:04056e003f7dbaeb28
:04056f003f7dba15fd
:040570003f7db940d2
:040571003f7db869a9
:040572003f7db7937f
:040573003f7db6bd55
:040574003f7db5e62c
:040575003f7db51001
:040576003f7db439d8
:040577003f7db362af
:040578003f7db28a87
:040579003f7db1b35e
:04057a003f7db0dc35
:04057b003f7db0040c
:04057c003f7daf2ce4
:04057d003f7dae54bc
:04057e003f7dad7c94
:04057f003f7daca46c
:040580003f7dabcc44
:040581003f7daaf31d
:040582003f7daa1af5
:040583003f7da941ce
:040584003f7da868a7
:040585003f7da78f80
:040586003f7da6b659
:040587003f7da5dc33
:040588003f7da5030b
:040589003f7da429e5
:04058a003f7da34fbf
:04058b003f7da27599
:04058c003f7da19b73
:04058d003f7da0c04e
:04058e003f7d9fe628
:04058f003f7d9f0b02
:040590003f7d9e30dd
:040591003f7d9d55b8
:040592003f7d9c7a93
:040593003f7d9b9f6e
:040594003f7d9ac449
:040595003f7d99e825
:040596003f7d990c00
:040597003f7d9830dc
:040598003f7d9754b8
:040599003f7d967894
:04059a003f7d959c70
:04059b003f7d94bf4d
:04059c003f7d93e22a
:04059d003f7d930605
:04059e003f7d9229e2
:04059f003f7d914bc0
:0405a0003f7d906e9d
:0405a1003f7d8f917a
:0405a2003f7d8eb358
:0405a3003f7d8dd536
:0405a4003f7d8cf813
:0405a5003f7d8c19f1
:0405a6003f7d8b3bcf
:0405a7003f7d8a5dad
:0405a8003f7d897e8c
:0405a9003f7d88a06a
:0405aa003f7d87c149
:0405ab003f7d86e228
:0405ac003f7d860306
:0405ad003f7d8524e5
:0405ae003f7d8444c5
:0405af003f7d8365a4
:0405b0003f7d828584
:0405b1003f7d81a564
:0405b2003f7d80c544
:0405b3003f7d7fe524
:0405b4003f7d7f0404
:0405b5003f7d7e24e4
:0405b6003f7d7d43c5
:0405b7003f7d7c62a6
:0405b8003f7d7b8286
:0405b9003f7d7aa068
:0405ba003f7d79bf49
:0405bb003f7d78de2a
:0405bc003f7d77fc0c
:0405bd003f7d771bec
:0405be003f7d7639ce
:0405bf003f7d7557b0
:0405c0003f7d747493
:0405c1003f7d739275
:0405c2003f7d72b057
:0405c3003f7d71cd3a
:0405c4003f7d70ea1d
:0405c5003f7d7007ff
:0405c6003f7d6f24e2
:0405c7003f7d6e41c5
:0405c8003f7d6d5ea8
:0405c9003f7d6c7a8c
:0405ca003f7d6b9670
:0405cb003f7d6ab254
:0405cc003f7d69ce38
:0405cd003f7d68ea1c
:0405ce003f7d6806ff
:0405cf003f7d6722e3
:0405d0003f7d663dc8
:0405d1003f7d6558ad
:0405d2003f7d647392
:0405d3003f7d638e77
:0405d4003f7d62a95c
:0405d5003f7d61c441
:0405d6003f7d60de27
:0405d7003f7d5ff80d
:0405d8003f7d5f13f1
:0405d9003f7d5e2dd7
:0405da003f7d5d46be
:0405db003f7d5c60a4
:0405dc003f7d5b7a8a
:0405dd003f7d5a9371
:0405de003f7d59ac58
:0405df003f7d58c53f
:0405e0003f7d57de26
:0405e1003f7d56f70d
:0405e2003f7d5610f3
:0405e3003f7d5528db
:0405e4003f7d5441c2
:0405e5003f7d5359aa
:0405e6003f7d527192
:0405e7003f7d51897a
:0405e8003f7d50a063
:0405e9003f7d4fb84b
:0405ea003f7d4ecf34
:0405eb003f7d4de71c
:0405ec003f7d4cfe05
:0405ed003f7d4c15ed
:0405ee003f7d4b2cd6
:0405ef003f7d4a42c0
:0405f0003f7d4959a9
:0405f1003f7d486f93
:0405f2003f7d47857d
:0405f3003f7d469b67
:0405f4003f7d45b151
:0405f5003f7d44c73b
:0405f6003f7d43dc26
:0405f7003f7d42f210
:0405f8003f7d4207fa
:0405f9003f7d411ce5
:0405fa003f7d4031d0
:0405fb003f7d3f46bb
:0405fc003f7d3e5ba6
:0405fd003f7d3d6f92
:0405fe003f7d3c847d
:0405ff003f7d3b9869
:040600003f7d3aac54
:040601003f7d39c040
:040602003f7d38d42c
:040603003f7d37e719
:040604003f7d36fb05
:040605003f7d360ef1
:040606003f7d3521de
:040607003f7d3434cb
:040608003f7d3347b8
:040609003f7d325aa5
:04060a003f7d316c93
:04060b003f7d307f80
:04060c003f7d2f916e
:04060d003f7d2ea35c
:04060e003f7d2db54a
:04060f003f7d2cc738
:040610003f7d2bd827
:040611003f7d2aea15
:040612003f7d29fb04
:040613003f7d290cf2
:040614003f7d281de1
:040615003f7d272ed0
:040616003f7d263fbf
:040617003f7d254faf
:040618003f7d24609e
:040619003f7d23708e
:04061a003f7d22807e
:04061b003f7d21906e
:04061c003f7d20a05e
:04061d003f7d1faf4f
:04061e003f7d1ebf3f
:04061f003f7d1dce30
:040620003f7d1cdd21
:040621003f7d1bec12
:040622003f7d1afb03
:040623003f7d1a0af3
:040624003f7d1919e4
:040625003f7d1827d6
:040626003f7d1735c8
:040627003f7d1643ba
:040628003f7d1551ac
:040629003f7d145f9e
:04062a003f7d136d90
:04062b003f7d127a83
:04062c003f7d118875
:04062d003f7d109568
:04062e003f7d0fa25b
:04062f003f7d0eaf4e
:040630003f7d0dbc41
:040631003f7d0cc835
:040632003f7d0bd528
:040633003f7d0ae11c
:040634003f7d09ed10
:040635003f7d08f904
:040636003f7d0805f7
:040637003f7d0710ec
:040638003f7d061ce0
:040639003f7d0527d5
:04063a003f7d0433c9
:04063b003f7d033ebe
:04063c003f7d0249b3
:04063d003f7d0153a9
:04063e003f7d005e9e
:04063f003f7cff6895
:040640003f7cfe738a
:040641003f7cfd7d80
:040642003f7cfc8776
:040643003f7cfb916c
:040644003f7cfa9a63
:040645003f7cf9a459
:040646003f7cf8ad50
:040647003f7cf7b746
:040648003f7cf6c03d
:040649003f7cf5c934
:04064a003f7cf4d12c
:04064b003f7cf3da23
:04064c003f7cf2e21b
:04064d003f7cf1eb12
:04064e003f7cf0f30a
:04064f003f7ceffb02
:040650003f7cef03f9
:040651003f7cee0bf1
:040652003f7ced12ea
:040653003f7cec19e3
:040654003f7ceb21db
:040655003f7cea28d4
:040656003f7ce92fcd
:040657003f7ce836c6
:040658003f7ce73cc0
:040659003f7ce643b9
:04065a003f7ce549b3
:04065b003f7ce44fad
:04065c003f7ce355a7
:04065d003f7ce25ba1
:04065e003f7ce1619b
:04065f003f7ce06696
:040660003f7cdf6c90
:040661003f7cde718b
:040662003f7cdd7686
:040663003f7cdc7b81
:040664003f7cdb807c
:040665003f7cda8577
:040666003f7cd98973
:040667003f7cd88e6e
:040668003f7cd7926a
:040669003f7cd69666
:04066a003f7cd59a62
:04066b003f7cd49e5e
:04066c003f7cd3a15b
:04066d003f7cd2a557
:04066e003f7cd1a854
:04066f003f7cd0ab51
:040670003f7ccfae4e
:040671003f7cceb14b
:040672003f7ccdb448
:040673003f7cccb646
:040674003f7ccbb844
:040675003f7ccabb41
:040676003f7cc9bd3f
:040677003f7cc8bf3d
:040678003f7cc7c03c
:040679003f7cc6c23a
:04067a003f7cc5c438
:04067b003f7cc4c537
:04067c003f7cc3c636
:04067d003f7cc2c735
:04067e003f7cc1c834
:04067f003f7cc0c933
:040680003f7cbfc933
:040681003f7cbeca32
:040682003f7cbdca32
:040683003f7cbcca32
:040684003f7cbbca32
:040685003f7cbaca32
:040686003f7cb9c933
:040687003f7cb8c933
:040688003f7cb7c834
:040689003f7cb6c735
:04068a003f7cb5c636
:04068b003f7cb4c537
:04068c003f7cb3c438
:04068d003f7cb2c23a
:04068e003f7cb1c13b
:04068f003f7cb0bf3d
:040690003f7cafbd3f
:040691003f7caebb41
:040692003f7cadb943
:040693003f7cacb745
:040694003f7cabb448
:040695003f7caab24a
:040696003f7ca9af4d
:040697003f7ca8ac50
:040698003f7ca7a953
:040699003f7ca6a656
:04069a003f7ca5a25a
:04069b003f7ca49f5d
:04069c003f7ca39b61
:04069d003f7ca29765
:04069e003f7ca19369
:04069f003f7ca08f6d
:0406a0003f7c9f8a72
:0406a1003f7c9e8676
:0406a2003f7c9d817b
:0406a3003f7c9c7d7f
:0406a4003f7c9b7884
:0406a5003f7c9a7389
:0406a6003f7c996d8f
:0406a7003f7c986894
:0406a8003f7c97629a
:0406a9003f7c965d9f
:0406aa003f7c9557a5
:0406ab003f7c9451ab
:0406ac003f7c934bb1
:0406ad003f7c9245b7
:0406ae003f7c913ebe
:0406af003f7c9037c5
:0406b0003f7c8f31cb
:0406b1003f7c8e2ad2
:0406b2003f7c8d23d9
:0406b3003f7c8c1ce0
:0406b4003f7c8b14e8
:0406b5003f7c8a0def
:0406b6003f7c8905f7
:0406b7003f7c87fd00
:0406b8003f7c86f508
:0406b9003f7c85ed10
:0406ba003f7c84e518
:0406bb003f7c83dc21
:0406bc003f7c82d429
:0406bd003f7c81cb32
:0406be003f7c80c23b
:0406bf003f7c7fb944
:0406c0003f7c7eb04d
:0406c1003f7c7da756
:0406c2003f7c7c9d60
:0406c3003f7c7b9469
:0406c4003f7c7a8a73
:0406c5003f7c79807d
:0406c6003f7c787687
:0406c7003f7c776b92
:0406c8003f7c76619c
:0406c9003f7c7556a7
:0406ca003f7c744cb1
:0406cb003f7c7341bc
:0406cc003f7c7236c7
:0406cd003f7c712bd2
:0406ce003f7c701fde
:0406cf003f7c6f14e9
:0406d0003f7c6e08f5
:0406d1003f7c6cfd01
:0406d2003f7c6bf10d
:0406d3003f7c6ae519
:0406d4003f7c69d826
:0406d5003f7c68cc32
:0406d6003f7c67bf3f
:0406d7003f7c66b34b
:0406d8003f7c65a658
:0406d9003f7c649965
:0406da003f7c638c72
:0406db003f7c627e80
:0406dc003f7c61718d
:0406dd003f7c60639b
:0406de003f7c5f56a8
:0406df003f7c5e48b6
:0406e0003f7c5d3ac4
:0406e1003f7c5c2cd2
:0406e2003f7c5b1de1
:0406e3003f7c5a0fef
:0406e4003f7c5900fe
:0406e5003f7c57f10e
:0406e6003f7c56e21d
:0406e7003f7c55d32c
:0406e8003f7c54c43b
:0406e9003f7c53b44b
:0406ea003f7c52a55a
:0406eb003f7c51956a
:0406ec003f7c50857a
:0406ed003f7c4f758a
:0406ee003f7c4e659a
:0406ef003f7c4d55aa
:0406f0003f7c4c44bb
:0406f1003f7c4b34cb
:0406f2003f7c4a23dc
:0406f3003f7c4912ed
:0406f4003f7c4801fe
:0406f5003f7c46f010
:0406f6003f7c45de22
:0406f7003f7c44cd33
:0406f8003f7c43bb45
:0406f9003f7c42a957
:0406fa003f7c419769
:0406fb003f7c40857b
:0406fc003f7c3f738d
:0406fd003f7c3e60a0
:0406fe003f7c3d4eb2
:0406ff003f7c3c3bc5
:040700003f7c3b28d7
:040701003f7c3a15ea
:040702003f7c3902fd
:040703003f7c37ee12
:040704003f7c36db25
:040705003f7c35c739
:040706003f7c34b34d
:040707003f7c339f61
:040708003f7c328b75
:040709003f7c317789
:04070a003f7c30629e
:04070b003f7c2f4eb2
:04070c003f7c2e39c7
:04070d003f7c2d24dc
:04070e003f7c2c0ff1
:04070f003f7c2afa07
:040710003f7c29e51c
:040711003f7c28cf32
:040712003f7c27b948
:040713003f7c26a45d
:040714003f7c258e73
:040715003f7c247889
:040716003f7c2361a0
:040717003f7c224bb6
:040718003f7c2134cd
:040719003f7c201ee3
:04071a003f7c1f07fa
:04071b003f7c1df012
:04071c003f7c1cd929
:04071d003f7c1bc141
:04071e003f7c1aaa58
:04071f003f7c199270
:040720003f7c187a88
:040721003f7c1762a0
:040722003f7c164ab8
:040723003f7c1532d0
:040724003f7c141ae8
:040725003f7c130101
:040726003f7c11e81b
:040727003f7c10d033
:040728003f7c0fb74c
:040729003f7c0e9d66
:04072a003f7c0d847f
:04072b003f7c0c6b98
:04072c003f7c0b51b2
:04072d003f7c0a37cc
:04072e003f7c091ee5
:04072f003f7c080300
:040730003f7c06e91b
:040731003f7c05cf35
:040732003f7c04b450
:040733003f7c039a6a
:040734003f7c027f85
:040735003f7c0164a0
:040736003f7c0049bb
:040737003f7bff2ed7
:040738003f7bfe12f3
:040739003f7bfcf70f
:04073a003f7bfbdb2b
:04073b003f7bfabf47
:04073c003f7bf9a363
:04073d003f7bf8877f
:04073e003f7bf76a9c
:04073f003f7bf64eb8
:040740003f7bf531d5
:040741003f7bf415f1
:040742003f7bf2f80f
:040743003f7bf1da2d
:040744003f7bf0bd4a
:040745003f7befa067
:040746003f7bee8285
:040747003f7bed65a2
:040748003f7bec47c0
:040749003f7beb29de
:04074a003f7bea0bfc
:04074b003f7be8ec1c
:04074c003f7be7ce3a
:04074d003f7be6af59
:04074e003f7be59078
:04074f003f7be47296
:040750003f7be353b5
:040751003f7be233d5
:040752003f7be114f4
:040753003f7bdff415
:040754003f7bded534
:040755003f7bddb554
:040756003f7bdc9574
:040757003f7bdb7594
:040758003f7bda55b4
:040759003f7bd934d5
:04075a003f7bd814f5
:04075b003f7bd6f317
:04075c003f7bd5d238
:04075d003f7bd4b159
:04075e003f7bd3907a
:04075f003f7bd26e9c
:040760003f7bd14dbd
:040761003f7bd02bdf
:040762003f7bcf0901
:040763003f7bcde724
:040764003f7bccc546
:040765003f7bcba368
:040766003f7bca818a
:040767003f7bc95ead
:040768003f7bc83bd0
:040769003f7bc719f2
:04076a003f7bc5f616
:04076b003f7bc4d23a
:04076c003f7bc3af5d
:04076d003f7bc28c80
:04076e003f7bc168a4
:04076f003f7bc044c8
:040770003f7bbf20ec
:040771003f7bbdfc11
:040772003f7bbcd835
:040773003f7bbbb459
:040774003f7bba8f7e
:040775003f7bb96ba2
:040776003f7bb846c7
:040777003f7bb721ec
:040778003f7bb5fc12
:040779003f7bb4d638
:04077a003f7bb3b15d
:04077b003f7bb28b83
:04077c003f7bb166a8
:04077d003f7bb040ce
:04077e003f7baf1af4
:04077f003f7badf31c
:040780003f7baccd42
:040781003f7baba768
:040782003f7baa808f
:040783003f7ba959b6
:040784003f7ba832dd
:040785003f7ba70b04
:040786003f7ba5e42c
:040787003f7ba4bc54
:040788003f7ba3957b
:040789003f7ba26da3
:04078a003f7ba145cb
:04078b003f7ba01df3
:04078c003f7b9ef51c
:04078d003f7b9dcd44
:04078e003f7b9ca46d
:04078f003f7b9b7c95
:040790003f7b9a53be
:040791003f7b992ae7
:040792003f7b980110
:040793003f7b96d83a
:040794003f7b95ae64
:040795003f7b94858d
:040796003f7b935bb7
:040797003f7b9231e1
:040798003f7b91070b
:040799003f7b8fdd36
:04079a003f7b8eb360
:04079b003f7b8d898a
:04079c003f7b8c5eb5
:04079d003f7b8b33e0
:04079e003f7b8a080b
:04079f003f7b88dd37
:0407a0003f7b87b262
:0407a1003f7b86878d
:0407a2003f7b855bb9
:0407a3003f7b8430e4
:0407a4003f7b830410
:0407a5003f7b81d83d
:0407a6003f7b80ac69
:0407a7003f7b7f8095
:0407a8003f7b7e53c2
:0407a9003f7b7d27ee
:0407aa003f7b7bfa1c
:0407ab003f7b7acd49
:0407ac003f7b79a076
:0407ad003f7b7873a3
:0407ae003f7b7745d1
:0407af003f7b7618fe
:0407b0003f7b74ea2d
:0407b1003f7b73bd5a
:0407b2003f7b728f88
:0407b3003f7b7161b6
:0407b4003f7b7032e5
:0407b5003f7b6f0413
:0407b6003f7b6dd642
:0407b7003f7b6ca771
:0407b8003f7b6b78a0
:0407b9003f7b6a49cf
:0407ba003f7b691afe
:0407bb003f7b67eb2e
:0407bc003f7b66bb5e
:0407bd003f7b658c8d
:0407be003f7b645cbd
:0407bf003f7b632ced
:0407c0003f7b61fc1e
:0407c1003f7b60cc4e
:0407c2003f7b5f9b7f
:0407c3003f7b5e6baf
:0407c4003f7b5d3ae0
:0407c5003f7b5c0911
:0407c6003f7b5ad942
:0407c7003f7b59a774
:0407c8003f7b5876a5
:0407c9003f7b5745d6
:0407ca003f7b561308
:0407cb003f7b54e13b
:0407cc003f7b53b06c
:0407cd003f7b527e9e
:0407ce003f7b514bd1
:0407cf003f7b501903
:0407d0003f7b4ee736
:0407d1003f7b4db469
:0407d2003f7b4c819c
:0407d3003f7b4b4ecf
:0407d4003f7b4a1b02
:0407d5003f7b48e836
:0407d6003f7b47b569
:0407d7003f7b46819d
:0407d8003f7b454ed0
:0407d9003f7b441a04
:0407da003f7b42e639
:0407db003f7b41b26d
:0407dc003f7b407da2
:0407dd003f7b3f49d6
:0407de003f7b3e140b
:0407df003f7b3ce040
:0407e0003f7b3bab75
:0407e1003f7b3a76aa
:0407e2003f7b3940e0
:0407e3003f7b380b15
:0407e4003f7b36d64b
:0407e5003f7b35a081
:0407e6003f7b346ab7
:0407e7003f7b3334ed
:0407e8003f7b31fe24
:0407e9003f7b30c85a
:0407ea003f7b2f9290
:0407eb003f7b2e5bc7
:0407ec003f7b2d24fe
:0407ed003f7b2bed36
:0407ee003f7b2ab66d
:0407ef003f7b297fa4
:0407f0003f7b2848db
:0407f1003f7b271112
:0407f2003f7b25d94b
:0407f3003f7b24a183
:0407f4003f7b2369bb
:0407f5003f7b2231f3
:0407f6003f7b20f92c
:0407f7003f7b1fc164
:0407f8003f7b1e889d
:0407f9003f7b1d4fd6
:0407fa003f7b1c170e
:0407fb003f7b1ade48
:0407fc003f7b19a482
:0407fd003f7b186bbb
:0407fe003f7b1732f4
:0407ff003f7b15f82f
:040800003f7b14be68
:040801003f7b1385a1
:040802003f7b124bdb
:040803003f7b111016
:040804003f7b0fd651
:040805003f7b0e9c8b
:040806003f7b0d61c6
:040807003f7b0c2601
:040808003f7b0aeb3d
:040809003f7b09b078
:04080a003f7b0875b3
:04080b003f7b073aee
:04080c003f7b05fe2b
:04080d003f7b04c267
:04080e003f7b0386a3
:04080f003f7b024adf
:040810003f7b010e1b
:040811003f7affd259
:040812003f7afe9695
:040813003f7afd59d2
:040814003f7afc1c0f
:040815003f7afadf4d
:040816003f7af9a28a
:040817003f7af865c7
:040818003f7af72804
:040819003f7af5ea43
:04081a003f7af4ad80
:04081b003f7af36fbe
:04081c003f7af231fc
:04081d003f7af0f33b
:04081e003f7aefb47a
:04081f003f7aee76b8
:040820003f7aed37f7
:040821003f7aebf936
:040822003f7aeaba75
:040823003f7ae97bb4
:040824003f7ae83cf3
:040825003f7ae6fc34
:040826003f7ae5bd73
:040827003f7ae47db3
:040828003f7ae33df3
:040829003f7ae1fe33
:04082a003f7ae0bd74
:04082b003f7adf7db4
:04082c003f7ade3df4
:04082d003f7adcfc36
:04082e003f7adbbc76
:04082f003f7ada7bb7
:040830003f7ad93af8
:040831003f7ad7f93a
:040832003f7ad6b77c
:040833003f7ad576bd
:040834003f7ad434ff
:040835003f7ad2f341
:040836003f7ad1b183
:040837003f7ad06fc5
:040838003f7acf2d07
:040839003f7acdea4b
:04083a003f7acca88d
:04083b003f7acb65d0
:04083c003f7aca2213
:04083d003f7ac8df57
:04083e003f7ac79c9a
:04083f003f7ac659dd
:040840003f7ac51620
:040841003f7ac3d265
:040842003f7ac28ea9
:040843003f7ac14aed
:040844003f7ac00631
:040845003f7abec276
:040846003f7abd7eba
:040847003f7abc3afe
:040848003f7abaf544
:040849003f7ab9b089
:04084a003f7ab86bce
:04084b003f7ab72613
:04084c003f7ab5e159
:04084d003f7ab49c9e
:04084e003f7ab356e4
:04084f003f7ab2102a
:040850003f7ab0cb70
:040851003f7aaf85b6
:040852003f7aae3ffc
:040853003f7aacf844
:040854003f7aabb28a
:040855003f7aaa6bd1
:040856003f7aa92517
:040857003f7aa7de5f
:040858003f7aa697a6
:040859003f7aa54fee
:04085a003f7aa40835
:04085b003f7aa2c17d
:04085c003f7aa179c5
:04085d003f7aa0310d
:04085e003f7a9ee956
:04085f003f7a9da19e
:040860003f7a9c59e6
:040861003f7a9b112e
:040862003f7a99c878
:040863003f7a987fc1
:040864003f7a973709
:040865003f7a95ee53
:040866003f7a94a49d
:040867003f7a935be6
:040868003f7a92122f
:040869003f7a90c87a
:04086a003f7a8f7ec4
:04086b003f7a8e340e
:04086c003f7a8cea59
:04086d003f7a8ba0a3
:04086e003f7a8a56ed
:04086f003f7a890b38
:040870003f7a87c183
:040871003f7a8676ce
:040872003f7a852b19
:040873003f7a83e065
:040874003f7a8295b0
:040875003f7a8149fc
:040876003f7a7ffe48
:040877003f7a7eb294
:040878003f7a7d66e0
:040879003f7a7c1a2c
:04087a003f7a7ace79
:04087b003f7a7982c5
:04087c003f7a783512
:04087d003f7a76e95f
:04087e003f7a759cac
:04087f003f7a744ff9
:040880003f7a730246
:040881003f7a71b594
:040882003f7a7067e2
:040883003f7a6f1a2f
:040884003f7a6dcc7e
:040885003f7a6c7ecc
:040886003f7a6b301a
:040887003f7a69e269
:040888003f7a6894b7
:040889003f7a674506
:04088a003f7a65f755
:04088b003f7a64a8a4
:04088c003f7a6359f3
:04088d003f7a620a42
:04088e003f7a60bb92
:04088f003f7a5f6ce1
:040890003f7a5e1c31
:040891003f7a5ccd81
:040892003f7a5b7dd1
:040893003f7a5a2d21
:040894003f7a58dd72
:040895003f7a578dc2
:040896003f7a563c13
:040897003f7a54ec64
:040898003f7a539bb5
:040899003f7a524a06
:04089a003f7a50f958
:04089b003f7a4fa8a9
:04089c003f7a4e57fa
:04089d003f7a4d054c
:04089e003f7a4bb49e
:04089f003f7a4a62f0
:0408a0003f7a491042
:0408a1003f7a47be95
:0408a2003f7a466ce7
:0408a3003f7a451a39
:0408a4003f7a43c78d
:0408a5003f7a4275df
:0408a6003f7a412232
:0408a7003f7a3fcf86
:0408a8003f7a3e7cd9
:0408a9003f7a3d282d
:0408aa003f7a3bd581
:0408ab003f7a3a81d5
:0408ac003f7a392e28
:0408ad003f7a37da7d
:0408ae003f7a3686d1
:0408af003f7a353225
:0408b0003f7a33dd7b
:0408b1003f7a3289cf
:0408b2003f7a313424
:0408b3003f7a2fe079
:0408b4003f7a2e8bce
:0408b5003f7a2d3623
:0408b6003f7a2be179
:0408b7003f7a2a8bcf
:0408b8003f7a293624
:0408b9003f7a27e07b
:0408ba003f7a268ad1
:0408bb003f7a253427
:0408bc003f7a23de7e
:0408bd003f7a2288d4
:0408be003f7a21312b
:0408bf003f7a1fdb82
:0408c0003f7a1e84d9
:0408c1003f7a1d2d30
:0408c2003f7a1bd688
:0408c3003f7a1a7fdf
:0408c4003f7a192836
:0408c5003f7a17d08f
:0408c6003f7a1679e6
:0408c7003f7a15213e
:0408c8003f7a13c997
:0408c9003f7a1271ef
:0408ca003f7a111947
:0408cb003f7a0fc0a1
:0408cc003f7a0e68f9
:0408cd003f7a0d0f52
:0408ce003f7a0bb6ac
:0408cf003f7a0a5d05
:0408d0003f7a09045e
:0408d1003f7a07abb8
:0408d2003f7a065211
:0408d3003f7a04f86c
:0408d4003f7a039ec6
:0408d5003f7a024420
:0408d6003f7a00ea7b
:0408d7003f79ff90d6
:0408d8003f79fe3630
:0408d9003f79fcdb8c
:0408da003f79fb81e6
:0408db003f79fa2641
:0408dc003f79f8cb9d
:0408dd003f79f770f8
:0408de003f79f61553
:0408df003f79f4b9b0
:0408e0003f79f35e0b
:0408e1003f79f20267
:0408e2003f79f0a6c4
:0408e3003f79ef4a20
:0408e4003f79edee7d
:0408e5003f79ec92d9
:0408e6003f79eb3635
:0408e7003f79e9d993
:0408e8003f79e87cf0
:0408e9003f79e71f4d
:0408ea003f79e5c2ab
:0408eb003f79e46508
:0408ec003f79e30865
:0408ed003f79e1aac4
:0408ee003f79e04d21
:0408ef003f79deef80
:0408f0003f79dd91de
:0408f1003f79dc333c
:0408f2003f79dad59b
:0408f3003f79d976fa
:0408f4003f79d81858
:0408f5003f79d6b9b8
:0408f6003f79d55a17
:0408f7003f79d3fb77
:0408f8003f79d29cd6
:0408f9003f79d13d35
:0408fa003f79cfdd96
:0408fb003f79ce7ef5
:0408fc003f79cd1e55
:0408fd003f79cbbeb6
:0408fe003f79ca5e16
:0408ff003f79c8fe77
:040900003f79c79dd7
:040901003f79c63d37
:040902003f79c4dc99
:040903003f79c37bfa
:040904003f79c21a5b
:040905003f79c0b9bd
:040906003f79bf581e
:040907003f79bdf780
:040908003f79bc95e2
:040909003f79bb3344
:04090a003f79b9d2a6
:04090b003f79b87008
:04090c003f79b70d6b
:04090d003f79b5abce
:04090e003f79b44930
:04090f003f79b2e694
:040910003f79b183f7
:040911003f79b0205a
:040912003f79aebdbe
:040913003f79ad5a21
:040914003f79abf785
:040915003f79aa93e9
:040916003f79a9304c
:040917003f79a7ccb1
:040918003f79a66815
:040919003f79a50479
:04091a003f79a3a0de
:04091b003f79a23b43
:04091c003f79a0d7a8
:04091d003f799f720d
:04091e003f799e0d72
:04091f003f799ca8d8
:040920003f799b433d
:040921003f7999dea3
:040922003f79987809
:040923003f7997126f
:040924003f7995add5
:040925003f7994473b
:040926003f7992e1a2
:040927003f79917a09
:040928003f7990146f
:040929003f798eaed6
:04092a003f798d473d
:04092b003f798be0a5
:04092c003f798a790c
:04092d003f79891273
:04092e003f7987abdb
:04092f003f79864343
:040930003f7984dcab
:040931003f79837413
:040932003f79820c7b
:040933003f7980a4e4
:040934003f797f3c4c
:040935003f797dd4b5
:040936003f797c6b1e
:040937003f797b0386
:040938003f79799af0
:040939003f79783159
:04093a003f7976c8c3
:04093b003f79755f2c
:04093c003f7973f597
:04093d003f79728c00
:04093e003f7971226a
:04093f003f796fb8d5
:040940003f796e4e3f
:040941003f796ce4aa
:040942003f796b7a14
:040943003f796a0f7f
:040944003f7968a5ea
:040945003f79673a55
:040946003f7965cfc1
:040947003f7964642c
:040948003f7962f998
:040949003f79618e03
:04094a003f7960226f
:04094b003f795eb7db
:04094c003f795d4b47
:04094d003f795bdfb4
:04094e003f795a7320
:04094f003f7959078c
:040950003f79579afa
:040951003f79562e66
:040952003f7954c1d4
:040953003f79535441
:040954003f7951e7af
:040955003f79507a1c
:040956003f794f0d89
:040957003f794d9ff8
:040958003f794c3265
:040959003f794ac4d4
:04095a003f79495642
:04095b003f7947e8b1
:04095c003f79467a1f
:04095d003f79450c8d
:04095e003f79439dfd
:04095f003f79422f6b
:040960003f7940c0db
:040961003f793f514a
:040962003f793de2ba
:040963003f793c7329
:040964003f793b0399
:040965003f79399409
:040966003f79382479
:040967003f7936b4ea
:040968003f7935445a
:040969003f7933d4cb
:04096a003f7932643b
:04096b003f7930f3ad
:04096c003f792f831d
:04096d003f792e128e
:04096e003f792ca100
:04096f003f792b3071
:040970003f7929bfe3
:040971003f79284e54
:040972003f7926dcc7
:040973003f79256b38
:040974003f7923f9ab
:040975003f7922871d
:040976003f7921158f
:040977003f791fa302
:040978003f791e3075
:040979003f791cbee8
:04097a003f791b4b5b
:04097b003f7919d8cf
:04097c003f79186542
:04097d003f7916f2b6
:04097e003f79157f29
:04097f003f79140b9d
:040980003f79129811
:040981003f79112485
:040982003f790fb0fa
:040983003f790e3c6e
:040984003f790cc8e3
:040985003f790b5457
:040986003f7909dfcd
:040987003f79086a42
:040988003f7906f6b7
:040989003f7905812c
:04098a003f79040ca1
:04098b003f79029618
:04098c003f7901218d
:04098d003f78ffac04
:04098e003f78fe367a
:04098f003f78fcc0f1
:040990003f78fb4a67
:040991003f78f9d4de
:040992003f78f85e54
:040993003f78f6e7cc
:040994003f78f57142
:040995003f78f3faba
:040996003f78f28331
:040997003f78f10ca8
:040998003f78ef9520
:040999003f78ee1d98
:04099a003f78eca610
:04099b003f78eb2e88
:04099c003f78e9b700
:04099d003f78e83f78
:04099e003f78e6c7f1
:04099f003f78e54e6a
:0409a0003f78e3d6e3
:0409a1003f78e25d5c
:0409a2003f78e0e5d5
:0409a3003f78df6c4e
:0409a4003f78ddf3c8
:0409a5003f78dc7a41
:0409a6003f78db01ba
:0409a7003f78d98735
:0409a8003f78d80eae
:0409a9003f78d69429
:0409aa003f78d51aa3
:0409ab003f78d3a01e
:0409ac003f78d22698
:0409ad003f78d0ab14
:0409ae003f78cf318e
:0409af003f78cdb60a
:0409b0003f78cc3b85
:0409b1003f78cac100
:0409b2003f78c9457c
:0409b3003f78c7caf8
:0409b4003f78c64f73
:0409b5003f78c4d3f0
:0409b6003f78c3586b
:0409b7003f78c1dce8
:0409b8003f78c06064
:0409b9003f78bee4e1
:0409ba003f78bd675e
:0409bb003f78bbebdb
:0409bc003f78ba6e58
:0409bd003f78b8f2d5
:0409be003f78b77552
:0409bf003f78b5f8d0
:0409c0003f78b47b4d
:0409c1003f78b2fdcc
:0409c2003f78b18049
:0409c3003f78b002c7
:0409c4003f78ae8446
:0409c5003f78ad06c4
:0409c6003f78ab8843
:0409c7003f78aa0ac1
:0409c8003f78a88c40
:0409c9003f78a70dbf
:0409ca003f78a58f3e
:0409cb003f78a410bd
:0409cc003f78a2913d
:0409cd003f78a112bc
:0409ce003f789f923d
:0409cf003f789e13bc
:0409d0003f789c933d
:0409d1003f789b14bc
:0409d2003f7899943d
:0409d3003f789814bd
:0409d4003f7896943e
:0409d5003f789513bf
:0409d6003f78939340
:0409d7003f789212c1
:0409d8003f78909143
:0409d9003f788f11c3
:0409da003f788d8f46
:0409db003f788c0ec7
:0409dc003f788a8d49
:0409dd003f78890bcb
:0409de003f78878a4d
:0409df003f788608cf
:0409e0003f78848652
:0409e1003f788304d4
:0409e2003f78818257
:0409e3003f787fffdb
:0409e4003f787e7d5d
:0409e5003f787cfae1
:0409e6003f787b7764
:0409e7003f7879f4e8
:0409e8003f7878716b
:0409e9003f7876edf0
:0409ea003f78756a73
:0409eb003f7873e6f8
:0409ec003f7872637b
:0409ed003f7870df00
:0409ee003f786f5b84
:0409ef003f786dd60a
:0409f0003f786c528e
:0409f1003f786ace13
:0409f2003f78694998
:0409f3003f7867c41e
:0409f4003f78663fa3
:0409f5003f7864ba29
:0409f6003f786335ae
:0409f7003f7861af35
:0409f8003f78602aba
:0409f9003f785ea441
:0409fa003f785d1ec7
:0409fb003f785b984e
:0409fc003f785a12d4
:0409fd003f78588c5b
:0409fe003f785705e2
:0409ff003f78557f69
:040a00003f7853f8f0
:040a01003f78527177
:040a02003f7850eaff
:040a03003f784f6386
:040a04003f784ddb0f
:040a05003f784c5496
:040a06003f784acc1f
:040a07003f784944a7
:040a08003f7847bc30
:040a09003f784634b8
:040a0a003f7844ac41
:040a0b003f784324c9
:040a0c003f78419b53
:040a0d003f784012dc
:040a0e003f783e8a65
:040a0f003f783d01ee
:040a10003f783b7779
:040a11003f7839ee03
:040a12003f7838658c
:040a13003f7836db17
:040a14003f783551a1
:040a15003f7833c72c
:040a16003f78323db6
:040a17003f7830b341
:040a18003f782f29cb
:040a19003f782d9e57
:040a1a003f782c14e1
:040a1b003f782a896d
:040a1c003f7828fef9
:040a1d003f78277384
:040a1e003f7825e810
:040a1f003f78245c9c
:040a20003f7822d128
:040a21003f782145b4
:040a22003f781fb941
:040a23003f781e2dcd
:040a24003f781ca15a
:040a25003f781b15e6
:040a26003f78198874
:040a27003f7817fc01
:040a28003f78166f8e
:040a29003f7814e21c
:040a2a003f781355a9
:040a2b003f7811c837
:040a2c003f78103ac5
:040a2d003f780ead53
:040a2e003f780d1fe1
:040a2f003f780b926f
:040a30003f780a04fd
:040a31003f7808768c
:040a32003f7806e71c
:040a33003f780559aa
:040a34003f7803ca3a
:040a35003f78023cc8
:040a36003f7800ad58
:040a37003f77ff1ee8
:040a38003f77fd8f78
:040a39003f77fc0007
:040a3a003f77fa7098
:040a3b003f77f8e128
:040a3c003f77f751b8
:040a3d003f77f5c149
:040a3e003f77f431d9
:040a3f003f77f2a16a
:040a40003f77f110fb
:040a41003f77ef808c
:040a42003f77edef1e
:040a43003f77ec5fae
:040a44003f77eace40
:040a45003f77e93dd1
:040a46003f77e7ab64
:040a47003f77e61af5
:040a48003f77e48888
:040a49003f77e2f71a
:040a4a003f77e165ac
:040a4b003f77dfd33f
:040a4c003f77de41d1
:040a4d003f77dcaf64
:040a4e003f77db1cf7
:040a4f003f77d98a8a
:040a50003f77d7f71e
:040a51003f77d664b1
:040a52003f77d4d145
:040a53003f77d33ed8
:040a54003f77d1ab6c
:040a55003f77d01700
:040a56003f77ce8395
:040a57003f77ccf029
:040a58003f77cb5cbd
:040a59003f77c9c852
:040a5a003f77c834e6
:040a5b003f77c69f7c
:040a5c003f77c50b10
:040a5d003f77c376a6
:040a5e003f77c1e13c
:040a5f003f77c04cd1
:040a60003f77beb767
:040a61003f77bd22fc
:040a62003f77bb8d92
:040a63003f77b9f729
:040a64003f77b861bf
:040a65003f77b6cb56
:040a66003f77b535ec
:040a67003f77b39f83
:040a68003f77b20919
:040a69003f77b073b0
:040a6a003f77aedc48
:040a6b003f77ad45df
:040a6c003f77abae77
:040a6d003f77aa170e
:040a6e003f77a880a6
:040a6f003f77a6e93e
:040a70003f77a551d6
:040a71003f77a3ba6e
:040a72003f77a22206
:040a73003f77a08a9f
:040a74003f779ef238
:040a75003f779d5ad0
:040a76003f779bc16a
:040a77003f779a2902
:040a78003f7798909c
:040a79003f7796f736
:040a7a003f77955ecf
:040a7b003f7793c569
:040a7c003f77922c02
:040a7d003f7790929d
:040a7e003f778ef937
:040a7f003f778d5fd1
:040a80003f778bc56c
:040a81003f778a2b06
:040a82003f778891a1
:040a83003f7786f73c
:040a84003f77855cd7
:040a85003f7783c272
:040a86003f7782270d
:040a87003f77808ca9
:040a88003f777ef145
:040a89003f777d56e0
:040a8a003f777bba7d
:040a8b003f777a1f18
:040a8c003f777883b5
:040a8d003f7776e752
:040a8e003f77754bee
:040a8f003f7773af8b
:040a90003f77721327
:040a91003f777076c5
:040a92003f776eda62
:040a93003f776d3dff
:040a94003f776ba09d
:040a95003f776a033a
:040a96003f776866d8
:040a97003f7766c976
:040a98003f77652b14
:040a99003f77638eb2
:040a9a003f7761f051
:040a9b003f776052ef
:040a9c003f775eb48e
:040a9d003f775d162c
:040a9e003f775b78cb
:040a9f003f7759d96b
:040aa0003f77583a0a
:040aa1003f77569ca9
:040aa2003f7754fd49
:040aa3003f77535ee8
:040aa4003f7751be89
:040aa5003f77501f28
:040aa6003f774e7fc9
:040aa7003f774ce069
:040aa8003f774b4009
:040aa9003f7749a0aa
:040aaa003f7748004a
:040aab003f77465fec
:040aac003f7744bf8d
:040aad003f77431e2e
:040aae003f77417ecf
:040aaf003f773fdd71
:040ab0003f773e3c12
:040ab1003f773c9bb4
:040ab2003f773af957
:040ab3003f773958f8
:040ab4003f7737b69b
:040ab5003f7736143d
:040ab6003f773472e0
:040ab7003f7732d083
:040ab8003f77312e25
:040ab9003f772f8cc8
:040aba003f772de96c
:040abb003f772c470e
:040abc003f772aa4b2
:040abd003f77290155
:040abe003f77275ef9
:040abf003f7725ba9e
:040ac0003f77241741
:040ac1003f772274e5
:040ac2003f7720d08a
:040ac3003f771f2c2e
:040ac4003f771d88d3
:040ac5003f771be478
:040ac6003f771a3f1d
:040ac7003f77189bc2
:040ac8003f7716f668
:040ac9003f7715520c
:040aca003f7713adb2
:040acb003f77120857
:040acc003f771063fd
:040acd003f770ebda4
:040ace003f770d1849
:040acf003f770b72f0
:040ad0003f7709cc97
:040ad1003f7708263d
:040ad2003f770680e4
:040ad3003f7704da8b
:040ad4003f77033431
:040ad5003f77018dd9
:040ad6003f76ffe682
:040ad7003f76fe4028
:040ad8003f76fc99d0
:040ad9003f76faf179
:040ada003f76f94a20
:040adb003f76f7a3c8
:040adc003f76f5fb71
:040add003f76f45319
:040ade003f76f2acc1
:040adf003f76f1036a
:040ae0003f76ef5b13
:040ae1003f76edb3bc
:040ae2003f76ec0b64
:040ae3003f76ea620e
:040ae4003f76e8b9b8
:040ae5003f76e71061
:040ae6003f76e5670b
:040ae7003f76e3beb5
:040ae8003f76e2155e
:040ae9003f76e06b09
:040aea003f76dec1b4
:040aeb003f76dd185d
:040aec003f76db6e08
:040aed003f76d9c4b3
:040aee003f76d8195e
:040aef003f76d66f09
:040af0003f76d4c4b5
:040af1003f76d31a5f
:040af2003f76d16f0b
:040af3003f76cfc4b7
:040af4003f76ce1962
:040af5003f76cc6d0f
:040af6003f76cac2bb
:040af7003f76c91667
:040af8003f76c76b13
:040af9003f76c5bfc0
:040afa003f76c4136c
:040afb003f76c2661a
:040afc003f76c0bac7
:040afd003f76bf0e73
:040afe003f76bd6121
:040aff003f76bbb4cf
:040b00003f76ba077b
:040b01003f76b85a29
:040b02003f76b6add7
:040b03003f76b50084
:040b04003f76b35233
:040b05003f76b1a4e2
:040b06003f76aff790
:040b07003f76ae493e
:040b08003f76ac9aee
:040b09003f76aaec9d
:040b0a003f76a93e4b
:040b0b003f76a78ffb
:040b0c003f76a5e0ab
:040b0d003f76a43259
:040b0e003f76a28309
:040b0f003f76a0d3ba
:040b10003f769f2469
:040b11003f769d7519
:040b12003f769bc5ca
:040b13003f769a157a
:040b14003f7698652b
:040b15003f7696b5dc
:040b16003f7695058c
:040b17003f7693553d
:040b18003f7691a4ef
:040b19003f768ff4a0
:040b1a003f768e4351
:040b1b003f768c9203
:040b1c003f768ae1b5
:040b1d003f76893066
:040b1e003f76877e19
:040b1f003f7685cdcb
:040b20003f76841b7d
:040b21003f76826930
:040b22003f7680b7e3
:040b23003f767f0595
:040b24003f767d5348
:040b25003f767ba0fc
:040b26003f7679eeaf
:040b27003f76783b62
:040b28003f76768816
:040b29003f7674d5ca
:040b2a003f7673227d
:040b2b003f76716f31
:040b2c003f766fbbe6
:040b2d003f766e0899
:040b2e003f766c544e
:040b2f003f766aa003
:040b30003f7668ecb8
:040b31003f7667386c
:040b32003f76658322
:040b33003f7663cfd7
:040b34003f76621a8c
:040b35003f76606542
:040b36003f765eb0f8
:040b37003f765cfbae
:040b38003f765b4663
:040b39003f76599119
:040b3a003f7657dbd0
:040b3b003f76562586
:040b3c003f76546f3d
:040b3d003f7652b9f4
:040b3e003f765103aa
:040b3f003f764f4d61
:040b40003f764d9718
:040b41003f764be0d0
:040b42003f764a2987
:040b43003f7648723f
:040b44003f7646bbf7
:040b45003f764504ae
:040b46003f76434d66
:040b47003f7641951f
:040b48003f763fded7
:040b49003f763e268f
:040b4a003f763c6e48
:040b4b003f763ab601
:040b4c003f7638feba
:040b4d003f76374573
:040b4e003f76358d2c
:040b4f003f7633d4e6
:040b50003f76321b9f
:040b51003f76306358
:040b52003f762ea913
:040b53003f762cf0cd
:040b54003f762b3786
:040b55003f76297d41
:040b56003f7627c3fc
:040b57003f76260ab5
:040b58003f76245070
:040b59003f7622962b
:040b5a003f7620dbe7
:040b5b003f761f21a1
:040b5c003f761d665d
:040b5d003f761bab19
:040b5e003f7619f1d4
:040b5f003f7618368f
:040b60003f76167a4c
:040b61003f7614bf08
:040b62003f761304c3
:040b63003f76114880
:040b64003f760f8c3d
:040b65003f760dd0fa
:040b66003f760c14b6
:040b67003f760a5873
:040b68003f76089c30
:040b69003f7606dfee
:040b6a003f760522ab
:040b6b003f76036668
:040b6c003f7601a926
:040b6d003f75ffebe6
:040b6e003f75fe2ea3
:040b6f003f75fc7161
:040b70003f75fab320
:040b71003f75f8f6de
:040b72003f75f7389c
:040b73003f75f57a5b
:040b74003f75f3bc1a
:040b75003f75f1fdda
:040b76003f75f03f98
:040b77003f75ee8058
:040b78003f75ecc217
:040b79003f75eb03d6
:040b7a003f75e94496
:040b7b003f75e78457
:040b7c003f75e5c517
:040b7d003f75e406d6
:040b7e003f75e24697
:040b7f003f75e08658
:040b80003f75dec619
:040b81003f75dd06d9
:040b82003f75db469a
:040b83003f75d9865b
:040b84003f75d7c51d
:040b85003f75d604de
:040b86003f75d4449f
:040b87003f75d28361
:040b88003f75d0c223
:040b89003f75cf00e5
:040b8a003f75cd3fa7
:040b8b003f75cb7d6a
:040b8c003f75c9bc2c
:040b8d003f75c7faef
:040b8e003f75c638b1
:040b8f003f75c47674
:040b90003f75c2b338
:040b91003f75c0f1fb
:040b92003f75bf2ebe
:040b93003f75bd6c81
:040b94003f75bba945
:040b95003f75b9e609
:040b96003f75b822cd
:040b97003f75b65f91
:040b98003f75b49c55
:040b99003f75b2d81a
:040b9a003f75b114de
:040b9b003f75af50a3
:040b9c003f75ad8c68
:040b9d003f75abc82d
:040b9e003f75aa04f1
:040b9f003f75a83fb7
:040ba0003f75a67b7c
:040ba1003f75a4b642
:040ba2003f75a2f108
:040ba3003f75a12ccd
:040ba4003f759f6694
:040ba5003f759da15a
:040ba6003f759bdb21
:040ba7003f759a16e6
:040ba8003f759850ad
:040ba9003f75968a74
:040baa003f7594c43b
:040bab003f7592fe02
:040bac003f759137c9
:040bad003f758f7091
:040bae003f758daa58
:040baf003f758be320
:040bb0003f758a1ce7
:040bb1003f758855af
:040bb2003f75868d78
:040bb3003f7584c640
:040bb4003f7582fe09
:040bb5003f758136d1
:040bb6003f757f6f99
:040bb7003f757da762
:040bb8003f757bde2c
:040bb9003f757a16f4
:040bba003f75784dbe
:040bbb003f75768587
:040bbc003f7574bc51
:040bbd003f7572f31b
:040bbe003f75712ae4
:040bbf003f756f61ae
:040bc0003f756d9779
:040bc1003f756bce43
:040bc2003f756a040d
:040bc3003f75683ad8
:040bc4003f756670a3
:040bc5003f7564a66e
:040bc6003f7562dc39
:040bc7003f75611104
:040bc8003f755f47cf
:040bc9003f755d7c9b
:040bca003f755bb167
:040bcb003f7559e633
:040bcc003f75581bfe
:040bcd003f755650ca
:040bce003f75548497
:040bcf003f7552b963
:040bd0003f7550ed30
:040bd1003f754f21fc
:040bd2003f754d55c9
:040bd3003f754b8996
:040bd4003f7549bc64
:040bd5003f7547f031
:040bd6003f754623fe
:040bd7003f754456cc
:040bd8003f7542899a
:040bd9003f7540bc68
:040bda003f753eef36
:040bdb003f753d2203
:040bdc003f753b54d2
:040bdd003f753987a0
:040bde003f7537b96f
:040bdf003f7535eb3e
:040be0003f75341d0c
:040be1003f75324edc
:040be2003f753080ab
:040be3003f752eb17b
:040be4003f752ce34a
:040be5003f752b1419
:040be6003f752945e9
:040be7003f752776b9
:040be8003f7525a68a
:040be9003f7523d75a
:040bea003f7522072a
:040beb003f752038fa
:040bec003f751e68cb
:040bed003f751c989c
:040bee003f751ac76e
:040bef003f7518f73f
:040bf0003f7517270f
:040bf1003f751556e1
:040bf2003f751385b3
:040bf3003f7511b485
:040bf4003f750fe357
:040bf5003f750e1228
:040bf6003f750c41fa
:040bf7003f750a6fcd
:040bf8003f75089da0
:040bf9003f7506cc72
:040bfa003f7504fa45
:040bfb003f75032718
:040bfc003f750155eb
:040bfd003f74ff83bf
:040bfe003f74fdb093
:040bff003f74fbde66
:040c00003f74fa0b38
:040c01003f74f8380c
:040c02003f74f665e0
:040c03003f74f491b5
:040c04003f74f2be89
:040c05003f74f0ea5e
:040c06003f74ef1731
:040c07003f74ed4306
:040c08003f74eb6fdb
:040c09003f74e99ab1
:040c0a003f74e7c686
:040c0b003f74e5f25b
:040c0c003f74e41d30
:040c0d003f74e24806
:040c0e003f74e073dc
:040c0f003f74de9eb2
:040c10003f74dcc988
:040c11003f74daf45e
:040c12003f74d91e34
:040c13003f74d7490a
:040c14003f74d573e1
:040c15003f74d39db8
:040c16003f74d1c78f
:040c17003f74cff067
:040c18003f74ce1a3d
:040c19003f74cc4414
:040c1a003f74ca6dec
:040c1b003f74c896c4
:040c1c003f74c6bf9c
:040c1d003f74c4e874
:040c1e003f74c3114b
:040c1f003f74c13924
:040c20003f74bf62fc
:040c21003f74bd8ad5
:040c22003f74bbb2ae
:040c23003f74b9da87
:040c24003f74b8025f
:040c25003f74b62a38
:040c26003f74b45112
:040c27003f74b279eb
:040c28003f74b0a0c5
:040c29003f74aec79f
:040c2a003f74acee79
:040c2b003f74ab1552
:040c2c003f74a93b2d
:040c2d003f74a76207
:040c2e003f74a588e2
:040c2f003f74a3aebd
:040c30003f74a1d597
:040c31003f749ffa73
:040c32003f749e204d
:040c33003f749c4628
:040c34003f749a6b04
:040c35003f749891df
:040c36003f7496b6bb
:040c37003f7494db97
:040c38003f74930072
:040c39003f7491254e
:040c3a003f748f492b
:040c3b003f748d6e07
:040c3c003f748b92e4
:040c3d003f7489b6c1
:040c3e003f7487da9e
:040c3f003f7485fe7b
:040c40003f74842257
:040c41003f74824535
:040c42003f74806912
:040c43003f747e8cf0
:040c44003f747cafce
:040c45003f747ad2ac
:040c46003f7478f58a
:040c47003f74771867
:040c48003f74753a46
:040c49003f74735d24
:040c4a003f74717f03
:040c4b003f746fa1e2
:040c4c003f746dc3c1
:040c4d003f746be5a0
:040c4e003f746a067f
:040c4f003f7468285e
:040c50003f7466493e
:040c51003f74646a1e
:040c52003f74628bfe
:040c53003f7460acde
:040c54003f745ecdbe
:040c55003f745cee9e
:040c56003f745b0e7e
:040c57003f74592f5e
:040c58003f74574f3f
:040c59003f74556f20
:040c5a003f74538f01
:040c5b003f7451aee3
:040c5c003f744fcec4
:040c5d003f744deda6
:040c5e003f744c0d86
:040c5f003f744a2c68
:040c60003f74484b4a
:040c61003f74466a2c
:040c62003f7444880f
:040c63003f7442a7f1
:040c64003f7440c5d4
:040c65003f743ee4b6
:040c66003f743d0298
:040c67003f743b207b
:040c68003f74393e5e
:040c69003f74375b42
:040c6a003f74357925
:040c6b003f74339609
:040c6c003f7431b3ed
:040c6d003f742fd1d0
:040c6e003f742dedb5
:040c6f003f742c0a98
:040c70003f742a277c
:040c71003f74284361
:040c72003f74266045
:040c73003f74247c2a
:040c74003f7422980f
:040c75003f7420b4f4
:040c76003f741ed0d9
:040c77003f741cebbf
:040c78003f741b07a3
:040c79003f74192289
:040c7a003f74173d6f
:040c7b003f74155855
:040c7c003f7413733b
:040c7d003f74118e21
:040c7e003f740fa907
:040c7f003f740dc3ee
