:04000000800000007c
:04000100b8c90fdb90
:04000200b9490fdb0e
:04000300b996cbe4fb
:04000400b9c90fda8d
:04000500b9fb53d11f
:04000600ba16cbe378
:04000700ba2fedde41
:04000800ba490fd909
:04000900ba6231d4d2
:04000a00ba7b53cf9b
:04000b00ba8a3ae58e
:04000c00ba96cbe2f3
:04000d00baa35cdf57
:04000e00baafeddcbc
:04000f00babc7ed920
:04001000bac90fd585
:04001100bad5a0d2ea
:04001200bae231cf4e
:04001300baeec2cbb4
:04001400bafb53c719
:04001500bb03f262d5
:04001600bb0a3ae007
:04001700bb10835d3a
:04001800bb16cbdb6d
:04001900bb1d14599e
:04001a00bb235cd7d1
:04001b00bb29a55404
:04001c00bb2fedd138
:04001d00bb36364f69
:04001e00bb3c7ecc9d
:04001f00bb42c749d0
:04002000bb490fc603
:04002100bb4f584336
:04002200bb55a0c06a
:04002300bb5be93c9e
:04002400bb6231b9d1
:04002500bb687a3505
:04002600bb6ec2b13a
:04002700bb750b2d6d
:04002800bb7b53a9a2
:04002900bb80ce12b8
:04002a00bb83f25052
:04002b00bb87168eeb
:04002c00bb8a3acb86
:04002d00bb8d5f091f
:04002e00bb908346ba
:04002f00bb93a78454
:04003000bb96cbc1ef
:04003100bb99effe8a
:04003200bb9d143b23
:04003300bba03878be
:04003400bba35cb559
:04003500bba680f2f4
:04003600bba9a52f8e
:04003700bbacc96b2a
:04003800bbafeda8c5
:04003900bbb311e460
:04003a00bbb63621fa
:04003b00bbb95a5d96
:04003c00bbbc7e9932
:04003d00bbbfa2d5ce
:04003e00bbc2c71169
:04003f00bbc5eb4c06
:04004000bbc90f88a1
:04004100bbcc33c33e
:04004200bbcf57ffda
:04004300bbd27c3a76
:04004400bbd5a07513
:04004500bbd8c4b0b0
:04004600bbdbe8eb4d
:04004700bbdf0d26e8
:04004800bbe2316086
:04004900bbe5559b23
:04004a00bbe879d5c1
:04004b00bbeb9e0f5e
:04004c00bbeec249fc
:04004d00bbf1e6839a
:04004e00bbf50abd37
:04004f00bbf82ef6d6
:04005000bbfb533073
:04005100bbfe776912
:04005200bc00cdd150
:04005300bc025fee9e
:04005400bc03f20aed
:04005500bc0584263c
:04005600bc0716438a
:04005700bc08a85fda
:04005800bc0a3a7b29
:04005900bc0bcc9779
:04005a00bc0d5eb3c8
:04005b00bc0ef0cf18
:04005c00bc1082ea68
:04005d00bc121506b6
:04005e00bc13a72206
:04005f00bc15393d56
:04006000bc16cb58a7
:04006100bc185d74f6
:04006200bc19ef8f47
:04006300bc1b81aa97
:04006400bc1d13c5e7
:04006500bc1ea5e038
:04006600bc2037fb88
:04006700bc21ca16d8
:04006800bc235c3029
:04006900bc24ee4b7a
:04006a00bc268065cb
:04006b00bc2812801b
:04006c00bc29a49a6d
:04006d00bc2b36b4be
:04006e00bc2cc8ce10
:04006f00bc2e5ae861
:04007000bc2fed02b2
:04007100bc317f1b04
:04007200bc33113555
:04007300bc34a34fa7
:04007400bc363568f9
:04007500bc37c7814c
:04007600bc39599a9e
:04007700bc3aebb4f0
:04007800bc3c7dcc43
:04007900bc3e0fe595
:04007a00bc3fa1fee8
:04007b00bc41341739
:04007c00bc42c62f8d
:04007d00bc445847e0
:04007e00bc45ea6033
:04007f00bc477c7886
:04008000bc490e90d9
:04008100bc4aa0a82d
:04008200bc4c32c080
:04008300bc4dc4d7d5
:04008400bc4f56ef28
:04008500bc50e9067c
:04008600bc527b1dd0
:04008700bc540d3523
:04008800bc559f4c78
:04008900bc573162cd
:04008a00bc58c37922
:04008b00bc5a559076
:04008c00bc5be7a6cc
:04008d00bc5d79bd20
:04008e00bc5f0bd375
:04008f00bc609de9cb
:04009000bc622fff20
:04009100bc63c21575
:04009200bc65542bca
:04009300bc66e64021
:04009400bc68785676
:04009500bc6a0a6bcc
:04009600bc6b9c8023
:04009700bc6d2e9579
:04009800bc6ec0aad0
:04009900bc7052bf26
:04009a00bc71e4d37e
:04009b00bc7376e7d5
:04009c00bc7508fc2b
:04009d00bc769b1082
:04009e00bc782d24d9
:04009f00bc79bf3831
:0400a000bc7b514b89
:0400a100bc7ce35fe1
:0400a200bc7e757239
:0400a300bc8003c357
:0400a400bc80cccc84
:0400a500bc8195d6af
:0400a600bc825edfdb
:0400a700bc8327e807
:0400a800bc83f0f233
:0400a900bc84b9fb5f
:0400aa00bc8583048a
:0400ab00bc864c0db6
:0400ac00bc871516e2
:0400ad00bc87de1e10
:0400ae00bc88a7273c
:0400af00bc89703068
:0400b000bc8a393895
:0400b100bc8b0241c1
:0400b200bc8bcb49ef
:0400b300bc8c94521b
:0400b400bc8d5d5a48
:0400b500bc8e266275
:0400b600bc8eef6aa3
:0400b700bc8fb872d0
:0400b800bc90817afd
:0400b900bc914a822a
:0400ba00bc92138958
:0400bb00bc92dc9186
:0400bc00bc93a599b3
:0400bd00bc946ea0e1
:0400be00bc9537a70f
:0400bf00bc9600af3c
:0400c000bc96c9b66b
:0400c100bc9792bd99
:0400c200bc985bc4c7
:0400c300bc9924cbf5
:0400c400bc99edd224
:0400c500bc9ab6d853
:0400c600bc9b7fdf81
:0400c700bc9c48e6af
:0400c800bc9d11ecde
:0400c900bc9ddaf20e
:0400ca00bc9ea3f93c
:0400cb00bc9f6cff6b
:0400cc00bca0360599
:0400cd00bca0ff0bc9
:0400ce00bca1c811f8
:0400cf00bca2911628
:0400d000bca35a1c57
:0400d100bca4232286
:0400d200bca4ec27b7
:0400d300bca5b52ce7
:0400d400bca67e3216
:0400d500bca7473746
:0400d600bca8103c76
:0400d700bca8d941a7
:0400d800bca9a246d7
:0400d900bcaa6b4b07
:0400da00bcab344f38
:0400db00bcabfd5469
:0400dc00bcacc6589a
:0400dd00bcad8f5dca
:0400de00bcae5861fb
:0400df00bcaf21652c
:0400e000bcafea695e
:0400e100bcb0b36d8f
:0400e200bcb17c71c0
:0400e300bcb24575f1
:0400e400bcb30e7823
:0400e500bcb3d77c55
:0400e600bcb4a07f87
:0400e700bcb56982b9
:0400e800bcb63286ea
:0400e900bcb6fb891d
:0400ea00bcb7c48c4f
:0400eb00bcb88d8e82
:0400ec00bcb95691b4
:0400ed00bcba1f94e6
:0400ee00bcbae8961a
:0400ef00bcbbb1994c
:0400f000bcbc7a9b7f
:0400f100bcbd439db2
:0400f200bcbe0c9fe5
:0400f300bcbed5a119
:0400f400bcbf9ea34c
:0400f500bcc067a57f
:0400f600bcc130a6b3
:0400f700bcc1f9a8e7
:0400f800bcc2c2a91b
:0400f900bcc38baa4f
:0400fa00bcc454ab83
:0400fb00bcc51dacb7
:0400fc00bcc5e6adec
:0400fd00bcc6afae20
:0400fe00bcc778af54
:0400ff00bcc841af89
:04010000bcc90ab0bc
:04010100bcc9d3b0f2
:04010200bcca9cb027
:04010300bccb65b05c
:04010400bccc2eb091
:04010500bcccf7b0c7
:04010600bccdc0b0fc
:04010700bcce89af32
:04010800bccf52af67
:04010900bcd01bae9d
:04010a00bcd0e4add4
:04010b00bcd1adac0a
:04010c00bcd276ab40
:04010d00bcd33faa76
:04010e00bcd408a9ac
:04010f00bcd4d1a7e4
:04011000bcd59aa61a
:04011100bcd663a451
:04011200bcd72ca288
:04011300bcd7f5a0c0
:04011400bcd8be9ef7
:04011500bcd9879c2e
:04011600bcda509966
:04011700bcdb19979d
:04011800bcdbe294d6
:04011900bcdcab910e
:04011a00bcdd748f45
:04011b00bcde3d8c7d
:04011c00bcdf0688b6
:04011d00bcdfcf85ef
:04011e00bce0988227
:04011f00bce1617e60
:04012000bce22a7a99
:04012100bce2f377d2
:04012200bce3bc730b
:04012300bce4856e45
:04012400bce54e6a7e
:04012500bce61766b7
:04012600bce6e061f2
:04012700bce7a95d2b
:04012800bce8725865
:04012900bce93b539f
:04012a00bcea044ed9
:04012b00bceacd4914
:04012c00bceb96434f
:04012d00bcec5f3e89
:04012e00bced2838c4
:04012f00bcedf13200
:04013000bceeba2c3b
:04013100bcef832676
:04013200bcf04c20b1
:04013300bcf1151aec
:04013400bcf1de1329
:04013500bcf2a70d64
:04013600bcf37006a0
:04013700bcf438ffdd
:04013800bcf501f819
:04013900bcf5caf057
:04013a00bcf693e993
:04013b00bcf75ce2cf
:04013c00bcf825da0c
:04013d00bcf8eed24a
:04013e00bcf9b7ca87
:04013f00bcfa80c2c4
:04014000bcfb49ba01
:04014100bcfc12b13f
:04014200bcfcdba97d
:04014300bcfda4a0bb
:04014400bcfe6d97f9
:04014500bcff368e37
:04014600bcffff8576
:04014700bd00643e55
:04014800bd00c8b975
:04014900bd012d3493
:04014a00bd0191afb3
:04014b00bd01f62ad2
:04014c00bd025aa5f1
:04014d00bd02bf2010
:04014e00bd03239b2f
:04014f00bd0388154f
:04015000bd03ec906f
:04015100bd04510b8d
:04015200bd04b585ae
:04015300bd0519ffce
:04015400bd057e7aed
:04015500bd05e2f40e
:04015600bd06476e2d
:04015700bd06abe84e
:04015800bd0710626d
:04015900bd0774dc8e
:04015a00bd07d956ae
:04015b00bd083dcfcf
:04015c00bd08a249ef
:04015d00bd0906c30f
:04015e00bd096b3c30
:04015f00bd09cfb651
:04016000bd0a342f71
:04016100bd0a98a893
:04016200bd0afd21b4
:04016300bd0b619ad5
:04016400bd0bc613f6
:04016500bd0c2a8c17
:04016600bd0c8f0538
:04016700bd0cf37e5a
:04016800bd0d57f67c
:04016900bd0dbc6f9d
:04016a00bd0e20e7bf
:04016b00bd0e8560e0
:04016c00bd0ee9d803
:04016d00bd0f4e5024
:04016e00bd0fb2c847
:04016f00bd10174068
:04017000bd107bb88b
:04017100bd10e030ad
:04017200bd1144a8cf
:04017300bd11a920f1
:04017400bd120d9714
:04017500bd12720f36
:04017600bd12d6865a
:04017700bd133afe7c
:04017800bd139f759f
:04017900bd1403ecc2
:04017a00bd146863e5
:04017b00bd14ccda09
:04017c00bd1531512b
:04017d00bd1595c84f
:04017e00bd15fa3f72
:04017f00bd165eb596
:04018000bd16c32cb9
:04018100bd1727a2dd
:04018200bd178c1801
:04018300bd17f08f25
:04018400bd18550548
:04018500bd18b97b6d
:04018600bd191df191
:04018700bd198267b5
:04018800bd19e6ddda
:04018900bd1a4b52fe
:04018a00bd1aafc823
:04018b00bd1b143d47
:04018c00bd1b78b36c
:04018d00bd1bdd2891
:04018e00bd1c419db6
:04018f00bd1ca613da
:04019000bd1d0a88ff
:04019100bd1d6efd25
:04019200bd1dd3724a
:04019300bd1e37e670
:04019400bd1e9c5b95
:04019500bd1f00d0ba
:04019600bd1f6544e0
:04019700bd1fc9b807
:04019800bd202e2d2b
:04019900bd2092a152
:04019a00bd20f71578
:04019b00bd215b899e
:04019c00bd21bffdc5
:04019d00bd222471ea
:04019e00bd2288e412
:04019f00bd22ed5838
:0401a000bd2351cb5f
:0401a100bd23b63f85
:0401a200bd241ab2ac
:0401a300bd247f25d3
:0401a400bd24e399fa
:0401a500bd25480c20
:0401a600bd25ac7e49
:0401a700bd2610f170
:0401a800bd26756497
:0401a900bd26d9d7bf
:0401aa00bd273e49e6
:0401ab00bd27a2bc0e
:0401ac00bd28072e35
:0401ad00bd286ba05e
:0401ae00bd28d01286
:0401af00bd293484ae
:0401b000bd2998f6d7
:0401b100bd29fd68ff
:0401b200bd2a61da27
:0401b300bd2ac64b50
:0401b400bd2b2abd78
:0401b500bd2b8f2ea1
:0401b600bd2bf39fcb
:0401b700bd2c5811f2
:0401b800bd2cbc821c
:0401b900bd2d20f345
:0401ba00bd2d85646e
:0401bb00bd2de9d499
:0401bc00bd2e4e45c1
:0401bd00bd2eb2b6eb
:0401be00bd2f172614
:0401bf00bd2f7b963f
:0401c000bd2fe00768
:0401c100bd30447792
:0401c200bd30a8e7bd
:0401c300bd310d57e6
:0401c400bd3171c612
:0401c500bd31d6363c
:0401c600bd323aa666
:0401c700bd329f1591
:0401c800bd330385bb
:0401c900bd3367f4e7
:0401ca00bd33cc6312
:0401cb00bd3430d23d
:0401cc00bd34954168
:0401cd00bd34f9b094
:0401ce00bd355e1fbe
:0401cf00bd35c28deb
:0401d000bd3626fc16
:0401d100bd368b6a42
:0401d200bd36efd96e
:0401d300bd37544799
:0401d400bd37b8b5c6
:0401d500bd381d23f1
:0401d600bd3881911e
:0401d700bd38e5fe4c
:0401d800bd394a6c77
:0401d900bd39aedaa4
:0401da00bd3a1347d0
:0401db00bd3a77b4fe
:0401dc00bd3adc222a
:0401dd00bd3b408f57
:0401de00bd3ba4fc85
:0401df00bd3c0968b2
:0401e000bd3c6dd5e0
:0401e100bd3cd2420d
:0401e200bd3d36ae3b
:0401e300bd3d9b1b68
:0401e400bd3dff8797
:0401e500bd3e63f3c5
:0401e600bd3ec85ff3
:0401e700bd3f2ccb21
:0401e800bd3f91374f
:0401e900bd3ff5a37e
:0401ea00bd405a0eac
:0401eb00bd40be7adb
:0401ec00bd4122e50a
:0401ed00bd41875039
:0401ee00bd41ebbb69
:0401ef00bd42502697
:0401f000bd42b491c7
:0401f100bd4318fcf6
:0401f200bd437d6725
:0401f300bd43e1d156
:0401f400bd44463c84
:0401f500bd44aaa6b5
:0401f600bd450f10e4
:0401f700bd45737a15
:0401f800bd45d7e446
:0401f900bd463c4e75
:0401fa00bd46a0b8a6
:0401fb00bd470521d6
:0401fc00bd47698b07
:0401fd00bd47cdf439
:0401fe00bd48325d69
:0401ff00bd4896c79a
:04020000bd48fb30ca
:04020100bd495f98fc
:04020200bd49c4012d
:04020300bd4a286a5e
:04020400bd4a8cd291
:04020500bd4af13bc2
:04020600bd4b55a3f4
:04020700bd4bba0b26
:04020800bd4c1e7358
:04020900bd4c82db8b
:04020a00bd4ce743bd
:04020b00bd4d4baaf0
:04020c00bd4db01222
:04020d00bd4e147955
:04020e00bd4e78e188
:04020f00bd4edd48bb
:04021000bd4f41afee
:04021100bd4fa61621
:04021200bd500a7c55
:04021300bd506ee389
:04021400bd50d34abc
:04021500bd5137b0f0
:04021600bd519c1624
:04021700bd52007c58
:04021800bd5264e28d
:04021900bd52c948c1
:04021a00bd532daef5
:04021b00bd53921429
:04021c00bd53f6795f
:04021d00bd545adf93
:04021e00bd54bf44c8
:04021f00bd5523a9fd
:04022000bd55880e32
:04022100bd55ec7368
:04022200bd5650d89d
:04022300bd56b53cd3
:04022400bd5719a108
:04022500bd577e053e
:04022600bd57e26975
:04022700bd5846cdab
:04022800bd58ab31e1
:04022900bd590f9517
:04022a00bd5973f94e
:04022b00bd59d85c85
:04022c00bd5a3cc0bb
:04022d00bd5aa123f2
:04022e00bd5b058629
:04022f00bd5b69e961
:04023000bd5bce4c98
:04023100bd5c32afcf
:04023200bd5c971206
:04023300bd5cfb743f
:04023400bd5d5fd776
:04023500bd5dc439ae
:04023600bd5e289be6
:04023700bd5e8cfd1f
:04023800bd5ef15f57
:04023900bd5f55c090
:04023a00bd5fba22c8
:04023b00bd601e8301
:04023c00bd6082e53a
:04023d00bd60e74673
:04023e00bd614ba7ac
:04023f00bd61b008e5
:04024000bd6214691e
:04024100bd6278c959
:04024200bd62dd2a92
:04024300bd63418acc
:04024400bd63a5ea07
:04024500bd640a4a40
:04024600bd646eaa7b
:04024700bd64d30ab5
:04024800bd65376aef
:04024900bd659bc92b
:04024a00bd66002964
:04024b00bd666488a0
:04024c00bd66c8e7dc
:04024d00bd672d4616
:04024e00bd6791a552
:04024f00bd67f6048d
:04025000bd685a62c9
:04025100bd68bec105
:04025200bd69231f40
:04025300bd69877d7d
:04025400bd69ebdbba
:04025500bd6a5039f5
:04025600bd6ab49633
:04025700bd6b18f46f
:04025800bd6b7d51ac
:04025900bd6be1afe9
:04025a00bd6c460c25
:04025b00bd6caa6963
:04025c00bd6d0ec6a0
:04025d00bd6d7323dd
:04025e00bd6dd77f1c
:04025f00bd6e3bdc59
:04026000bd6ea03897
:04026100bd6f0494d5
:04026200bd6f68f014
:04026300bd6fcd4c52
:04026400bd7031a890
:04026500bd709603cf
:04026600bd70fa5e0f
:04026700bd715eba4d
:04026800bd71c3158c
:04026900bd722770cb
:04026a00bd728bcb0b
:04026b00bd72f0254b
:04026c00bd7354808a
:04026d00bd73b8dacb
:04026e00bd741d3509
:04026f00bd74818f4a
:04027000bd74e5e98b
:04027100bd754a42cb
:04027200bd75ae9c0c
:04027300bd7612f64c
:04027400bd76774f8d
:04027500bd76dba8cf
:04027600bd7740010f
:04027700bd77a45a51
:04027800bd7808b392
:04027900bd786d0cd3
:04027a00bd78d16416
:04027b00bd7935bc58
:04027c00bd799a1599
:04027d00bd79fe6ddc
:04027e00bd7a62c51e
:04027f00bd7ac71c61
:04028000bd7b2b74a3
:04028100bd7b8fcbe7
:04028200bd7bf4222a
:04028300bd7c587a6c
:04028400bd7cbcd1b0
:04028500bd7d2127f3
:04028600bd7d857e37
:04028700bd7de9d57b
:04028800bd7e4e2bbe
:04028900bd7eb28103
:04028a00bd7f16d747
:04028b00bd7f7b2d8b
:04028c00bd7fdf83d0
:04028d00bd8021ec23
:04028e00bd805417c4
:04028f00bd80864266
:04029000bd80b86c09
:04029100bd80ea97ab
:04029200bd811cc14d
:04029300bd814eebf0
:04029400bd81811691
:04029500bd81b34034
:04029600bd81e56ad7
:04029700bd82179479
:04029800bd8249be1c
:04029900bd827be8bf
:04029a00bd82ae1162
:04029b00bd82e03b05
:04029c00bd831265a7
:04029d00bd83448e4b
:04029e00bd8376b8ee
:04029f00bd83a8e192
:0402a000bd83db0a35
:0402a100bd840d34d7
:0402a200bd843f5d7b
:0402a300bd8471861f
:0402a400bd84a3afc3
:0402a500bd84d5d867
:0402a600bd85080109
:0402a700bd853a29ae
:0402a800bd856c5252
:0402a900bd859e7bf6
:0402aa00bd85d0a39b
:0402ab00bd8602cc3e
:0402ac00bd8634f4e3
:0402ad00bd86671c87
:0402ae00bd8699442c
:0402af00bd86cb6cd1
:0402b000bd86fd9476
:0402b100bd872fbc1a
:0402b200bd8761e4bf
:0402b300bd87940c63
:0402b400bd87c63408
:0402b500bd87f85bae
:0402b600bd882a8352
:0402b700bd885caaf8
:0402b800bd888ed29d
:0402b900bd88c0f943
:0402ba00bd88f320e8
:0402bb00bd8925478d
:0402bc00bd89576e33
:0402bd00bd898995d9
:0402be00bd89bbbc7f
:0402bf00bd89ede325
:0402c000bd8a200ac9
:0402c100bd8a523070
:0402c200bd8a845716
:0402c300bd8ab67dbd
:0402c400bd8ae8a463
:0402c500bd8b1aca09
:0402c600bd8b4cf0b0
:0402c700bd8b7f1656
:0402c800bd8bb13cfd
:0402c900bd8be362a4
:0402ca00bd8c15884a
:0402cb00bd8c47aef1
:0402cc00bd8c79d498
:0402cd00bd8cabf940
:0402ce00bd8cde1fe6
:0402cf00bd8d10448d
:0402d000bd8d426a34
:0402d100bd8d748fdc
:0402d200bd8da6b484
:0402d300bd8dd8d92c
:0402d400bd8e0afed3
:0402d500bd8e3d237a
:0402d600bd8e6f4822
:0402d700bd8ea16dca
:0402d800bd8ed39173
:0402d900bd8f05b61a
:0402da00bd8f37dac3
:0402db00bd8f69ff6b
:0402dc00bd8f9c2313
:0402dd00bd8fce47bc
:0402de00bd90006c63
:0402df00bd9032900c
:0402e000bd9064b4b5
:0402e100bd9096d85e
:0402e200bd90c8fb08
:0402e300bd90fb1fb0
:0402e400bd912d4358
:0402e500bd915f6602
:0402e600bd91918aab
:0402e700bd91c3ad55
:0402e800bd91f5d0ff
:0402e900bd9227f4a7
:0402ea00bd925a1750
:0402eb00bd928c3afa
:0402ec00bd92be5da4
:0402ed00bd92f07f4f
:0402ee00bd9322a2f8
:0402ef00bd9354c5a2
:0402f000bd9386e74d
:0402f100bd93b90af6
:0402f200bd93eb2ca1
:0402f300bd941d4f4a
:0402f400bd944f71f5
:0402f500bd948193a0
:0402f600bd94b3b54b
:0402f700bd94e5d7f6
:0402f800bd9517f9a0
:0402f900bd954a1b4a
:0402fa00bd957c3cf6
:0402fb00bd95ae5ea1
:0402fc00bd95e07f4d
:0402fd00bd9612a1f7
:0402fe00bd9644c2a3
:0402ff00bd9676e34f
:04030000bd96a905f8
:04030100bd96db26a4
:04030200bd970d474f
:04030300bd973f67fc
:04030400bd977188a8
:04030500bd97a3a954
:04030600bd97d5ca00
:04030700bd9807eaac
:04030800bd983a0a58
:04030900bd986c2b04
:04030a00bd989e4bb1
:04030b00bd98d06b5e
:04030c00bd99028b0a
:04030d00bd9934abb7
:04030e00bd9966cb64
:04030f00bd9998eb11
:04031000bd99cb0abe
:04031100bd99fd2a6b
:04031200bd9a2f4a17
:04031300bd9a6169c5
:04031400bd9a938873
:04031500bd9ac5a721
:04031600bd9af7c7ce
:04031700bd9b29e67b
:04031800bd9b5c0528
:04031900bd9b8e23d7
:04031a00bd9bc04285
:04031b00bd9bf26133
:04031c00bd9c247fe1
:04031d00bd9c569e8f
:04031e00bd9c88bc3e
:04031f00bd9cbadaed
:04032000bd9cecf99b
:04032100bd9d1f1748
:04032200bd9d5135f7
:04032300bd9d8353a6
:04032400bd9db57056
:04032500bd9de78e05
:04032600bd9e19acb3
:04032700bd9e4bc963
:04032800bd9e7de712
:04032900bd9eb004c1
:04032a00bd9ee22171
:04032b00bd9f143e20
:04032c00bd9f465bd0
:04032d00bd9f787880
:04032e00bd9faa9530
:04032f00bd9fdcb2e0
:04033000bda00ecf8f
:04033100bda040eb40
:04033200bda07308ef
:04033300bda0a524a0
:04033400bda0d74051
:04033500bda1095c01
:04033600bda13b78b2
:04033700bda16d9463
:04033800bda19fb014
:04033900bda1d1ccc5
:04033a00bda203e875
:04033b00bda2360326
:04033c00bda2681fd7
:04033d00bda29a3a89
:04033e00bda2cc553b
:04033f00bda2fe71ec
:04034000bda3308c9d
:04034100bda362a74f
:04034200bda394c201
:04034300bda3c6dcb4
:04034400bda3f8f766
:04034500bda42b1216
:04034600bda45d2cc9
:04034700bda48f477b
:04034800bda4c1612e
:04034900bda4f37be1
:04034a00bda5259593
:04034b00bda557af46
:04034c00bda589c9f9
:04034d00bda5bbe3ac
:04034e00bda5edfd5f
:04034f00bda6201611
:04035000bda65230c4
:04035100bda6844978
:04035200bda6b6632b
:04035300bda6e87cdf
:04035400bda71a9592
:04035500bda74cae46
:04035600bda77ec7fa
:04035700bda7b0e0ae
:04035800bda7e2f863
:04035900bda8151115
:04035a00bda84729ca
:04035b00bda879427e
:04035c00bda8ab5a33
:04035d00bda8dd72e8
:04035e00bda90f8a9c
:04035f00bda941a251
:04036000bda973ba06
:04036100bda9a5d2bb
:04036200bda9d7ea70
:04036300bdaa0a0124
:04036400bdaa3c19d9
:04036500bdaa6e308f
:04036600bdaaa04844
:04036700bdaad25ffa
:04036800bdab0476af
:04036900bdab368d65
:04036a00bdab68a41b
:04036b00bdab9abad2
:04036c00bdabccd188
:04036d00bdabfee83e
:04036e00bdac30fef4
:04036f00bdac6314aa
:04037000bdac952b60
:04037100bdacc74117
:04037200bdacf957ce
:04037300bdad2b6d84
:04037400bdad5d833b
:04037500bdad8f98f3
:04037600bdadc1aeaa
:04037700bdadf3c362
:04037800bdae25d918
:04037900bdae57eed0
:04037a00bdae8a0387
:04037b00bdaebc183f
:04037c00bdaeee2df7
:04037d00bdaf2042ae
:04037e00bdaf525766
:04037f00bdaf846c1e
:04038000bdafb680d7
:04038100bdafe8958f
:04038200bdb01aa947
:04038300bdb04cbd00
:04038400bdb07ed2b8
:04038500bdb0b0e671
:04038600bdb0e2fa2a
:04038700bdb1150de2
:04038800bdb147219b
:04038900bdb1793554
:04038a00bdb1ab480e
:04038b00bdb1dd5cc7
:04038c00bdb20f6f80
:04038d00bdb241823a
:04038e00bdb27395f4
:04038f00bdb2a5a8ae
:04039000bdb2d7bb68
:04039100bdb309ce21
:04039200bdb33be0dc
:04039300bdb36df396
:04039400bdb3a00550
:04039500bdb3d2180a
:04039600bdb4042ac4
:04039700bdb4363c7f
:04039800bdb4684e3a
:04039900bdb49a60f5
:04039a00bdb4cc72b0
:04039b00bdb4fe836c
:04039c00bdb5309526
:04039d00bdb562a6e2
:04039e00bdb594b89d
:04039f00bdb5c6c959
:0403a000bdb5f8da15
:0403a100bdb62aebd0
:0403a200bdb65cfc8c
:0403a300bdb68f0d47
:0403a400bdb6c11d04
:0403a500bdb6f32ec0
:0403a600bdb7253e7c
:0403a700bdb7574f38
:0403a800bdb7895ff5
:0403a900bdb7bb6fb2
:0403aa00bdb7ed7f6f
:0403ab00bdb81f8f2b
:0403ac00bdb8519fe8
:0403ad00bdb883afa5
:0403ae00bdb8b5be63
:0403af00bdb8e7ce20
:0403b000bdb919dddd
:0403b100bdb94bec9b
:0403b200bdb97dfb59
:0403b300bdb9b00a16
:0403b400bdb9e219d4
:0403b500bdba142891
:0403b600bdba46374f
:0403b700bdba78450e
:0403b800bdbaaa54cc
:0403b900bdbadc628b
:0403ba00bdbb0e7049
:0403bb00bdbb407e08
:0403bc00bdbb728cc7
:0403bd00bdbba49a86
:0403be00bdbbd6a845
:0403bf00bdbc08b603
:0403c000bdbc3ac3c3
:0403c100bdbc6cd182
:0403c200bdbc9ede42
:0403c300bdbcd0eb02
:0403c400bdbd02f8c1
:0403c500bdbd350580
:0403c600bdbd671240
:0403c700bdbd991f00
:0403c800bdbdcb2cc0
:0403c900bdbdfd3881
:0403ca00bdbe2f4540
:0403cb00bdbe615101
:0403cc00bdbe935dc2
:0403cd00bdbec56983
:0403ce00bdbef77544
:0403cf00bdbf298104
:0403d000bdbf5b8dc5
:0403d100bdbf8d9887
:0403d200bdbfbfa448
:0403d300bdbff1af0a
:0403d400bdc023bacb
:0403d500bdc055c68c
:0403d600bdc087d14e
:0403d700bdc0b9dc10
:0403d800bdc0ebe6d3
:0403d900bdc11df194
:0403da00bdc14ffc56
:0403db00bdc1820618
:0403dc00bdc1b410db
:0403dd00bdc1e61b9d
:0403de00bdc218255f
:0403df00bdc24a2f22
:0403e000bdc27c39e5
:0403e100bdc2ae42a9
:0403e200bdc2e04c6c
:0403e300bdc312552f
:0403e400bdc3445ff2
:0403e500bdc37668b6
:0403e600bdc3a8717a
:0403e700bdc3da7a3e
:0403e800bdc40c8301
:0403e900bdc43e8cc5
:0403ea00bdc4709589
:0403eb00bdc4a29d4e
:0403ec00bdc4d4a612
:0403ed00bdc506aed6
:0403ee00bdc538b69b
:0403ef00bdc56abe60
:0403f000bdc59cc625
:0403f100bdc5ceceea
:0403f200bdc600d6ae
:0403f300bdc632de73
:0403f400bdc664e539
:0403f500bdc696edfe
:0403f600bdc6c8f4c4
:0403f700bdc6fafb8a
:0403f800bdc72d024e
:0403f900bdc75f0914
:0403fa00bdc79110da
:0403fb00bdc7c316a1
:0403fc00bdc7f51d67
:0403fd00bdc827232d
:0403fe00bdc8592af3
:0403ff00bdc88b30ba
:04040000bdc8bd3680
:04040100bdc8ef3c47
:04040200bdc921420d
:04040300bdc95347d5
:04040400bdc9854d9c
:04040500bdc9b75264
:04040600bdc9e9582b
:04040700bdca1b5df2
:04040800bdca4d62ba
:04040900bdca7f6782
:04040a00bdcab16c4a
:04040b00bdcae37112
:04040c00bdcb1575da
:04040d00bdcb477aa2
:04040e00bdcb797e6b
:04040f00bdcbab8234
:04041000bdcbdd86fd
:04041100bdcc0f8ac5
:04041200bdcc418e8e
:04041300bdcc739257
:04041400bdcca59620
:04041500bdccd799ea
:04041600bdcd099cb3
:04041700bdcd3ba07c
:04041800bdcd6da346
:04041900bdcd9fa610
:04041a00bdcdd1a9da
:04041b00bdce03aba4
:04041c00bdce35ae6e
:04041d00bdce67b138
:04041e00bdce99b303
:04041f00bdcecbb5ce
:04042000bdcefdb799
:04042100bdcf2fb963
:04042200bdcf61bb2e
:04042300bdcf93bdf9
:04042400bdcfc5bfc4
:04042500bdcff7c090
:04042600bdd029c25a
:04042700bdd05bc326
:04042800bdd08dc4f2
:04042900bdd0bfc5be
:04042a00bdd0f1c68a
:04042b00bdd123c755
:04042c00bdd155c722
:04042d00bdd187c8ee
:04042e00bdd1b9c8bb
:04042f00bdd1ebc888
:04043000bdd21dc854
:04043100bdd24fc821
:04043200bdd281c8ee
:04043300bdd2b3c8bb
:04043400bdd2e5c888
:04043500bdd317c755
:04043600bdd349c722
:04043700bdd37bc6f0
:04043800bdd3adc5be
:04043900bdd3dfc48c
:04043a00bdd411c359
:04043b00bdd443c128
:04043c00bdd475c0f6
:04043d00bdd4a7bec5
:04043e00bdd4d9bd93
:04043f00bdd50bbb61
:04044000bdd53db930
:04044100bdd56fb7ff
:04044200bdd5a1b5ce
:04044300bdd5d3b39d
:04044400bdd605b06c
:04044500bdd637ae3b
:04044600bdd669ab0b
:04044700bdd69ba8db
:04044800bdd6cda5ab
:04044900bdd6ffa27b
:04044a00bdd7319f4a
:04044b00bdd7639c1a
:04044c00bdd79598eb
:04044d00bdd7c795bb
:04044e00bdd7f9918c
:04044f00bdd82b8d5c
:04045000bdd85d892d
:04045100bdd88f85fe
:04045200bdd8c181cf
:04045300bdd8f37ca1
:04045400bdd9257871
:04045500bdd9577343
:04045600bdd9896e15
:04045700bdd9bb69e7
:04045800bdd9ed64b9
:04045900bdda1f5f8a
:04045a00bdda515a5c
:04045b00bdda83542f
:04045c00bddab54f01
:04045d00bddae749d4
:04045e00bddb1943a6
:04045f00bddb4b3d79
:04046000bddb7d374c
:04046100bddbaf311f
:04046200bddbe12bf2
:04046300bddc1324c5
:04046400bddc451e98
:04046500bddc77176c
:04046600bddca91040
:04046700bddcdb0914
:04046800bddd0d02e7
:04046900bddd3efbbc
:04046a00bddd70f391
:04046b00bddda2ec65
:04046c00bdddd4e43a
:04046d00bdde06dc0e
:04046e00bdde38d4e3
:04046f00bdde6accb8
:04047000bdde9cc48d
:04047100bddecebc62
:04047200bddf00b337
:04047300bddf32ab0c
:04047400bddf64a2e2
:04047500bddf9699b8
:04047600bddfc8908e
:04047700bddffa8764
:04047800bde02c7d3a
:04047900bde05e7410
:04047a00bde0906ae7
:04047b00bde0c261bd
:04047c00bde0f45794
:04047d00bde1264d6a
:04047e00bde1584341
:04047f00bde18a3918
:04048000bde1bc2ef0
:04048100bde1ee24c7
:04048200bde220199e
:04048300bde2520e76
:04048400bde284034e
:04048500bde2b5f827
:04048600bde2e7edff
:04048700bde319e2d6
:04048800bde34bd6af
:04048900bde37dcb87
:04048a00bde3afbf60
:04048b00bde3e1b339
:04048c00bde413a711
:04048d00bde4459bea
:04048e00bde4778fc3
:04048f00bde4a9829d
:04049000bde4db7676
:04049100bde50d694f
:04049200bde53f5c29
:04049300bde5714f03
:04049400bde5a342dd
:04049500bde5d535b7
:04049600bde6072791
:04049700bde6391a6b
:04049800bde66b0c46
:04049900bde69cfe22
:04049a00bde6cef0fd
:04049b00bde700e2d7
:04049c00bde732d4b2
:04049d00bde764c68d
:04049e00bde796b769
:04049f00bde7c8a944
:0404a000bde7fa9a20
:0404a100bde82c8bfb
:0404a200bde85e7cd7
:0404a300bde8906db3
:0404a400bde8c25d90
:0404a500bde8f44e6c
:0404a600bde9263e48
:0404a700bde9582e25
:0404a800bde98a1f01
:0404a900bde9bc0edf
:0404aa00bde9edfebd
:0404ab00bdea1fee99
:0404ac00bdea51de76
:0404ad00bdea83cd54
:0404ae00bdeab5bc32
:0404af00bdeae7ab10
:0404b000bdeb199aed
:0404b100bdeb4b89cb
:0404b200bdeb7d78a9
:0404b300bdebaf6688
:0404b400bdebe15566
:0404b500bdec134344
:0404b600bdec453123
:0404b700bdec771f02
:0404b800bdeca90de1
:0404b900bdecdafbc1
:0404ba00bded0ce8a0
:0404bb00bded3ed580
:0404bc00bded70c35f
:0404bd00bdeda2b03f
:0404be00bdedd49d1f
:0404bf00bdee068afe
:0404c000bdee3876df
:0404c100bdee6a63bf
:0404c200bdee9c4fa0
:0404c300bdeece3c80
:0404c400bdef002860
:0404c500bdef321441
:0404c600bdef63ff24
:0404c700bdef95eb05
:0404c800bdefc7d7e6
:0404c900bdeff9c2c8
:0404ca00bdf02bada9
:0404cb00bdf05d988b
:0404cc00bdf08f836d
:0404cd00bdf0c16e4f
:0404ce00bdf0f35931
:0404cf00bdf1254313
:0404d000bdf1572ef5
:0404d100bdf18918d8
:0404d200bdf1bb02bb
:0404d300bdf1ecec9f
:0404d400bdf21ed681
:0404d500bdf250bf65
:0404d600bdf282a948
:0404d700bdf2b4922c
:0404d800bdf2e67c0f
:0404d900bdf31865f2
:0404da00bdf34a4ed6
:0404db00bdf37c36bb
:0404dc00bdf3ae1f9f
:0404dd00bdf3e00784
:0404de00bdf411f068
:0404df00bdf443d84d
:0404e000bdf475c032
:0404e100bdf4a7a817
:0404e200bdf4d990fc
:0404e300bdf50b77e1
:0404e400bdf53d5fc6
:0404e500bdf56f46ac
:0404e600bdf5a12d92
:0404e700bdf5d31478
:0404e800bdf604fb5e
:0404e900bdf636e244
:0404ea00bdf668c82b
:0404eb00bdf69aaf11
:0404ec00bdf6cc95f8
:0404ed00bdf6fe7bdf
:0404ee00bdf73061c5
:0404ef00bdf76247ac
:0404f000bdf7942c94
:0404f100bdf7c6127b
:0404f200bdf7f7f764
:0404f300bdf829dd4a
:0404f400bdf85bc232
:0404f500bdf88da71a
:0404f600bdf8bf8b03
:0404f700bdf8f170eb
:0404f800bdf92354d3
:0404f900bdf95539bb
:0404fa00bdf9871da4
:0404fb00bdf9b9018d
:0404fc00bdf9eae577
:0404fd00bdfa1cc860
:0404fe00bdfa4eac49
:0404ff00bdfa808f33
:04050000bdfab2731b
:04050100bdfae45605
:04050200bdfb1639ee
:04050300bdfb481cd8
:04050400bdfb79fec4
:04050500bdfbabe1ae
:04050600bdfbddc399
:04050700bdfc0fa583
:04050800bdfc41876e
:04050900bdfc736959
:04050a00bdfca54b44
:04050b00bdfcd72d2f
:04050c00bdfd090e1a
:04050d00bdfd3aef07
:04050e00bdfd6cd1f2
:04050f00bdfd9eb2de
:04051000bdfdd092cb
:04051100bdfe0273b6
:04051200bdfe3454a2
:04051300bdfe66348f
:04051400bdfe98147c
:04051500bdfec9f46a
:04051600bdfefbd457
:04051700bdff2db443
:04051800bdff5f9430
:04051900bdff91731e
:04051a00bdffc3520c
:04051b00bdfff531fa
:04051c00be00138882
:04051d00be002c7878
:04051e00be0045676f
:04051f00be005e5666
:04052000be0077455d
:04052100be00903553
:04052200be00a9244a
:04052300be00c21341
:04052400be00db0139
:04052500be00f3f031
:04052600be010cdf27
:04052700be0125ce1e
:04052800be013ebc16
:04052900be0157ab0d
:04052a00be01709905
:04052b00be018987fd
:04052c00be01a276f4
:04052d00be01bb64ec
:04052e00be01d452e4
:04052f00be01ed40dc
:04053000be02062ed3
:04053100be021f1ccb
:04053200be02380ac3
:04053300be0250f7bd
:04053400be0269e5b5
:04053500be0282d2ae
:04053600be029bc0a6
:04053700be02b4ad9f
:04053800be02cd9b97
:04053900be02e68890
:04053a00be02ff7589
:04053b00be03186281
:04053c00be03314f7a
:04053d00be034a3c73
:04053e00be0363296c
:04053f00be037c1665
:04054000be0395025f
:04054100be03adef59
:04054200be03c6db53
:04054300be03dfc84c
:04054400be03f8b446
:04054500be0411a03f
:04054600be042a8d38
:04054700be04437932
:04054800be045c652c
:04054900be04755126
:04054a00be048e3d20
:04054b00be04a7291a
:04054c00be04c01415
:04054d00be04d9000f
:04054e00be04f1eb0b
:04054f00be050ad704
:04055000be0523c2ff
:04055100be053caef9
:04055200be055599f4
:04055300be056e84ef
:04055400be05876fea
:04055500be05a05ae5
:04055600be05b945e0
:04055700be05d230db
:04055800be05eb1bd6
:04055900be060405d1
:04055a00be061cf0cd
:04055b00be0635dbc8
:04055c00be064ec5c4
:04055d00be0667afc0
:04055e00be06809abb
:04055f00be069984b7
:04056000be06b26eb3
:04056100be06cb58af
:04056200be06e442ab
:04056300be06fd2ca7
:04056400be071616a2
:04056500be072effa0
:04056600be0747e99c
:04056700be0760d299
:04056800be0779bc95
:04056900be0792a592
:04056a00be07ab8f8e
:04056b00be07c4788b
:04056c00be07dd6188
:04056d00be07f64a85
:04056e00be080f3381
:04056f00be08281c7e
:04057000be0841057b
:04057100be0859ed7a
:04057200be0872d677
:04057300be088bbf74
:04057400be08a4a772
:04057500be08bd906f
:04057600be08d6786d
:04057700be08ef606b
:04057800be09084868
:04057900be09213066
:04057a00be093a1864
:04057b00be09530062
:04057c00be096be861
:04057d00be0984d05f
:04057e00be099db75e
:04057f00be09b69f5c
:04058000be09cf865b
:04058100be09e86e59
:04058200be0a015557
:04058300be0a1a3c56
:04058400be0a332454
:04058500be0a4c0b53
:04058600be0a64f253
:04058700be0a7dd952
:04058800be0a96bf52
:04058900be0aafa651
:04058a00be0ac88d50
:04058b00be0ae17350
:04058c00be0afa5a4f
:04058d00be0b13404e
:04058e00be0b2c274d
:04058f00be0b450d4d
:04059000be0b5df34e
:04059100be0b76d94e
:04059200be0b8fbf4e
:04059300be0ba8a54e
:04059400be0bc18b4e
:04059500be0bda714e
:04059600be0bf3564f
:04059700be0c0c3c4e
:04059800be0c25214f
:04059900be0c3e074f
:04059a00be0c56ec51
:04059b00be0c6fd152
:04059c00be0c88b653
:04059d00be0ca19b54
:04059e00be0cba8055
:04059f00be0cd36556
:0405a000be0cec4a57
:0405a100be0d052f57
:0405a200be0d1e1359
:0405a300be0d36f85b
:0405a400be0d4fdc5d
:0405a500be0d68c15e
:0405a600be0d81a560
:0405a700be0d9a8962
:0405a800be0db36d64
:0405a900be0dcc5166
:0405aa00be0de53568
:0405ab00be0dfe196a
:0405ac00be0e16fd6c
:0405ad00be0e2fe16e
:0405ae00be0e48c471
:0405af00be0e61a873
:0405b000be0e7a8b76
:0405b100be0e936f78
:0405b200be0eac527b
:0405b300be0ec5357e
:0405b400be0ede1881
:0405b500be0ef6fb85
:0405b600be0f0fde87
:0405b700be0f28c18a
:0405b800be0f41a48d
:0405b900be0f5a8691
:0405ba00be0f736994
:0405bb00be0f8c4b98
:0405bc00be0fa52e9b
:0405bd00be0fbe109f
:0405be00be0fd6f2a4
:0405bf00be0fefd5a7
:0405c000be1008b7aa
:0405c100be102199ae
:0405c200be103a7bb2
:0405c300be10535cb7
:0405c400be106c3ebb
:0405c500be108520bf
:0405c600be109e01c4
:0405c700be10b6e3c9
:0405c800be10cfc4ce
:0405c900be10e8a5d3
:0405ca00be110186d7
:0405cb00be111a68db
:0405cc00be113349e0
:0405cd00be114c2ae5
:0405ce00be11650aeb
:0405cf00be117debf1
:0405d000be1196ccf6
:0405d100be11afacfc
:0405d200be11c88d01
:0405d300be11e16d07
:0405d400be11fa4e0c
:0405d500be12132e11
:0405d600be122c0e17
:0405d700be1244ee1e
:0405d800be125dce24
:0405d900be1276ae2a
:0405da00be128f8e30
:0405db00be12a86d37
:0405dc00be12c14d3d
:0405dd00be12da2c44
:0405de00be12f30c4a
:0405df00be130beb51
:0405e000be1324ca58
:0405e100be133daa5e
:0405e200be13568965
:0405e300be136f686c
:0405e400be13884773
:0405e500be13a1257b
:0405e600be13ba0482
:0405e700be13d2e38a
:0405e800be13ebc192
:0405e900be1404a098
:0405ea00be141d7ea0
:0405eb00be14365ca8
:0405ec00be144f3baf
:0405ed00be146819b7
:0405ee00be1480f7c0
:0405ef00be1499d5c8
:0405f000be14b2b2d1
:0405f100be14cb90d9
:0405f200be14e46ee1
:0405f300be14fd4bea
:0405f400be151629f1
:0405f500be152f06fa
:0405f600be1547e403
:0405f700be1560c10c
:0405f800be15799e15
:0405f900be15927b1e
:0405fa00be15ab5827
:0405fb00be15c43530
:0405fc00be15dd113a
:0405fd00be15f5ee44
:0405fe00be160ecb4c
:0405ff00be1627a756
:04060000be1640835f
:04060100be16596068
:04060200be16723c72
:04060300be168b187c
:04060400be16a3f487
:04060500be16bcd091
:04060600be16d5ac9b
:04060700be16ee88a5
:04060800be170763af
:04060900be17203fb9
:04060a00be17391ac4
:04060b00be1751f6cf
:04060c00be176ad1da
:04060d00be1783ace5
:04060e00be179c87f0
:04060f00be17b562fb
:04061000be17ce3d06
:04061100be17e71811
:04061200be17fff31d
:04061300be1818ce27
:04061400be1831a833
:04061500be184a833e
:04061600be18635d4a
:04061700be187c3756
:04061800be18951162
:04061900be18adec6e
:04061a00be18c6c67a
:04061b00be18dfa086
:04061c00be18f87993
:04061d00be1911539e
:04061e00be192a2daa
:04061f00be194306b7
:04062000be195be0c4
:04062100be1974b9d1
:04062200be198d92de
:04062300be19a66cea
:04062400be19bf45f7
:04062500be19d81e04
:04062600be19f0f712
:04062700be1a09cf1f
:04062800be1a22a82c
:04062900be1a3b8139
:04062a00be1a545947
:04062b00be1a6d3254
:04062c00be1a860a62
:04062d00be1a9ee271
:04062e00be1ab7bb7e
:04062f00be1ad0938c
:04063000be1ae96b9a
:04063100be1b0242a8
:04063200be1b1b1ab6
:04063300be1b33f2c5
:04063400be1b4ccad3
:04063500be1b65a1e2
:04063600be1b7e79f0
:04063700be1b9750ff
:04063800be1bb0270e
:04063900be1bc8fe1e
:04063a00be1be1d52d
:04063b00be1bfaac3c
:04063c00be1c13834a
:04063d00be1c2c5a59
:04063e00be1c453069
:04063f00be1c5e0778
:04064000be1c76de88
:04064100be1c8fb498
:04064200be1ca88aa8
:04064300be1cc160b8
:04064400be1cda36c8
:04064500be1cf30dd7
:04064600be1d0be2e8
:04064700be1d24b8f8
:04064800be1d3d8e08
:04064900be1d566418
:04064a00be1d6f3929
:04064b00be1d880f39
:04064c00be1da0e44b
:04064d00be1db9b95c
:04064e00be1dd28e6d
:04064f00be1deb637e
:04065000be1e04388e
:04065100be1e1d0d9f
:04065200be1e35e2b1
:04065300be1e4eb7c2
:04065400be1e678bd4
:04065500be1e8060e5
:04065600be1e9934f7
:04065700be1eb20809
:04065800be1ecadd1b
:04065900be1ee3b12d
:04065a00be1efc853f
:04065b00be1f155950
:04065c00be1f2e2c63
:04065d00be1f470075
:04065e00be1f5fd488
:04065f00be1f78a79b
:04066000be1f917bad
:04066100be1faa4ec0
:04066200be1fc321d3
:04066300be1fdbf4e7
:04066400be1ff4c8f9
:04066500be200d9a0c
:04066600be20266d1f
:04066700be203f4032
:04066800be20581345
:04066900be2070e55a
:04066a00be2089b86d
:04066b00be20a28a81
:04066c00be20bb5c95
:04066d00be20d42fa8
:04066e00be20ed01bc
:04066f00be2105d3d0
:04067000be211ea5e4
:04067100be213776f9
:04067200be2150480d
:04067300be21691a21
:04067400be2181eb37
:04067500be219abd4b
:04067600be21b38e60
:04067700be21cc5f75
:04067800be21e5308a
:04067900be21fe019f
:04067a00be2216d2b4
:04067b00be222fa3c9
:04067c00be224874de
:04067d00be226144f4
:04067e00be227a1509
:04067f00be2292e520
:04068000be22abb635
:04068100be22c4864b
:04068200be22dd5661
:04068300be22f62677
:04068400be230ef68d
:04068500be2327c6a3
:04068600be234095ba
:04068700be235965d0
:04068800be237235e6
:04068900be238b04fd
:04068a00be23a3d315
:04068b00be23bca32b
:04068c00be23d57242
:04068d00be23ee4159
:04068e00be2407106f
:04068f00be241fdf87
:04069000be2438ad9f
:04069100be24517cb6
:04069200be246a4bcd
:04069300be248319e5
:04069400be249be7fe
:04069500be24b4b615
:04069600be24cd842d
:04069700be24e65245
:04069800be24ff205d
:04069900be2517ee75
:04069a00be2530bc8d
:04069b00be254989a6
:04069c00be256257be
:04069d00be257b24d7
:04069e00be2593f2f0
:04069f00be25acbf09
:0406a000be25c58c22
:0406a100be25de593b
:0406a200be25f72654
:0406a300be260ff36d
:0406a400be2628c086
:0406a500be26418ca0
:0406a600be265a59b9
:0406a700be267325d3
:0406a800be268bf2ed
:0406a900be26a4be07
:0406aa00be26bd8a21
:0406ab00be26d6563b
:0406ac00be26ef2255
:0406ad00be2707ee6f
:0406ae00be2720ba89
:0406af00be273985a4
:0406b000be275251be
:0406b100be276b1cd9
:0406b200be2783e8f4
:0406b300be279cb30f
:0406b400be27b57e2a
:0406b500be27ce4945
:0406b600be27e71460
:0406b700be27ffdf7c
:0406b800be2818aa96
:0406b900be283174b2
:0406ba00be284a3fcd
:0406bb00be286309e9
:0406bc00be287bd405
:0406bd00be28949e21
:0406be00be28ad683d
:0406bf00be28c63259
:0406c000be28defc76
:0406c100be28f7c692
:0406c200be291090ad
:0406c300be292959ca
:0406c400be294223e6
:0406c500be295aec04
:0406c600be2973b620
:0406c700be298c7f3d
:0406c800be29a5485a
:0406c900be29be1177
:0406ca00be29d6da95
:0406cb00be29efa3b2
:0406cc00be2a086bcf
:0406cd00be2a2134ec
:0406ce00be2a39fd0a
:0406cf00be2a52c528
:0406d000be2a6b8d46
:0406d100be2a845663
:0406d200be2a9d1e81
:0406d300be2ab5e6a0
:0406d400be2aceaebe
:0406d500be2ae775dd
:0406d600be2b003dfa
:0406d700be2b190518
:0406d800be2b31cc38
:0406d900be2b4a9357
:0406da00be2b635b75
:0406db00be2b7c2294
:0406dc00be2b94e9b4
:0406dd00be2badb0d3
:0406de00be2bc677f2
:0406df00be2bdf3e11
:0406e000be2bf80431
:0406e100be2c10cb50
:0406e200be2c299170
:0406e300be2c42588f
:0406e400be2c5b1eaf
:0406e500be2c73e4d0
:0406e600be2c8caaf0
:0406e700be2ca57010
:0406e800be2cbe3630
:0406e900be2cd6fb52
:0406ea00be2cefc172
:0406eb00be2d088791
:0406ec00be2d214cb2
:0406ed00be2d3a11d3
:0406ee00be2d52d6f5
:0406ef00be2d6b9c15
:0406f000be2d846136
:0406f100be2d9d2558
:0406f200be2db5ea7a
:0406f300be2dceaf9b
:0406f400be2de773bd
:0406f500be2e0038dd
:0406f600be2e18fc00
:0406f700be2e31c121
:0406f800be2e4a8543
:0406f900be2e634965
:0406fa00be2e7c0d87
:0406fb00be2e94d1aa
:0406fc00be2ead94cd
:0406fd00be2ec658ef
:0406fe00be2edf1b12
:0406ff00be2ef7df35
:04070000be2f10a256
:04070100be2f296579
:04070200be2f42289c
:04070300be2f5aebc0
:04070400be2f73aee3
:04070500be2f8c7106
:04070600be2fa53429
:04070700be2fbdf64e
:04070800be2fd6b971
:04070900be2fef7b95
:04070a00be30083db8
:04070b00be302100db
:04070c00be3039c200
:04070d00be30528424
:04070e00be306b4549
:04070f00be3084076d
:04071000be309cc992
:04071100be30b58ab7
:04071200be30ce4cdb
:04071300be30e70d00
:04071400be30ffce26
:04071500be31188f4a
:04071600be3131506f
:04071700be314a1194
:04071800be3162d2ba
:04071900be317b92e0
:04071a00be31945305
:04071b00be31ad132b
:04071c00be31c5d451
:04071d00be31de9477
:04071e00be31f7549d
:04071f00be321014c2
:04072000be3228d4e9
:04072100be3241940f
:04072200be325a5435
:04072300be3273135c
:04072400be328bd383
:04072500be32a492aa
:04072600be32bd51d1
:04072700be32d610f8
:04072800be32eecf20
:04072900be33078e46
:04072a00be33204d6d
:04072b00be33390c94
:04072c00be3351cbbc
:04072d00be336a89e4
:04072e00be3383480b
:04072f00be339c0633
:04073000be33b4c45c
:04073100be33cd8284
:04073200be33e640ac
:04073300be33fefed5
:04073400be3417bcfc
:04073500be34307925
:04073600be3449374d
:04073700be3461f477
:04073800be347ab29f
:04073900be34936fc8
:04073a00be34ac2cf1
:04073b00be34c4e91b
:04073c00be34dda644
:04073d00be34f6626e
:04073e00be350f1f96
:04073f00be3527dcc0
:04074000be354098ea
:04074100be35595414
:04074200be3572113d
:04074300be358acd68
:04074400be35a38992
:04074500be35bc45bc
:04074600be35d501e6
:04074700be35edbc12
:04074800be3606783b
:04074900be361f3366
:04074a00be3637ef91
:04074b00be3650aabc
:04074c00be366965e7
:04074d00be36822012
:04074e00be369adb3e
:04074f00be36b39669
:04075000be36cc5095
:04075100be36e50bc0
:04075200be36fdc5ed
:04075300be37168017
:04075400be372f3a43
:04075500be3747f470
:04075600be3760ae9c
:04075700be377968c8
:04075800be379222f4
:04075900be37aadc21
:04075a00be37c3954e
:04075b00be37dc4f7a
:04075c00be37f508a7
:04075d00be380dc1d4
:04075e00be38267a01
:04075f00be383f332e
:04076000be3857ec5c
:04076100be3870a589
:04076200be38895eb6
:04076300be38a217e3
:04076400be38bacf12
:04076500be38d38740
:04076600be38ec406d
:04076700be3904f89b
:04076800be391db0c9
:04076900be393668f7
:04076a00be394f2025
:04076b00be3967d755
:04076c00be39808f83
:04076d00be399946b2
:04076e00be39b1fee1
:04076f00be39cab510
:04077000be39e36c3f
:04077100be39fc236e
:04077200be3a14da9d
:04077300be3a2d91cc
:04077400be3a4647fc
:04077500be3a5efe2c
:04077600be3a77b45c
:04077700be3a906b8b
:04077800be3aa921bb
:04077900be3ac1d7ec
:04077a00be3ada8d1c
:04077b00be3af3434c
:04077c00be3b0bf97c
:04077d00be3b24afac
:04077e00be3b3d64dd
:04077f00be3b561a0d
:04078000be3b6ecf3f
:04078100be3b878470
:04078200be3ba039a1
:04078300be3bb8eed3
:04078400be3bd1a304
:04078500be3bea5835
:04078600be3c030d65
:04078700be3c1bc198
:04078800be3c3476c9
:04078900be3c4d2afb
:04078a00be3c65de2e
:04078b00be3c7e9260
:04078c00be3c974692
:04078d00be3caffac5
:04078e00be3cc8aef7
:04078f00be3ce1612a
:04079000be3cfa155c
:04079100be3d12c88f
:04079200be3d2b7cc1
:04079300be3d442ff4
:04079400be3d5ce228
:04079500be3d75955b
:04079600be3d8e488e
:04079700be3da6fac3
:04079800be3dbfadf6
:04079900be3dd86029
:04079a00be3df1125d
:04079b00be3e09c491
:04079c00be3e2276c5
:04079d00be3e3b28f9
:04079e00be3e53da2e
:04079f00be3e6c8c62
:0407a000be3e853e96
:0407a100be3e9defcc
:0407a200be3eb6a100
:0407a300be3ecf5235
:0407a400be3ee80469
:0407a500be3f00b59e
:0407a600be3f1966d3
:0407a700be3f321708
:0407a800be3f4ac73f
:0407a900be3f637874
:0407aa00be3f7c29a9
:0407ab00be3f94d9e0
:0407ac00be3fad8916
:0407ad00be3fc6394c
:0407ae00be3fdeea82
:0407af00be3ff79ab8
:0407b000be401049ee
:0407b100be4028f925
:0407b200be4041a95b
:0407b300be405a5892
:0407b400be407308c8
:0407b500be408bb700
:0407b600be40a46637
:0407b700be40bd156e
:0407b800be40d5c4a6
:0407b900be40ee73dd
:0407ba00be41072213
:0407bb00be411fd04c
:0407bc00be41387f83
:0407bd00be41512dbb
:0407be00be4169dbf4
:0407bf00be4182892c
:0407c000be419b3764
:0407c100be41b3e59d
:0407c200be41cc93d5
:0407c300be41e5410d
:0407c400be41fdee47
:0407c500be42169b7f
:0407c600be422f49b7
:0407c700be4247f6f1
:0407c800be4260a32a
:0407c900be42795063
:0407ca00be4291fd9d
:0407cb00be42aaaad6
:0407cc00be42c35610
:0407cd00be42dc0349
:0407ce00be42f4af84
:0407cf00be430d5bbd
:0407d000be432607f7
:0407d100be433eb332
:0407d200be43575f6c
:0407d300be43700ba6
:0407d400be4388b7e1
:0407d500be43a1621c
:0407d600be43ba0e56
:0407d700be43d2b992
:0407d800be43eb64cd
:0407d900be44040f07
:0407da00be441cba43
:0407db00be4435657e
:0407dc00be444e10b9
:0407dd00be4466baf6
:0407de00be447f6531
:0407df00be44980f6d
:0407e000be44b0b9aa
:0407e100be44c963e6
:0407e200be44e20d22
:0407e300be44fab75f
:0407e400be4513619a
:0407e500be452c0bd6
:0407e600be4544b414
:0407e700be455d5e50
:0407e800be4576078d
:0407e900be458eb0cb
:0407ea00be45a75908
:0407eb00be45c00245
:0407ec00be45d8ab83
:0407ed00be45f153c1
:0407ee00be4609fcfe
:0407ef00be4622a53b
:0407f000be463b4d79
:0407f100be4653f5b8
:0407f200be466c9df6
:0407f300be46854534
:0407f400be469ded73
:0407f500be46b695b1
:0407f600be46cf3cf0
:0407f700be46e7e42f
:0407f800be47008b6d
:0407f900be471932ac
:0407fa00be4731daeb
:0407fb00be474a812a
:0407fc00be47632869
:0407fd00be477bceaa
:0407fe00be479475e9
:0407ff00be47ad1b29
:04080000be47c5c268
:04080100be47de68a8
:04080200be47f70ee8
:04080300be480fb428
:04080400be48285a68
:04080500be484100a8
:04080600be4859a6e9
:04080700be48724b2a
:04080800be488af16b
:04080900be48a396ac
:04080a00be48bc3bed
:04080b00be48d4e02f
:04080c00be48ed8570
:04080d00be49062ab0
:04080e00be491ecff2
:04080f00be49377433
:04081000be49501875
:04081100be4968bcb8
:04081200be498161f9
:04081300be499a053b
:04081400be49b2a97e
:04081500be49cb4dc0
:04081600be49e3f004
:04081700be49fc9446
:04081800be4a153887
:04081900be4a2ddbcb
:04081a00be4a467e0e
:04081b00be4a5f2151
:04081c00be4a77c495
:04081d00be4a9067d8
:04081e00be4aa90a1b
:04081f00be4ac1ad5f
:04082000be4ada4fa3
:04082100be4af2f2e7
:04082200be4b0b942a
:04082300be4b24366e
:04082400be4b3cd8b3
:04082500be4b557af7
:04082600be4b6e1c3b
:04082700be4b86be80
:04082800be4b9f5fc5
:04082900be4bb80109
:04082a00be4bd0a24f
:04082b00be4be94394
:04082c00be4c01e4d9
:04082d00be4c1a851e
:04082e00be4c332663
:04082f00be4c4bc7a9
:04083000be4c6467ef
:04083100be4c7d0834
:04083200be4c95a87b
:04083300be4cae48c1
:04083400be4cc6e808
:04083500be4cdf884e
:04083600be4cf82894
:04083700be4d10c8da
:04083800be4d296721
:04083900be4d420767
:04083a00be4d5aa6af
:04083b00be4d7345f6
:04083c00be4d8be43e
:04083d00be4da48385
:04083e00be4dbd22cc
:04083f00be4dd5c114
:04084000be4dee605b
:04084100be4e06fea3
:04084200be4e1f9ceb
:04084300be4e383b32
:04084400be4e50d97b
:04084500be4e6977c3
:04084600be4e82150b
:04084700be4e9ab255
:04084800be4eb3509d
:04084900be4ecbede7
:04084a00be4ee48b2f
:04084b00be4efd2878
:04084c00be4f15c5c1
:04084d00be4f2e620a
:04084e00be4f46ff54
:04084f00be4f5f9c9d
:04085000be4f7838e7
:04085100be4f90d531
:04085200be4fa9717b
:04085300be4fc20dc5
:04085400be4fdaa910
:04085500be4ff3455a
:04085600be500be1a4
:04085700be50247dee
:04085800be503d1938
:04085900be5055b484
:04085a00be506e4fcf
:04085b00be5086eb1a
:04085c00be509f8665
:04085d00be50b821b0
:04085e00be50d0bcfc
:04085f00be50e95648
:04086000be5101f193
:04086100be511a8bdf
:04086200be5133262a
:04086300be514bc077
:04086400be51645ac3
:04086500be517cf410
:04086600be51958e5c
:04086700be51ae28a8
:04086800be51c6c1f6
:04086900be51df5b42
:04086a00be51f7f490
:04086b00be52108ddc
:04086c00be52292629
:04086d00be5241bf77
:04086e00be525a58c4
:04086f00be5272f112
:04087000be528b8960
:04087100be52a422ad
:04087200be52bcbafc
:04087300be52d5524a
:04087400be52edea99
:04087500be530682e6
:04087600be531f1a34
:04087700be5337b283
:04087800be535049d2
:04087900be5368e121
:04087a00be53817870
:04087b00be539a0fbf
:04087c00be53b2a60f
:04087d00be53cb3d5e
:04087e00be53e3d4ae
:04087f00be53fc6bfd
:04088000be5415014c
:04088100be542d989c
:04088200be54462eec
:04088300be545ec43d
:04088400be54775a8d
:04088500be548ff0de
:04088600be54a8862e
:04088700be54c11b7f
:04088800be54d9b1d0
:04088900be54f24621
:04088a00be550adc71
:04088b00be552371c2
:04088c00be553c0613
:04088d00be55549b65
:04088e00be556d2fb7
:04088f00be5585c409
:04089000be559e585b
:04089100be55b6edad
:04089200be55cf81ff
:04089300be55e81551
:04089400be5600a9a3
:04089500be56193df5
:04089600be5631d148
:04089700be564a649b
:04089800be5662f8ee
:04089900be567b8b41
:04089a00be56941e94
:04089b00be56acb1e8
:04089c00be56c5443b
:04089d00be56ddd78f
:04089e00be56f66ae2
:04089f00be570efc36
:0408a000be57278f89
:0408a100be574021dd
:0408a200be5758b332
:0408a300be57714586
:0408a400be5789d7db
:0408a500be57a2692f
:0408a600be57bafb84
:0408a700be57d38cd9
:0408a800be57ec1d2e
:0408a900be5804af82
:0408aa00be581d40d7
:0408ab00be5835d12d
:0408ac00be584e6282
:0408ad00be5866f2d9
:0408ae00be587f832e
:0408af00be58981384
:0408b000be58b0a4da
:0408b100be58c93430
:0408b200be58e1c487
:0408b300be58fa54dd
:0408b400be5912e433
:0408b500be592b7489
:0408b600be594403e0
:0408b700be595c9337
:0408b800be5975228e
:0408b900be598db1e6
:0408ba00be59a6403d
:0408bb00be59becf95
:0408bc00be59d75eec
:0408bd00be59efec45
:0408be00be5a087b9b
:0408bf00be5a2109f3
:0408c000be5a39974c
:0408c100be5a5226a3
:0408c200be5a6ab4fc
:0408c300be5a834155
:0408c400be5a9bcfae
:0408c500be5ab45d06
:0408c600be5accea60
:0408c700be5ae578b8
:0408c800be5afe0511
:0408c900be5b16926a
:0408ca00be5b2f1fc3
:0408cb00be5b47ac1d
:0408cc00be5b603877
:0408cd00be5b78c5d1
:0408ce00be5b91512b
:0408cf00be5ba9dd86
:0408d000be5bc26adf
:0408d100be5bdaf63a
:0408d200be5bf38195
:0408d300be5c0c0dee
:0408d400be5c249949
:0408d500be5c3d24a4
:0408d600be5c55b0ff
:0408d700be5c6e3b5a
:0408d800be5c86c6b6
:0408d900be5c9f5111
:0408da00be5cb7dc6d
:0408db00be5cd066c9
:0408dc00be5ce8f125
:0408dd00be5d017b80
:0408de00be5d1a05dc
:0408df00be5d329038
:0408e000be5d4b1a94
:0408e100be5d63a4f1
:0408e200be5d7c2d4e
:0408e300be5d94b7ab
:0408e400be5dad4008
:0408e500be5dc5ca65
:0408e600be5dde53c2
:0408e700be5df6dc20
:0408e800be5e0f657c
:0408e900be5e27eeda
:0408ea00be5e407638
:0408eb00be5e58ff96
:0408ec00be5e7187f4
:0408ed00be5e8a1051
:0408ee00be5ea298b0
:0408ef00be5ebb200e
:0408f000be5ed3a86d
:0408f100be5eec2fcc
:0408f200be5f04b72a
:0408f300be5f1d3e89
:0408f400be5f35c6e8
:0408f500be5f4e4d47
:0408f600be5f66d4a7
:0408f700be5f7f5b06
:0408f800be5f97e266
:0408f900be5fb068c6
:0408fa00be5fc8ef26
:0408fb00be5fe17586
:0408fc00be5ff9fce6
:0408fd00be60128245
:0408fe00be602b08a5
:0408ff00be60438e06
:04090000be605c1366
:04090100be607499c7
:04090200be608d1e28
:04090300be60a5a489
:04090400be60be29ea
:04090500be60d6ae4c
:04090600be60ef33ad
:04090700be6107b80e
:04090800be61203c70
:04090900be6138c1d2
:04090a00be61514534
:04090b00be6169c997
:04090c00be61824df9
:04090d00be619ad15c
:04090e00be61b355be
:04090f00be61cbd921
:04091000be61e45c84
:04091100be61fce0e7
:04091200be62156349
:04091300be622de6ad
:04091400be62466910
:04091500be625eec74
:04091600be62776fd7
:04091700be628ff13c
:04091800be62a8749f
:04091900be62c0f604
:04091a00be62d97868
:04091b00be62f1facd
:04091c00be630a7c30
:04091d00be6322fe95
:04091e00be633b80f9
:04091f00be6354015e
:04092000be636c83c3
:04092100be63850428
:04092200be639d858e
:04092300be63b606f3
:04092400be63ce8759
:04092500be63e707bf
:04092600be63ff8825
:04092700be6418088a
:04092800be643089f0
:04092900be64490956
:04092a00be646189bd
:04092b00be647a0923
:04092c00be6492888b
:04092d00be64ab08f1
:04092e00be64c38759
:04092f00be64dc07bf
:04093000be64f48627
:04093100be650d058d
:04093200be652584f5
:04093300be653e025d
:04093400be655681c5
:04093500be656f002c
:04093600be65877e95
:04093700be659ffcfe
:04093800be65b87a66
:04093900be65d0f8cf
:04093a00be65e97637
:04093b00be6601f3a0
:04093c00be661a7108
:04093d00be6632ee72
:04093e00be664b6cda
:04093f00be6663e944
:04094000be667c66ad
:04094100be6694e218
:04094200be66ad5f81
:04094300be66c5dceb
:04094400be66de5855
:04094500be66f6d4c0
:04094600be670f5029
:04094700be6727cc94
:04094800be674048fe
:04094900be6758c469
:04094a00be67713fd4
:04094b00be6789bb3f
:04094c00be67a236aa
:04094d00be67bab116
:04094e00be67d32c81
:04094f00be67eba7ed
:04095000be68042257
:04095100be681c9cc4
:04095200be6835172f
:04095300be684d919c
:04095400be68660b08
:04095500be687e8575
:04095600be6896ffe2
:04095700be68af794e
:04095800be68c7f3bb
:04095900be68e06c28
:04095a00be68f8e596
:04095b00be69115f01
:04095c00be6929d86f
:04095d00be694251dc
:04095e00be695ac94b
:04095f00be697342b8
:04096000be698bba27
:04096100be69a43394
:04096200be69bcab03
:04096300be69d52371
:04096400be69ed9be0
:04096500be6a06134d
:04096600be6a1e8abd
:04096700be6a37022b
:04096800be6a4f799b
:04096900be6a67f00b
:04096a00be6a80677a
:04096b00be6a98deea
:04096c00be6ab15559
:04096d00be6ac9ccc9
:04096e00be6ae24239
:04096f00be6afab9a9
:04097000be6b132f18
:04097100be6b2ba589
:04097200be6b441bf9
:04097300be6b5c916a
:04097400be6b7506db
:04097500be6b8d7c4c
:04097600be6ba5f1be
:04097700be6bbe662f
:04097800be6bd6dca0
:04097900be6bef5111
:04097a00be6c07c583
:04097b00be6c203af4
:04097c00be6c38af66
:04097d00be6c5123d8
:04097e00be6c69974b
:04097f00be6c820bbd
:04098000be6c9a7f30
:04098100be6cb2f3a3
:04098200be6ccb6715
:04098300be6ce3da89
:04098400be6cfc4efb
:04098500be6d14c16e
:04098600be6d2d34e1
:04098700be6d45a755
:04098800be6d5e1ac8
:04098900be6d768c3d
:04098a00be6d8effb1
:04098b00be6da77125
:04098c00be6dbfe39a
:04098d00be6dd8560d
:04098e00be6df0c783
:04098f00be6e0939f6
:04099000be6e21ab6b
:04099100be6e3a1ce0
:04099200be6e528e55
:04099300be6e6affcb
:04099400be6e837040
:04099500be6e9be1b6
:04099600be6eb4522b
:04099700be6eccc3a1
:04099800be6ee53317
:04099900be6efda38e
:04099a00be6f161402
:04099b00be6f2e8479
:04099c00be6f46f4f0
:04099d00be6f5f6367
:04099e00be6f77d3de
:04099f00be6f904354
:0409a000be6fa8b2cc
:0409a100be6fc12143
:0409a200be6fd990bb
:0409a300be6ff1ff33
:0409a400be700a6ea9
:0409a500be7022dd21
:0409a600be703b4b99
:0409a700be7053b912
:0409a800be706c2889
:0409a900be70849602
:0409aa00be709d047a
:0409ab00be70b571f4
:0409ac00be70cddf6d
:0409ad00be70e64ce6
:0409ae00be70feba5f
:0409af00be711727d7
:0409b000be712f9451
:0409b100be714801ca
:0409b200be71606e44
:0409b300be7178dabf
:0409b400be71914738
:0409b500be71a9b3b3
:0409b600be71c21f2d
:0409b700be71da8ba8
:0409b800be71f2f723
:0409b900be720b639c
:0409ba00be7223ce18
:0409bb00be723c3a92
:0409bc00be7254a50e
:0409bd00be726d1089
:0409be00be72857b05
:0409bf00be729de681
:0409c000be72b651fc
:0409c100be72cebc78
:0409c200be72e726f4
:0409c300be72ff9071
:0409c400be7317faed
:0409c500be73306469
:0409c600be7348cee6
:0409c700be73613862
:0409c800be7379a1e0
:0409c900be73920b5c
:0409ca00be73aa74da
:0409cb00be73c2dd58
:0409cc00be73db46d5
:0409cd00be73f3af53
:0409ce00be740c18cf
:0409cf00be7424804e
:0409d000be743ce8cd
:0409d100be7455514a
:0409d200be746db9c9
:0409d300be74862147
:0409d400be749e88c7
:0409d500be74b6f046
:0409d600be74cf57c5
:0409d700be74e7bf44
:0409d800be750026c2
:0409d900be75188d42
:0409da00be7530f4c2
:0409db00be75495b41
:0409dc00be7561c1c2
:0409dd00be757a2841
:0409de00be75928ec2
:0409df00be75aaf443
:0409e000be75c35ac3
:0409e100be75dbc044
:0409e200be75f426c4
:0409e300be760c8b45
:0409e400be7624f1c6
:0409e500be763d5647
:0409e600be7655bbc9
:0409e700be766e204a
:0409e800be768685cc
:0409e900be769eea4e
:0409ea00be76b74ed0
:0409eb00be76cfb253
:0409ec00be76e817d4
:0409ed00be77007b56
:0409ee00be7718dfd9
:0409ef00be7731425c
:0409f000be7749a6df
:0409f100be77620a61
:0409f200be777a6de5
:0409f300be7792d069
:0409f400be77ab33ec
:0409f500be77c39670
:0409f600be77dbf9f4
:0409f700be77f45b78
:0409f800be780cbefb
:0409f900be7825207f
:0409fa00be783d8204
:0409fb00be7855e489
:0409fc00be786e460d
:0409fd00be7886a892
:0409fe00be789f0917
:0409ff00be78b76b9c
:040a0000be78cfcc21
:040a0100be78e82da6
:040a0200be79008e2b
:040a0300be7918efb1
:040a0400be79314f37
:040a0500be7949b0bd
:040a0600be79621043
:040a0700be797a70ca
:040a0800be7992d051
:040a0900be79ab30d7
:040a0a00be79c3905e
:040a0b00be79dbf0e5
:040a0c00be79f44f6c
:040a0d00be7a0caef3
:040a0e00be7a250d7a
:040a0f00be7a3d6c02
:040a1000be7a55cb8a
:040a1100be7a6e2a11
:040a1200be7a86889a
:040a1300be7a9ee722
:040a1400be7ab745aa
:040a1500be7acfa333
:040a1600be7ae801bb
:040a1700be7b005f43
:040a1800be7b18bccd
:040a1900be7b311a55
:040a1a00be7b4977df
:040a1b00be7b61d469
:040a1c00be7b7a31f2
:040a1d00be7b928e7c
:040a1e00be7baaeb06
:040a1f00be7bc3488f
:040a2000be7bdba41a
:040a2100be7bf400a4
:040a2200be7c0c5c2e
:040a2300be7c24b8b9
:040a2400be7c3d1443
:040a2500be7c5570ce
:040a2600be7c6dcb5a
:040a2700be7c8627e4
:040a2800be7c9e8270
:040a2900be7cb6ddfc
:040a2a00be7ccf3887
:040a2b00be7ce79313
:040a2c00be7cffeda0
:040a2d00be7d18482a
:040a2e00be7d30a2b7
:040a2f00be7d48fc44
:040a3000be7d6156d0
:040a3100be7d79b05d
:040a3200be7d9209ea
:040a3300be7daa6377
:040a3400be7dc2bc05
:040a3500be7ddb1691
:040a3600be7df36f1f
:040a3700be7e0bc8ac
:040a3800be7e24203a
:040a3900be7e3c79c8
:040a3a00be7e54d157
:040a3b00be7e6d2ae4
:040a3c00be7e858273
:040a3d00be7e9dda02
:040a3e00be7eb63290
:040a3f00be7ece8920
:040a4000be7ee6e1af
:040a4100be7eff383e
:040a4200be7f178fcd
:040a4300be7f2fe75c
:040a4400be7f483dec
:040a4500be7f60947c
:040a4600be7f78eb0c
:040a4700be7f91419c
:040a4800be7fa9982c
:040a4900be7fc1eebd
:040a4a00be7fda444d
:040a4b00be7ff29ade
:040a4c00be800578eb
:040a4d00be8011a2b4
:040a4e00be801dcd7c
:040a4f00be8029f844
:040a5000be8036220c
:040a5100be80424dd4
:040a5200be804e779d
:040a5300be805aa166
:040a5400be8066cc2e
:040a5500be8072f6f7
:040a5600be807f20bf
:040a5700be808b4a88
:040a5800be80977451
:040a5900be80a39e1a
:040a5a00be80afc7e4
:040a5b00be80bbf1ad
:040a5c00be80c81b75
:040a5d00be80d4443f
:040a5e00be80e06e08
:040a5f00be80ec97d2
:040a6000be80f8c09c
:040a6100be8104e965
:040a6200be8111132d
:040a6300be811d3cf7
:040a6400be812965c1
:040a6500be81358e8b
:040a6600be8141b656
:040a6700be814ddf20
:040a6800be815a08e9
:040a6900be816630b4
:040a6a00be8172597e
:040a6b00be817e8149
:040a6c00be818aaa13
:040a6d00be8196d2de
:040a6e00be81a2faa9
:040a6f00be81af2273
:040a7000be81bb4a3e
:040a7100be81c77209
:040a7200be81d39ad4
:040a7300be81dfc29f
:040a7400be81ebea6a
:040a7500be81f81135
:040a7600be820439ff
:040a7700be821060cb
:040a7800be821c8896
:040a7900be8228af62
:040a7a00be8234d72d
:040a7b00be8240fef9
:040a7c00be824d25c4
:040a7d00be82594c90
:040a7e00be8265735c
:040a7f00be82719a28
:040a8000be827dc0f5
:040a8100be8289e7c1
:040a8200be82960e8c
:040a8300be82a23459
:040a8400be82ae5b25
:040a8500be82ba81f2
:040a8600be82c6a8be
:040a8700be82d2ce8b
:040a8800be82def458
:040a8900be82eb1a24
:040a8a00be82f740f1
:040a8b00be830366bd
:040a8c00be830f8c8a
:040a8d00be831bb257
:040a8e00be8327d725
:040a8f00be8333fdf2
:040a9000be834022bf
:040a9100be834c488c
:040a9200be83586d5a
:040a9300be83649327
:040a9400be8370b8f5
:040a9500be837cddc3
:040a9600be83890290
:040a9700be8395275e
:040a9800be83a14c2c
:040a9900be83ad71fa
:040a9a00be83b995c9
:040a9b00be83c5ba97
:040a9c00be83d1df65
:040a9d00be83de0333
:040a9e00be83ea2801
:040a9f00be83f64cd0
:040aa000be8402709e
:040aa100be840e946d
:040aa200be841ab83c
:040aa300be8426dd0a
:040aa400be843300d9
:040aa500be843f24a8
:040aa600be844b4877
:040aa700be84576c46
:040aa800be84638f16
:040aa900be846fb3e5
:040aaa00be847bd6b5
:040aab00be8487fa84
:040aac00be84941d53
:040aad00be84a04023
:040aae00be84ac64f2
:040aaf00be84b887c2
:040ab000be84c4aa92
:040ab100be84d0cc63
:040ab200be84dcef33
:040ab300be84e91202
:040ab400be84f535d2
:040ab500be850157a2
:040ab600be850d7a72
:040ab700be85199c43
:040ab800be8525bf13
:040ab900be8531e1e4
:040aba00be853e03b4
:040abb00be854a2585
:040abc00be85564756
:040abd00be85626927
:040abe00be856e8bf8
:040abf00be857aadc9
:040ac000be8586ce9b
:040ac100be8592f06c
:040ac200be859f123c
:040ac300be85ab330e
:040ac400be85b755df
:040ac500be85c376b1
:040ac600be85cf9783
:040ac700be85dbb855
:040ac800be85e7d927
:040ac900be85f3faf9
:040aca00be86001bc9
:040acb00be860c3c9b
:040acc00be86185d6d
:040acd00be86247d40
:040ace00be86309e12
:040acf00be863cbee5
:040ad000be8648dfb7
:040ad100be8654ff8a
:040ad200be86611f5c
:040ad300be866d402e
:040ad400be86796001
:040ad500be868580d4
:040ad600be8691a0a7
:040ad700be869dbf7b
:040ad800be86a9df4e
:040ad900be86b5ff21
:040ada00be86c21ff3
:040adb00be86ce3ec7
:040adc00be86da5d9b
:040add00be86e67d6e
:040ade00be86f29c42
:040adf00be86febb16
:040ae000be870adae9
:040ae100be8716f9bd
:040ae200be87231890
:040ae300be872f3764
:040ae400be873b5638
:040ae500be8747750c
:040ae600be875393e1
:040ae700be875fb2b5
:040ae800be876bd08a
:040ae900be8777ef5e
:040aea00be87840d32
:040aeb00be87902b07
:040aec00be879c49dc
:040aed00be87a868b0
:040aee00be87b48685
:040aef00be87c0a35b
:040af000be87ccc130
:040af100be87d8df05
:040af200be87e4fdda
:040af300be87f11aaf
:040af400be87fd3884
:040af500be88095559
:040af600be8815722f
:040af700be88219004
:040af800be882dadda
:040af900be8839cab0
:040afa00be8845e786
:040afb00be8852045b
:040afc00be885e2131
:040afd00be886a3d08
:040afe00be88765ade
:040aff00be888277b4
:040b0000be888e938a
:040b0100be889ab060
:040b0200be88a6cc37
:040b0300be88b2e80e
:040b0400be88bf04e4
:040b0500be88cb20bb
:040b0600be88d73c92
:040b0700be88e35869
:040b0800be88ef7440
:040b0900be88fb9017
:040b0a00be8907aced
:040b0b00be8913c7c5
:040b0c00be891fe39c
:040b0d00be892bfe74
:040b0e00be8938194b
:040b0f00be89443522
:040b1000be895050fa
:040b1100be895c6bd2
:040b1200be896886aa
:040b1300be8974a182
:040b1400be8980bc5a
:040b1500be898cd732
:040b1600be8998f10b
:040b1700be89a50ce2
:040b1800be89b126bb
:040b1900be89bd4193
:040b1a00be89c95b6c
:040b1b00be89d57545
:040b1c00be89e1901d
:040b1d00be89edaaf6
:040b1e00be89f9c4cf
:040b1f00be8a05dea7
:040b2000be8a11f781
:040b2100be8a1e1159
:040b2200be8a2a2b32
:040b2300be8a36450b
:040b2400be8a425ee5
:040b2500be8a4e78be
:040b2600be8a5a9198
:040b2700be8a66aa72
:040b2800be8a72c34c
:040b2900be8a7edc26
:040b2a00be8a8af500
:040b2b00be8a970ed9
:040b2c00be8aa327b3
:040b2d00be8aaf408d
:040b2e00be8abb5967
:040b2f00be8ac77142
:040b3000be8ad38a1c
:040b3100be8adfa2f7
:040b3200be8aebbbd1
:040b3300be8af7d3ac
:040b3400be8b03eb86
:040b3500be8b100360
:040b3600be8b1c1b3b
:040b3700be8b283316
:040b3800be8b344bf1
:040b3900be8b4063cc
:040b3a00be8b4c7aa8
:040b3b00be8b589283
:040b3c00be8b64aa5e
:040b3d00be8b70c13a
:040b3e00be8b7cd816
:040b3f00be8b88f0f1
:040b4000be8b9507cc
:040b4100be8ba11ea8
:040b4200be8bad3584
:040b4300be8bb94c60
:040b4400be8bc5633c
:040b4500be8bd17919
:040b4600be8bdd90f5
:040b4700be8be9a7d1
:040b4800be8bf5bdae
:040b4900be8c01d489
:040b4a00be8c0dea66
:040b4b00be8c1a0042
:040b4c00be8c26161f
:040b4d00be8c322cfc
:040b4e00be8c3e42d9
:040b4f00be8c4a58b6
:040b5000be8c566e93
:040b5100be8c628470
:040b5200be8c6e9a4d
:040b5300be8c7aaf2b
:040b5400be8c86c508
:040b5500be8c92dae6
:040b5600be8c9eefc4
:040b5700be8cab05a0
:040b5800be8cb71a7e
:040b5900be8cc32f5c
:040b5a00be8ccf443a
:040b5b00be8cdb5918
:040b5c00be8ce76df7
:040b5d00be8cf382d5
:040b5e00be8cff97b3
:040b5f00be8d0bab91
:040b6000be8d17c06f
:040b6100be8d23d44e
:040b6200be8d2fe92c
:040b6300be8d3bfd0b
:040b6400be8d4811e9
:040b6500be8d5425c8
:040b6600be8d6039a7
:040b6700be8d6c4d86
:040b6800be8d786165
:040b6900be8d847445
:040b6a00be8d908824
:040b6b00be8d9c9b04
:040b6c00be8da8afe3
:040b6d00be8db4c2c3
:040b6e00be8dc0d6a2
:040b6f00be8dcce982
:040b7000be8dd8fc62
:040b7100be8de50f41
:040b7200be8df12221
:040b7300be8dfd3501
:040b7400be8e0947e1
:040b7500be8e155ac1
:040b7600be8e216da1
:040b7700be8e2d7f82
:040b7800be8e399262
:040b7900be8e45a443
:040b7a00be8e51b624
:040b7b00be8e5dc805
:040b7c00be8e69dbe5
:040b7d00be8e75edc6
:040b7e00be8e81fea8
:040b7f00be8e8e1088
:040b8000be8e9a2269
:040b8100be8ea6344a
:040b8200be8eb2452c
:040b8300be8ebe570d
:040b8400be8eca68ef
:040b8500be8ed679d1
:040b8600be8ee28bb2
:040b8700be8eee9c94
:040b8800be8efaad76
:040b8900be8f06be57
:040b8a00be8f12cf39
:040b8b00be8f1edf1c
:040b8c00be8f2af0fe
:040b8d00be8f3701df
:040b8e00be8f4311c2
:040b8f00be8f4f22a4
:040b9000be8f5b3287
:040b9100be8f67426a
:040b9200be8f73534c
:040b9300be8f7f632f
:040b9400be8f8b7312
:040b9500be8f9783f5
:040b9600be8fa392d9
:040b9700be8fafa2bc
:040b9800be8fbbb29f
:040b9900be8fc7c183
:040b9a00be8fd3d166
:040b9b00be8fdfe04a
:040b9c00be8febf02d
:040b9d00be8ff7ff11
:040b9e00be90040ef3
:040b9f00be90101dd7
:040ba000be901c2cbb
:040ba100be90283b9f
:040ba200be90344a83
:040ba300be90405967
:040ba400be904c674c
:040ba500be90587630
:040ba600be90648415
:040ba700be907093f9
:040ba800be907ca1de
:040ba900be9088afc3
:040baa00be9094bda8
:040bab00be90a0cb8d
:040bac00be90acd972
:040bad00be90b8e757
:040bae00be90c4f53c
:040baf00be90d10221
:040bb000be90dd1006
:040bb100be90e91dec
:040bb200be90f52bd1
:040bb300be910138b6
:040bb400be910d459c
:040bb500be91195381
:040bb600be91256067
:040bb700be91316d4d
:040bb800be913d7934
:040bb900be9149861a
:040bba00be91559300
:040bbb00be9161a0e6
:040bbc00be916daccd
:040bbd00be9179b9b3
:040bbe00be9185c59a
:040bbf00be9191d181
:040bc000be919ddd68
:040bc100be91a9e94f
:040bc200be91b5f536
:040bc300be91c2011c
:040bc400be91ce0d03
:040bc500be91da19ea
:040bc600be91e625d1
:040bc700be91f230b9
:040bc800be91fe3ca0
:040bc900be920a4787
:040bca00be9216526f
:040bcb00be92225e56
:040bcc00be922e693e
:040bcd00be923a7426
:040bce00be92467f0e
:040bcf00be92528af6
:040bd000be925e94df
:040bd100be926a9fc7
:040bd200be9276aaaf
:040bd300be9282b498
:040bd400be928ebf80
:040bd500be929ac969
:040bd600be92a6d352
:040bd700be92b2dd3b
:040bd800be92bee724
:040bd900be92caf10d
:040bda00be92d6fbf6
:040bdb00be92e305de
:040bdc00be92ef0fc7
:040bdd00be92fb18b1
:040bde00be93072299
:040bdf00be93132b83
:040be000be931f356c
:040be100be932b3e56
:040be200be93374740
:040be300be9343502a
:040be400be934f5914
:040be500be935b62fe
:040be600be93676be8
:040be700be937374d2
:040be800be937f7dbc
:040be900be938b85a7
:040bea00be93978e91
:040beb00be93a3967c
:040bec00be93af9e67
:040bed00be93bba652
:040bee00be93c7af3c
:040bef00be93d3b727
:040bf000be93dfbf12
:040bf100be93ebc6fe
:040bf200be93f7cee9
:040bf300be9403d6d3
:040bf400be940fddbf
:040bf500be941be5aa
:040bf600be9427ec96
:040bf700be9433f481
:040bf800be943ffb6d
:040bf900be944c0258
:040bfa00be94580944
:040bfb00be94641030
:040bfc00be9470171c
:040bfd00be947c1e08
:040bfe00be948824f5
:040bff00be94942be1
:040c0000be94a031cd
:040c0100be94ac38b9
:040c0200be94b83ea6
:040c0300be94c44493
:040c0400be94d04b7f
:040c0500be94dc516c
:040c0600be94e85759
:040c0700be94f45d46
:040c0800be95006233
:040c0900be950c6820
:040c0a00be95186e0d
:040c0b00be952473fb
:040c0c00be953079e8
:040c0d00be953c7ed6
:040c0e00be954883c4
:040c0f00be955488b2
:040c1000be95608da0
:040c1100be956c928e
:040c1200be9578977c
:040c1300be95849c6a
:040c1400be9590a158
:040c1500be959ca646
:040c1600be95a8aa35
:040c1700be95b4ae24
:040c1800be95c0b312
:040c1900be95ccb701
:040c1a00be95d8bbf0
:040c1b00be95e4bfdf
:040c1c00be95f0c3ce
:040c1d00be95fcc7bd
:040c1e00be9608cbab
:040c1f00be9614cf9a
:040c2000be9620d28a
:040c2100be962cd679
:040c2200be9638d969
:040c2300be9644dd58
:040c2400be9650e048
:040c2500be965ce338
:040c2600be9668e628
:040c2700be9674e918
:040c2800be9680ec08
:040c2900be968ceff8
:040c2a00be9698f2e8
:040c2b00be96a4f4d9
:040c2c00be96b0f7c9
:040c2d00be96bcf9ba
:040c2e00be96c8fcaa
:040c2f00be96d4fe9b
:040c3000be96e1008b
:040c3100be96ed027c
:040c3200be96f9046d
:040c3300be9705065d
:040c3400be9711084e
:040c3500be971d0a3f
:040c3600be97290b31
:040c3700be97350d22
:040c3800be97410e14
:040c3900be974d1005
:040c3a00be975911f7
:040c3b00be976512e9
:040c3c00be977113db
:040c3d00be977d14cd
:040c3e00be978915bf
:040c3f00be979516b1
:040c4000be97a117a3
:040c4100be97ad1796
:040c4200be97b91888
:040c4300be97c5187b
:040c4400be97d1196d
:040c4500be97dd1960
:040c4600be97e91953
:040c4700be97f51946
:040c4800be98011938
:040c4900be980d192b
:040c4a00be9819191e
:040c4b00be98251911
:040c4c00be98311805
:040c4d00be983d18f8
:040c4e00be984917ec
:040c4f00be985517df
:040c5000be986116d3
:040c5100be986d15c7
:040c5200be987914bb
:040c5300be988513af
:040c5400be989112a3
:040c5500be989d1197
:040c5600be98a9108b
:040c5700be98b50e80
:040c5800be98c10d74
:040c5900be98cd0b69
:040c5a00be98d90a5d
:040c5b00be98e50852
:040c5c00be98f10647
:040c5d00be98fd043c
:040c5e00be99090230
:040c5f00be99150025
:040c6000be9920fe1b
:040c6100be992cfb11
:040c6200be9938f906
:040c6300be9944f7fb
:040c6400be9950f4f1
:040c6500be995cf1e7
:040c6600be9968eedd
:040c6700be9974ecd2
:040c6800be9980e9c8
:040c6900be998ce6be
:040c6a00be9998e3b4
:040c6b00be99a4dfab
:040c6c00be99b0dca1
:040c6d00be99bcd997
:040c6e00be99c8d58e
:040c6f00be99d4d185
:040c7000be99e0ce7b
:040c7100be99ecca72
:040c7200be99f8c669
:040c7300be9a04c25f
:040c7400be9a10be56
:040c7500be9a1cba4d
:040c7600be9a28b644
:040c7700be9a34b13c
:040c7800be9a40ad33
:040c7900be9a4ca82b
:040c7a00be9a58a422
:040c7b00be9a649f1a
:040c7c00be9a709a12
:040c7d00be9a7c950a
:040c7e00be9a889002
:040c7f00be9a948bfa
