:040000003f8000003d
:040001003f8000003c
:040002003f8000003b
:040003003f8000003a
:040004003f80000039
:040005003f80000038
:040006003f80000037
:040007003f80000036
:040008003f80000035
:040009003f80000034
:04000a003f80000033
:04000b003f7fffff35
:04000c003f7fffff34
:04000d003f7fffff33
:04000e003f7fffff32
:04000f003f7fffff31
:040010003f7fffff30
:040011003f7fffff2f
:040012003f7ffffe2f
:040013003f7ffffe2e
:040014003f7ffffe2d
:040015003f7ffffe2c
:040016003f7ffffe2b
:040017003f7ffffd2b
:040018003f7ffffd2a
:040019003f7ffffd29
:04001a003f7ffffd28
:04001b003f7ffffc28
:04001c003f7ffffc27
:04001d003f7ffffc26
:04001e003f7ffffc25
:04001f003f7ffffb25
:040020003f7ffffb24
:040021003f7ffffb23
:040022003f7ffffa23
:040023003f7ffffa22
:040024003f7ffffa21
:040025003f7ffff921
:040026003f7ffff920
:040027003f7ffff91f
:040028003f7ffff81f
:040029003f7ffff81e
:04002a003f7ffff71e
:04002b003f7ffff71d
:04002c003f7ffff71c
:04002d003f7ffff61c
:04002e003f7ffff61b
:04002f003f7ffff51b
:040030003f7ffff51a
:040031003f7ffff41a
:040032003f7ffff419
:040033003f7ffff319
:040034003f7ffff318
:040035003f7ffff218
:040036003f7ffff217
:040037003f7ffff117
:040038003f7ffff116
:040039003f7ffff016
:04003a003f7ffff015
:04003b003f7fffef15
:04003c003f7fffef14
:04003d003f7fffee14
:04003e003f7fffed14
:04003f003f7fffed13
:040040003f7fffec13
:040041003f7fffec12
:040042003f7fffeb12
:040043003f7fffea12
:040044003f7fffea11
:040045003f7fffe911
:040046003f7fffe811
:040047003f7fffe810
:040048003f7fffe710
:040049003f7fffe610
:04004a003f7fffe60f
:04004b003f7fffe50f
:04004c003f7fffe40f
:04004d003f7fffe30f
:04004e003f7fffe30e
:04004f003f7fffe20e
:040050003f7fffe10e
:040051003f7fffe00e
:040052003f7fffe00d
:040053003f7fffdf0d
:040054003f7fffde0d
:040055003f7fffdd0d
:040056003f7fffdc0d
:040057003f7fffdc0c
:040058003f7fffdb0c
:040059003f7fffda0c
:04005a003f7fffd90c
:04005b003f7fffd80c
:04005c003f7fffd70c
:04005d003f7fffd60c
:04005e003f7fffd50c
:04005f003f7fffd50b
:040060003f7fffd40b
:040061003f7fffd30b
:040062003f7fffd20b
:040063003f7fffd10b
:040064003f7fffd00b
:040065003f7fffcf0b
:040066003f7fffce0b
:040067003f7fffcd0b
:040068003f7fffcc0b
:040069003f7fffcb0b
:04006a003f7fffca0b
:04006b003f7fffc90b
:04006c003f7fffc80b
:04006d003f7fffc70b
:04006e003f7fffc60b
:04006f003f7fffc50b
:040070003f7fffc40b
:040071003f7fffc20c
:040072003f7fffc10c
:040073003f7fffc00c
:040074003f7fffbf0c
:040075003f7fffbe0c
:040076003f7fffbd0c
:040077003f7fffbc0c
:040078003f7fffbb0c
:040079003f7fffb90d
:04007a003f7fffb80d
:04007b003f7fffb70d
:04007c003f7fffb60d
:04007d003f7fffb50d
:04007e003f7fffb30e
:04007f003f7fffb20e
:040080003f7fffb10e
:040081003f7fffb00e
:040082003f7fffaf0e
:040083003f7fffad0f
:040084003f7fffac0f
:040085003f7fffab0f
:040086003f7fffa910
:040087003f7fffa810
:040088003f7fffa710
:040089003f7fffa610
:04008a003f7fffa411
:04008b003f7fffa311
:04008c003f7fffa211
:04008d003f7fffa012
:04008e003f7fff9f12
:04008f003f7fff9d13
:040090003f7fff9c13
:040091003f7fff9b13
:040092003f7fff9914
:040093003f7fff9814
:040094003f7fff9615
:040095003f7fff9515
:040096003f7fff9415
:040097003f7fff9216
:040098003f7fff9116
:040099003f7fff8f17
:04009a003f7fff8e17
:04009b003f7fff8c18
:04009c003f7fff8b18
:04009d003f7fff8919
:04009e003f7fff8819
:04009f003f7fff861a
:0400a0003f7fff851a
:0400a1003f7fff831b
:0400a2003f7fff821b
:0400a3003f7fff801c
:0400a4003f7fff7e1d
:0400a5003f7fff7d1d
:0400a6003f7fff7b1e
:0400a7003f7fff7a1e
:0400a8003f7fff781f
:0400a9003f7fff7620
:0400aa003f7fff7520
:0400ab003f7fff7321
:0400ac003f7fff7122
:0400ad003f7fff7022
:0400ae003f7fff6e23
:0400af003f7fff6c24
:0400b0003f7fff6b24
:0400b1003f7fff6925
:0400b2003f7fff6726
:0400b3003f7fff6626
:0400b4003f7fff6427
:0400b5003f7fff6228
:0400b6003f7fff6029
:0400b7003f7fff5f29
:0400b8003f7fff5d2a
:0400b9003f7fff5b2b
:0400ba003f7fff592c
:0400bb003f7fff572d
:0400bc003f7fff562d
:0400bd003f7fff542e
:0400be003f7fff522f
:0400bf003f7fff5030
:0400c0003f7fff4e31
:0400c1003f7fff4c32
:0400c2003f7fff4b32
:0400c3003f7fff4933
:0400c4003f7fff4734
:0400c5003f7fff4535
:0400c6003f7fff4336
:0400c7003f7fff4137
:0400c8003f7fff3f38
:0400c9003f7fff3d39
:0400ca003f7fff3b3a
:0400cb003f7fff393b
:0400cc003f7fff373c
:0400cd003f7fff353d
:0400ce003f7fff333e
:0400cf003f7fff323e
:0400d0003f7fff303f
:0400d1003f7fff2d41
:0400d2003f7fff2b42
:0400d3003f7fff2943
:0400d4003f7fff2744
:0400d5003f7fff2545
:0400d6003f7fff2346
:0400d7003f7fff2147
:0400d8003f7fff1f48
:0400d9003f7fff1d49
:0400da003f7fff1b4a
:0400db003f7fff194b
:0400dc003f7fff174c
:0400dd003f7fff154d
:0400de003f7fff124f
:0400df003f7fff1050
:0400e0003f7fff0e51
:0400e1003f7fff0c52
:0400e2003f7fff0a53
:0400e3003f7fff0854
:0400e4003f7fff0556
:0400e5003f7fff0357
:0400e6003f7fff0158
:0400e7003f7ffeff5a
:0400e8003f7ffefd5b
:0400e9003f7ffefa5d
:0400ea003f7ffef85e
:0400eb003f7ffef65f
:0400ec003f7ffef460
:0400ed003f7ffef162
:0400ee003f7ffeef63
:0400ef003f7ffeed64
:0400f0003f7ffeea66
:0400f1003f7ffee867
:0400f2003f7ffee668
:0400f3003f7ffee36a
:0400f4003f7ffee16b
:0400f5003f7ffedf6c
:0400f6003f7ffedc6e
:0400f7003f7ffeda6f
:0400f8003f7ffed870
:0400f9003f7ffed572
:0400fa003f7ffed373
:0400fb003f7ffed075
:0400fc003f7ffece76
:0400fd003f7ffecc77
:0400fe003f7ffec979
:0400ff003f7ffec77a
:040100003f7ffec47b
:040101003f7ffec27c
:040102003f7ffebf7e
:040103003f7ffebd7f
:040104003f7ffeba81
:040105003f7ffeb882
:040106003f7ffeb584
:040107003f7ffeb385
:040108003f7ffeb087
:040109003f7ffeae88
:04010a003f7ffeab8a
:04010b003f7ffea88c
:04010c003f7ffea68d
:04010d003f7ffea38f
:04010e003f7ffea190
:04010f003f7ffe9e92
:040110003f7ffe9b94
:040111003f7ffe9995
:040112003f7ffe9697
:040113003f7ffe9498
:040114003f7ffe919a
:040115003f7ffe8e9c
:040116003f7ffe8c9d
:040117003f7ffe899f
:040118003f7ffe86a1
:040119003f7ffe83a3
:04011a003f7ffe81a4
:04011b003f7ffe7ea6
:04011c003f7ffe7ba8
:04011d003f7ffe79a9
:04011e003f7ffe76ab
:04011f003f7ffe73ad
:040120003f7ffe70af
:040121003f7ffe6eb0
:040122003f7ffe6bb2
:040123003f7ffe68b4
:040124003f7ffe65b6
:040125003f7ffe62b8
:040126003f7ffe5fba
:040127003f7ffe5dbb
:040128003f7ffe5abd
:040129003f7ffe57bf
:04012a003f7ffe54c1
:04012b003f7ffe51c3
:04012c003f7ffe4ec5
:04012d003f7ffe4bc7
:04012e003f7ffe48c9
:04012f003f7ffe46ca
:040130003f7ffe43cc
:040131003f7ffe40ce
:040132003f7ffe3dd0
:040133003f7ffe3ad2
:040134003f7ffe37d4
:040135003f7ffe34d6
:040136003f7ffe31d8
:040137003f7ffe2eda
:040138003f7ffe2bdc
:040139003f7ffe28de
:04013a003f7ffe25e0
:04013b003f7ffe22e2
:04013c003f7ffe1fe4
:04013d003f7ffe1ce6
:04013e003f7ffe19e8
:04013f003f7ffe16ea
:040140003f7ffe13ec
:040141003f7ffe0fef
:040142003f7ffe0cf1
:040143003f7ffe09f3
:040144003f7ffe06f5
:040145003f7ffe03f7
:040146003f7ffe00f9
:040147003f7ffdfdfc
:040148003f7ffdfafe
:040149003f7ffdf601
:04014a003f7ffdf303
:04014b003f7ffdf005
:04014c003f7ffded07
:04014d003f7ffdea09
:04014e003f7ffde60c
:04014f003f7ffde30e
:040150003f7ffde010
:040151003f7ffddd12
:040152003f7ffdd915
:040153003f7ffdd617
:040154003f7ffdd319
:040155003f7ffdd01b
:040156003f7ffdcc1e
:040157003f7ffdc920
:040158003f7ffdc622
:040159003f7ffdc225
:04015a003f7ffdbf27
:04015b003f7ffdbc29
:04015c003f7ffdb82c
:04015d003f7ffdb52e
:04015e003f7ffdb230
:04015f003f7ffdae33
:040160003f7ffdab35
:040161003f7ffda738
:040162003f7ffda43a
:040163003f7ffda13c
:040164003f7ffd9d3f
:040165003f7ffd9a41
:040166003f7ffd9644
:040167003f7ffd9346
:040168003f7ffd8f49
:040169003f7ffd8c4b
:04016a003f7ffd884e
:04016b003f7ffd8550
:04016c003f7ffd8153
:04016d003f7ffd7e55
:04016e003f7ffd7a58
:04016f003f7ffd775a
:040170003f7ffd735d
:040171003f7ffd705f
:040172003f7ffd6c62
:040173003f7ffd6964
:040174003f7ffd6567
:040175003f7ffd6269
:040176003f7ffd5e6c
:040177003f7ffd5a6f
:040178003f7ffd5771
:040179003f7ffd5374
:04017a003f7ffd4f77
:04017b003f7ffd4c79
:04017c003f7ffd487c
:04017d003f7ffd447f
:04017e003f7ffd4181
:04017f003f7ffd3d84
:040180003f7ffd3987
:040181003f7ffd3689
:040182003f7ffd328c
:040183003f7ffd2e8f
:040184003f7ffd2b91
:040185003f7ffd2794
:040186003f7ffd2397
:040187003f7ffd1f9a
:040188003f7ffd1b9d
:040189003f7ffd189f
:04018a003f7ffd14a2
:04018b003f7ffd10a5
:04018c003f7ffd0ca8
:04018d003f7ffd08ab
:04018e003f7ffd05ad
:04018f003f7ffd01b0
:040190003f7ffcfdb4
:040191003f7ffcf9b7
:040192003f7ffcf5ba
:040193003f7ffcf1bd
:040194003f7ffcedc0
:040195003f7ffceac2
:040196003f7ffce6c5
:040197003f7ffce2c8
:040198003f7ffcdecb
:040199003f7ffcdace
:04019a003f7ffcd6d1
:04019b003f7ffcd2d4
:04019c003f7ffcced7
:04019d003f7ffccada
:04019e003f7ffcc6dd
:04019f003f7ffcc2e0
:0401a0003f7ffcbee3
:0401a1003f7ffcbae6
:0401a2003f7ffcb6e9
:0401a3003f7ffcb2ec
:0401a4003f7ffcaeef
:0401a5003f7ffcaaf2
:0401a6003f7ffca6f5
:0401a7003f7ffca2f8
:0401a8003f7ffc9efb
:0401a9003f7ffc9afe
:0401aa003f7ffc9502
:0401ab003f7ffc9105
:0401ac003f7ffc8d08
:0401ad003f7ffc890b
:0401ae003f7ffc850e
:0401af003f7ffc8111
:0401b0003f7ffc7d14
:0401b1003f7ffc7818
:0401b2003f7ffc741b
:0401b3003f7ffc701e
:0401b4003f7ffc6c21
:0401b5003f7ffc6824
:0401b6003f7ffc6328
:0401b7003f7ffc5f2b
:0401b8003f7ffc5b2e
:0401b9003f7ffc5731
:0401ba003f7ffc5334
:0401bb003f7ffc4e38
:0401bc003f7ffc4a3b
:0401bd003f7ffc463e
:0401be003f7ffc4142
:0401bf003f7ffc3d45
:0401c0003f7ffc3948
:0401c1003f7ffc344c
:0401c2003f7ffc304f
:0401c3003f7ffc2c52
:0401c4003f7ffc2756
:0401c5003f7ffc2359
:0401c6003f7ffc1f5c
:0401c7003f7ffc1a60
:0401c8003f7ffc1663
:0401c9003f7ffc1266
:0401ca003f7ffc0d6a
:0401cb003f7ffc096d
:0401cc003f7ffc0471
:0401cd003f7ffc0074
:0401ce003f7ffbfb79
:0401cf003f7ffbf77c
:0401d0003f7ffbf280
:0401d1003f7ffbee83
:0401d2003f7ffbea86
:0401d3003f7ffbe58a
:0401d4003f7ffbe18d
:0401d5003f7ffbdc91
:0401d6003f7ffbd795
:0401d7003f7ffbd398
:0401d8003f7ffbce9c
:0401d9003f7ffbca9f
:0401da003f7ffbc5a3
:0401db003f7ffbc1a6
:0401dc003f7ffbbcaa
:0401dd003f7ffbb8ad
:0401de003f7ffbb3b1
:0401df003f7ffbaeb5
:0401e0003f7ffbaab8
:0401e1003f7ffba5bc
:0401e2003f7ffba0c0
:0401e3003f7ffb9cc3
:0401e4003f7ffb97c7
:0401e5003f7ffb92cb
:0401e6003f7ffb8ece
:0401e7003f7ffb89d2
:0401e8003f7ffb84d6
:0401e9003f7ffb80d9
:0401ea003f7ffb7bdd
:0401eb003f7ffb76e1
:0401ec003f7ffb71e5
:0401ed003f7ffb6de8
:0401ee003f7ffb68ec
:0401ef003f7ffb63f0
:0401f0003f7ffb5ef4
:0401f1003f7ffb5af7
:0401f2003f7ffb55fb
:0401f3003f7ffb50ff
:0401f4003f7ffb4b03
:0401f5003f7ffb4607
:0401f6003f7ffb420a
:0401f7003f7ffb3d0e
:0401f8003f7ffb3812
:0401f9003f7ffb3316
:0401fa003f7ffb2e1a
:0401fb003f7ffb291e
:0401fc003f7ffb2422
:0401fd003f7ffb1f26
:0401fe003f7ffb1b29
:0401ff003f7ffb162d
:040200003f7ffb1130
:040201003f7ffb0c34
:040202003f7ffb0738
:040203003f7ffb023c
:040204003f7ffafd41
:040205003f7ffaf845
:040206003f7ffaf349
:040207003f7ffaee4d
:040208003f7ffae951
:040209003f7ffae455
:04020a003f7ffadf59
:04020b003f7ffada5d
:04020c003f7ffad561
:04020d003f7ffad065
:04020e003f7ffacb69
:04020f003f7ffac66d
:040210003f7ffac171
:040211003f7ffabb76
:040212003f7ffab67a
:040213003f7ffab17e
:040214003f7ffaac82
:040215003f7ffaa786
:040216003f7ffaa28a
:040217003f7ffa9d8e
:040218003f7ffa9793
:040219003f7ffa9297
:04021a003f7ffa8d9b
:04021b003f7ffa889f
:04021c003f7ffa83a3
:04021d003f7ffa7ea7
:04021e003f7ffa78ac
:04021f003f7ffa73b0
:040220003f7ffa6eb4
:040221003f7ffa69b8
:040222003f7ffa63bd
:040223003f7ffa5ec1
:040224003f7ffa59c5
:040225003f7ffa54c9
:040226003f7ffa4ece
:040227003f7ffa49d2
:040228003f7ffa44d6
:040229003f7ffa3edb
:04022a003f7ffa39df
:04022b003f7ffa34e3
:04022c003f7ffa2ee8
:04022d003f7ffa29ec
:04022e003f7ffa24f0
:04022f003f7ffa1ef5
:040230003f7ffa19f9
:040231003f7ffa13fe
:040232003f7ffa0e02
:040233003f7ffa0906
:040234003f7ffa030b
:040235003f7ff9fe10
:040236003f7ff9f815
:040237003f7ff9f319
:040238003f7ff9ed1e
:040239003f7ff9e822
:04023a003f7ff9e227
:04023b003f7ff9dd2b
:04023c003f7ff9d730
:04023d003f7ff9d234
:04023e003f7ff9cc39
:04023f003f7ff9c73d
:040240003f7ff9c142
:040241003f7ff9bc46
:040242003f7ff9b64b
:040243003f7ff9b050
:040244003f7ff9ab54
:040245003f7ff9a559
:040246003f7ff9a05d
:040247003f7ff99a62
:040248003f7ff99467
:040249003f7ff98f6b
:04024a003f7ff98970
:04024b003f7ff98474
:04024c003f7ff97e79
:04024d003f7ff9787e
:04024e003f7ff97283
:04024f003f7ff96d87
:040250003f7ff9678c
:040251003f7ff96191
:040252003f7ff95c95
:040253003f7ff9569a
:040254003f7ff9509f
:040255003f7ff94aa4
:040256003f7ff945a8
:040257003f7ff93fad
:040258003f7ff939b2
:040259003f7ff933b7
:04025a003f7ff92ebb
:04025b003f7ff928c0
:04025c003f7ff922c5
:04025d003f7ff91cca
:04025e003f7ff916cf
:04025f003f7ff910d4
:040260003f7ff90bd8
:040261003f7ff905dd
:040262003f7ff8ffe3
:040263003f7ff8f9e8
:040264003f7ff8f3ed
:040265003f7ff8edf2
:040266003f7ff8e7f7
:040267003f7ff8e1fc
:040268003f7ff8db01
:040269003f7ff8d506
:04026a003f7ff8cf0b
:04026b003f7ff8ca0f
:04026c003f7ff8c414
:04026d003f7ff8be19
:04026e003f7ff8b81e
:04026f003f7ff8b223
:040270003f7ff8ac28
:040271003f7ff8a62d
:040272003f7ff8a032
:040273003f7ff89938
:040274003f7ff8933d
:040275003f7ff88d42
:040276003f7ff88747
:040277003f7ff8814c
:040278003f7ff87b51
:040279003f7ff87556
:04027a003f7ff86f5b
:04027b003f7ff86960
:04027c003f7ff86365
:04027d003f7ff85d6a
:04027e003f7ff85670
:04027f003f7ff85075
:040280003f7ff84a7a
:040281003f7ff8447f
:040282003f7ff83e84
:040283003f7ff83889
:040284003f7ff8318f
:040285003f7ff82b94
:040286003f7ff82599
:040287003f7ff81f9e
:040288003f7ff818a4
:040289003f7ff812a9
:04028a003f7ff80cae
:04028b003f7ff806b3
:04028c003f7ff7ffba
:04028d003f7ff7f9bf
:04028e003f7ff7f3c4
:04028f003f7ff7edc9
:040290003f7ff7e6cf
:040291003f7ff7e0d4
:040292003f7ff7dad9
:040293003f7ff7d3df
:040294003f7ff7cde4
:040295003f7ff7c6ea
:040296003f7ff7c0ef
:040297003f7ff7baf4
:040298003f7ff7b3fa
:040299003f7ff7adff
:04029a003f7ff7a605
:04029b003f7ff7a00a
:04029c003f7ff79a0f
:04029d003f7ff79315
:04029e003f7ff78d1a
:04029f003f7ff78620
:0402a0003f7ff78025
:0402a1003f7ff7792b
:0402a2003f7ff77330
:0402a3003f7ff76c36
:0402a4003f7ff7663b
:0402a5003f7ff75f41
:0402a6003f7ff75946
:0402a7003f7ff7524c
:0402a8003f7ff74c51
:0402a9003f7ff74557
:0402aa003f7ff73f5c
:0402ab003f7ff73862
:0402ac003f7ff73168
:0402ad003f7ff72b6d
:0402ae003f7ff72473
:0402af003f7ff71e78
:0402b0003f7ff7177e
:0402b1003f7ff71084
:0402b2003f7ff70a89
:0402b3003f7ff7038f
:0402b4003f7ff6fc96
:0402b5003f7ff6f69b
:0402b6003f7ff6efa1
:0402b7003f7ff6e8a7
:0402b8003f7ff6e2ac
:0402b9003f7ff6dbb2
:0402ba003f7ff6d4b8
:0402bb003f7ff6cdbe
:0402bc003f7ff6c7c3
:0402bd003f7ff6c0c9
:0402be003f7ff6b9cf
:0402bf003f7ff6b2d5
:0402c0003f7ff6acda
:0402c1003f7ff6a5e0
:0402c2003f7ff69ee6
:0402c3003f7ff697ec
:0402c4003f7ff690f2
:0402c5003f7ff68af7
:0402c6003f7ff683fd
:0402c7003f7ff67c03
:0402c8003f7ff67509
:0402c9003f7ff66e0f
:0402ca003f7ff66715
:0402cb003f7ff6601b
:0402cc003f7ff65921
:0402cd003f7ff65326
:0402ce003f7ff64c2c
:0402cf003f7ff64532
:0402d0003f7ff63e38
:0402d1003f7ff6373e
:0402d2003f7ff63044
:0402d3003f7ff6294a
:0402d4003f7ff62250
:0402d5003f7ff61b56
:0402d6003f7ff6145c
:0402d7003f7ff60d62
:0402d8003f7ff60668
:0402d9003f7ff5ff6f
:0402da003f7ff5f875
:0402db003f7ff5f17b
:0402dc003f7ff5ea81
:0402dd003f7ff5e387
:0402de003f7ff5dc8d
:0402df003f7ff5d593
:0402e0003f7ff5ce99
:0402e1003f7ff5c6a0
:0402e2003f7ff5bfa6
:0402e3003f7ff5b8ac
:0402e4003f7ff5b1b2
:0402e5003f7ff5aab8
:0402e6003f7ff5a3be
:0402e7003f7ff59cc4
:0402e8003f7ff595ca
:0402e9003f7ff58dd1
:0402ea003f7ff586d7
:0402eb003f7ff57fdd
:0402ec003f7ff578e3
:0402ed003f7ff571e9
:0402ee003f7ff569f0
:0402ef003f7ff562f6
:0402f0003f7ff55bfc
:0402f1003f7ff55402
:0402f2003f7ff54c09
:0402f3003f7ff5450f
:0402f4003f7ff53e15
:0402f5003f7ff5361c
:0402f6003f7ff52f22
:0402f7003f7ff52828
:0402f8003f7ff5212e
:0402f9003f7ff51935
:0402fa003f7ff5123b
:0402fb003f7ff50b41
:0402fc003f7ff50348
:0402fd003f7ff4fc4f
:0402fe003f7ff4f456
:0402ff003f7ff4ed5c
:040300003f7ff4e661
:040301003f7ff4de68
:040302003f7ff4d76e
:040303003f7ff4cf75
:040304003f7ff4c87b
:040305003f7ff4c181
:040306003f7ff4b988
:040307003f7ff4b28e
:040308003f7ff4aa95
:040309003f7ff4a39b
:04030a003f7ff49ba2
:04030b003f7ff494a8
:04030c003f7ff48caf
:04030d003f7ff485b5
:04030e003f7ff47dbc
:04030f003f7ff476c2
:040310003f7ff46ec9
:040311003f7ff466d0
:040312003f7ff45fd6
:040313003f7ff457dd
:040314003f7ff450e3
:040315003f7ff448ea
:040316003f7ff440f1
:040317003f7ff439f7
:040318003f7ff431fe
:040319003f7ff42a04
:04031a003f7ff4220b
:04031b003f7ff41a12
:04031c003f7ff41318
:04031d003f7ff40b1f
:04031e003f7ff40326
:04031f003f7ff3fc2d
:040320003f7ff3f434
:040321003f7ff3ec3b
:040322003f7ff3e442
:040323003f7ff3dd48
:040324003f7ff3d54f
:040325003f7ff3cd56
:040326003f7ff3c55d
:040327003f7ff3be63
:040328003f7ff3b66a
:040329003f7ff3ae71
:04032a003f7ff3a678
:04032b003f7ff39e7f
:04032c003f7ff39785
:04032d003f7ff38f8c
:04032e003f7ff38793
:04032f003f7ff37f9a
:040330003f7ff377a1
:040331003f7ff36fa8
:040332003f7ff367af
:040333003f7ff360b5
:040334003f7ff358bc
:040335003f7ff350c3
:040336003f7ff348ca
:040337003f7ff340d1
:040338003f7ff338d8
:040339003f7ff330df
:04033a003f7ff328e6
:04033b003f7ff320ed
:04033c003f7ff318f4
:04033d003f7ff310fb
:04033e003f7ff30802
:04033f003f7ff30009
:040340003f7ff2f811
:040341003f7ff2f018
:040342003f7ff2e81f
:040343003f7ff2e026
:040344003f7ff2d82d
:040345003f7ff2d034
:040346003f7ff2c83b
:040347003f7ff2c042
:040348003f7ff2b849
:040349003f7ff2b050
:04034a003f7ff2a857
:04034b003f7ff29f5f
:04034c003f7ff29766
:04034d003f7ff28f6d
:04034e003f7ff28774
:04034f003f7ff27f7b
:040350003f7ff27782
:040351003f7ff26e8a
:040352003f7ff26691
:040353003f7ff25e98
:040354003f7ff2569f
:040355003f7ff24ea6
:040356003f7ff245ae
:040357003f7ff23db5
:040358003f7ff235bc
:040359003f7ff22dc3
:04035a003f7ff224cb
:04035b003f7ff21cd2
:04035c003f7ff214d9
:04035d003f7ff20ce0
:04035e003f7ff203e8
:04035f003f7ff1fbf0
:040360003f7ff1f3f7
:040361003f7ff1eaff
:040362003f7ff1e206
:040363003f7ff1da0d
:040364003f7ff1d115
:040365003f7ff1c91c
:040366003f7ff1c123
:040367003f7ff1b82b
:040368003f7ff1b032
:040369003f7ff1a73a
:04036a003f7ff19f41
:04036b003f7ff19649
:04036c003f7ff18e50
:04036d003f7ff18657
:04036e003f7ff17d5f
:04036f003f7ff17566
:040370003f7ff16c6e
:040371003f7ff16475
:040372003f7ff15b7d
:040373003f7ff15384
:040374003f7ff14a8c
:040375003f7ff14293
:040376003f7ff1399b
:040377003f7ff131a2
:040378003f7ff128aa
:040379003f7ff11fb2
:04037a003f7ff117b9
:04037b003f7ff10ec1
:04037c003f7ff106c8
:04037d003f7ff0fdd1
:04037e003f7ff0f5d8
:04037f003f7ff0ece0
:040380003f7ff0e3e8
:040381003f7ff0dbef
:040382003f7ff0d2f7
:040383003f7ff0c9ff
:040384003f7ff0c106
:040385003f7ff0b80e
:040386003f7ff0af16
:040387003f7ff0a71d
:040388003f7ff09e25
:040389003f7ff0952d
:04038a003f7ff08c35
:04038b003f7ff0843c
:04038c003f7ff07b44
:04038d003f7ff0724c
:04038e003f7ff06954
:04038f003f7ff0615b
:040390003f7ff05863
:040391003f7ff04f6b
:040392003f7ff04673
:040393003f7ff03d7b
:040394003f7ff03582
:040395003f7ff02c8a
:040396003f7ff02392
:040397003f7ff01a9a
:040398003f7ff011a2
:040399003f7ff008aa
:04039a003f7fefffb3
:04039b003f7feff7ba
:04039c003f7fefeec2
:04039d003f7fefe5ca
:04039e003f7fefdcd2
:04039f003f7fefd3da
:0403a0003f7fefcae2
:0403a1003f7fefc1ea
:0403a2003f7fefb8f2
:0403a3003f7fefaffa
:0403a4003f7fefa602
:0403a5003f7fef9d0a
:0403a6003f7fef9412
:0403a7003f7fef8b1a
:0403a8003f7fef8222
:0403a9003f7fef792a
:0403aa003f7fef7032
:0403ab003f7fef673a
:0403ac003f7fef5e42
:0403ad003f7fef554a
:0403ae003f7fef4c52
:0403af003f7fef435a
:0403b0003f7fef3a62
:0403b1003f7fef316a
:0403b2003f7fef2773
:0403b3003f7fef1e7b
:0403b4003f7fef1583
:0403b5003f7fef0c8b
:0403b6003f7fef0393
:0403b7003f7feefa9c
:0403b8003f7feef1a4
:0403b9003f7feee7ad
:0403ba003f7feedeb5
:0403bb003f7feed5bd
:0403bc003f7feeccc5
:0403bd003f7feec3cd
:0403be003f7feeb9d6
:0403bf003f7feeb0de
:0403c0003f7feea7e6
:0403c1003f7fee9eee
:0403c2003f7fee94f7
:0403c3003f7fee8bff
:0403c4003f7fee8207
:0403c5003f7fee7810
:0403c6003f7fee6f18
:0403c7003f7fee6620
:0403c8003f7fee5d28
:0403c9003f7fee5331
:0403ca003f7fee4a39
:0403cb003f7fee4141
:0403cc003f7fee374a
:0403cd003f7fee2e52
:0403ce003f7fee245b
:0403cf003f7fee1b63
:0403d0003f7fee126b
:0403d1003f7fee0874
:0403d2003f7fedff7d
:0403d3003f7fedf586
:0403d4003f7fedec8e
:0403d5003f7fede297
:0403d6003f7fedd99f
:0403d7003f7fedd0a7
:0403d8003f7fedc6b0
:0403d9003f7fedbdb8
:0403da003f7fedb3c1
:0403db003f7fedaac9
:0403dc003f7feda0d2
:0403dd003f7fed97da
:0403de003f7fed8de3
:0403df003f7fed83ec
:0403e0003f7fed7af4
:0403e1003f7fed70fd
:0403e2003f7fed6705
:0403e3003f7fed5d0e
:0403e4003f7fed5416
:0403e5003f7fed4a1f
:0403e6003f7fed4028
:0403e7003f7fed3730
:0403e8003f7fed2d39
:0403e9003f7fed2342
:0403ea003f7fed1a4a
:0403eb003f7fed1053
:0403ec003f7fed065c
:0403ed003f7fecfd65
:0403ee003f7fecf36e
:0403ef003f7fece977
:0403f0003f7fece07f
:0403f1003f7fecd688
:0403f2003f7feccc91
:0403f3003f7fecc29a
:0403f4003f7fecb9a2
:0403f5003f7fecafab
:0403f6003f7feca5b4
:0403f7003f7fec9bbd
:0403f8003f7fec92c5
:0403f9003f7fec88ce
:0403fa003f7fec7ed7
:0403fb003f7fec74e0
:0403fc003f7fec6ae9
:0403fd003f7fec61f1
:0403fe003f7fec57fa
:0403ff003f7fec4d03
:040400003f7fec430b
:040401003f7fec3914
:040402003f7fec2f1d
:040403003f7fec2526
:040404003f7fec1b2f
:040405003f7fec1237
:040406003f7fec0840
:040407003f7febfe4a
:040408003f7febf453
:040409003f7febea5c
:04040a003f7febe065
:04040b003f7febd66e
:04040c003f7febcc77
:04040d003f7febc280
:04040e003f7febb889
:04040f003f7febae92
:040410003f7feba49b
:040411003f7feb9aa4
:040412003f7feb90ad
:040413003f7feb86b6
:040414003f7feb7cbf
:040415003f7feb72c8
:040416003f7feb68d1
:040417003f7feb5ddb
:040418003f7feb53e4
:040419003f7feb49ed
:04041a003f7feb3ff6
:04041b003f7feb35ff
:04041c003f7feb2b08
:04041d003f7feb2111
:04041e003f7feb171a
:04041f003f7feb0c24
:040420003f7feb022d
:040421003f7feaf837
:040422003f7feaee40
:040423003f7feae449
:040424003f7feada52
:040425003f7feacf5c
:040426003f7feac565
:040427003f7feabb6e
:040428003f7feab177
:040429003f7feaa681
:04042a003f7fea9c8a
:04042b003f7fea9293
:04042c003f7fea879d
:04042d003f7fea7da6
:04042e003f7fea73af
:04042f003f7fea69b8
:040430003f7fea5ec2
:040431003f7fea54cb
:040432003f7fea4ad4
:040433003f7fea3fde
:040434003f7fea35e7
:040435003f7fea2af1
:040436003f7fea20fa
:040437003f7fea1603
:040438003f7fea0b0d
:040439003f7fea0116
:04043a003f7fe9f621
:04043b003f7fe9ec2a
:04043c003f7fe9e233
:04043d003f7fe9d73d
:04043e003f7fe9cd46
:04043f003f7fe9c250
:040440003f7fe9b859
:040441003f7fe9ad63
:040442003f7fe9a36c
:040443003f7fe99876
:040444003f7fe98e7f
:040445003f7fe98389
:040446003f7fe97992
:040447003f7fe96e9c
:040448003f7fe964a5
:040449003f7fe959af
:04044a003f7fe94eb9
:04044b003f7fe944c2
:04044c003f7fe939cc
:04044d003f7fe92fd5
:04044e003f7fe924df
:04044f003f7fe919e9
:040450003f7fe90ff2
:040451003f7fe904fc
:040452003f7fe8f907
:040453003f7fe8ef10
:040454003f7fe8e41a
:040455003f7fe8d924
:040456003f7fe8cf2d
:040457003f7fe8c437
:040458003f7fe8b941
:040459003f7fe8af4a
:04045a003f7fe8a454
:04045b003f7fe8995e
:04045c003f7fe88e68
:04045d003f7fe88471
:04045e003f7fe8797b
:04045f003f7fe86e85
:040460003f7fe8638f
:040461003f7fe85899
:040462003f7fe84ea2
:040463003f7fe843ac
:040464003f7fe838b6
:040465003f7fe82dc0
:040466003f7fe822ca
:040467003f7fe817d4
:040468003f7fe80ddd
:040469003f7fe802e7
:04046a003f7fe7f7f2
:04046b003f7fe7ecfc
:04046c003f7fe7e106
:04046d003f7fe7d610
:04046e003f7fe7cb1a
:04046f003f7fe7c024
:040470003f7fe7b52e
:040471003f7fe7aa38
:040472003f7fe79f42
:040473003f7fe7944c
:040474003f7fe78956
:040475003f7fe77e60
:040476003f7fe7736a
:040477003f7fe76874
:040478003f7fe75d7e
:040479003f7fe75288
:04047a003f7fe74792
:04047b003f7fe73c9c
:04047c003f7fe731a6
:04047d003f7fe726b0
:04047e003f7fe71bba
:04047f003f7fe710c4
:040480003f7fe705ce
:040481003f7fe6fad9
:040482003f7fe6efe3
:040483003f7fe6e4ed
:040484003f7fe6d8f8
:040485003f7fe6cd02
:040486003f7fe6c20c
:040487003f7fe6b716
:040488003f7fe6ac20
:040489003f7fe6a12a
:04048a003f7fe69535
:04048b003f7fe68a3f
:04048c003f7fe67f49
:04048d003f7fe67453
:04048e003f7fe6695d
:04048f003f7fe65d68
:040490003f7fe65272
:040491003f7fe6477c
:040492003f7fe63c86
:040493003f7fe63091
:040494003f7fe6259b
:040495003f7fe61aa5
:040496003f7fe60eb0
:040497003f7fe603ba
:040498003f7fe5f8c5
:040499003f7fe5ecd0
:04049a003f7fe5e1da
:04049b003f7fe5d6e4
:04049c003f7fe5caef
:04049d003f7fe5bff9
:04049e003f7fe5b403
:04049f003f7fe5a80e
:0404a0003f7fe59d18
:0404a1003f7fe59123
:0404a2003f7fe5862d
:0404a3003f7fe57a38
:0404a4003f7fe56f42
:0404a5003f7fe5644c
:0404a6003f7fe55857
:0404a7003f7fe54d61
:0404a8003f7fe5416c
:0404a9003f7fe53676
:0404aa003f7fe52a81
:0404ab003f7fe51f8b
:0404ac003f7fe51396
:0404ad003f7fe508a0
:0404ae003f7fe4fcac
:0404af003f7fe4f0b7
:0404b0003f7fe4e5c1
:0404b1003f7fe4d9cc
:0404b2003f7fe4ced6
:0404b3003f7fe4c2e1
:0404b4003f7fe4b7eb
:0404b5003f7fe4abf6
:0404b6003f7fe49f01
:0404b7003f7fe4940b
:0404b8003f7fe48816
:0404b9003f7fe47c21
:0404ba003f7fe4712b
:0404bb003f7fe46536
:0404bc003f7fe45941
:0404bd003f7fe44e4b
:0404be003f7fe44256
:0404bf003f7fe43661
:0404c0003f7fe42b6b
:0404c1003f7fe41f76
:0404c2003f7fe41381
:0404c3003f7fe4078c
:0404c4003f7fe3fc97
:0404c5003f7fe3f0a2
:0404c6003f7fe3e4ad
:0404c7003f7fe3d8b8
:0404c8003f7fe3cdc2
:0404c9003f7fe3c1cd
:0404ca003f7fe3b5d8
:0404cb003f7fe3a9e3
:0404cc003f7fe39dee
:0404cd003f7fe391f9
:0404ce003f7fe38603
:0404cf003f7fe37a0e
:0404d0003f7fe36e19
:0404d1003f7fe36224
:0404d2003f7fe3562f
:0404d3003f7fe34a3a
:0404d4003f7fe33e45
:0404d5003f7fe33250
:0404d6003f7fe3275a
:0404d7003f7fe31b65
:0404d8003f7fe30f70
:0404d9003f7fe3037b
:0404da003f7fe2f787
:0404db003f7fe2eb92
:0404dc003f7fe2df9d
:0404dd003f7fe2d3a8
:0404de003f7fe2c7b3
:0404df003f7fe2bbbe
:0404e0003f7fe2afc9
:0404e1003f7fe2a3d4
:0404e2003f7fe297df
:0404e3003f7fe28bea
:0404e4003f7fe27ff5
:0404e5003f7fe27201
:0404e6003f7fe2660c
:0404e7003f7fe25a17
:0404e8003f7fe24e22
:0404e9003f7fe2422d
:0404ea003f7fe23638
:0404eb003f7fe22a43
:0404ec003f7fe21e4e
:0404ed003f7fe21259
:0404ee003f7fe20565
:0404ef003f7fe1f971
:0404f0003f7fe1ed7c
:0404f1003f7fe1e187
:0404f2003f7fe1d592
:0404f3003f7fe1c89e
:0404f4003f7fe1bca9
:0404f5003f7fe1b0b4
:0404f6003f7fe1a4bf
:0404f7003f7fe198ca
:0404f8003f7fe18bd6
:0404f9003f7fe17fe1
:0404fa003f7fe173ec
:0404fb003f7fe166f8
:0404fc003f7fe15a03
:0404fd003f7fe14e0e
:0404fe003f7fe14219
:0404ff003f7fe13525
:040500003f7fe1292f
:040501003f7fe11d3a
:040502003f7fe11046
:040503003f7fe10451
:040504003f7fe0f85d
:040505003f7fe0eb69
:040506003f7fe0df74
:040507003f7fe0d280
:040508003f7fe0c68b
:040509003f7fe0ba96
:04050a003f7fe0ada2
:04050b003f7fe0a1ad
:04050c003f7fe094b9
:04050d003f7fe088c4
:04050e003f7fe07bd0
:04050f003f7fe06fdb
:040510003f7fe062e7
:040511003f7fe056f2
:040512003f7fe049fe
:040513003f7fe03d09
:040514003f7fe03015
:040515003f7fe02420
:040516003f7fe0172c
:040517003f7fe00b37
:040518003f7fdffe44
:040519003f7fdff24f
:04051a003f7fdfe55b
:04051b003f7fdfd867
:04051c003f7fdfcc72
:04051d003f7fdfbf7e
:04051e003f7fdfb389
:04051f003f7fdfa695
:040520003f7fdf99a1
:040521003f7fdf8dac
:040522003f7fdf80b8
:040523003f7fdf73c4
:040524003f7fdf67cf
:040525003f7fdf5adb
:040526003f7fdf4de7
:040527003f7fdf41f2
:040528003f7fdf34fe
:040529003f7fdf270a
:04052a003f7fdf1a16
:04052b003f7fdf0e21
:04052c003f7fdf012d
:04052d003f7fdef43a
:04052e003f7fdee746
:04052f003f7fdedb51
:040530003f7fdece5d
:040531003f7fdec169
:040532003f7fdeb475
:040533003f7fdea781
:040534003f7fde9a8d
:040535003f7fde8e98
:040536003f7fde81a4
:040537003f7fde74b0
:040538003f7fde67bc
:040539003f7fde5ac8
:04053a003f7fde4dd4
:04053b003f7fde40e0
:04053c003f7fde33ec
:04053d003f7fde27f7
:04053e003f7fde1a03
:04053f003f7fde0d0f
:040540003f7fde001b
:040541003f7fddf328
:040542003f7fdde634
:040543003f7fddd940
:040544003f7fddcc4c
:040545003f7fddbf58
:040546003f7fddb264
:040547003f7fdda570
:040548003f7fdd987c
:040549003f7fdd8b88
:04054a003f7fdd7e94
:04054b003f7fdd71a0
:04054c003f7fdd64ac
:04054d003f7fdd57b8
:04054e003f7fdd49c5
:04054f003f7fdd3cd1
:040550003f7fdd2fdd
:040551003f7fdd22e9
:040552003f7fdd15f5
:040553003f7fdd0801
:040554003f7fdcfb0e
:040555003f7fdcee1a
:040556003f7fdce027
:040557003f7fdcd333
:040558003f7fdcc63f
:040559003f7fdcb94b
:04055a003f7fdcac57
:04055b003f7fdc9f63
:04055c003f7fdc9170
:04055d003f7fdc847c
:04055e003f7fdc7788
:04055f003f7fdc6a94
:040560003f7fdc5ca1
:040561003f7fdc4fad
:040562003f7fdc42b9
:040563003f7fdc35c5
:040564003f7fdc27d2
:040565003f7fdc1ade
:040566003f7fdc0dea
:040567003f7fdbfff8
:040568003f7fdbf204
:040569003f7fdbe510
:04056a003f7fdbd71d
:04056b003f7fdbca29
:04056c003f7fdbbd35
:04056d003f7fdbaf42
:04056e003f7fdba24e
:04056f003f7fdb945b
:040570003f7fdb8767
:040571003f7fdb7a73
:040572003f7fdb6c80
:040573003f7fdb5f8c
:040574003f7fdb5199
:040575003f7fdb44a5
:040576003f7fdb36b2
:040577003f7fdb29be
:040578003f7fdb1bcb
:040579003f7fdb0ed7
:04057a003f7fdb00e4
:04057b003f7fdaf3f1
:04057c003f7fdae5fe
:04057d003f7fdad80a
:04057e003f7fdaca17
:04057f003f7fdabd23
:040580003f7fdaaf30
:040581003f7fdaa23c
:040582003f7fda9449
:040583003f7fda8656
:040584003f7fda7962
:040585003f7fda6b6f
:040586003f7fda5e7b
:040587003f7fda5088
:040588003f7fda4295
:040589003f7fda35a1
:04058a003f7fda27ae
:04058b003f7fda19bb
:04058c003f7fda0cc7
:04058d003f7fd9fed5
:04058e003f7fd9f0e2
:04058f003f7fd9e3ee
:040590003f7fd9d5fb
:040591003f7fd9c708
:040592003f7fd9b915
:040593003f7fd9ac21
:040594003f7fd99e2e
:040595003f7fd9903b
:040596003f7fd98248
:040597003f7fd97554
:040598003f7fd96761
:040599003f7fd9596e
:04059a003f7fd94b7b
:04059b003f7fd93d88
:04059c003f7fd92f95
:04059d003f7fd922a1
:04059e003f7fd914ae
:04059f003f7fd906bb
:0405a0003f7fd8f8c9
:0405a1003f7fd8ead6
:0405a2003f7fd8dce3
:0405a3003f7fd8cef0
:0405a4003f7fd8c0fd
:0405a5003f7fd8b309
:0405a6003f7fd8a516
:0405a7003f7fd89723
:0405a8003f7fd88930
:0405a9003f7fd87b3d
:0405aa003f7fd86d4a
:0405ab003f7fd85f57
:0405ac003f7fd85164
:0405ad003f7fd84371
:0405ae003f7fd8357e
:0405af003f7fd8278b
:0405b0003f7fd81998
:0405b1003f7fd80ba5
:0405b2003f7fd7fdb3
:0405b3003f7fd7efc0
:0405b4003f7fd7e1cd
:0405b5003f7fd7d2db
:0405b6003f7fd7c4e8
:0405b7003f7fd7b6f5
:0405b8003f7fd7a802
:0405b9003f7fd79a0f
:0405ba003f7fd78c1c
:0405bb003f7fd77e29
:0405bc003f7fd77036
:0405bd003f7fd76243
:0405be003f7fd75351
:0405bf003f7fd7455e
:0405c0003f7fd7376b
:0405c1003f7fd72978
:0405c2003f7fd71b85
:0405c3003f7fd70c93
:0405c4003f7fd6fea1
:0405c5003f7fd6f0ae
:0405c6003f7fd6e2bb
:0405c7003f7fd6d4c8
:0405c8003f7fd6c5d6
:0405c9003f7fd6b7e3
:0405ca003f7fd6a9f0
:0405cb003f7fd69afe
:0405cc003f7fd68c0b
:0405cd003f7fd67e18
:0405ce003f7fd67025
:0405cf003f7fd66133
:0405d0003f7fd65340
:0405d1003f7fd6454d
:0405d2003f7fd6365b
:0405d3003f7fd62868
:0405d4003f7fd61976
:0405d5003f7fd60b83
:0405d6003f7fd5fd91
:0405d7003f7fd5ee9f
:0405d8003f7fd5e0ac
:0405d9003f7fd5d1ba
:0405da003f7fd5c3c7
:0405db003f7fd5b5d4
:0405dc003f7fd5a6e2
:0405dd003f7fd598ef
:0405de003f7fd589fd
:0405df003f7fd57b0a
:0405e0003f7fd56c18
:0405e1003f7fd55e25
:0405e2003f7fd54f33
:0405e3003f7fd54140
:0405e4003f7fd5324e
:0405e5003f7fd5245b
:0405e6003f7fd51569
:0405e7003f7fd50776
:0405e8003f7fd4f885
:0405e9003f7fd4e993
:0405ea003f7fd4dba0
:0405eb003f7fd4ccae
:0405ec003f7fd4bebb
:0405ed003f7fd4afc9
:0405ee003f7fd4a0d7
:0405ef003f7fd492e4
:0405f0003f7fd483f2
:0405f1003f7fd47400
:0405f2003f7fd4660d
:0405f3003f7fd4571b
:0405f4003f7fd44829
:0405f5003f7fd43a36
:0405f6003f7fd42b44
:0405f7003f7fd41c52
:0405f8003f7fd40e5f
:0405f9003f7fd3ff6e
:0405fa003f7fd3f07c
:0405fb003f7fd3e18a
:0405fc003f7fd3d397
:0405fd003f7fd3c4a5
:0405fe003f7fd3b5b3
:0405ff003f7fd3a6c1
:040600003f7fd397ce
:040601003f7fd389db
:040602003f7fd37ae9
:040603003f7fd36bf7
:040604003f7fd35c05
:040605003f7fd34d13
:040606003f7fd33f20
:040607003f7fd3302e
:040608003f7fd3213c
:040609003f7fd3124a
:04060a003f7fd30358
:04060b003f7fd2f467
:04060c003f7fd2e575
:04060d003f7fd2d683
:04060e003f7fd2c791
:04060f003f7fd2b89f
:040610003f7fd2a9ad
:040611003f7fd29abb
:040612003f7fd28cc8
:040613003f7fd27dd6
:040614003f7fd26ee4
:040615003f7fd25ff2
:040616003f7fd25000
:040617003f7fd2410e
:040618003f7fd2321c
:040619003f7fd2222b
:04061a003f7fd21339
:04061b003f7fd20447
:04061c003f7fd1f556
:04061d003f7fd1e664
:04061e003f7fd1d772
:04061f003f7fd1c880
:040620003f7fd1b98e
:040621003f7fd1aa9c
:040622003f7fd19baa
:040623003f7fd18cb8
:040624003f7fd17cc7
:040625003f7fd16dd5
:040626003f7fd15ee3
:040627003f7fd14ff1
:040628003f7fd140ff
:040629003f7fd1310d
:04062a003f7fd1211c
:04062b003f7fd1122a
:04062c003f7fd10338
:04062d003f7fd0f447
:04062e003f7fd0e456
:04062f003f7fd0d564
:040630003f7fd0c672
:040631003f7fd0b780
:040632003f7fd0a78f
:040633003f7fd0989d
:040634003f7fd089ab
:040635003f7fd07ab9
:040636003f7fd06ac8
:040637003f7fd05bd6
:040638003f7fd04ce4
:040639003f7fd03cf3
:04063a003f7fd02d01
:04063b003f7fd01d10
:04063c003f7fd00e1e
:04063d003f7fcfff2d
:04063e003f7fcfef3c
:04063f003f7fcfe04a
:040640003f7fcfd158
:040641003f7fcfc167
:040642003f7fcfb275
:040643003f7fcfa284
:040644003f7fcf9392
:040645003f7fcf83a1
:040646003f7fcf74af
:040647003f7fcf64be
:040648003f7fcf55cc
:040649003f7fcf45db
:04064a003f7fcf36e9
:04064b003f7fcf26f8
:04064c003f7fcf1706
:04064d003f7fcf0715
:04064e003f7fcef824
:04064f003f7fcee833
:040650003f7fced941
:040651003f7fcec950
:040652003f7fceb95f
:040653003f7fceaa6d
:040654003f7fce9a7c
:040655003f7fce8b8a
:040656003f7fce7b99
:040657003f7fce6ba8
:040658003f7fce5cb6
:040659003f7fce4cc5
:04065a003f7fce3cd4
:04065b003f7fce2de2
:04065c003f7fce1df1
:04065d003f7fce0d00
:04065e003f7fcdfe0f
:04065f003f7fcdee1e
:040660003f7fcdde2d
:040661003f7fcdce3c
:040662003f7fcdbf4a
:040663003f7fcdaf59
:040664003f7fcd9f68
:040665003f7fcd8f77
:040666003f7fcd8085
:040667003f7fcd7094
:040668003f7fcd60a3
:040669003f7fcd50b2
:04066a003f7fcd40c1
:04066b003f7fcd31cf
:04066c003f7fcd21de
:04066d003f7fcd11ed
:04066e003f7fcd01fc
:04066f003f7fccf10c
:040670003f7fcce11b
:040671003f7fccd12a
:040672003f7fccc238
:040673003f7fccb247
:040674003f7fcca256
:040675003f7fcc9265
:040676003f7fcc8274
:040677003f7fcc7283
:040678003f7fcc6292
:040679003f7fcc52a1
:04067a003f7fcc42b0
:04067b003f7fcc32bf
:04067c003f7fcc22ce
:04067d003f7fcc12dd
:04067e003f7fcc02ec
:04067f003f7fcbf2fc
:040680003f7fcbe20b
:040681003f7fcbd21a
:040682003f7fcbc229
:040683003f7fcbb238
:040684003f7fcba247
:040685003f7fcb9256
:040686003f7fcb8265
:040687003f7fcb7274
:040688003f7fcb6184
:040689003f7fcb5193
:04068a003f7fcb41a2
:04068b003f7fcb31b1
:04068c003f7fcb21c0
:04068d003f7fcb11cf
:04068e003f7fcb01de
:04068f003f7fcaf0ef
:040690003f7fcae0fe
:040691003f7fcad00d
:040692003f7fcac01c
:040693003f7fcab02b
:040694003f7fca9f3b
:040695003f7fca8f4a
:040696003f7fca7f59
:040697003f7fca6f68
:040698003f7fca5e78
:040699003f7fca4e87
:04069a003f7fca3e96
:04069b003f7fca2ea5
:04069c003f7fca1db5
:04069d003f7fca0dc4
:04069e003f7fc9fdd4
:04069f003f7fc9ece4
:0406a0003f7fc9dcf3
:0406a1003f7fc9cc02
:0406a2003f7fc9bb12
:0406a3003f7fc9ab21
:0406a4003f7fc99b30
:0406a5003f7fc98a40
:0406a6003f7fc97a4f
:0406a7003f7fc9695f
:0406a8003f7fc9596e
:0406a9003f7fc9497d
:0406aa003f7fc9388d
:0406ab003f7fc9289c
:0406ac003f7fc917ac
:0406ad003f7fc907bb
:0406ae003f7fc8f6cc
:0406af003f7fc8e6db
:0406b0003f7fc8d5eb
:0406b1003f7fc8c5fa
:0406b2003f7fc8b40a
:0406b3003f7fc8a419
:0406b4003f7fc89329
:0406b5003f7fc88338
:0406b6003f7fc87248
:0406b7003f7fc86257
:0406b8003f7fc85167
:0406b9003f7fc84077
:0406ba003f7fc83086
:0406bb003f7fc81f96
:0406bc003f7fc80fa5
:0406bd003f7fc7feb6
:0406be003f7fc7edc6
:0406bf003f7fc7ddd5
:0406c0003f7fc7cce5
:0406c1003f7fc7bcf4
:0406c2003f7fc7ab04
:0406c3003f7fc79a14
:0406c4003f7fc78924
:0406c5003f7fc77933
:0406c6003f7fc76843
:0406c7003f7fc75753
:0406c8003f7fc74762
:0406c9003f7fc73672
:0406ca003f7fc72582
:0406cb003f7fc71492
:0406cc003f7fc704a1
:0406cd003f7fc6f3b2
:0406ce003f7fc6e2c2
:0406cf003f7fc6d1d2
:0406d0003f7fc6c1e1
:0406d1003f7fc6b0f1
:0406d2003f7fc69f01
:0406d3003f7fc68e11
:0406d4003f7fc67d21
:0406d5003f7fc66c31
:0406d6003f7fc65c40
:0406d7003f7fc64b50
:0406d8003f7fc63a60
:0406d9003f7fc62970
:0406da003f7fc61880
:0406db003f7fc60790
:0406dc003f7fc5f6a1
:0406dd003f7fc5e5b1
:0406de003f7fc5d4c1
:0406df003f7fc5c3d1
:0406e0003f7fc5b2e1
:0406e1003f7fc5a1f1
:0406e2003f7fc59100
:0406e3003f7fc58010
:0406e4003f7fc56f20
:0406e5003f7fc55e30
:0406e6003f7fc54d40
:0406e7003f7fc53b51
:0406e8003f7fc52a61
:0406e9003f7fc51971
:0406ea003f7fc50881
:0406eb003f7fc4f792
:0406ec003f7fc4e6a2
:0406ed003f7fc4d5b2
:0406ee003f7fc4c4c2
:0406ef003f7fc4b3d2
:0406f0003f7fc4a2e2
:0406f1003f7fc491f2
:0406f2003f7fc48002
:0406f3003f7fc46e13
:0406f4003f7fc45d23
:0406f5003f7fc44c33
:0406f6003f7fc43b43
:0406f7003f7fc42a53
:0406f8003f7fc41963
:0406f9003f7fc40774
:0406fa003f7fc3f685
:0406fb003f7fc3e595
:0406fc003f7fc3d4a5
:0406fd003f7fc3c3b5
:0406fe003f7fc3b1c6
:0406ff003f7fc3a0d6
:040700003f7fc38fe5
:040701003f7fc37ef5
:040702003f7fc36c06
:040703003f7fc35b16
:040704003f7fc34a26
:040705003f7fc33837
:040706003f7fc32747
:040707003f7fc31657
:040708003f7fc30468
:040709003f7fc2f379
:04070a003f7fc2e289
:04070b003f7fc2d09a
:04070c003f7fc2bfaa
:04070d003f7fc2aeba
:04070e003f7fc29ccb
:04070f003f7fc28bdb
:040710003f7fc279ec
:040711003f7fc268fc
:040712003f7fc2560d
:040713003f7fc2451d
:040714003f7fc2342d
:040715003f7fc2223e
:040716003f7fc2114e
:040717003f7fc1ff60
:040718003f7fc1ee70
:040719003f7fc1dc81
:04071a003f7fc1cb91
:04071b003f7fc1b9a2
:04071c003f7fc1a8b2
:04071d003f7fc196c3
:04071e003f7fc185d3
:04071f003f7fc173e4
:040720003f7fc161f5
:040721003f7fc15005
:040722003f7fc13e16
:040723003f7fc12d26
:040724003f7fc11b37
:040725003f7fc10948
:040726003f7fc0f859
:040727003f7fc0e66a
:040728003f7fc0d47b
:040729003f7fc0c38b
:04072a003f7fc0b19c
:04072b003f7fc09fad
:04072c003f7fc08ebd
:04072d003f7fc07cce
:04072e003f7fc06adf
:04072f003f7fc059ef
:040730003f7fc04700
:040731003f7fc03511
:040732003f7fc02322
:040733003f7fc01232
:040734003f7fc00043
:040735003f7fbfee55
:040736003f7fbfdc66
:040737003f7fbfcb76
:040738003f7fbfb987
:040739003f7fbfa798
:04073a003f7fbf95a9
:04073b003f7fbf83ba
:04073c003f7fbf72ca
:04073d003f7fbf60db
:04073e003f7fbf4eec
:04073f003f7fbf3cfd
:040740003f7fbf2a0e
:040741003f7fbf181f
:040742003f7fbf0630
:040743003f7fbef442
:040744003f7fbee253
:040745003f7fbed163
:040746003f7fbebf74
:040747003f7fbead85
:040748003f7fbe9b96
:040749003f7fbe89a7
:04074a003f7fbe77b8
:04074b003f7fbe65c9
:04074c003f7fbe53da
:04074d003f7fbe41eb
:04074e003f7fbe2ffc
:04074f003f7fbe1d0d
:040750003f7fbe0b1e
:040751003f7fbdf930
:040752003f7fbde741
:040753003f7fbdd552
:040754003f7fbdc264
:040755003f7fbdb075
:040756003f7fbd9e86
:040757003f7fbd8c97
:040758003f7fbd7aa8
:040759003f7fbd68b9
:04075a003f7fbd56ca
:04075b003f7fbd44db
:04075c003f7fbd32ec
:04075d003f7fbd1ffe
:04075e003f7fbd0d0f
:04075f003f7fbcfb21
:040760003f7fbce932
:040761003f7fbcd743
:040762003f7fbcc455
:040763003f7fbcb266
:040764003f7fbca077
:040765003f7fbc8e88
:040766003f7fbc7c99
:040767003f7fbc69ab
:040768003f7fbc57bc
:040769003f7fbc45cd
:04076a003f7fbc32df
:04076b003f7fbc20f0
:04076c003f7fbc0e01
:04076d003f7fbbfc13
:04076e003f7fbbe925
:04076f003f7fbbd736
:040770003f7fbbc547
:040771003f7fbbb259
:040772003f7fbba06a
:040773003f7fbb8e7b
:040774003f7fbb7b8d
:040775003f7fbb699e
:040776003f7fbb56b0
:040777003f7fbb44c1
:040778003f7fbb32d2
:040779003f7fbb1fe4
:04077a003f7fbb0df5
:04077b003f7fbafa08
:04077c003f7fbae819
:04077d003f7fbad52b
:04077e003f7fbac33c
:04077f003f7fbab04e
:040780003f7fba9e5f
:040781003f7fba8b71
:040782003f7fba7982
:040783003f7fba6694
:040784003f7fba54a5
:040785003f7fba41b7
:040786003f7fba2fc8
:040787003f7fba1cda
:040788003f7fba0aeb
:040789003f7fb9f7fe
:04078a003f7fb9e410
:04078b003f7fb9d221
:04078c003f7fb9bf33
:04078d003f7fb9ad44
:04078e003f7fb99a56
:04078f003f7fb98768
:040790003f7fb97579
:040791003f7fb9628b
:040792003f7fb94f9d
:040793003f7fb93dae
:040794003f7fb92ac0
:040795003f7fb917d2
:040796003f7fb905e3
:040797003f7fb8f2f6
:040798003f7fb8df08
:040799003f7fb8cc1a
:04079a003f7fb8ba2b
:04079b003f7fb8a73d
:04079c003f7fb8944f
:04079d003f7fb88161
:04079e003f7fb86f72
:04079f003f7fb85c84
:0407a0003f7fb84996
:0407a1003f7fb836a8
:0407a2003f7fb823ba
:0407a3003f7fb810cc
:0407a4003f7fb7fede
:0407a5003f7fb7ebf0
:0407a6003f7fb7d802
:0407a7003f7fb7c514
:0407a8003f7fb7b226
:0407a9003f7fb79f38
:0407aa003f7fb78c4a
:0407ab003f7fb7795c
:0407ac003f7fb7676d
:0407ad003f7fb7547f
:0407ae003f7fb74191
:0407af003f7fb72ea3
:0407b0003f7fb71bb5
:0407b1003f7fb708c7
:0407b2003f7fb6f5da
:0407b3003f7fb6e2ec
:0407b4003f7fb6cffe
:0407b5003f7fb6bc10
:0407b6003f7fb6a922
:0407b7003f7fb69634
:0407b8003f7fb68346
:0407b9003f7fb67058
:0407ba003f7fb65d6a
:0407bb003f7fb64a7c
:0407bc003f7fb6378e
:0407bd003f7fb623a1
:0407be003f7fb610b3
:0407bf003f7fb5fdc6
:0407c0003f7fb5ead8
:0407c1003f7fb5d7ea
:0407c2003f7fb5c4fc
:0407c3003f7fb5b10e
:0407c4003f7fb59e20
:0407c5003f7fb58a33
:0407c6003f7fb57745
:0407c7003f7fb56457
:0407c8003f7fb55169
:0407c9003f7fb53e7b
:0407ca003f7fb52b8d
:0407cb003f7fb517a0
:0407cc003f7fb504b2
:0407cd003f7fb4f1c5
:0407ce003f7fb4ded7
:0407cf003f7fb4caea
:0407d0003f7fb4b7fc
:0407d1003f7fb4a40e
:0407d2003f7fb49120
:0407d3003f7fb47d33
:0407d4003f7fb46a45
:0407d5003f7fb45757
:0407d6003f7fb4436a
:0407d7003f7fb4307c
:0407d8003f7fb41d8e
:0407d9003f7fb409a1
:0407da003f7fb3f6b4
:0407db003f7fb3e3c6
:0407dc003f7fb3cfd9
:0407dd003f7fb3bceb
:0407de003f7fb3a8fe
:0407df003f7fb39510
:0407e0003f7fb38222
:0407e1003f7fb36e35
:0407e2003f7fb35b47
:0407e3003f7fb3475a
:0407e4003f7fb3346c
:0407e5003f7fb3207f
:0407e6003f7fb30d91
:0407e7003f7fb2f9a5
:0407e8003f7fb2e6b7
:0407e9003f7fb2d2ca
:0407ea003f7fb2bfdc
:0407eb003f7fb2abef
:0407ec003f7fb29801
:0407ed003f7fb28414
:0407ee003f7fb27126
:0407ef003f7fb25d39
:0407f0003f7fb24a4b
:0407f1003f7fb2365e
:0407f2003f7fb22271
:0407f3003f7fb20f83
:0407f4003f7fb1fb97
:0407f5003f7fb1e8a9
:0407f6003f7fb1d4bc
:0407f7003f7fb1c0cf
:0407f8003f7fb1ade1
:0407f9003f7fb199f4
:0407fa003f7fb18507
:0407fb003f7fb17219
:0407fc003f7fb15e2c
:0407fd003f7fb14a3f
:0407fe003f7fb13751
:0407ff003f7fb12364
:040800003f7fb10f76
:040801003f7fb0fb8a
:040802003f7fb0e89c
:040803003f7fb0d4af
:040804003f7fb0c0c2
:040805003f7fb0acd5
:040806003f7fb099e7
:040807003f7fb085fa
:040808003f7fb0710d
:040809003f7fb05d20
:04080a003f7fb04933
:04080b003f7fb03546
:04080c003f7fb02258
:04080d003f7fb00e6b
:04080e003f7faffa7f
:04080f003f7fafe692
:040810003f7fafd2a5
:040811003f7fafbeb8
:040812003f7fafaacb
:040813003f7faf96de
:040814003f7faf83f0
:040815003f7faf6f03
:040816003f7faf5b16
:040817003f7faf4729
:040818003f7faf333c
:040819003f7faf1f4f
:04081a003f7faf0b62
:04081b003f7faef776
:04081c003f7faee389
:04081d003f7faecf9c
:04081e003f7faebbaf
:04081f003f7faea7c2
:040820003f7fae93d5
:040821003f7fae7fe8
:040822003f7fae6bfb
:040823003f7fae570e
:040824003f7fae4321
:040825003f7fae2e35
:040826003f7fae1a48
:040827003f7fae065b
:040828003f7fadf26f
:040829003f7fadde82
:04082a003f7fadca95
:04082b003f7fadb6a8
:04082c003f7fada2bb
:04082d003f7fad8dcf
:04082e003f7fad79e2
:04082f003f7fad65f5
:040830003f7fad5108
:040831003f7fad3d1b
:040832003f7fad292e
:040833003f7fad1442
:040834003f7fad0055
:040835003f7facec69
:040836003f7facd87c
:040837003f7facc390
:040838003f7facafa3
:040839003f7fac9bb6
:04083a003f7fac87c9
:04083b003f7fac72dd
:04083c003f7fac5ef0
:04083d003f7fac4a03
:04083e003f7fac3517
:04083f003f7fac212a
:040840003f7fac0d3d
:040841003f7fabf852
:040842003f7fabe465
:040843003f7fabd078
:040844003f7fabbb8c
:040845003f7faba79f
:040846003f7fab92b3
:040847003f7fab7ec6
:040848003f7fab6ad9
:040849003f7fab55ed
:04084a003f7fab4100
:04084b003f7fab2c14
:04084c003f7fab1827
:04084d003f7fab033b
:04084e003f7faaef4f
:04084f003f7faada63
:040850003f7faac676
:040851003f7faab18a
:040852003f7faa9d9d
:040853003f7faa88b1
:040854003f7faa74c4
:040855003f7faa5fd8
:040856003f7faa4beb
:040857003f7faa36ff
:040858003f7faa2113
:040859003f7faa0d26
:04085a003f7fa9f83b
:04085b003f7fa9e44e
:04085c003f7fa9cf62
:04085d003f7fa9ba76
:04085e003f7fa9a689
:04085f003f7fa9919d
:040860003f7fa97db0
:040861003f7fa968c4
:040862003f7fa953d8
:040863003f7fa93feb
:040864003f7fa92aff
:040865003f7fa91513
:040866003f7fa90027
:040867003f7fa8ec3b
:040868003f7fa8d74f
:040869003f7fa8c263
:04086a003f7fa8ae76
:04086b003f7fa8998a
:04086c003f7fa8849e
:04086d003f7fa86fb2
:04086e003f7fa85ac6
:04086f003f7fa846d9
:040870003f7fa831ed
:040871003f7fa81c01
:040872003f7fa80715
:040873003f7fa7f22a
:040874003f7fa7de3d
:040875003f7fa7c951
:040876003f7fa7b465
:040877003f7fa79f79
:040878003f7fa78a8d
:040879003f7fa775a1
:04087a003f7fa760b5
:04087b003f7fa74bc9
:04087c003f7fa736dd
:04087d003f7fa721f1
:04087e003f7fa70d04
:04087f003f7fa6f819
:040880003f7fa6e32d
:040881003f7fa6ce41
:040882003f7fa6b955
:040883003f7fa6a469
:040884003f7fa68f7d
:040885003f7fa67a91
:040886003f7fa665a5
:040887003f7fa650b9
:040888003f7fa63bcd
:040889003f7fa626e1
:04088a003f7fa611f5
:04088b003f7fa5fb0b
:04088c003f7fa5e61f
:04088d003f7fa5d133
:04088e003f7fa5bc47
:04088f003f7fa5a75b
:040890003f7fa5926f
:040891003f7fa57d83
:040892003f7fa56897
:040893003f7fa553ab
:040894003f7fa53dc0
:040895003f7fa528d4
:040896003f7fa513e8
:040897003f7fa4fefd
:040898003f7fa4e911
:040899003f7fa4d425
:04089a003f7fa4be3a
:04089b003f7fa4a94e
:04089c003f7fa49462
:04089d003f7fa47f76
:04089e003f7fa4698b
:04089f003f7fa4549f
:0408a0003f7fa43fb3
:0408a1003f7fa42ac7
:0408a2003f7fa414dc
:0408a3003f7fa3fff1
:0408a4003f7fa3ea05
:0408a5003f7fa3d41a
:0408a6003f7fa3bf2e
:0408a7003f7fa3aa42
:0408a8003f7fa39457
:0408a9003f7fa37f6b
:0408aa003f7fa36a7f
:0408ab003f7fa35494
:0408ac003f7fa33fa8
:0408ad003f7fa32abc
:0408ae003f7fa314d1
:0408af003f7fa2ffe6
:0408b0003f7fa2e9fb
:0408b1003f7fa2d40f
:0408b2003f7fa2be24
:0408b3003f7fa2a938
:0408b4003f7fa2944c
:0408b5003f7fa27e61
:0408b6003f7fa26975
:0408b7003f7fa2538a
:0408b8003f7fa23e9e
:0408b9003f7fa228b3
:0408ba003f7fa213c7
:0408bb003f7fa1fddd
:0408bc003f7fa1e8f1
:0408bd003f7fa1d206
:0408be003f7fa1bc1b
:0408bf003f7fa1a72f
:0408c0003f7fa19144
:0408c1003f7fa17c58
:0408c2003f7fa1666d
:0408c3003f7fa15082
:0408c4003f7fa13b96
:0408c5003f7fa125ab
:0408c6003f7fa110bf
:0408c7003f7fa0fad5
:0408c8003f7fa0e4ea
:0408c9003f7fa0cffe
:0408ca003f7fa0b913
:0408cb003f7fa0a328
:0408cc003f7fa08e3c
:0408cd003f7fa07851
:0408ce003f7fa06266
:0408cf003f7fa04d7a
:0408d0003f7fa0378f
:0408d1003f7fa021a4
:0408d2003f7fa00bb9
:0408d3003f7f9ff6ce
:0408d4003f7f9fe0e3
:0408d5003f7f9fcaf8
:0408d6003f7f9fb40d
:0408d7003f7f9f9e22
:0408d8003f7f9f8936
:0408d9003f7f9f734b
:0408da003f7f9f5d60
:0408db003f7f9f4775
:0408dc003f7f9f318a
:0408dd003f7f9f1b9f
:0408de003f7f9f06b3
:0408df003f7f9ef0c9
:0408e0003f7f9edade
:0408e1003f7f9ec4f3
:0408e2003f7f9eae08
:0408e3003f7f9e981d
:0408e4003f7f9e8232
:0408e5003f7f9e6c47
:0408e6003f7f9e565c
:0408e7003f7f9e4071
:0408e8003f7f9e2a86
:0408e9003f7f9e149b
:0408ea003f7f9dfeb1
:0408eb003f7f9de8c6
:0408ec003f7f9dd2db
:0408ed003f7f9dbcf0
:0408ee003f7f9da605
:0408ef003f7f9d901a
:0408f0003f7f9d7a2f
:0408f1003f7f9d6444
:0408f2003f7f9d4e59
:0408f3003f7f9d386e
:0408f4003f7f9d2283
:0408f5003f7f9d0c98
:0408f6003f7f9cf6ae
:0408f7003f7f9ce0c3
:0408f8003f7f9ccad8
:0408f9003f7f9cb4ed
:0408fa003f7f9c9d03
:0408fb003f7f9c8718
:0408fc003f7f9c712d
:0408fd003f7f9c5b42
:0408fe003f7f9c4557
:0408ff003f7f9c2f6c
:040900003f7f9c1881
:040901003f7f9c0296
:040902003f7f9becac
:040903003f7f9bd6c1
:040904003f7f9bc0d6
:040905003f7f9ba9ec
:040906003f7f9b9301
:040907003f7f9b7d16
:040908003f7f9b672b
:040909003f7f9b5041
:04090a003f7f9b3a56
:04090b003f7f9b246b
:04090c003f7f9b0d81
:04090d003f7f9af797
:04090e003f7f9ae1ac
:04090f003f7f9acac2
:040910003f7f9ab4d7
:040911003f7f9a9eec
:040912003f7f9a8702
:040913003f7f9a7117
:040914003f7f9a5b2c
:040915003f7f9a4442
:040916003f7f9a2e57
:040917003f7f9a176d
:040918003f7f9a0182
:040919003f7f99eb98
:04091a003f7f99d4ae
:04091b003f7f99bec3
:04091c003f7f99a7d9
:04091d003f7f9991ee
:04091e003f7f997a04
:04091f003f7f996419
:040920003f7f994d2f
:040921003f7f993744
:040922003f7f99205a
:040923003f7f990a6f
:040924003f7f98f386
:040925003f7f98dd9b
:040926003f7f98c6b1
:040927003f7f98b0c6
:040928003f7f9899dc
:040929003f7f9882f2
:04092a003f7f986c07
:04092b003f7f98551d
:04092c003f7f983f32
:04092d003f7f982848
:04092e003f7f98115e
:04092f003f7f97fb74
:040930003f7f97e48a
:040931003f7f97cda0
:040932003f7f97b7b5
:040933003f7f97a0cb
:040934003f7f9789e1
:040935003f7f9773f6
:040936003f7f975c0c
:040937003f7f974522
:040938003f7f972e38
:040939003f7f97184d
:04093a003f7f970163
:04093b003f7f96ea7a
:04093c003f7f96d390
:04093d003f7f96bda5
:04093e003f7f96a6bb
:04093f003f7f968fd1
:040940003f7f9678e7
:040941003f7f9661fd
:040942003f7f964b12
:040943003f7f963428
:040944003f7f961d3e
:040945003f7f960654
:040946003f7f95ef6b
:040947003f7f95d881
:040948003f7f95c197
:040949003f7f95abac
:04094a003f7f9594c2
:04094b003f7f957dd8
:04094c003f7f9566ee
:04094d003f7f954f04
:04094e003f7f95381a
:04094f003f7f952130
:040950003f7f950a46
:040951003f7f94f35d
:040952003f7f94dc73
:040953003f7f94c589
:040954003f7f94ae9f
:040955003f7f9497b5
:040956003f7f9480cb
:040957003f7f9469e1
:040958003f7f9452f7
:040959003f7f943b0d
:04095a003f7f942423
:04095b003f7f940d39
:04095c003f7f93f650
:04095d003f7f93df66
:04095e003f7f93c87c
:04095f003f7f93b192
:040960003f7f9399a9
:040961003f7f9382bf
:040962003f7f936bd5
:040963003f7f9354eb
:040964003f7f933d01
:040965003f7f932617
:040966003f7f930f2d
:040967003f7f92f745
:040968003f7f92e05b
:040969003f7f92c971
:04096a003f7f92b287
:04096b003f7f929a9e
:04096c003f7f9283b4
:04096d003f7f926cca
:04096e003f7f9255e0
:04096f003f7f923ef6
:040970003f7f92260d
:040971003f7f920f23
:040972003f7f91f83a
:040973003f7f91e051
:040974003f7f91c967
:040975003f7f91b27d
:040976003f7f919a94
:040977003f7f9183aa
:040978003f7f916cc0
:040979003f7f9154d7
:04097a003f7f913ded
:04097b003f7f912603
:04097c003f7f910e1a
:04097d003f7f90f731
:04097e003f7f90df48
:04097f003f7f90c85e
:040980003f7f90b174
:040981003f7f90998b
:040982003f7f9082a1
:040983003f7f906ab8
:040984003f7f9053ce
:040985003f7f903be5
:040986003f7f9024fb
:040987003f7f900c12
:040988003f7f8ff529
:040989003f7f8fdd40
:04098a003f7f8fc656
:04098b003f7f8fae6d
:04098c003f7f8f9783
:04098d003f7f8f7f9a
:04098e003f7f8f68b0
:04098f003f7f8f50c7
:040990003f7f8f39dd
:040991003f7f8f21f4
:040992003f7f8f090b
:040993003f7f8ef222
:040994003f7f8eda39
:040995003f7f8ec34f
:040996003f7f8eab66
:040997003f7f8e937d
:040998003f7f8e7c93
:040999003f7f8e64aa
:04099a003f7f8e4cc1
:04099b003f7f8e35d7
:04099c003f7f8e1dee
:04099d003f7f8e0505
:04099e003f7f8dee1c
:04099f003f7f8dd633
:0409a0003f7f8dbe4a
:0409a1003f7f8da661
:0409a2003f7f8d8f77
:0409a3003f7f8d778e
:0409a4003f7f8d5fa5
:0409a5003f7f8d47bc
:0409a6003f7f8d2fd3
:0409a7003f7f8d18e9
:0409a8003f7f8d0000
:0409a9003f7f8ce818
:0409aa003f7f8cd02f
:0409ab003f7f8cb846
:0409ac003f7f8ca15c
:0409ad003f7f8c8973
:0409ae003f7f8c718a
:0409af003f7f8c59a1
:0409b0003f7f8c41b8
:0409b1003f7f8c29cf
:0409b2003f7f8c11e6
:0409b3003f7f8bf9fe
:0409b4003f7f8be115
:0409b5003f7f8bca2b
:0409b6003f7f8bb242
:0409b7003f7f8b9a59
:0409b8003f7f8b8270
:0409b9003f7f8b6a87
:0409ba003f7f8b529e
:0409bb003f7f8b3ab5
:0409bc003f7f8b22cc
:0409bd003f7f8b0ae3
:0409be003f7f8af2fb
:0409bf003f7f8ada12
:0409c0003f7f8ac229
:0409c1003f7f8aaa40
:0409c2003f7f8a9257
:0409c3003f7f8a796f
:0409c4003f7f8a6186
:0409c5003f7f8a499d
:0409c6003f7f8a31b4
:0409c7003f7f8a19cb
:0409c8003f7f8a01e2
:0409c9003f7f89e9fa
:0409ca003f7f89d111
:0409cb003f7f89b928
:0409cc003f7f89a040
:0409cd003f7f898857
:0409ce003f7f89706e
:0409cf003f7f895885
:0409d0003f7f89409c
:0409d1003f7f8927b4
:0409d2003f7f890fcb
:0409d3003f7f88f7e3
:0409d4003f7f88dffa
:0409d5003f7f88c711
:0409d6003f7f88ae29
:0409d7003f7f889640
:0409d8003f7f887e57
:0409d9003f7f88666e
:0409da003f7f884d86
:0409db003f7f88359d
:0409dc003f7f881db4
:0409dd003f7f8804cc
:0409de003f7f87ece4
:0409df003f7f87d4fb
:0409e0003f7f87bb13
:0409e1003f7f87a32a
:0409e2003f7f878b41
:0409e3003f7f877259
:0409e4003f7f875a70
:0409e5003f7f874188
:0409e6003f7f87299f
:0409e7003f7f8711b6
:0409e8003f7f86f8cf
:0409e9003f7f86e0e6
:0409ea003f7f86c7fe
:0409eb003f7f86af15
:0409ec003f7f86962d
:0409ed003f7f867e44
:0409ee003f7f86655c
:0409ef003f7f864d73
:0409f0003f7f86348b
:0409f1003f7f861ca2
:0409f2003f7f8603ba
:0409f3003f7f85ebd2
:0409f4003f7f85d2ea
:0409f5003f7f85ba01
:0409f6003f7f85a119
:0409f7003f7f858930
:0409f8003f7f857048
:0409f9003f7f85585f
:0409fa003f7f853f77
:0409fb003f7f85268f
:0409fc003f7f850ea6
:0409fd003f7f84f5bf
:0409fe003f7f84dcd7
:0409ff003f7f84c4ee
:040a00003f7f84ab05
:040a01003f7f84931c
:040a02003f7f847a34
:040a03003f7f84614c
:040a04003f7f844864
:040a05003f7f84307b
:040a06003f7f841793
:040a07003f7f83feac
:040a08003f7f83e6c3
:040a09003f7f83cddb
:040a0a003f7f83b4f3
:040a0b003f7f839b0b
:040a0c003f7f838322
:040a0d003f7f836a3a
:040a0e003f7f835152
:040a0f003f7f83386a
:040a10003f7f831f82
:040a11003f7f830799
:040a12003f7f82eeb2
:040a13003f7f82d5ca
:040a14003f7f82bce2
:040a15003f7f82a3fa
:040a16003f7f828a12
:040a17003f7f82712a
:040a18003f7f825941
:040a19003f7f824059
:040a1a003f7f822771
:040a1b003f7f820e89
:040a1c003f7f81f5a2
:040a1d003f7f81dcba
:040a1e003f7f81c3d2
:040a1f003f7f81aaea
:040a20003f7f819102
:040a21003f7f81781a
:040a22003f7f815f32
:040a23003f7f81464a
:040a24003f7f812d62
:040a25003f7f81147a
:040a26003f7f80fb93
:040a27003f7f80e2ab
:040a28003f7f80c9c3
:040a29003f7f80b0db
:040a2a003f7f8097f3
:040a2b003f7f807e0b
:040a2c003f7f806523
:040a2d003f7f804c3b
:040a2e003f7f803353
:040a2f003f7f801a6b
:040a30003f7f800084
:040a31003f7f7fe79d
:040a32003f7f7fceb5
:040a33003f7f7fb5cd
:040a34003f7f7f9ce5
:040a35003f7f7f83fd
:040a36003f7f7f6a15
:040a37003f7f7f502e
:040a38003f7f7f3746
:040a39003f7f7f1e5e
:040a3a003f7f7f0576
:040a3b003f7f7eec8f
:040a3c003f7f7ed2a8
:040a3d003f7f7eb9c0
:040a3e003f7f7ea0d8
:040a3f003f7f7e87f0
:040a40003f7f7e6d09
:040a41003f7f7e5421
:040a42003f7f7e3b39
:040a43003f7f7e2152
:040a44003f7f7e086a
:040a45003f7f7def83
:040a46003f7f7dd69b
:040a47003f7f7dbcb4
:040a48003f7f7da3cc
:040a49003f7f7d89e5
:040a4a003f7f7d70fd
:040a4b003f7f7d5715
:040a4c003f7f7d3d2e
:040a4d003f7f7d2446
:040a4e003f7f7d0b5e
:040a4f003f7f7cf178
:040a50003f7f7cd890
:040a51003f7f7cbea9
:040a52003f7f7ca5c1
:040a53003f7f7c8bda
:040a54003f7f7c72f2
:040a55003f7f7c580b
:040a56003f7f7c3f23
:040a57003f7f7c253c
:040a58003f7f7c0c54
:040a59003f7f7bf26e
:040a5a003f7f7bd986
:040a5b003f7f7bbf9f
:040a5c003f7f7ba6b7
:040a5d003f7f7b8cd0
:040a5e003f7f7b73e8
:040a5f003f7f7b5901
:040a60003f7f7b4019
:040a61003f7f7b2632
:040a62003f7f7b0c4b
:040a63003f7f7af364
:040a64003f7f7ad97d
:040a65003f7f7ac095
:040a66003f7f7aa6ae
:040a67003f7f7a8cc7
:040a68003f7f7a73df
:040a69003f7f7a59f8
:040a6a003f7f7a3f11
:040a6b003f7f7a2629
:040a6c003f7f7a0c42
:040a6d003f7f79f25c
:040a6e003f7f79d974
:040a6f003f7f79bf8d
:040a70003f7f79a5a6
:040a71003f7f798bbf
:040a72003f7f7972d7
:040a73003f7f7958f0
:040a74003f7f793e09
:040a75003f7f792422
:040a76003f7f790a3b
:040a77003f7f78f154
:040a78003f7f78d76d
:040a79003f7f78bd86
:040a7a003f7f78a39f
:040a7b003f7f7889b8
:040a7c003f7f7870d0
:040a7d003f7f7856e9
:040a7e003f7f783c02
:040a7f003f7f78221b
:040a80003f7f780834
:040a81003f7f77ee4e
:040a82003f7f77d467
:040a83003f7f77ba80
:040a84003f7f77a099
:040a85003f7f7787b1
:040a86003f7f776dca
:040a87003f7f7753e3
:040a88003f7f7739fc
:040a89003f7f771f15
:040a8a003f7f77052e
:040a8b003f7f76eb48
:040a8c003f7f76d161
:040a8d003f7f76b77a
:040a8e003f7f769d93
:040a8f003f7f7683ac
:040a90003f7f7669c5
:040a91003f7f764fde
:040a92003f7f7635f7
:040a93003f7f761a11
:040a94003f7f76002a
:040a95003f7f75e644
:040a96003f7f75cc5d
:040a97003f7f75b276
:040a98003f7f75988f
:040a99003f7f757ea8
:040a9a003f7f7564c1
:040a9b003f7f754ada
:040a9c003f7f752ff4
:040a9d003f7f75150d
:040a9e003f7f74fb27
:040a9f003f7f74e140
:040aa0003f7f74c759
:040aa1003f7f74ac73
:040aa2003f7f74928c
:040aa3003f7f7478a5
:040aa4003f7f745ebe
:040aa5003f7f7444d7
:040aa6003f7f7429f1
:040aa7003f7f740f0a
:040aa8003f7f73f524
:040aa9003f7f73db3d
:040aaa003f7f73c057
:040aab003f7f73a670
:040aac003f7f738c89
:040aad003f7f7371a3
:040aae003f7f7357bc
:040aaf003f7f733dd5
:040ab0003f7f7322ef
:040ab1003f7f730808
:040ab2003f7f72ee22
:040ab3003f7f72d33c
:040ab4003f7f72b955
:040ab5003f7f729e6f
:040ab6003f7f728488
:040ab7003f7f726aa1
:040ab8003f7f724fbb
:040ab9003f7f7235d4
:040aba003f7f721aee
:040abb003f7f720007
:040abc003f7f71e522
:040abd003f7f71cb3b
:040abe003f7f71b055
:040abf003f7f71966e
:040ac0003f7f717b88
:040ac1003f7f7161a1
:040ac2003f7f7146bb
:040ac3003f7f712cd4
:040ac4003f7f7111ee
:040ac5003f7f70f708
:040ac6003f7f70dc22
:040ac7003f7f70c23b
:040ac8003f7f70a755
:040ac9003f7f708c6f
:040aca003f7f707288
:040acb003f7f7057a2
:040acc003f7f703dbb
:040acd003f7f7022d5
:040ace003f7f7007ef
:040acf003f7f6fed09
:040ad0003f7f6fd223
:040ad1003f7f6fb73d
:040ad2003f7f6f9d56
:040ad3003f7f6f8270
:040ad4003f7f6f678a
:040ad5003f7f6f4da3
:040ad6003f7f6f32bd
:040ad7003f7f6f17d7
:040ad8003f7f6efdf1
:040ad9003f7f6ee20b
:040ada003f7f6ec725
:040adb003f7f6eac3f
:040adc003f7f6e9258
:040add003f7f6e7772
:040ade003f7f6e5c8c
:040adf003f7f6e41a6
:040ae0003f7f6e26c0
:040ae1003f7f6e0cd9
:040ae2003f7f6df1f4
:040ae3003f7f6dd60e
:040ae4003f7f6dbb28
:040ae5003f7f6da042
:040ae6003f7f6d855c
:040ae7003f7f6d6a76
:040ae8003f7f6d508f
:040ae9003f7f6d35a9
:040aea003f7f6d1ac3
:040aeb003f7f6cffde
:040aec003f7f6ce4f8
:040aed003f7f6cc912
:040aee003f7f6cae2c
:040aef003f7f6c9346
:040af0003f7f6c7860
:040af1003f7f6c5d7a
:040af2003f7f6c4294
:040af3003f7f6c27ae
:040af4003f7f6c0cc8
:040af5003f7f6bf1e3
:040af6003f7f6bd6fd
:040af7003f7f6bbb17
:040af8003f7f6ba031
:040af9003f7f6b854b
:040afa003f7f6b6a65
:040afb003f7f6b4f7f
:040afc003f7f6b3499
:040afd003f7f6b19b3
:040afe003f7f6afece
:040aff003f7f6ae3e8
:040b00003f7f6ac702
:040b01003f7f6aac1c
:040b02003f7f6a9136
:040b03003f7f6a7650
:040b04003f7f6a5b6a
:040b05003f7f6a4084
:040b06003f7f6a249f
:040b07003f7f6a09b9
:040b08003f7f69eed4
:040b09003f7f69d3ee
:040b0a003f7f69b808
:040b0b003f7f699c23
:040b0c003f7f69813d
:040b0d003f7f696657
:040b0e003f7f694b71
:040b0f003f7f69308b
:040b10003f7f6914a6
:040b11003f7f68f9c1
:040b12003f7f68dedb
:040b13003f7f68c2f6
:040b14003f7f68a710
:040b15003f7f688c2a
:040b16003f7f687045
:040b17003f7f68555f
:040b18003f7f683a79
:040b19003f7f681e94
:040b1a003f7f6803ae
:040b1b003f7f67e8c9
:040b1c003f7f67cce4
:040b1d003f7f67b1fe
:040b1e003f7f679519
:040b1f003f7f677a33
:040b20003f7f675f4d
:040b21003f7f674368
:040b22003f7f672882
:040b23003f7f670c9d
:040b24003f7f66f1b8
:040b25003f7f66d5d3
:040b26003f7f66baed
:040b27003f7f669e08
:040b28003f7f668322
:040b29003f7f66673d
:040b2a003f7f664c57
:040b2b003f7f663072
:040b2c003f7f66158c
:040b2d003f7f65f9a8
:040b2e003f7f65dec2
:040b2f003f7f65c2dd
:040b30003f7f65a7f7
:040b31003f7f658b12
:040b32003f7f656f2d
:040b33003f7f655447
:040b34003f7f653862
:040b35003f7f651c7d
:040b36003f7f650197
:040b37003f7f64e5b3
:040b38003f7f64cacd
:040b39003f7f64aee8
:040b3a003f7f649203
:040b3b003f7f64771d
:040b3c003f7f645b38
:040b3d003f7f643f53
:040b3e003f7f64236e
:040b3f003f7f640888
:040b40003f7f63eca4
:040b41003f7f63d0bf
:040b42003f7f63b4da
:040b43003f7f6399f4
:040b44003f7f637d0f
:040b45003f7f63612a
:040b46003f7f634545
:040b47003f7f632a5f
:040b48003f7f630e7a
:040b49003f7f62f296
:040b4a003f7f62d6b1
:040b4b003f7f62bacc
:040b4c003f7f629ee7
:040b4d003f7f628301
:040b4e003f7f62671c
:040b4f003f7f624b37
:040b50003f7f622f52
:040b51003f7f62136d
:040b52003f7f61f789
:040b53003f7f61dba4
:040b54003f7f61bfbf
:040b55003f7f61a3da
:040b56003f7f6187f5
:040b57003f7f616b10
:040b58003f7f61502a
:040b59003f7f613445
:040b5a003f7f611860
:040b5b003f7f60fc7c
:040b5c003f7f60e097
:040b5d003f7f60c4b2
:040b5e003f7f60a8cd
:040b5f003f7f608ce8
:040b60003f7f606f04
:040b61003f7f60531f
:040b62003f7f60373a
:040b63003f7f601b55
:040b64003f7f5fff71
:040b65003f7f5fe38c
:040b66003f7f5fc7a7
:040b67003f7f5fabc2
:040b68003f7f5f8fdd
:040b69003f7f5f73f8
:040b6a003f7f5f5713
:040b6b003f7f5f3a2f
:040b6c003f7f5f1e4a
:040b6d003f7f5f0265
:040b6e003f7f5ee681
:040b6f003f7f5eca9c
:040b70003f7f5eaeb7
:040b71003f7f5e91d3
:040b72003f7f5e75ee
:040b73003f7f5e5909
:040b74003f7f5e3d24
:040b75003f7f5e2040
:040b76003f7f5e045b
:040b77003f7f5de877
:040b78003f7f5dcc92
:040b79003f7f5dafae
:040b7a003f7f5d93c9
:040b7b003f7f5d77e4
:040b7c003f7f5d5a00
:040b7d003f7f5d3e1b
:040b7e003f7f5d2236
:040b7f003f7f5d0651
:040b80003f7f5ce96e
:040b81003f7f5ccd89
:040b82003f7f5cb0a5
:040b83003f7f5c94c0
:040b84003f7f5c78db
:040b85003f7f5c5bf7
:040b86003f7f5c3f12
:040b87003f7f5c222e
:040b88003f7f5c0649
:040b89003f7f5bea65
:040b8a003f7f5bcd81
:040b8b003f7f5bb19c
:040b8c003f7f5b94b8
:040b8d003f7f5b78d3
:040b8e003f7f5b5bef
:040b8f003f7f5b3f0a
:040b90003f7f5b2226
:040b91003f7f5b0641
:040b92003f7f5ae95e
:040b93003f7f5acd79
:040b94003f7f5ab095
:040b95003f7f5a94b0
:040b96003f7f5a77cc
:040b97003f7f5a5be7
:040b98003f7f5a3e03
:040b99003f7f5a211f
:040b9a003f7f5a053a
:040b9b003f7f59e857
:040b9c003f7f59cc72
:040b9d003f7f59af8e
:040b9e003f7f5992aa
:040b9f003f7f5976c5
:040ba0003f7f5959e1
:040ba1003f7f593cfd
:040ba2003f7f592018
:040ba3003f7f590334
:040ba4003f7f58e651
:040ba5003f7f58ca6c
:040ba6003f7f58ad88
:040ba7003f7f5890a4
:040ba8003f7f5873c0
:040ba9003f7f5857db
:040baa003f7f583af7
:040bab003f7f581d13
:040bac003f7f58002f
:040bad003f7f57e44b
:040bae003f7f57c767
:040baf003f7f57aa83
:040bb0003f7f578d9f
:040bb1003f7f5770bb
:040bb2003f7f5754d6
:040bb3003f7f5737f2
:040bb4003f7f571a0e
:040bb5003f7f56fd2b
:040bb6003f7f56e047
:040bb7003f7f56c363
:040bb8003f7f56a67f
:040bb9003f7f568a9a
:040bba003f7f566db6
:040bbb003f7f5650d2
:040bbc003f7f5633ee
:040bbd003f7f56160a
:040bbe003f7f55f927
:040bbf003f7f55dc43
:040bc0003f7f55bf5f
:040bc1003f7f55a27b
:040bc2003f7f558597
:040bc3003f7f5568b3
:040bc4003f7f554bcf
:040bc5003f7f552eeb
:040bc6003f7f551107
:040bc7003f7f54f424
:040bc8003f7f54d740
:040bc9003f7f54ba5c
:040bca003f7f549d78
:040bcb003f7f548094
:040bcc003f7f5463b0
:040bcd003f7f5446cc
:040bce003f7f5428e9
:040bcf003f7f540b05
:040bd0003f7f53ee22
:040bd1003f7f53d13e
:040bd2003f7f53b45a
:040bd3003f7f539776
:040bd4003f7f537a92
:040bd5003f7f535dae
:040bd6003f7f533fcb
:040bd7003f7f5322e7
:040bd8003f7f530503
:040bd9003f7f52e820
:040bda003f7f52cb3c
:040bdb003f7f52ad59
:040bdc003f7f529075
:040bdd003f7f527391
:040bde003f7f5256ad
:040bdf003f7f5238ca
:040be0003f7f521be6
:040be1003f7f51fe03
:040be2003f7f51e11f
:040be3003f7f51c33c
:040be4003f7f51a658
:040be5003f7f518974
:040be6003f7f516b91
:040be7003f7f514ead
:040be8003f7f5131c9
:040be9003f7f5113e6
:040bea003f7f50f603
:040beb003f7f50d91f
:040bec003f7f50bb3c
:040bed003f7f509e58
:040bee003f7f508075
:040bef003f7f506391
:040bf0003f7f5045ae
:040bf1003f7f5028ca
:040bf2003f7f500be6
:040bf3003f7f4fed04
:040bf4003f7f4fd020
:040bf5003f7f4fb23d
:040bf6003f7f4f9559
:040bf7003f7f4f7776
:040bf8003f7f4f5a92
:040bf9003f7f4f3caf
:040bfa003f7f4f1fcb
:040bfb003f7f4f01e8
:040bfc003f7f4ee405
:040bfd003f7f4ec622
:040bfe003f7f4ea93e
:040bff003f7f4e8b5b
:040c00003f7f4e6d77
:040c01003f7f4e5093
:040c02003f7f4e32b0
:040c03003f7f4e15cc
:040c04003f7f4df7ea
:040c05003f7f4dd907
:040c06003f7f4dbc23
:040c07003f7f4d9e40
:040c08003f7f4d805d
:040c09003f7f4d6379
:040c0a003f7f4d4596
:040c0b003f7f4d27b3
:040c0c003f7f4d0acf
:040c0d003f7f4ceced
:040c0e003f7f4cce0a
:040c0f003f7f4cb126
:040c10003f7f4c9343
:040c11003f7f4c7560
:040c12003f7f4c577d
:040c13003f7f4c3a99
:040c14003f7f4c1cb6
:040c15003f7f4bfed4
:040c16003f7f4be0f1
:040c17003f7f4bc20e
:040c18003f7f4ba52a
:040c19003f7f4b8747
:040c1a003f7f4b6964
:040c1b003f7f4b4b81
:040c1c003f7f4b2d9e
:040c1d003f7f4b0fbb
:040c1e003f7f4af2d8
:040c1f003f7f4ad4f5
:040c20003f7f4ab612
:040c21003f7f4a982f
:040c22003f7f4a7a4c
:040c23003f7f4a5c69
:040c24003f7f4a3e86
:040c25003f7f4a20a3
:040c26003f7f4a02c0
:040c27003f7f49e4de
:040c28003f7f49c6fb
:040c29003f7f49a818
:040c2a003f7f498a35
:040c2b003f7f496c52
:040c2c003f7f494e6f
:040c2d003f7f49308c
:040c2e003f7f4912a9
:040c2f003f7f48f4c7
:040c30003f7f48d6e4
:040c31003f7f48b801
:040c32003f7f489a1e
:040c33003f7f487c3b
:040c34003f7f485e58
:040c35003f7f484075
:040c36003f7f482292
:040c37003f7f4804af
:040c38003f7f47e6cd
:040c39003f7f47c8ea
:040c3a003f7f47a908
:040c3b003f7f478b25
:040c3c003f7f476d42
:040c3d003f7f474f5f
:040c3e003f7f47317c
:040c3f003f7f471399
:040c40003f7f46f4b8
:040c41003f7f46d6d5
:040c42003f7f46b8f2
:040c43003f7f469a0f
:040c44003f7f467c2c
:040c45003f7f465d4a
:040c46003f7f463f67
:040c47003f7f462184
:040c48003f7f4603a1
:040c49003f7f45e4c0
:040c4a003f7f45c6dd
:040c4b003f7f45a8fa
:040c4c003f7f458918
:040c4d003f7f456b35
:040c4e003f7f454d52
:040c4f003f7f452e70
:040c50003f7f45108d
:040c51003f7f44f2ab
:040c52003f7f44d3c9
:040c53003f7f44b5e6
:040c54003f7f449703
:040c55003f7f447821
:040c56003f7f445a3e
:040c57003f7f443b5c
:040c58003f7f441d79
:040c59003f7f43ff97
:040c5a003f7f43e0b5
:040c5b003f7f43c2d2
:040c5c003f7f43a3f0
:040c5d003f7f43850d
:040c5e003f7f43662b
:040c5f003f7f434848
:040c60003f7f432966
:040c61003f7f430b83
:040c62003f7f42eca2
:040c63003f7f42cebf
:040c64003f7f42afdd
:040c65003f7f4291fa
:040c66003f7f427218
:040c67003f7f425336
:040c68003f7f423553
:040c69003f7f421671
:040c6a003f7f41f88f
:040c6b003f7f41d9ad
:040c6c003f7f41bacb
:040c6d003f7f419ce8
:040c6e003f7f417d06
:040c6f003f7f415f23
:040c70003f7f414041
:040c71003f7f41215f
:040c72003f7f41037c
:040c73003f7f40e49b
:040c74003f7f40c5b9
:040c75003f7f40a7d6
:040c76003f7f4088f4
:040c77003f7f406912
:040c78003f7f404a30
:040c79003f7f402c4d
:040c7a003f7f400d6b
:040c7b003f7f3fee8a
:040c7c003f7f3fcfa8
:040c7d003f7f3fb1c5
:040c7e003f7f3f92e3
:040c7f003f7f3f7301
