:04000000800000007c
:04000100b9c90fda90
:04000200ba490fd90f
:04000300ba96cbe2fc
:04000400bac90fd591
:04000500bafb53c728
:04000600bb16cbdb7f
:04000700bb2fedd14d
:04000800bb490fc61b
:04000900bb6231b9ec
:04000a00bb7b53a9c0
:04000b00bb8a3acba7
:04000c00bb96cbc113
:04000d00bba35cb580
:04000e00bbafeda8ef
:04000f00bbbc7e995f
:04001000bbc90f88d1
:04001100bbd5a07546
:04001200bbe23160bc
:04001300bbeec24935
:04001400bbfb5330af
:04001500bc03f20a2c
:04001600bc0a3a7b6b
:04001700bc1082eaad
:04001800bc16cb58ef
:04001900bc1d13c532
:04001a00bc235c3077
:04001b00bc29a49abe
:04001c00bc2fed0206
:04001d00bc36356850
:04001e00bc3c7dcc9d
:04001f00bc42c62fea
:04002000bc490e9039
:04002100bc4f56ef8b
:04002200bc559f4cde
:04002300bc5be7a635
:04002400bc622fff8c
:04002500bc687856e5
:04002600bc6ec0aa42
:04002700bc7508fca0
:04002800bc7b514b01
:04002900bc80ccccff
:04002a00bc83f0f2b1
:04002b00bc87151663
:04002c00bc8a393819
:04002d00bc8d5d5acf
:04002e00bc90817a87
:04002f00bc93a59940
:04003000bc96c9b6fb
:04003100bc99edd2b7
:04003200bc9d11ec74
:04003300bca0360532
:04003400bca35a1cf3
:04003500bca67e32b5
:04003600bca9a24679
:04003700bcacc6583f
:04003800bcafea6906
:04003900bcb30e78ce
:04003a00bcb6328698
:04003b00bcb9569165
:04003c00bcbc7a9b33
:04003d00bcbf9ea303
:04003e00bcc2c2a9d5
:04003f00bcc5e6ada9
:04004000bcc90ab07d
:04004100bccc2eb055
:04004200bccf52af2e
:04004300bcd276ab0a
:04004400bcd59aa6e7
:04004500bcd8be9ec7
:04004600bcdbe294a9
:04004700bcdf06888c
:04004800bce22a7a72
:04004900bce54e6a5a
:04004a00bce8725844
:04004b00bceb964331
:04004c00bceeba2c20
:04004d00bcf1de1311
:04004e00bcf501f804
:04004f00bcf825dafa
:04005000bcfb49baf2
:04005100bcfe6d97ed
:04005200bd00c8b96c
:04005300bd025aa5eb
:04005400bd03ec906c
:04005500bd057e7aed
:04005600bd07106270
:04005700bd08a249f5
:04005800bd0a342f7a
:04005900bd0bc61302
:04005a00bd0d57f68b
:04005b00bd0ee9d815
:04005c00bd107bb8a0
:04005d00bd120d972c
:04005e00bd139f75ba
:04005f00bd15315149
:04006000bd16c32cda
:04006100bd1855056c
:04006200bd19e6dd01
:04006300bd1b78b396
:04006400bd1d0a882c
:04006500bd1e9c5bc5
:04006600bd202e2d5e
:04006700bd21bffdfb
:04006800bd2351cb98
:04006900bd24e39936
:04006a00bd267564d6
:04006b00bd28072e77
:04006c00bd2998f61c
:04006d00bd2b2abdc0
:04006e00bd2cbc8267
:04006f00bd2e4e450f
:04007000bd2fe007b9
:04007100bd3171c666
:04007200bd33038512
:04007300bd349541c2
:04007400bd3626fc73
:04007500bd37b8b526
:04007600bd394a6cda
:04007700bd3adc2290
:04007800bd3c6dd549
:04007900bd3dff8703
:04007a00bd3f9137be
:04007b00bd4122e57c
:04007c00bd42b4913c
:04007d00bd44463cfc
:04007e00bd45d7e4c1
:04007f00bd47698b85
:04008000bd48fb304c
:04008100bd4a8cd216
:04008200bd4c1e73e0
:04008300bd4db012ad
:04008400bd4f41af7c
:04008500bd50d34a4d
:04008600bd5264e221
:04008700bd53f679f6
:04008800bd55880ecc
:04008900bd5719a1a5
:04008a00bd58ab3181
:04008b00bd5a3cc05e
:04008c00bd5bce4c3e
:04008d00bd5d5fd71f
:04008e00bd5ef15f03
:04008f00bd6082e5e9
:04009000bd621469d0
:04009100bd63a5eabc
:04009200bd65376aa7
:04009300bd66c8e797
:04009400bd685a6287
:04009500bd69ebdb7b
:04009600bd6b7d5170
:04009700bd6d0ec667
:04009800bd6ea03861
:04009900bd7031a85d
:04009a00bd71c3155c
:04009b00bd7354805d
:04009c00bd74e5e961
:04009d00bd76774f66
:04009e00bd7808b36e
:04009f00bd799a1578
:0400a000bd7b2b7485
:0400a100bd7cbcd195
:0400a200bd7e4e2ba6
:0400a300bd7fdf83bb
:0400a400bd80b86cf7
:0400a500bd81811682
:0400a600bd8249be10
:0400a700bd8312659e
:0400a800bd83db0a2f
:0400a900bd84a3afc0
:0400aa00bd856c5252
:0400ab00bd8634f4e6
:0400ac00bd86fd947c
:0400ad00bd87c63411
:0400ae00bd888ed2a9
:0400af00bd89576e42
:0400b000bd8a200adb
:0400b100bd8ae8a478
:0400b200bd8bb13c15
:0400b300bd8c79d4b3
:0400b400bd8d426a52
:0400b500bd8e0afef4
:0400b600bd8ed39197
:0400b700bd8f9c233a
:0400b800bd9064b4df
:0400b900bd912d4385
:0400ba00bd91f5d02f
:0400bb00bd92be5dd7
:0400bc00bd9386e783
:0400bd00bd944f712e
:0400be00bd9517f9dc
:0400bf00bd95e07f8c
:0400c000bd96a9053b
:0400c100bd977188ee
:0400c200bd983a0aa1
:0400c300bd99028b56
:0400c400bd99cb0a0d
:0400c500bd9a9388c5
:0400c600bd9b5c057d
:0400c700bd9c247f39
:0400c800bd9cecf9f6
:0400c900bd9db570b4
:0400ca00bd9e7de773
:0400cb00bd9f465b34
:0400cc00bda00ecff6
:0400cd00bda0d740bb
:0400ce00bda19fb081
:0400cf00bda2681f47
:0400d000bda3308c10
:0400d100bda3f8f7dc
:0400d200bda4c161a7
:0400d300bda589c975
:0400d400bda6523043
:0400d500bda71a9514
:0400d600bda7e2f8e8
:0400d700bda8ab5abb
:0400d800bda973ba91
:0400d900bdaa3c1967
:0400da00bdab047640
:0400db00bdabccd11c
:0400dc00bdac952bf7
:0400dd00bdad5d83d5
:0400de00bdae25d9b5
:0400df00bdaeee2d97
:0400e000bdafb6807a
:0400e100bdb07ed25e
:0400e200bdb1472144
:0400e300bdb20f6f2c
:0400e400bdb2d7bb17
:0400e500bdb3a00502
:0400e600bdb4684eef
:0400e700bdb53095de
:0400e800bdb5f8dad0
:0400e900bdb6c11dc2
:0400ea00bdb7895fb6
:0400eb00bdb8519fac
:0400ec00bdb919dda4
:0400ed00bdb9e2199e
:0400ee00bdbaaa5499
:0400ef00bdbb728c97
:0400f000bdbc3ac396
:0400f100bdbd02f897
:0400f200bdbdcb2c99
:0400f300bdbe935d9e
:0400f400bdbf5b8da4
:0400f500bdc023baad
:0400f600bdc0ebe6b8
:0400f700bdc1b410c3
:0400f800bdc27c39d0
:0400f900bdc3445fe0
:0400fa00bdc40c83f2
:0400fb00bdc4d4a606
:0400fc00bdc59cc61c
:0400fd00bdc664e533
:0400fe00bdc72d024b
:0400ff00bdc7f51d67
:04010000bdc8bd3683
:04010100bdc9854da2
:04010200bdca4d62c3
:04010300bdcb1575e6
:04010400bdcbdd860c
:04010500bdcca59632
:04010600bdcd6da35b
:04010700bdce35ae86
:04010800bdcefdb7b4
:04010900bdcfc5bfe2
:04010a00bdd08dc413
:04010b00bdd155c746
:04010c00bdd21dc87b
:04010d00bdd2e5c8b2
:04010e00bdd3adc5eb
:04010f00bdd475c026
:04011000bdd53db963
:04011100bdd605b0a2
:04011200bdd6cda5e4
:04011300bdd7959827
:04011400bdd85d896c
:04011500bdd92578b3
:04011600bdd9ed64fe
:04011700bddab54f49
:04011800bddb7d3797
:04011900bddc451ee6
:04011a00bddd0d0238
:04011b00bdddd4e48e
:04011c00bdde9cc4e4
:04011d00bddf64a23c
:04011e00bde02c7d97
:04011f00bde0f457f4
:04012000bde1bc2e53
:04012100bde28403b4
:04012200bde34bd618
:04012300bde413a77d
:04012400bde4db76e5
:04012500bde5a3424f
:04012600bde66b0cbb
:04012700bde732d42a
:04012800bde7fa9a9b
:04012900bde8c25d0e
:04012a00bde98a1f82
:04012b00bdea51defa
:04012c00bdeb199a74
:04012d00bdebe155f0
:04012e00bdeca90d6e
:04012f00bded70c3ef
:04013000bdee387672
:04013100bdef0028f6
:04013200bdefc7d77f
:04013300bdf08f8309
:04013400bdf1572e94
:04013500bdf21ed623
:04013600bdf2e67cb4
:04013700bdf3ae1f47
:04013800bdf475c0dd
:04013900bdf53d5f74
:04013a00bdf604fb0f
:04013b00bdf6cc95ac
:04013c00bdf7942c4b
:04013d00bdf85bc2ec
:04013e00bdf9235490
:04013f00bdf9eae537
:04014000bdfab273df
:04014100bdfb79fe8b
:04014200bdfc418738
:04014300bdfd090ee7
:04014400bdfdd0929b
:04014500bdfe98144f
:04014600bdff5f9406
:04014700be0013885b
:04014800be00774539
:04014900be00db0118
:04014a00be013ebcf8
:04014b00be01a276d9
:04014c00be02062ebb
:04014d00be0269e5a0
:04014e00be02cd9b85
:04014f00be03314f6b
:04015000be03950253
:04015100be03f8b43d
:04015200be045c6526
:04015300be04c01412
:04015400be0523c2ff
:04015500be05876fed
:04015600be05eb1bdc
:04015700be064ec5cd
:04015800be06b26ebf
:04015900be071616b1
:04015a00be0779bca7
:04015b00be07dd619d
:04015c00be08410593
:04015d00be08a4a78d
:04015e00be09084886
:04015f00be096be882
:04016000be09cf867f
:04016100be0a33247b
:04016200be0a96bf7c
:04016300be0afa5a7c
:04016400be0b5df37e
:04016500be0bc18b81
:04016600be0c252185
:04016700be0c88b68c
:04016800be0cec4a93
:04016900be0d4fdc9c
:04016a00be0db36da6
:04016b00be0e16fdb1
:04016c00be0e7a8bbe
:04016d00be0ede18cc
:04016e00be0f41a4db
:04016f00be0fa52eec
:04017000be1008b7fe
:04017100be106c3e12
:04017200be10cfc428
:04017300be1133493d
:04017400be1196cc56
:04017500be11fa4e6f
:04017600be125dce8a
:04017700be12c14da6
:04017800be1324cac4
:04017900be138847e2
:04017a00be13ebc104
:04017b00be144f3b24
:04017c00be14b2b249
:04017d00be1516296c
:04017e00be15799e93
:04017f00be15dd11bb
:04018000be164083e4
:04018100be16a3f40f
:04018200be1707633a
:04018300be176ad168
:04018400be17ce3d97
:04018500be1831a8c7
:04018600be189511f9
:04018700be18f8792d
:04018800be195be061
:04018900be19bf4597
:04018a00be1a22a8cf
:04018b00be1a860a08
:04018c00be1ae96b43
:04018d00be1b4cca7f
:04018e00be1bb027bd
:04018f00be1c1383fc
:04019000be1c76de3d
:04019100be1cda3680
:04019200be1d3d8ec3
:04019300be1da0e409
:04019400be1e04384f
:04019500be1e678b98
:04019600be1ecadde2
:04019700be1f2e2c2d
:04019800be1f917b7a
:04019900be1ff4c8c9
:04019a00be20581318
:04019b00be20bb5c6b
:04019c00be211ea5bd
:04019d00be2181eb13
:04019e00be21e53069
:04019f00be224874c0
:0401a000be22abb61a
:0401a100be230ef675
:0401a200be237235d1
:0401a300be23d57230
:0401a400be2438ad90
:0401a500be249be7f2
:0401a600be24ff2054
:0401a700be256257b8
:0401a800be25c58c1f
:0401a900be2628c086
:0401aa00be268bf2f0
:0401ab00be26ef225b
:0401ac00be275251c7
:0401ad00be27b57e36
:0401ae00be2818aaa5
:0401af00be287bd417
:0401b000be28defc8b
:0401b100be294223fe
:0401b200be29a54875
:0401b300be2a086bed
:0401b400be2a6b8d67
:0401b500be2aceaee2
:0401b600be2b31cc5f
:0401b700be2b94e9de
:0401b800be2bf8045e
:0401b900be2c5b1edf
:0401ba00be2cbe3663
:0401bb00be2d214ce8
:0401bc00be2d84616f
:0401bd00be2de773f9
:0401be00be2e4a8582
:0401bf00be2ead940f
:0401c000be2f10a29c
:0401c100be2f73ae2c
:0401c200be2fd6b9bd
:0401c300be3039c24f
:0401c400be309cc9e4
:0401c500be30ffce7b
:0401c600be3162d212
:0401c700be31c5d4ac
:0401c800be3228d447
:0401c900be328bd3e4
:0401ca00be32eecf84
:0401cb00be3351cb23
:0401cc00be33b4c4c6
:0401cd00be3417bc69
:0401ce00be347ab20f
:0401cf00be34dda6b7
:0401d000be35409860
:0401d100be35a3890b
:0401d200be360678b7
:0401d300be36696566
:0401d400be36cc5017
:0401d500be372f3ac8
:0401d600be3792227c
:0401d700be37f50832
:0401d800be3857ecea
:0401d900be38bacfa3
:0401da00be391db05d
:0401db00be39808f1a
:0401dc00be39e36cd9
:0401dd00be3a464799
:0401de00be3aa9215b
:0401df00be3b0bf91f
:0401e000be3b6ecfe5
:0401e100be3bd1a3ad
:0401e200be3c347675
:0401e300be3c974641
:0401e400be3cfa150e
:0401e500be3d5ce2dd
:0401e600be3dbfadae
:0401e700be3e227680
:0401e800be3e853e54
:0401e900be3ee8042a
:0401ea00be3f4ac703
:0401eb00be3fad89dd
:0401ec00be401049b8
:0401ed00be40730895
:0401ee00be40d5c476
:0401ef00be41387f56
:0401f000be419b373a
:0401f100be41fdee20
:0401f200be4260a306
:0401f300be42c356ef
:0401f400be432607d9
:0401f500be4388b7c6
:0401f600be43eb64b5
:0401f700be444e10a4
:0401f800be44b0b998
:0401f900be4513618b
:0401fa00be45760781
:0401fb00be45d8ab7a
:0401fc00be463b4d73
:0401fd00be469ded70
:0401fe00be47008b6d
:0401ff00be4763286c
:04020000be47c5c26e
:04020100be48285a71
:04020200be488af177
:04020300be48ed857f
:04020400be49501887
:04020500be49b2a993
:04020600be4a15389f
:04020700be4a77c4b0
:04020800be4ada4fc1
:04020900be4b3cd8d4
:04020a00be4b9f5fe9
:04020b00be4c01e400
:04020c00be4c646719
:04020d00be4cc6e835
:04020e00be4d296751
:04020f00be4d8be471
:04021000be4dee6091
:04021100be4e50d9b4
:04021200be4eb350d9
:04021300be4f15c500
:04021400be4f783829
:04021500be4fdaa955
:04021600be503d1980
:04021700be509f86b0
:04021800be5101f1e1
:04021900be51645a14
:04021a00be51c6c14a
:04021b00be52292680
:04021c00be528b89ba
:04021d00be52edeaf6
:04021e00be53504932
:04021f00be53b2a672
:04022000be541501b2
:04022100be54775af6
:04022200be54d9b13c
:04022300be553c0682
:04022400be559e58cd
:04022500be5600a918
:04022600be5662f866
:04022700be56c544b6
:04022800be57278f07
:04022900be5789d75c
:04022a00be57ec1db2
:04022b00be584e6209
:04022c00be58b0a464
:04022d00be5912e4c0
:04022e00be5975221e
:04022f00be59d75e7f
:04023000be5a3997e2
:04023100be5a9bcf47
:04023200be5afe05ad
:04023300be5b603816
:04023400be5bc26a81
:04023500be5c2499ee
:04023600be5c86c65e
:04023700be5ce8f1d0
:04023800be5d4b1a42
:04023900be5dad40b9
:04023a00be5e0f6530
:04023b00be5e7187ab
:04023c00be5ed3a827
:04023d00be5f35c6a5
:04023e00be5f97e226
:04023f00be5ff9fca9
:04024000be605c132d
:04024100be60be29b4
:04024200be61203c3d
:04024300be61824dc9
:04024400be61e45c57
:04024500be624669e6
:04024600be62a87478
:04024700be630a7c0c
:04024800be636c83a2
:04024900be63ce873b
:04024a00be643089d5
:04024b00be64928873
:04024c00be64f48612
:04024d00be655681b3
:04024e00be65b87a57
:04024f00be661a71fc
:04025000be667c66a4
:04025100be66de584f
:04025200be674048fb
:04025300be67a236aa
:04025400be6804225a
:04025500be68660b0e
:04025600be68c7f3c4
:04025700be6929d87b
:04025800be698bba36
:04025900be69ed9bf2
:04025a00be6a4f79b0
:04025b00be6ab15571
:04025c00be6b132f33
:04025d00be6b7506f9
:04025e00be6bd6dcc1
:04025f00be6c38af8a
:04026000be6c9a7f57
:04026100be6cfc4e25
:04026200be6d5e1af5
:04026300be6dbfe3ca
:04026400be6e21ab9e
:04026500be6e837076
:04026600be6ee53350
:04026700be6f46f42c
:04026800be6fa8b20b
:04026900be700a6eeb
:04026a00be706c28ce
:04026b00be70cddfb5
:04026c00be712f949c
:04026d00be71914786
:04026e00be71f2f774
:04026f00be7254a562
:04027000be72b65153
:04027100be7317fa47
:04027200be7379a13d
:04027300be73db4635
:04027400be743ce830
:04027500be749e882d
:04027600be7500262b
:04027700be7561c12e
:04027800be75c35a32
:04027900be7624f138
:04027a00be76868541
:04027b00be76e8174c
:04027c00be7749a65a
:04027d00be77ab336a
:04027e00be780cbe7c
:04027f00be786e4691
:04028000be78cfcca9
:04028100be79314fc2
:04028200be7992d0df
:04028300be79f44ffd
:04028400be7a55cb1e
:04028500be7ab74541
:04028600be7b18bc67
:04028700be7b7a318f
:04028800be7bdba4ba
:04028900be7c3d14e6
:04028a00be7c9e8216
:04028b00be7cffed49
:04028c00be7d61567c
:04028d00be7dc2bcb4
:04028e00be7e2420ec
:04028f00be7e858228
:04029000be7ee6e167
:04029100be7f483da7
:04029200be7fa998ea
:04029300be800578ac
:04029400be803622d0
:04029500be8066ccf5
:04029600be8097741b
:04029700be80c81b42
:04029800be80f8c06c
:04029900be81296594
:04029a00be815a08bf
:04029b00be818aaaec
:04029c00be81bb4a1a
:04029d00be81ebea49
:04029e00be821c8878
:04029f00be824d25a9
:0402a000be827dc0dd
:0402a100be82ae5b10
:0402a200be82def446
:0402a300be830f8c7b
:0402a400be834022b3
:0402a500be8370b8ec
:0402a600be83a14c26
:0402a700be83d1df62
:0402a800be8402709e
:0402a900be843300dc
:0402aa00be84638f1c
:0402ab00be84941d5c
:0402ac00be84c4aa9e
:0402ad00be84f535e1
:0402ae00be8525bf25
:0402af00be8556476b
:0402b000be8586ceb3
:0402b100be85b755fa
:0402b200be85e7d945
:0402b300be86185d8e
:0402b400be8648dfdb
:0402b500be86796028
:0402b600be86a9df78
:0402b700be86da5dc8
:0402b800be870ada19
:0402b900be873b566b
:0402ba00be876bd0c0
:0402bb00be879c4915
:0402bc00be87ccc16c
:0402bd00be87fd38c3
:0402be00be882dad1c
:0402bf00be885e2176
:0402c000be888e93d3
:0402c100be88bf0430
:0402c200be88ef748f
:0402c300be891fe3ee
:0402c400be8950504f
:0402c500be8980bcb2
:0402c600be89b12616
:0402c700be89e1907b
:0402c800be8a11f7e2
:0402c900be8a425e49
:0402ca00be8a72c3b3
:0402cb00be8aa3271d
:0402cc00be8ad38a89
:0402cd00be8b03ebf6
:0402ce00be8b344b64
:0402cf00be8b64aad4
:0402d000be8b950745
:0402d100be8bc563b8
:0402d200be8bf5bd2d
:0402d300be8c2616a1
:0402d400be8c566e18
:0402d500be8c86c590
:0402d600be8cb71a09
:0402d700be8ce76d85
:0402d800be8d17c000
:0402d900be8d48117d
:0402da00be8d7861fc
:0402db00be8da8af7d
:0402dc00be8dd8fcff
:0402dd00be8e094781
:0402de00be8e399205
:0402df00be8e69db8b
:0402e000be8e9a2212
:0402e100be8eca689b
:0402e200be8efaad25
:0402e300be8f2af0b0
:0402e400be8f5b323c
:0402e500be8f8b73ca
:0402e600be8fbbb25a
:0402e700be8febf0eb
:0402e800be901c2c7c
:0402e900be904c6710
:0402ea00be907ca1a5
:0402eb00be90acd93c
:0402ec00be90dd10d3
:0402ed00be910d456c
:0402ee00be913d7907
:0402ef00be916daca3
:0402f000be919ddd41
:0402f100be91ce0ddf
:0402f200be91fe3c7f
:0402f300be922e6920
:0402f400be925e94c4
:0402f500be928ebf68
:0402f600be92bee70f
:0402f700be92ef0fb5
:0402f800be931f355d
:0402f900be934f5908
:0402fa00be937f7db3
:0402fb00be93af9e61
:0402fc00be93dfbf0f
:0402fd00be940fddbf
:0402fe00be943ffb70
:0402ff00be94701722
:04030000be94a031d6
:04030100be94d04b8b
:04030200be95006242
:04030300be953079fa
:04030400be95608db5
:04030500be9590a170
:04030600be95c0b32d
:04030700be95f0c3ec
:04030800be9620d2ab
:04030900be9650e06c
:04030a00be9680ec2f
:04030b00be96b0f7f3
:04030c00be96e100b8
:04030d00be9711087e
:04030e00be97410e47
:04030f00be97711311
:04031000be97a117dc
:04031100be97d119a9
:04031200be98011977
:04031300be98311847
:04031400be98611618
:04031500be989112eb
:04031600be98c10dbf
:04031700be98f10695
:04031800be9920fe6c
:04031900be9950f445
:04031a00be9980e91f
:04031b00be99b0dcfb
:04031c00be99e0ced8
:04031d00be9a10beb6
:04031e00be9a40ad96
:04031f00be9a709a78
:04032000be9aa0865b
:04032100be9ad07040
:04032200be9b005925
:04032300be9b30410c
:04032400be9b6027f5
:04032500be9b900be0
:04032600be9bbfeecd
:04032700be9befcfbb
:04032800be9c1fafa9
:04032900be9c4f8d9a
:04032a00be9c7f6a8c
:04032b00be9caf467f
:04032c00be9cdf2074
:04032d00be9d0ef86b
:04032e00be9d3ecf63
:04032f00be9d6ea45d
:04033000be9d9e7858
:04033100be9dce4a55
:04033200be9dfe1b53
:04033300be9e2dea53
:04033400be9e5db854
:04033500be9e8d8457
:04033600be9ebd4f5b
:04033700be9eed1861
:04033800be9f1cdf69
:04033900be9f4ca572
:04033a00be9f7c6a7c
:04033b00be9fac2d88
:04033c00be9fdbee97
:04033d00bea00baea5
:04033e00bea03b6db5
:04033f00bea06b29c8
:04034000bea09ae5dc
:04034100bea0ca9ef2
:04034200bea0fa5708
:04034300bea12a0d20
:04034400bea159c23b
:04034500bea1897656
:04034600bea1b92873
:04034700bea1e8d893
:04034800bea21887b2
:04034900bea24834d4
:04034a00bea277e0f8
:04034b00bea2a78a1d
:04034c00bea2d73343
:04034d00bea306da6b
:04034e00bea3367f95
:04034f00bea36623c0
:04035000bea395c5ee
:04035100bea3c5661c
:04035200bea3f5054c
:04035300bea424a37d
:04035400bea4543fb0
:04035500bea483d9e6
:04035600bea4b3721c
:04035700bea4e30954
:04035800bea5129f8d
:04035900bea54233c8
:04035a00bea571c506
:04035b00bea5a15644
:04035c00bea5d0e585
:04035d00bea60073c5
:04035e00bea62fff09
:04035f00bea65f894e
:04036000bea68f1294
:04036100bea6be99dd
:04036200bea6ee1f26
:04036300bea71da371
:04036400bea74d25be
:04036500bea77ca60d
:04036600bea7ac255d
:04036700bea7dba3af
:04036800bea80b1f01
:04036900bea83a9957
:04036a00bea86a12ad
:04036b00bea8998906
:04036c00bea8c8fe61
:04036d00bea8f872bc
:04036e00bea927e518
:04036f00bea9575577
:04037000bea986c4d8
:04037100bea9b6313a
:04037200bea9e59d9e
:04037300beaa150702
:04037400beaa446f6a
:04037500beaa73d6d3
:04037600beaaa33b3d
:04037700beaad29fa9
:04037800beab020115
:04037900beab316185
:04037a00beab60bff7
:04037b00beab901c69
:04037c00beabbf77de
:04037d00beabeed154
:04037e00beac1e29ca
:04037f00beac4d7f44
:04038000beac7cd4bf
:04038100beacac273b
:04038200beacdb78ba
:04038300bead0ac73a
:04038400bead3a15bb
:04038500bead69623e
:04038600bead98acc4
:04038700beadc7f54b
:04038800beadf73cd3
:04038900beae26825c
:04038a00beae55c6e8
:04038b00beae850875
:04038c00beaeb44904
:04038d00beaee38796
:04038e00beaf12c527
:04038f00beaf4200bb
:04039000beaf713a51
:04039100beafa072e9
:04039200beafcfa883
:04039300beaffedd1e
:04039400beb02e10b9
:04039500beb05d4158
:04039600beb08c71f8
:04039700beb0bb9f9a
:04039800beb0eacb3e
:04039900beb119f5e3
:04039a00beb1491e89
:04039b00beb1784532
:04039c00beb1a76bdc
:04039d00beb1d68e89
:04039e00beb205b036
:04039f00beb234d0e6
:0403a000beb263ef97
:0403a100beb2930c49
:0403a200beb2c227fe
:0403a300beb2f140b5
:0403a400beb320586c
:0403a500beb34f6e26
:0403a600beb37e82e2
:0403a700beb3ad94a0
:0403a800beb3dca55f
:0403a900beb40bb41f
:0403aa00beb43ac1e2
:0403ab00beb469cda6
:0403ac00beb498d66d
:0403ad00beb4c7de35
:0403ae00beb4f6e5fe
:0403af00beb525e9c9
:0403b000beb554ec96
:0403b100beb583ed65
:0403b200beb5b2ec36
:0403b300beb5e1ea08
:0403b400beb610e6db
:0403b500beb63fe0b1
:0403b600beb66ed889
:0403b700beb69dce63
:0403b800beb6ccc33e
:0403b900beb6fbb61b
:0403ba00beb72aa7f9
:0403bb00beb75997d9
:0403bc00beb78884bc
:0403bd00beb7b770a0
:0403be00beb7e65b85
:0403bf00beb815436c
:0403c000beb8442a55
:0403c100beb8730e41
:0403c200beb8a1f12f
:0403c300beb8d0d31d
:0403c400beb8ffb20e
:0403c500beb92e90ff
:0403c600beb95d6cf3
:0403c700beb98c46e9
:0403c800beb9bb1ee1
:0403c900beb9e9f5db
:0403ca00beba18cad5
:0403cb00beba479dd2
:0403cc00beba766ed1
:0403cd00bebaa53dd2
:0403ce00bebad40bd4
:0403cf00bebb02d6d9
:0403d000bebb31a0df
:0403d100bebb6069e6
:0403d200bebb8f2ff0
:0403d300bebbbdf4fc
:0403d400bebbecb60a
:0403d500bebc1b7718
:0403d600bebc4a3629
:0403d700bebc78f43c
:0403d800bebca7af51
:0403d900bebcd66967
:0403da00bebd05217e
:0403db00bebd33d799
:0403dc00bebd628bb5
:0403dd00bebd913dd3
:0403de00bebdbfeef3
:0403df00bebdee9d14
:0403e000bebe1d4a36
:0403e100bebe4bf55c
:0403e200bebe7a9e83
:0403e300bebea945ac
:0403e400bebed7ebd7
:0403e500bebf068f02
:0403e600bebf353031
:0403e700bebf63d062
:0403e800bebf926f93
:0403e900bebfc10bc7
:0403ea00bebfefa5fe
:0403eb00bec01e3e34
:0403ec00bec04cd56e
:0403ed00bec07b6aa9
:0403ee00bec0a9fde7
:0403ef00bec0d88e26
:0403f000bec1071e65
:0403f100bec135aba9
:0403f200bec16437ed
:0403f300bec192c035
:0403f400bec1c1487d
:0403f500bec1efcec8
:0403f600bec21e5312
:0403f700bec24cd561
:0403f800bec27b55b1
:0403f900bec2a9d403
:0403fa00bec2d85156
:0403fb00bec306cbac
:0403fc00bec3354403
:0403fd00bec363bb5d
:0403fe00bec39231b7
:0403ff00bec3c0a415
:04040000bec3ef1573
:04040100bec41d85d3
:04040200bec44bf237
:04040300bec47a5e9b
:04040400bec4a8c802
:04040500bec4d7306a
:04040600bec50596d4
:04040700bec533fa41
:04040800bec5625caf
:04040900bec590bd1f
:04040a00bec5bf1b91
:04040b00bec5ed7706
:04040c00bec61bd27b
:04040d00bec64a2bf2
:04040e00bec678826c
:04040f00bec6a6d6e9
:04041000bec6d52966
:04041100bec7037be4
:04041200bec731ca66
:04041300bec76017e9
:04041400bec78e626f
:04041500bec7bcacf6
:04041600bec7eaf380
:04041700bec819380a
:04041800bec8477c97
:04041900bec875be26
:04041a00bec8a3fdb8
:04041b00bec8d23b4a
:04041c00bec90077de
:04041d00bec92eb175
:04041e00bec95ce90e
:04041f00bec98b1fa8
:04042000bec9b95345
:04042100bec9e785e4
:04042200beca15b584
:04042300beca43e426
:04042400beca7210ca
:04042500becaa03a71
:04042600becace6319
:04042700becafc89c4
:04042800becb2aae6f
:04042900becb58d01e
:04042a00becb86f1ce
:04042b00becbb50f80
:04042c00becbe32c34
:04042d00becc1147e9
:04042e00becc3f60a1
:04042f00becc6d765c
:04043000becc9b8b18
:04043100beccc99ed6
:04043200beccf7af96
:04043300becd25be57
:04043400becd53ca1c
:04043500becd81d5e2
:04043600becdafdeaa
:04043700becddde574
:04043800bece0bea3f
:04043900bece39ed0d
:04043a00bece67eedd
:04043b00bece95edaf
:04043c00becec3ea83
:04043d00becef1e559
:04043e00becf1fde30
:04043f00becf4dd50a
:04044000becf7bcae6
:04044100becfa9bdc4
:04044200becfd7aea4
:04044300bed0059d85
:04044400bed0338a69
:04044500bed061754f
:04044600bed08f5e37
:04044700bed0bd4521
:04044800bed0eb2a0d
:04044900bed1190dfa
:04044a00bed146eeeb
:04044b00bed174cddd
:04044c00bed1a2aad1
:04044d00bed1d085c7
:04044e00bed1fe5ebf
:04044f00bed22c34b9
:04045000bed25a09b5
:04045100bed287dcb4
:04045200bed2b5adb4
:04045300bed2e37cb6
:04045400bed31148ba
:04045500bed33f13c0
:04045600bed36cdbca
:04045700bed39aa2d4
:04045800bed3c867e0
:04045900bed3f629ef
:04045a00bed423eaff
:04045b00bed451a812
:04045c00bed47f6427
:04045d00bed4ad1f3d
:04045e00bed4dad757
:04045f00bed5088d71
:04046000bed536418e
:04046100bed563f3ae
:04046200bed591a4ce
:04046300bed5bf52f1
:04046400bed5ecfd18
:04046500bed61aa73e
:04046600bed6484f67
:04046700bed675f593
:04046800bed6a399c0
:04046900bed6d13af0
:04046a00bed6feda22
:04046b00bed72c7755
:04046c00bed75a138a
:04046d00bed787acc3
:04046e00bed7b543fd
:04046f00bed7e2d83a
:04047000bed8106b77
:04047100bed83dfcb8
:04047200bed86b8bfa
:04047300bed899183e
:04047400bed8c6a385
:04047500bed8f42ccd
:04047600bed921b218
:04047700bed94f3764
:04047800bed97cb9b4
:04047900bed9aa3905
:04047a00bed9d7b759
:04047b00beda0533ad
:04047c00beda32ad05
:04047d00beda60255e
:04047e00beda8d9bba
:04047f00bedabb0f17
:04048000bedae88078
:04048100bedb15f0d9
:04048200bedb435d3d
:04048300bedb70c8a4
:04048400bedb9e310c
:04048500bedbcb9877
:04048600bedbf8fde4
:04048700bedc266051
:04048800bedc53c1c2
:04048900bedc811f35
:04048a00bedcae7caa
:04048b00bedcdbd622
:04048c00bedd092e9a
:04048d00bedd368416
:04048e00bedd63d894
:04048f00bedd912a13
:04049000beddbe7996
:04049100beddebc71a
:04049200bede19129f
:04049300bede465b28
:04049400bede73a2b3
:04049500bedea0e740
:04049600bedece2ace
:04049700bedefb6a60
:04049800bedf28a9f2
:04049900bedf55e588
:04049a00bedf831f1f
:04049b00bedfb057b9
:04049c00bedfdd8d55
:04049d00bee00ac1f2
:04049e00bee037f293
:04049f00bee0652234
:0404a000bee0924fd9
:0404a100bee0bf7a80
:0404a200bee0eca329
:0404a300bee119c9d4
:0404a400bee146ee81
:0404a500bee1741030
:0404a600bee1a130e2
:0404a700bee1ce4e96
:0404a800bee1fb6a4c
:0404a900bee2288403
:0404aa00bee2559bbe
:0404ab00bee282b17a
:0404ac00bee2afc439
:0404ad00bee2dcd5fa
:0404ae00bee309e3bd
:0404af00bee336f082
:0404b000bee363fa4a
:0404b100bee3910213
:0404b200bee3be08df
:0404b300bee3eb0cad
:0404b400bee4180e7c
:0404b500bee4450d4f
:0404b600bee4720a24
:0404b700bee49f05fb
:0404b800bee4cbfed5
:0404b900bee4f8f5b0
:0404ba00bee525e98d
:0404bb00bee552db6d
:0404bc00bee57fcb4f
:0404bd00bee5acb933
:0404be00bee5d9a41a
:0404bf00bee6068e01
:0404c000bee63375ec
:0404c100bee6605ad9
:0404c200bee68d3cc9
:0404c300bee6ba1dba
:0404c400bee6e6fbaf
:0404c500bee713d7a4
:0404c600bee740b19c
:0404c700bee76d8897
:0404c800bee79a5d94
:0404c900bee7c73192
:0404ca00bee7f40194
:0404cb00bee820d097
:0404cc00bee84d9c9d
:0404cd00bee87a66a5
:0404ce00bee8a72eaf
:0404cf00bee8d3f4bc
:0404d000bee900b7ca
:0404d100bee92d78db
:0404d200bee95a37ee
:0404d300bee986f404
:0404d400bee9b3ae1c
:0404d500bee9e06636
:0404d600beea0d1c51
:0404d700beea39d070
:0404d800beea668191
:0404d900beea9330b4
:0404da00beeabfddda
:0404db00beeaec8801
:0404dc00beeb19302a
:0404dd00beeb45d657
:0404de00beeb727a85
:0404df00beeb9f1cb5
:0404e000beebcbbbe9
:0404e100beebf8581e
:0404e200beec24f355
:0404e300beec518b8f
:0404e400beec7e21cb
:0404e500beecaab50a
:0404e600beecd7474a
:0404e700beed03d68d
:0404e800beed3063d2
:0404e900beed5cee1a
:0404ea00beed897664
:0404eb00beedb5fcb1
:0404ec00beede280ff
:0404ed00beee0f024e
:0404ee00beee3b81a2
:0404ef00beee67fef8
:0404f000beee94794f
:0404f100beeec0f1aa
:0404f200beeeed6706
:0404f300beef19db64
:0404f400beef464cc5
:0404f500beef72bc28
:0404f600beef9f288e
:0404f700beefcb93f6
:0404f800beeff7fb61
:0404f900bef02461cc
:0404fa00bef050c53b
:0404fb00bef07d26ac
:0404fc00bef0a98520
:0404fd00bef0d5e296
:0404fe00bef1023c0d
:0404ff00bef12e9488
:04050000bef15aea04
:04050100bef1873d83
:04050200bef1b38e05
:04050300bef1dfdd89
:04050400bef20c290e
:04050500bef2387397
:04050600bef264bb22
:04050700bef29100af
:04050800bef2bd433f
:04050900bef2e984d1
:04050a00bef315c265
:04050b00bef341fefc
:04050c00bef36e3894
:04050d00bef39a6f30
:04050e00bef3c6a4ce
:04050f00bef3f2d76e
:04051000bef41f070f
:04051100bef44b35b4
:04051200bef477615b
:04051300bef4a38a05
:04051400bef4cfb1b1
:04051500bef4fbd560
:04051600bef527f80f
:04051700bef55417c2
:04051800bef5803577
:04051900bef5ac502f
:04051a00bef5d868ea
:04051b00bef6047fa5
:04051c00bef6309364
:04051d00bef65ca426
:04051e00bef688b3ea
:04051f00bef6b4c0b0
:04052000bef6e0cb78
:04052100bef70cd342
:04052200bef738d810
:04052300bef764dcdf
:04052400bef790dcb2
:04052500bef7bcdb86
:04052600bef7e8d75d
:04052700bef814d135
:04052800bef840c811
:04052900bef86cbdef
:04052a00bef898b0cf
:04052b00bef8c4a0b2
:04052c00bef8f08e97
:04052d00bef91c797e
:04052e00bef9486268
:04052f00bef9744954
:04053000bef9a02d43
:04053100bef9cc0e35
:04053200bef9f7ee29
:04053300befa23cb1e
:04053400befa4fa517
:04053500befa7b7d12
:04053600befaa7530f
:04053700befad3260f
:04053800befafef712
:04053900befb2ac615
:04053a00befb56921c
:04053b00befb825b26
:04053c00befbae2232
:04053d00befbd9e741
:04053e00befc05aa50
:04053f00befc316964
:04054000befc5d2779
:04054100befc88e292
:04054200befcb49bac
:04054300befce051c9
:04054400befd0c04e8
:04054500befd37b60a
:04054600befd63652e
:04054700befd8f1155
:04054800befdbabb7f
:04054900befde662ab
:04054a00befe1207d8
:04054b00befe3daa09
:04054c00befe694a3c
:04054d00befe94e872
:04054e00befec083aa
:04054f00befeec1ce4
:04055000beff17b221
:04055100beff434660
:04055200beff6ed8a2
:04055300beff9a67e6
:04055400beffc5f32e
:04055500befff17d77
:04055600bf000e8252
:04055700bf00244578
:04055800bf003a06a0
:04055900bf004fc6ca
:04055a00bf006585f4
:04055b00bf007b431f
:04055c00bf0090ff4d
:04055d00bf00a6ba7b
:04055e00bf00bc74aa
:04055f00bf00d22dda
:04056000bf00e7e40d
:04056100bf00fd9a40
:04056200bf01134f73
:04056300bf012903a8
:04056400bf013eb5e0
:04056500bf01546717
:04056600bf016a1750
:04056700bf017fc58c
:04056800bf019573c7
:04056900bf01ab1f04
:04056a00bf01c0ca43
:04056b00bf01d67482
:04056c00bf01ec1cc3
:04056d00bf0201c305
:04056e00bf02176948
:04056f00bf022d0e8c
:04057000bf0242b1d3
:04057100bf0258531a
:04057200bf026df463
:04057300bf028394ac
:04057400bf029932f7
:04057500bf02aed043
:04057600bf02c46b91
:04057700bf02da06df
:04057800bf02ef9f30
:04057900bf03053780
:04057a00bf031aced3
:04057b00bf03306426
:04057c00bf0345f87c
:04057d00bf035b8bd2
:04057e00bf03711d29
:04057f00bf0386ae82
:04058000bf039c3ddc
:04058100bf03b1cb38
:04058200bf03c75795
:04058300bf03dce3f3
:04058400bf03f26d52
:04058500bf0407f6b2
:04058600bf041d7e13
:04058700bf04330476
:04058800bf044889db
:04058900bf045e0d40
:04058a00bf04738fa8
:04058b00bf0489110f
:04058c00bf049e9179
:04058d00bf04b40fe4
:04058e00bf04c98d50
:04058f00bf04df09bd
:04059000bf04f4842c
:04059100bf0509fd9c
:04059200bf051f750d
:04059300bf0534ec80
:04059400bf054a62f3
:04059500bf055fd768
:04059600bf05754ade
:04059700bf058abc56
:04059800bf05a02ccf
:04059900bf05b59c49
:04059a00bf05cb0ac4
:04059b00bf05e07642
:04059c00bf05f5e2c0
:04059d00bf060b4c3e
:04059e00bf0620b5bf
:04059f00bf06361c41
:0405a000bf064b82c5
:0405a100bf0660e74a
:0405a200bf06764bcf
:0405a300bf068bad57
:0405a400bf06a10edf
:0405a500bf06b66e69
:0405a600bf06cbcdf4
:0405a700bf06e12a80
:0405a800bf06f6860e
:0405a900bf070be09d
:0405aa00bf07213a2c
:0405ab00bf073692be
:0405ac00bf074be852
:0405ad00bf07613ee5
:0405ae00bf0776927b
:0405af00bf078be413
:0405b000bf07a136aa
:0405b100bf07b68644
:0405b200bf07cbd5df
:0405b300bf07e1227b
:0405b400bf07f66f18
:0405b500bf080bb9b7
:0405b600bf08210356
:0405b700bf08364bf8
:0405b800bf084b929b
:0405b900bf0860d83f
:0405ba00bf08761ce4
:0405bb00bf088b5f8b
:0405bc00bf08a0a133
:0405bd00bf08b5e1dd
:0405be00bf08cb2087
:0405bf00bf08e05e33
:0405c000bf08f59be0
:0405c100bf090ad68e
:0405c200bf0920103d
:0405c300bf093548ef
:0405c400bf094a7fa2
:0405c500bf095fb556
:0405c600bf0974e90c
:0405c700bf098a1dc1
:0405c800bf099f4e7a
:0405c900bf09b47f33
:0405ca00bf09c9aeee
:0405cb00bf09dedcaa
:0405cc00bf09f40966
:0405cd00bf0a093424
:0405ce00bf0a1e5ee4
:0405cf00bf0a3386a6
:0405d000bf0a48ad69
:0405d100bf0a5dd32d
:0405d200bf0a72f8f2
:0405d300bf0a881bb8
:0405d400bf0a9d3d80
:0405d500bf0ab25e49
:0405d600bf0ac77d14
:0405d700bf0adc9be0
:0405d800bf0af1b7ae
:0405d900bf0b06d27c
:0405da00bf0b1bec4c
:0405db00bf0b31051c
:0405dc00bf0b461cef
:0405dd00bf0b5b32c3
:0405de00bf0b704699
:0405df00bf0b855970
:0405e000bf0b9a6b48
:0405e100bf0baf7c21
:0405e200bf0bc48bfc
:0405e300bf0bd998d9
:0405e400bf0beea5b6
:0405e500bf0c03b094
:0405e600bf0c18ba74
:0405e700bf0c2dc256
:0405e800bf0c42c939
:0405e900bf0c57cf1d
:0405ea00bf0c6cd303
:0405eb00bf0c81d6ea
:0405ec00bf0c96d7d3
:0405ed00bf0cabd8bc
:0405ee00bf0cc0d7a7
:0405ef00bf0cd5d494
:0405f000bf0cead082
:0405f100bf0cffcb71
:0405f200bf0d14c560
:0405f300bf0d29bd52
:0405f400bf0d3eb346
:0405f500bf0d53a93a
:0405f600bf0d689d30
:0405f700bf0d7d8f28
:0405f800bf0d928120
:0405f900bf0da7711a
:0405fa00bf0dbc5f16
:0405fb00bf0dd14c13
:0405fc00bf0de63811
:0405fd00bf0dfb2310
:0405fe00bf0e100c10
:0405ff00bf0e24f314
:04060000bf0e39da16
:04060100bf0e4ebf1b
:04060200bf0e63a222
:04060300bf0e788529
:04060400bf0e8d6533
:04060500bf0ea2453d
:04060600bf0eb72349
:04060700bf0ecc0056
:04060800bf0ee0db66
:04060900bf0ef5b576
:04060a00bf0f0a8e86
:04060b00bf0f1f6599
:04060c00bf0f343bad
:04060d00bf0f490fc3
:04060e00bf0f5de2db
:04060f00bf0f72b4f3
:04061000bf0f87840d
:04061100bf0f9c5328
:04061200bf0fb12144
:04061300bf0fc5ed63
:04061400bf0fdab882
:04061500bf0fef81a3
:04061600bf100449c4
:04061700bf101910e7
:04061800bf102dd50d
:04061900bf10429933
:04061a00bf10575b5b
:04061b00bf106c1c84
:04061c00bf1080dcaf
:04061d00bf10959adb
:04061e00bf10aa5708
:04061f00bf10bf1336
:04062000bf10d3cd67
:04062100bf10e88599
:04062200bf10fd3dcb
:04062300bf1111f3ff
:04062400bf1126a735
:04062500bf113b5a6c
:04062600bf11500ca4
:04062700bf1164bcdf
:04062800bf11796b1a
:04062900bf118e1956
:04062a00bf11a2c595
:04062b00bf11b76fd5
:04062c00bf11cc1915
:04062d00bf11e0c158
:04062e00bf11f5679c
:04062f00bf120a0ce0
:04063000bf121eb027
:04063100bf1233526f
:04063200bf1247f3b9
:04063300bf125c9204
:04063400bf12713050
:04063500bf1285cd9e
:04063600bf129a68ed
:04063700bf12af023d
:04063800bf12c39a90
:04063900bf12d831e3
:04063a00bf12ecc738
:04063b00bf13015b8d
:04063c00bf1315eee5
:04063d00bf132a7f3e
:04063e00bf133f0f98
:04063f00bf13539df5
:04064000bf13682a52
:04064100bf137cb6b1
:04064200bf13914011
:04064300bf13a5c973
:04064400bf13ba50d6
:04064500bf13ced63b
:04064600bf13e35ba0
:04064700bf13f7de08
:04064800bf140c5f70
:04064900bf1420e0da
:04064a00bf14355e46
:04064b00bf1449dcb3
:04064c00bf145e5821
:04064d00bf1472d292
:04064e00bf14874b03
:04064f00bf149bc376
:04065000bf14b039ea
:04065100bf14c4ae60
:04065200bf14d921d7
:04065300bf14ed9350
:04065400bf150204c8
:04065500bf15167344
:04065600bf152ae0c2
:04065700bf153f4d3f
:04065800bf1553b7c0
:04065900bf15682140
:04065a00bf157c88c4
:04065b00bf1590ef48
:04065c00bf15a554cd
:04065d00bf15b9b755
:04065e00bf15ce19dd
:04065f00bf15e27a67
:04066000bf15f6d9f3
:04066100bf160b377e
:04066200bf161f930d
:04066300bf1633ee9d
:04066400bf1648472e
:04066500bf165c9fc1
:04066600bf1670f655
:04066700bf16854bea
:04066800bf16999f81
:04066900bf16adf11a
:04066a00bf16c241b4
:04066b00bf16d6914f
:04066c00bf16eadeed
:04066d00bf16ff2b8a
:04066e00bf17137629
:04066f00bf1727bfcb
:04067000bf173c076d
:04067100bf17504e11
:04067200bf176493b7
:04067300bf1778d65f
:04067400bf178d1807
:04067500bf17a159b1
:04067600bf17b5985d
:04067700bf17c9d60a
:04067800bf17de12b8
:04067900bf17f24d68
:04067a00bf18068718
:04067b00bf181abecc
:04067c00bf182ef580
:04067d00bf18432a35
:04067e00bf18575ded
:04067f00bf186b8fa6
:04068000bf187fc060
:04068100bf1893ef1c
:04068200bf18a81dd8
:04068300bf18bc4997
:04068400bf18d07358
:04068500bf18e49d19
:04068600bf18f8c4dd
:04068700bf190ceba0
:04068800bf19210f66
:04068900bf1935332d
:04068a00bf194955f6
:04068b00bf195d75c1
:04068c00bf1971948d
:04068d00bf1985b15b
:04068e00bf1999cd2a
:04068f00bf19ade7fb
:04069000bf19c200cc
:04069100bf19d6189f
:04069200bf19ea2e74
:04069300bf19fe424b
:04069400bf1a125522
:04069500bf1a2667fb
:04069600bf1a3a77d6
:04069700bf1a4e86b2
:04069800bf1a629390
:04069900bf1a769e70
:04069a00bf1a8aa851
:04069b00bf1a9eb133
:04069c00bf1ab2b817
:04069d00bf1ac6befc
:04069e00bf1adac2e3
:04069f00bf1aeec4cc
:0406a000bf1b02c6b4
:0406a100bf1b16c5a0
:0406a200bf1b2ac38d
:0406a300bf1b3ec07b
:0406a400bf1b52bb6b
:0406a500bf1b66b55c
:0406a600bf1b7aad4f
:0406a700bf1b8ea443
:0406a800bf1ba29939
:0406a900bf1bb68d30
:0406aa00bf1bca7f29
:0406ab00bf1bde6f24
:0406ac00bf1bf25f1f
:0406ad00bf1c064c1c
:0406ae00bf1c1a381b
:0406af00bf1c2e231b
:0406b000bf1c420c1d
:0406b100bf1c55f421
:0406b200bf1c69da26
:0406b300bf1c7dbf2c
:0406b400bf1c91a234
:0406b500bf1ca5833e
:0406b600bf1cb96349
:0406b700bf1ccd4255
:0406b800bf1ce11f63
:0406b900bf1cf4fb73
:0406ba00bf1d08d583
:0406bb00bf1d1cad96
:0406bc00bf1d3084aa
:0406bd00bf1d445abf
:0406be00bf1d582ed6
:0406bf00bf1d6c00ef
:0406c000bf1d7fd10a
:0406c100bf1d93a125
:0406c200bf1da76f42
:0406c300bf1dbb3b61
:0406c400bf1dcf0681
:0406c500bf1de2cfa4
:0406c600bf1df697c7
:0406c700bf1e0a5deb
:0406c800bf1e1e2211
:0406c900bf1e31e639
:0406ca00bf1e45a763
:0406cb00bf1e59688d
:0406cc00bf1e6d26ba
:0406cd00bf1e80e3e9
:0406ce00bf1e949f18
:0406cf00bf1ea85949
:0406d000bf1ebc127b
:0406d100bf1ecfc9b0
:0406d200bf1ee37ee6
:0406d300bf1ef7321d
:0406d400bf1f0ae555
:0406d500bf1f1e968f
:0406d600bf1f3245cb
:0406d700bf1f45f309
:0406d800bf1f599f48
:0406d900bf1f6d4a88
:0406da00bf1f80f3cb
:0406db00bf1f949b0e
:0406dc00bf1fa84153
:0406dd00bf1fbbe69a
:0406de00bf1fcf89e2
:0406df00bf1fe32b2b
:0406e000bf1ff6cb77
:0406e100bf200a69c3
:0406e200bf201e0611
:0406e300bf2031a162
:0406e400bf20453bb3
:0406e500bf2058d406
:0406e600bf206c6a5b
:0406e700bf208000b0
:0406e800bf20939309
:0406e900bf20a72562
:0406ea00bf20bab6bd
:0406eb00bf20ce4519
:0406ec00bf20e1d278
:0406ed00bf20f55ed7
:0406ee00bf2108e937
:0406ef00bf211c719a
:0406f000bf212ff9fe
:0406f100bf21437e64
:0406f200bf215703ca
:0406f300bf216a8534
:0406f400bf217e069e
:0406f500bf2191860a
:0406f600bf21a50477
:0406f700bf21b880e7
:0406f800bf21cbfb58
:0406f900bf21df74ca
:0406fa00bf21f2ec3e
:0406fb00bf220662b2
:0406fc00bf2219d729
:0406fd00bf222d4aa1
:0406fe00bf2240bb1c
:0406ff00bf22542b97
:04070000bf22679914
:04070100bf227b0692
:04070200bf228e7113
:04070300bf22a1db95
:04070400bf22b54318
:04070500bf22c8a99e
:04070600bf22dc0e24
:04070700bf22ef72ac
:04070800bf2302d336
:04070900bf231633c1
:04070a00bf2329924e
:04070b00bf233cefdd
:04070c00bf23504b6c
:04070d00bf2363a5fe
:04070e00bf2376fd92
:04070f00bf238a5426
:04071000bf239da9bd
:04071100bf23b0fc56
:04071200bf23c44fee
:04071300bf23d79f8a
:04071400bf23eaee27
:04071500bf23fe3bc5
:04071600bf24118764
:04071700bf2424d106
:04071800bf24381aa8
:04071900bf244b604e
:04071a00bf245ea6f4
:04071b00bf2471ea9c
:04071c00bf24852c45
:04071d00bf24986df0
:04071e00bf24abac9d
:04071f00bf24bee94c
:04072000bf24d225fb
:04072100bf24e55fad
:04072200bf24f89860
:04072300bf250bcf14
:04072400bf251f04ca
:04072500bf25323882
:04072600bf25456b3b
:04072700bf25589bf7
:04072800bf256bcbb3
:04072900bf257ef872
:04072a00bf25922431
:04072b00bf25a54ef3
:04072c00bf25b877b6
:04072d00bf25cb9e7b
:04072e00bf25dec441
:04072f00bf25f1e809
:04073000bf26050ad1
:04073100bf26182b9c
:04073200bf262b4a69
:04073300bf263e6837
:04073400bf26518407
:04073500bf26649ed9
:04073600bf2677b7ac
:04073700bf268ace81
:04073800bf269de358
:04073900bf26b0f730
:04073a00bf26c40a08
:04073b00bf26d71ae4
:04073c00bf26ea2ac0
:04073d00bf26fd379f
:04073e00bf2710437e
:04073f00bf27234d60
:04074000bf27365643
:04074100bf27495d28
:04074200bf275c620f
:04074300bf276f66f7
:04074400bf278268e1
:04074500bf279569cc
:04074600bf27a868b9
:04074700bf27bb65a8
:04074800bf27ce6198
:04074900bf27e15b8a
:04074a00bf27f4547d
:04074b00bf28074b71
:04074c00bf281a4068
:04074d00bf282d3460
:04074e00bf2840265a
:04074f00bf28531656
:04075000bf28660553
:04075100bf2878f253
:04075200bf288bde53
:04075300bf289ec855
:04075400bf28b1b059
:04075500bf28c4975e
:04075600bf28d77c65
:04075700bf28ea5f6e
:04075800bf28fd4178
:04075900bf29102183
:04075a00bf29230090
:04075b00bf2935dda0
:04075c00bf2948b8b1
:04075d00bf295b91c4
:04075e00bf296e69d8
:04075f00bf298140ed
:04076000bf29941504
:04076100bf29a6e81e
:04076200bf29b9b939
:04076300bf29cc8955
:04076400bf29df5773
:04076500bf29f22492
:04076600bf2a04efb3
:04076700bf2a17b8d6
:04076800bf2a2a80fa
:04076900bf2a3d4620
:04076a00bf2a500a48
:04076b00bf2a62cd72
:04076c00bf2a758e9d
:04076d00bf2a884dca
:04076e00bf2a9b0bf8
:04076f00bf2aadc729
:04077000bf2ac0825a
:04077100bf2ad33b8d
:04077200bf2ae5f2c3
:04077300bf2af8a7fa
:04077400bf2b0b5b31
:04077500bf2b1e0e6a
:04077600bf2b30bea7
:04077700bf2b436de4
:04077800bf2b561b22
:04077900bf2b68c664
:04077a00bf2b7b70a6
:04077b00bf2b8e19e9
:04077c00bf2ba0bf30
:04077d00bf2bb36477
:04077e00bf2bc608bf
:04077f00bf2bd8aa0a
:04078000bf2beb4a56
:04078100bf2bfde8a5
:04078200bf2c1085f3
:04078300bf2c232044
:04078400bf2c35b998
:04078500bf2c4851ec
:04078600bf2c5ae743
:04078700bf2c6d7c9a
:04078800bf2c800ff3
:04078900bf2c92a04f
:04078a00bf2ca52fac
:04078b00bf2cb7bd0b
:04078c00bf2cca496b
:04078d00bf2cdcd4cd
:04078e00bf2cef5d30
:04078f00bf2d01e495
:04079000bf2d1469fc
:04079100bf2d26ed65
:04079200bf2d396fcf
:04079300bf2d4bf03b
:04079400bf2d5e6fa8
:04079500bf2d70ec18
:04079600bf2d836789
:04079700bf2d95e1fc
:04079800bf2da85970
:04079900bf2dbad0e6
:04079a00bf2dcd445e
:04079b00bf2ddfb8d7
:04079c00bf2df22952
:04079d00bf2e0499ce
:04079e00bf2e17074c
:04079f00bf2e2973cd
:0407a000bf2e3bde4f
:0407a100bf2e4e47d2
:0407a200bf2e60ae58
:0407a300bf2e7314de
:0407a400bf2e857867
:0407a500bf2e97daf2
:0407a600bf2eaa3b7d
:0407a700bf2ebc9a0b
:0407a800bf2ecef79b
:0407a900bf2ee1532b
:0407aa00bf2ef3adbe
:0407ab00bf2f060551
:0407ac00bf2f185be8
:0407ad00bf2f2ab080
:0407ae00bf2f3d0319
:0407af00bf2f4f55b4
:0407b000bf2f61a551
:0407b100bf2f73f3f0
:0407b200bf2f863f90
:0407b300bf2f988a32
:0407b400bf2faad3d6
:0407b500bf2fbd1a7b
:0407b600bf2fcf6022
:0407b700bf2fe1a4cb
:0407b800bf2ff3e676
:0407b900bf30062621
:0407ba00bf301865cf
:0407bb00bf302aa27f
:0407bc00bf303cde30
:0407bd00bf304f18e2
:0407be00bf30615097
:0407bf00bf3073864e
:0407c000bf3085bb06
:0407c100bf3097eec0
:0407c200bf30aa1f7b
:0407c300bf30bc4e39
:0407c400bf30ce7cf8
:0407c500bf30e0a8b9
:0407c600bf30f2d37b
:0407c700bf3104fb3f
:0407c800bf31172204
:0407c900bf312948cb
:0407ca00bf313b6b95
:0407cb00bf314d8d60
:0407cc00bf315fad2d
:0407cd00bf3171ccfb
:0407ce00bf3183e9cb
:0407cf00bf3196049c
:0407d000bf31a81d70
:0407d100bf31ba3545
:0407d200bf31cc4b1c
:0407d300bf31de5ff5
:0407d400bf31f071d0
:0407d500bf320282ab
:0407d600bf32149189
:0407d700bf32269e69
:0407d800bf3238aa4a
:0407d900bf324ab42d
:0407da00bf325cbc12
:0407db00bf326ec3f8
:0407dc00bf3280c7e1
:0407dd00bf3292cacb
:0407de00bf32a4ccb6
:0407df00bf32b6cba4
:0407e000bf32c8c993
:0407e100bf32dac584
:0407e200bf32ecc076
:0407e300bf32feb86b
:0407e400bf3310af60
:0407e500bf3322a557
:0407e600bf33349851
:0407e700bf33468a4c
:0407e800bf33587a49
:0407e900bf336a6848
:0407ea00bf337c5548
:0407eb00bf338e404a
:0407ec00bf33a0294e
:0407ed00bf33b21054
:0407ee00bf33c3f65c
:0407ef00bf33d5da65
:0407f000bf33e7bc70
:0407f100bf33f99d7c
:0407f200bf340b7b8a
:0407f300bf341d589a
:0407f400bf342f34ab
:0407f500bf34410dbf
:0407f600bf3452e5d5
:0407f700bf3464bbec
:0407f800bf34768f05
:0407f900bf3488621f
:0407fa00bf349a333b
:0407fb00bf34ac0259
:0407fc00bf34bdcf7a
:0407fd00bf34cf9b9b
:0407fe00bf34e165be
:0407ff00bf34f32de3
:04080000bf3504f309
:04080100bf3516b831
:04080200bf35287b5b
:04080300bf353a3c87
:04080400bf354bfbb6
:04080500bf355db9e5
:04080600bf356f7516
:04080700bf35812f49
:04080800bf3592e77f
:04080900bf35a49eb5
:04080a00bf35b653ed
:04080b00bf35c80627
:04080c00bf35d9b863
:04080d00bf35eb67a1
:04080e00bf35fd15e0
:04080f00bf360ec121
:04081000bf36206c63
:04081100bf363214a8
:04081200bf3643bbef
:04081300bf36556037
:04081400bf36670480
:04081500bf3678a5cd
:04081600bf368a451a
:04081700bf369be36a
:04081800bf36ad7fbb
:04081900bf36bf1a0d
:04081a00bf36d0b362
:04081b00bf36e24ab8
:04081c00bf36f3df11
:04081d00bf37057369
:04081e00bf371704c5
:04081f00bf37289423
:04082000bf373a2381
:04082100bf374bafe3
:04082200bf375d3a45
:04082300bf376ec3aa
:04082400bf37804a10
:04082500bf3791cf79
:04082600bf37a353e2
:04082700bf37b4d54e
:04082800bf37c655bb
:04082900bf37d7d32b
:04082a00bf37e9509b
:04082b00bf37faca0f
:04082c00bf380c4382
:04082d00bf381dbbf8
:04082e00bf382f3070
:04082f00bf3840a4ea
:04083000bf38521665
:04083100bf386386e3
:04083200bf3874f463
:04083300bf388661e3
:04083400bf3897cb67
:04083500bf38a934eb
:04083600bf38ba9c71
:04083700bf38cc01f9
:04083800bf38dd6583
:04083900bf38eec70f
:04083a00bf3900279b
:04083b00bf3911852b
:04083c00bf3922e1bd
:04083d00bf39343c4f
:04083e00bf394595e4
:04083f00bf3956ec7b
:04084000bf39684212
:04084100bf397995ad
:04084200bf398ae749
:04084300bf399c37e6
:04084400bf39ad8586
:04084500bf39bed227
:04084600bf39d01dc9
:04084700bf39e1656f
:04084800bf39f2ac16
:04084900bf3a03f2bd
:04084a00bf3a153567
:04084b00bf3a267713
:04084c00bf3a37b7c1
:04084d00bf3a48f571
:04084e00bf3a5a3122
:04084f00bf3a6b6cd5
:04085000bf3a7ca48b
:04085100bf3a8ddb42
:04085200bf3a9f10fa
:04085300bf3ab044b4
:04085400bf3ac17571
:04085500bf3ad2a52f
:04085600bf3ae3d3ef
:04085700bf3af4ffb1
:04085800bf3b062973
:04085900bf3b175238
:04085a00bf3b2879ff
:04085b00bf3b399ec8
:04085c00bf3b4ac193
:04085d00bf3b5be260
:04085e00bf3b6d012e
:04085f00bf3b7e1ffe
:04086000bf3b8f3bd0
:04086100bf3ba055a4
:04086200bf3bb16d7a
:04086300bf3bc28451
:04086400bf3bd3982b
:04086500bf3be4ab06
:04086600bf3bf5bce3
:04086700bf3c06cbc1
:04086800bf3c17d9a1
:04086900bf3c28e484
:04086a00bf3c39ee68
:04086b00bf3c4af64e
:04086c00bf3c5bfc36
:04086d00bf3c6d011e
:04086e00bf3c7e030a
:04086f00bf3c8f04f7
:04087000bf3ca003e6
:04087100bf3cb100d7
:04087200bf3cc1fbcb
:04087300bf3cd2f4c0
:04087400bf3ce3ecb6
:04087500bf3cf4e2ae
:04087600bf3d05d6a7
:04087700bf3d16c8a3
:04087800bf3d27b8a1
:04087900bf3d38a7a0
:04087a00bf3d4993a2
:04087b00bf3d5a7ea5
:04087c00bf3d6b67aa
:04087d00bf3d7c4eb1
:04087e00bf3d8d34b9
:04087f00bf3d9e17c4
:04088000bf3daef9d1
:04088100bf3dbfd9df
:04088200bf3dd0b7ef
:04088300bf3de19301
:04088400bf3df26e14
:04088500bf3e034629
:04088600bf3e141d40
:04088700bf3e24f25a
:04088800bf3e35c575
:04088900bf3e469692
:04088a00bf3e5766b0
:04088b00bf3e6833d1
:04088c00bf3e78fff4
:04088d00bf3e89c918
:04088e00bf3e9a913e
:04088f00bf3eab5766
:04089000bf3ebc1b90
:04089100bf3eccdebc
:04089200bf3edd9fe9
:04089300bf3eee5e18
:04089400bf3eff1b49
:04089500bf3f0fd67c
:04089600bf3f208fb1
:04089700bf3f3147e7
:04089800bf3f41fc21
:04089900bf3f52b05b
:04089a00bf3f636297
:04089b00bf3f7412d5
:04089c00bf3f84c016
:04089d00bf3f956d57
:04089e00bf3fa6179b
:04089f00bf3fb6c0e1
:0408a000bf3fc76728
:0408a100bf3fd80c71
:0408a200bf3fe8afbd
:0408a300bf3ff95109
:0408a400bf4009f058
:0408a500bf401a8ea8
:0408a600bf402b2afa
:0408a700bf403bc44f
:0408a800bf404c5ca5
:0408a900bf405cf2fe
:0408aa00bf406d8658
:0408ab00bf407e19b3
:0408ac00bf408ea912
:0408ad00bf409f3871
:0408ae00bf40afc5d3
:0408af00bf40c05036
:0408b000bf40d0da9b
:0408b100bf40e16102
:0408b200bf40f1e76b
:0408b300bf41026ad5
:0408b400bf4112ec42
:0408b500bf41236cb0
:0408b600bf4133ea21
:0408b700bf41446693
:0408b800bf4154e107
:0408b900bf4165597d
:0408ba00bf4175d0f5
:0408bb00bf4186456e
:0408bc00bf4196b7eb
:0408bd00bf41a72868
:0408be00bf41b798e7
:0408bf00bf41c80568
:0408c000bf41d870ec
:0408c100bf41e8da71
:0408c200bf41f942f7
:0408c300bf4209a780
:0408c400bf421a0b0a
:0408c500bf422a6e96
:0408c600bf423ace25
:0408c700bf424b2cb5
:0408c800bf425b8947
:0408c900bf426be3dc
:0408ca00bf427c3c71
:0408cb00bf428c9309
:0408cc00bf429ce8a3
:0408cd00bf42ad3b3e
:0408ce00bf42bd8cdc
:0408cf00bf42cddb7c
:0408d000bf42de291c
:0408d100bf42ee74c0
:0408d200bf42febe65
:0408d300bf430f060a
:0408d400bf431f4cb3
:0408d500bf432f905e
:0408d600bf433fd20b
:0408d700bf435012b9
:0408d800bf43605169
:0408d900bf43708d1c
:0408da00bf4380c8d0
:0408db00bf43910185
:0408dc00bf43a1383d
:0408dd00bf43b16df7
:0408de00bf43c1a0b3
:0408df00bf43d1d171
:0408e000bf43e20030
:0408e100bf43f22ef1
:0408e200bf44025ab3
:0408e300bf44128379
:0408e400bf4422ab40
:0408e500bf4432d109
:0408e600bf4442f5d4
:0408e700bf445317a0
:0408e800bf4463376f
:0408e900bf4473563f
:0408ea00bf44837212
:0408eb00bf44938de6
:0408ec00bf44a3a5bd
:0408ed00bf44b3bc95
:0408ee00bf44c3d16f
:0408ef00bf44d3e44b
:0408f000bf44e3f529
:0408f100bf44f40408
:0408f200bf450411e9
:0408f300bf45141dcc
:0408f400bf452426b2
:0408f500bf45342e99
:0408f600bf45443383
:0408f700bf4554376e
:0408f800bf4564395b
:0408f900bf4574394a
:0408fa00bf4584373b
:0408fb00bf4594332e
:0408fc00bf45a42d23
:0408fd00bf45b42619
:0408fe00bf45c41c12
:0408ff00bf45d4110c
:04090000bf45e40308
:04090100bf45f3f407
:04090200bf4603e306
:04090300bf4613d008
:04090400bf4623bb0c
:04090500bf4633a412
:04090600bf46438b1a
:04090700bf46537024
:04090800bf4663542f
:04090900bf4673353d
:04090a00bf4683154c
:04090b00bf4692f25f
:04090c00bf46a2ce72
:04090d00bf46b2a887
:04090e00bf46c2809e
:04090f00bf46d256b7
:04091000bf46e22ad2
:04091100bf46f1fcf0
:04091200bf4701cc0e
:04091300bf47119a2f
:04091400bf47216751
:04091500bf47313176
:04091600bf4740fa9d
:04091700bf4750c0c6
:04091800bf476085f0
:04091900bf4770481c
:04091a00bf4780084b
:04091b00bf478fc77c
:04091c00bf479f84ae
:04091d00bf47af3fe2
:04091e00bf47bef918
:04091f00bf47ceb050
:04092000bf47de658a
:04092100bf47ee18c6
:04092200bf47fdca04
:04092300bf480d7943
:04092400bf481d2784
:04092500bf482cd3c8
:04092600bf483c7c0e
:04092700bf484c2455
:04092800bf485bca9f
:04092900bf486b6eea
:04092a00bf487b1037
:04092b00bf488ab087
:04092c00bf489a4ed8
:04092d00bf48a9ea2c
:04092e00bf48b98580
:04092f00bf48c91dd7
:04093000bf48d8b331
:04093100bf48e8488b
:04093200bf48f7dae9
:04093300bf49076b46
:04093400bf4916faa7
:04093500bf4926860a
:04093600bf4936116e
:04093700bf49459ad5
:04093800bf4955213d
:04093900bf4964a6a8
:04093a00bf49742914
:04093b00bf4983aa83
:04093c00bf499329f3
:04093d00bf49a2a666
:04093e00bf49b222d9
:04093f00bf49c19b50
:04094000bf49d112c8
:04094100bf49e08842
:04094200bf49effbbf
:04094300bf49ff6d3c
:04094400bf4a0edcbc
:04094500bf4a1e4a3d
:04094600bf4a2db6c1
:04094700bf4a3d1f47
:04094800bf4a4c87cf
:04094900bf4a5bed59
:04094a00bf4a6b51e4
:04094b00bf4a7ab372
:04094c00bf4a8a1301
:04094d00bf4a997193
:04094e00bf4aa8cd27
:04094f00bf4ab827bc
:04095000bf4ac77f54
:04095100bf4ad6d5ee
:04095200bf4ae62a88
:04095300bf4af57c26
:04095400bf4b04ccc5
:04095500bf4b141b65
:04095600bf4b236709
:04095700bf4b32b2ae
:04095800bf4b41fa56
:04095900bf4b5141fe
:04095a00bf4b6085aa
:04095b00bf4b6fc857
:04095c00bf4b7f0905
:04095d00bf4b8e47b7
:04095e00bf4b9d846a
:04095f00bf4bacbf1f
:04096000bf4bbbf8d6
:04096100bf4bcb2f8e
:04096200bf4bda634a
:04096300bf4be99607
:04096400bf4bf8c7c6
:04096500bf4c07f686
:04096600bf4c172348
:04096700bf4c264e0d
:04096800bf4c3578d3
:04096900bf4c449f9c
:04096a00bf4c53c467
:04096b00bf4c62e734
:04096c00bf4c720802
:04096d00bf4c8128d2
:04096e00bf4c9045a5
:04096f00bf4c9f607a
:04097000bf4cae7951
:04097100bf4cbd9129
:04097200bf4ccca604
:04097300bf4cdbbae0
:04097400bf4ceacbbf
:04097500bf4cf9db9f
:04097600bf4d08e881
:04097700bf4d17f465
:04097800bf4d26fd4c
:04097900bf4d360533
:04097a00bf4d450a1e
:04097b00bf4d540e0a
:04097c00bf4d6310f8
:04097d00bf4d720fe9
:04097e00bf4d810ddb
:04097f00bf4d9009cf
:04098000bf4d9f02c6
:04098100bf4dadfabf
:04098200bf4dbcf0b9
:04098300bf4dcbe3b6
:04098400bf4ddad5b4
:04098500bf4de9c5b4
:04098600bf4df8b3b6
:04098700bf4e079fb9
:04098800bf4e1689bf
:04098900bf4e2570c8
:04098a00bf4e3456d2
:04098b00bf4e433ade
:04098c00bf4e521cec
:04098d00bf4e60fcfd
:04098e00bf4e6fda0f
:04098f00bf4e7eb623
:04099000bf4e8d9039
:04099100bf4e9c6851
:04099200bf4eab3e6b
:04099300bf4eba1287
:04099400bf4ec8e4a6
:04099500bf4ed7b3c7
:04099600bf4ee681e9
:04099700bf4ef54d0d
:04099800bf4f041732
:04099900bf4f12df5b
:04099a00bf4f21a585
:04099b00bf4f3069b1
:04099c00bf4f3f2bdf
:04099d00bf4f4deb10
:04099e00bf4f5ca942
:04099f00bf4f6b6576
:0409a000bf4f7a1fac
:0409a100bf4f88d7e5
:0409a200bf4f978d1f
:0409a300bf4fa6425a
:0409a400bf4fb4f499
:0409a500bf4fc3a4d9
:0409a600bf4fd2521b
:0409a700bf4fe0fe60
:0409a800bf4fefa8a6
:0409a900bf4ffe50ee
:0409aa00bf500cf638
:0409ab00bf501b9a84
:0409ac00bf502a3bd3
:0409ad00bf5038db24
:0409ae00bf50477976
:0409af00bf505615ca
:0409b000bf5064af21
:0409b100bf50734779
:0409b200bf5081ddd4
:0409b300bf50907130
:0409b400bf509f038e
:0409b500bf50ad93ef
:0409b600bf50bc2151
:0409b700bf50caadb6
:0409b800bf50d9371c
:0409b900bf50e7be86
:0409ba00bf50f644f0
:0409bb00bf5104c85c
:0409bc00bf51134aca
:0409bd00bf5121ca3b
:0409be00bf513047ae
:0409bf00bf513ec323
:0409c000bf514d3d99
:0409c100bf515bb512
:0409c200bf516a2a8d
:0409c300bf51789e0a
:0409c400bf51871088
:0409c500bf51957f0a
:0409c600bf51a3ed8d
:0409c700bf51b25911
:0409c800bf51c0c299
:0409c900bf51cf2a21
:0409ca00bf51dd8fad
:0409cb00bf51ebf33a
:0409cc00bf51fa54c9
:0409cd00bf5208b459
:0409ce00bf521711ec
:0409cf00bf52256d81
:0409d000bf5233c619
:0409d100bf52421eb1
:0409d200bf5250734d
:0409d300bf525ec6eb
:0409d400bf526d1889
:0409d500bf527b672b
:0409d600bf5289b4cf
:0409d700bf5297ff75
:0409d800bf52a6491b
:0409d900bf52b490c5
:0409da00bf52c2d571
:0409db00bf52d1181e
:0409dc00bf52df59ce
:0409dd00bf52ed9880
:0409de00bf52fbd534
:0409df00bf530a10e8
:0409e000bf531849a0
:0409e100bf5326805a
:0409e200bf5334b516
:0409e300bf5342e7d5
:0409e400bf53511894
:0409e500bf535f4756
:0409e600bf536d741a
:0409e700bf537b9ee1
:0409e800bf5389c7a9
:0409e900bf5397ee73
:0409ea00bf53a6123f
:0409eb00bf53b4350d
:0409ec00bf53c255de
:0409ed00bf53d074b0
:0409ee00bf53de9085
:0409ef00bf53ecaa5c
:0409f000bf53fac334
:0409f100bf5408d90e
:0409f200bf5416edeb
:0409f300bf5424ffca
:0409f400bf54330faa
:0409f500bf54411d8d
:0409f600bf544f2a71
:0409f700bf545d3359
:0409f800bf546b3b42
:0409f900bf5479412d
:0409fa00bf5487451a
:0409fb00bf54954709
:0409fc00bf54a347fa
:0409fd00bf54b144ee
:0409fe00bf54bf40e3
:0409ff00bf54cd3ada
:040a0000bf54db31d3
:040a0100bf54e927ce
:040a0200bf54f71acc
:040a0300bf55050cca
:040a0400bf5512fbcd
:040a0500bf5520e8d1
:040a0600bf552ed4d6
:040a0700bf553cbdde
:040a0800bf554aa4e8
:040a0900bf555889f4
:040a0a00bf55666c02
:040a0b00bf55744d12
:040a0c00bf55822c24
:040a0d00bf55900938
:040a0e00bf559de350
:040a0f00bf55abbc68
:040a1000bf55b99382
:040a1100bf55c7679f
:040a1200bf55d53abd
:040a1300bf55e30ade
:040a1400bf55f0d901
:040a1500bf55fea526
:040a1600bf560c704b
:040a1700bf561a3874
:040a1800bf5627fea0
:040a1900bf5635c2cd
:040a1a00bf564384fc
:040a1b00bf5651442d
:040a1c00bf565f0260
:040a1d00bf566cbe96
:040a1e00bf567a78cd
:040a1f00bf56882f07
:040a2000bf5695e543
:040a2100bf56a39980
:040a2200bf56b14ac0
:040a2300bf56bef903
:040a2400bf56cca746
:040a2500bf56da528c
:040a2600bf56e7fbd5
:040a2700bf56f5a31e
:040a2800bf57034869
:040a2900bf5710ebb8
:040a2a00bf571e8c08
:040a2b00bf572c2a5b
:040a2c00bf5739c7b0
:040a2d00bf57476206
:040a2e00bf5754fb5f
:040a2f00bf576291ba
:040a3000bf57702616
:040a3100bf577db876
:040a3200bf578b48d7
:040a3300bf5798d73a
:040a3400bf57a6639f
:040a3500bf57b3ed07
:040a3600bf57c17570
:040a3700bf57cefbdc
:040a3800bf57dc7f49
:040a3900bf57ea01b8
:040a3a00bf57f7802b
:040a3b00bf5804fe9e
:040a3c00bf58127914
:040a3d00bf581ff38c
:040a3e00bf582d6a06
:040a3f00bf583ae082
:040a4000bf58485300
:040a4100bf5855c481
:040a4200bf58633303
:040a4300bf5870a088
:040a4400bf587e0b0e
:040a4500bf588b7497
:040a4600bf5898da23
:040a4700bf58a63faf
:040a4800bf58b3a13f
:040a4900bf58c102cf
:040a4a00bf58ce6063
:040a4b00bf58dbbcf9
:040a4c00bf58e91690
:040a4d00bf58f66f29
:040a4e00bf5903c5c4
:040a4f00bf59111862
:040a5000bf591e6a02
:040a5100bf592bbaa4
:040a5200bf59390847
:040a5300bf594653ee
:040a5400bf59539c97
:040a5500bf5960e441
:040a5600bf596e29ed
:040a5700bf597b6c9c
:040a5800bf5988ad4d
:040a5900bf5995ec00
:040a5a00bf59a329b4
:040a5b00bf59b0646b
:040a5c00bf59bd9c25
:040a5d00bf59cad3e0
:040a5e00bf59d8079d
:040a5f00bf59e53a5c
:040a6000bf59f26a1e
:040a6100bf59ff98e2
:040a6200bf5a0cc4a7
:040a6300bf5a19ee6f
:040a6400bf5a271638
:040a6500bf5a343c04
:040a6600bf5a415fd3
:040a6700bf5a4e81a3
:040a6800bf5a5ba076
:040a6900bf5a68be4a
:040a6a00bf5a75d921
:040a6b00bf5a82f2fa
:040a6c00bf5a9009d4
:040a6d00bf5a9d1eb1
:040a6e00bf5aaa3190
:040a6f00bf5ab74172
:040a7000bf5ac45055
:040a7100bf5ad15c3b
:040a7200bf5ade6722
:040a7300bf5aeb6f0c
:040a7400bf5af875f8
:040a7500bf5b0579e5
:040a7600bf5b127bd5
:040a7700bf5b1f7bc7
:040a7800bf5b2c79bb
:040a7900bf5b3974b2
:040a7a00bf5b466eaa
:040a7b00bf5b5365a5
:040a7c00bf5b605aa2
:040a7d00bf5b6d4da1
:040a7e00bf5b7a3ea2
:040a7f00bf5b872da5
:040a8000bf5b941aaa
:040a8100bf5ba105b1
:040a8200bf5badedbc
:040a8300bf5bbad4c7
:040a8400bf5bc7b8d5
:040a8500bf5bd49ae5
:040a8600bf5be17af7
:040a8700bf5bee580b
:040a8800bf5bfb3421
:040a8900bf5c080e38
:040a8a00bf5c14e653
:040a8b00bf5c21bb70
:040a8c00bf5c2e8e8f
:040a8d00bf5c3b60af
:040a8e00bf5c482fd2
:040a8f00bf5c54fcf8
:040a9000bf5c61c71f
:040a9100bf5c6e8f49
:040a9200bf5c7b5674
:040a9300bf5c881aa2
:040a9400bf5c94ddd2
:040a9500bf5ca19d04
:040a9600bf5cae5b38
:040a9700bf5cbb176e
:040a9800bf5cc7d1a7
:040a9900bf5cd489e1
:040a9a00bf5ce13e1e
:040a9b00bf5cedf25d
:040a9c00bf5cfaa39e
:040a9d00bf5d0752e0
:040a9e00bf5d13ff26
:040a9f00bf5d20aa6d
:040aa000bf5d2d53b6
:040aa100bf5d39fa02
:040aa200bf5d469e50
:040aa300bf5d53419f
:040aa400bf5d5fe1f2
:040aa500bf5d6c7f46
:040aa600bf5d791b9c
:040aa700bf5d85b5f5
:040aa800bf5d924d4f
:040aa900bf5d9ee3ac
:040aaa00bf5dab760b
:040aab00bf5db8076c
:040aac00bf5dc497cf
:040aad00bf5dd12434
:040aae00bf5dddaf9c
:040aaf00bf5dea3706
:040ab000bf5df6be72
:040ab100bf5e0343de
:040ab200bf5e0fc54f
:040ab300bf5e1c45c1
:040ab400bf5e28c336
:040ab500bf5e353fac
:040ab600bf5e41b925
:040ab700bf5e4e319f
:040ab800bf5e5aa61d
:040ab900bf5e671a9b
:040aba00bf5e738b1d
:040abb00bf5e7ffaa1
:040abc00bf5e8c6726
:040abd00bf5e98d2ae
:040abe00bf5ea53a38
:040abf00bf5eb1a1c4
:040ac000bf5ebe0552
:040ac100bf5eca68e2
:040ac200bf5ed6c875
:040ac300bf5ee32609
:040ac400bf5eef81a1
:040ac500bf5efbdb3a
:040ac600bf5f0833d3
:040ac700bf5f148871
:040ac800bf5f20db11
:040ac900bf5f2d2cb2
:040aca00bf5f397b56
:040acb00bf5f45c8fc
:040acc00bf5f5212a4
:040acd00bf5f5e5b4e
:040ace00bf5f6aa1fb
:040acf00bf5f76e5aa
:040ad000bf5f83275a
:040ad100bf5f8f670d
:040ad200bf5f9ba5c2
:040ad300bf5fa7e07a
:040ad400bf5fb41933
:040ad500bf5fc051ee
:040ad600bf5fcc86ac
:040ad700bf5fd8b86d
:040ad800bf5fe4e92f
:040ad900bf5ff118f2
:040ada00bf5ffd44b9
:040adb00bf60096e81
:040adc00bf6015964c
:040add00bf6021bc19
:040ade00bf602de0e8
:040adf00bf603a02b8
:040ae000bf6046218c
:040ae100bf60523e62
:040ae200bf605e5a39
:040ae300bf606a7313
:040ae400bf607689f0
:040ae500bf60829ece
:040ae600bf608eb0af
:040ae700bf609ac191
:040ae800bf60a6cf76
:040ae900bf60b2db5d
:040aea00bf60bee546
:040aeb00bf60caec32
:040aec00bf60d6f21f
:040aed00bf60e2f50f
:040aee00bf60eef601
:040aef00bf60faf5f5
:040af000bf6106f2ea
:040af100bf6112ede2
:040af200bf611ee5dd
:040af300bf612adbda
:040af400bf6136d0d8
:040af500bf6142c1da
:040af600bf614eb1dd
:040af700bf615a9fe2
:040af800bf61668aea
:040af900bf617274f3
:040afa00bf617e5bff
:040afb00bf618a400d
:040afc00bf6196221e
:040afd00bf61a20330
:040afe00bf61ade146
:040aff00bf61b9be5c
:040b0000bf61c59874
:040b0100bf61d16f90
:040b0200bf61dd45ad
:040b0300bf61e919cc
:040b0400bf61f4eaef
:040b0500bf6200b912
:040b0600bf620c8638
:040b0700bf62185160
:040b0800bf62241a8a
:040b0900bf622fe0b8
:040b0a00bf623ba4e7
:040b0b00bf62476618
:040b0c00bf6253264b
:040b0d00bf625ee481
:040b0e00bf626aa0b8
:040b0f00bf627659f2
:040b1000bf6282102e
:040b1100bf628dc56d
:040b1200bf629978ad
:040b1300bf62a528f0
:040b1400bf62b0d735
:040b1500bf62bc837c
:040b1600bf62c82dc5
:040b1700bf62d3d511
:040b1800bf62df7b5e
:040b1900bf62eb1eae
:040b1a00bf62f6c000
:040b1b00bf63025f53
:040b1c00bf630dfcaa
:040b1d00bf63199603
:040b1e00bf63252f5d
:040b1f00bf6330c5bb
:040b2000bf633c5a19
:040b2100bf6347ec7b
:040b2200bf63537bdf
:040b2300bf635f0944
:040b2400bf636a95ac
:040b2500bf63761e16
:040b2600bf6381a583
:040b2700bf638d2af1
:040b2800bf6398ac63
:040b2900bf63a42dd5
:040b2a00bf63afab4b
:040b2b00bf63bb27c2
:040b2c00bf63c6a13c
:040b2d00bf63d219b7
:040b2e00bf63dd8e36
:040b2f00bf63e901b6
:040b3000bf63f47338
:040b3100bf63ffe1be
:040b3200bf640b4e43
:040b3300bf6416b9cc
:040b3400bf64222157
:040b3500bf642d87e5
:040b3600bf6438eb75
:040b3700bf64444d06
:040b3800bf644fac9b
:040b3900bf645b0a30
:040b3a00bf646665c9
:040b3b00bf6471be64
:040b3c00bf647d1401
:040b3d00bf648869a0
:040b3e00bf6493bb42
:040b3f00bf649f0be5
:040b4000bf64aa598b
:040b4100bf64b5a533
:040b4200bf64c0eede
:040b4300bf64cc358a
:040b4400bf64d77b38
:040b4500bf64e2bdea
:040b4600bf64edfe9d
:040b4700bf64f93d51
:040b4800bf65047908
:040b4900bf650fb3c2
:040b4a00bf651aeb7e
:040b4b00bf6526203c
:040b4c00bf653154fc
:040b4d00bf653c85bf
:040b4e00bf6547b484
:040b4f00bf6552e14b
:040b5000bf655e0b14
:040b5100bf656934df
:040b5200bf65745aad
:040b5300bf657f7e7d
:040b5400bf658aa04f
:040b5500bf6595bf24
:040b5600bf65a0dcfb
:040b5700bf65abf7d4
:040b5800bf65b710ae
:040b5900bf65c2278b
:040b5a00bf65cd3b6b
:040b5b00bf65d84e4c
:040b5c00bf65e35e30
:040b5d00bf65ee6c16
:040b5e00bf65f977ff
:040b5f00bf660480e9
:040b6000bf660f88d5
:040b6100bf661a8dc4
:040b6200bf66258fb6
:040b6300bf663090a9
:040b6400bf663b8e9f
:040b6500bf66468a97
:040b6600bf66518491
:040b6700bf665c7c8d
:040b6800bf6667718c
:040b6900bf6672648d
:040b6a00bf667d5590
:040b6b00bf66884495
:040b6c00bf6693309d
:040b6d00bf669e1ba6
:040b6e00bf66a903b2
:040b6f00bf66b3e9c1
:040b7000bf66beccd2
:040b7100bf66c9aee4
:040b7200bf66d48df9
:040b7300bf66df6a10
:040b7400bf66ea4529
:040b7500bf66f51d45
:040b7600bf66fff364
:040b7700bf670ac783
:040b7800bf671599a5
:040b7900bf672069c9
:040b7a00bf672b36f0
:040b7b00bf67360119
:040b7c00bf6740ca45
:040b7d00bf674b9172
:040b7e00bf675655a2
:040b7f00bf676118d3
:040b8000bf676bd808
:040b8100bf6776953f
:040b8200bf67815177
:040b8300bf678c0ab2
:040b8400bf6796c1f0
:040b8500bf67a1762f
:040b8600bf67ac2970
:040b8700bf67b6d9b5
:040b8800bf67c187fb
:040b8900bf67cc3343
:040b8a00bf67d6dd8e
:040b8b00bf67e184db
:040b8c00bf67ec292a
:040b8d00bf67f6cc7c
:040b8e00bf68016dce
:040b8f00bf680c0c23
:040b9000bf6816a87c
:040b9100bf682142d6
:040b9200bf682bda33
:040b9300bf68366f92
:040b9400bf684103f2
:040b9500bf684b9456
:040b9600bf685623bb
:040b9700bf6860af24
:040b9800bf686b398e
:040b9900bf6875c2fa
:040b9a00bf68804769
:040b9b00bf688acbda
:040b9c00bf68954c4d
:040b9d00bf689fccc2
:040b9e00bf68aa4939
:040b9f00bf68b4c3b4
:040ba000bf68bf3c2f
:040ba100bf68c9b2ae
:040ba200bf68d4262e
:040ba300bf68de97b2
:040ba400bf68e90736
:040ba500bf68f374be
:040ba600bf68fddf48
:040ba700bf690848d2
:040ba800bf6912ae61
:040ba900bf691d12f1
:040baa00bf69277484
:040bab00bf6931d419
:040bac00bf693c32af
:040bad00bf69468d49
:040bae00bf6950e6e5
:040baf00bf695b3d82
:040bb000bf69659123
:040bb100bf696fe3c6
:040bb200bf697a336a
:040bb300bf69848111
:040bb400bf698eccbb
:040bb500bf69991665
:040bb600bf69a35d13
:040bb700bf69ada1c4
:040bb800bf69b7e476
:040bb900bf69c2242a
:040bba00bf69cc62e1
:040bbb00bf69d69e9a
:040bbc00bf69e0d756
:040bbd00bf69eb0e13
:040bbe00bf69f543d3
:040bbf00bf69ff7695
:040bc000bf6a09a758
:040bc100bf6a13d51f
:040bc200bf6a1e01e7
:040bc300bf6a282ab3
:040bc400bf6a325280
:040bc500bf6a3c7750
:040bc600bf6a469a22
:040bc700bf6a50baf7
:040bc800bf6a5ad9cd
:040bc900bf6a64f5a6
:040bca00bf6a6f0f80
:040bcb00bf6a79265e
:040bcc00bf6a833c3d
:040bcd00bf6a8d4f1f
:040bce00bf6a976003
:040bcf00bf6aa16eea
:040bd000bf6aab7bd2
:040bd100bf6ab585bd
:040bd200bf6abf8cab
:040bd300bf6ac9929a
:040bd400bf6ad3958c
:040bd500bf6add9680
:040bd600bf6ae79576
:040bd700bf6af1916f
:040bd800bf6afb8c69
:040bd900bf6b058465
:040bda00bf6b0f7965
:040bdb00bf6b196d66
:040bdc00bf6b235e6a
:040bdd00bf6b2d4d70
:040bde00bf6b373979
:040bdf00bf6b412483
:040be000bf6b4b0c90
:040be100bf6b54f1a1
:040be200bf6b5ed5b2
:040be300bf6b68b6c6
:040be400bf6b7295dc
:040be500bf6b7c72f4
:040be600bf6b864c0f
:040be700bf6b90252b
:040be800bf6b99fb4b
:040be900bf6ba3ce6d
:040bea00bf6bada090
:040beb00bf6bb76fb6
:040bec00bf6bc13bdf
:040bed00bf6bcb0609
:040bee00bf6bd4ce37
:040bef00bf6bde9466
:040bf000bf6be85897
:040bf100bf6bf21aca
:040bf200bf6bfbd901
:040bf300bf6c059638
:040bf400bf6c0f5073
:040bf500bf6c1909af
:040bf600bf6c22bfef
:040bf700bf6c2c7330
:040bf800bf6c362474
:040bf900bf6c3fd3bb
:040bfa00bf6c498003
:040bfb00bf6c532b4d
:040bfc00bf6c5cd49a
:040bfd00bf6c667ae9
:040bfe00bf6c701e3a
:040bff00bf6c79bf8f
:040c0000bf6c835ee4
:040c0100bf6c8cfc3c
:040c0200bf6c969697
:040c0300bf6ca02ff3
:040c0400bf6ca9c553
:040c0500bf6cb359b4
:040c0600bf6cbcea19
:040c0700bf6cc67a7e
:040c0800bf6cd007e6
:040c0900bf6cd99251
:040c0a00bf6ce31abe
:040c0b00bf6ceca02e
:040c0c00bf6cf6249f
:040c0d00bf6cffa613
:040c0e00bf6d092588
:040c0f00bf6d12a201
:040c1000bf6d1c1d7b
:040c1100bf6d2596f8
:040c1200bf6d2f0c77
:040c1300bf6d3880f9
:040c1400bf6d41f27d
:040c1500bf6d4b6103
:040c1600bf6d54ce8c
:040c1700bf6d5e3916
:040c1800bf6d67a1a4
:040c1900bf6d710832
:040c1a00bf6d7a6cc4
:040c1b00bf6d83cd59
:040c1c00bf6d8d2dee
:040c1d00bf6d968a87
:040c1e00bf6d9fe423
:040c1f00bf6da93dbf
:040c2000bf6db2935f
:040c2100bf6dbbe701
:040c2200bf6dc539a4
:040c2300bf6dce884b
:040c2400bf6dd7d5f4
:040c2500bf6de1209e
:040c2600bf6dea684c
:040c2700bf6df3aefc
:040c2800bf6dfcf2ae
:040c2900bf6e063460
:040c2a00bf6e0f7317
:040c2b00bf6e18b0d0
:040c2c00bf6e21eb8b
:040c2d00bf6e2b2348
:040c2e00bf6e345908
:040c2f00bf6e3d8dca
:040c3000bf6e46be8f
:040c3100bf6e4fee55
:040c3200bf6e591a1e
:040c3300bf6e6245e9
:040c3400bf6e6b6db7
:040c3500bf6e749387
:040c3600bf6e7db759
:040c3700bf6e86d82e
:040c3800bf6e8ff804
:040c3900bf6e9914dd
:040c3a00bf6ea22fb8
:040c3b00bf6eab4796
:040c3c00bf6eb45d76
:040c3d00bf6ebd7158
:040c3e00bf6ec6823d
:040c3f00bf6ecf9124
:040c4000bf6ed89e0d
:040c4100bf6ee1a8f9
:040c4200bf6eeab0e7
:040c4300bf6ef3b6d7
:040c4400bf6efcbac9
:040c4500bf6f05bbbd
:040c4600bf6f0ebab4
:040c4700bf6f17b6ae
:040c4800bf6f20b0aa
:040c4900bf6f29a8a8
:040c4a00bf6f329ea8
:040c4b00bf6f3b92aa
:040c4c00bf6f4483af
:040c4d00bf6f4d71b7
:040c4e00bf6f565ec0
:040c4f00bf6f5f48cc
:040c5000bf6f6830da
:040c5100bf6f7115eb
:040c5200bf6f79f8ff
:040c5300bf6f82d914
:040c5400bf6f8bb82b
:040c5500bf6f949445
:040c5600bf6f9d6e61
:040c5700bf6fa6467f
:040c5800bf6faf1ba0
:040c5900bf6fb7eec4
:040c5a00bf6fc0bfe9
:040c5b00bf6fc98e10
:040c5c00bf6fd25a3a
:040c5d00bf6fdb2466
:040c5e00bf6fe3eb96
:040c5f00bf6fecb0c7
:040c6000bf6ff573fa
:040c6100bf6ffe342f
:040c6200bf7006f267
:040c6300bf700faea1
:040c6400bf701867de
:040c6500bf70211f1c
:040c6600bf7029d45e
:040c6700bf703286a2
:040c6800bf703b37e7
:040c6900bf7043e530
:040c6a00bf704c917a
:040c6b00bf70553ac7
:040c6c00bf705de117
:040c6d00bf70668668
:040c6e00bf706f28bc
:040c6f00bf7077c813
:040c7000bf7080666b
:040c7100bf708902c5
:040c7200bf70919b23
:040c7300bf709a3282
:040c7400bf70a2c6e5
:040c7500bf70ab5948
:040c7600bf70b3e9af
:040c7700bf70bc7618
:040c7800bf70c50183
:040c7900bf70cd8af1
:040c7a00bf70d61160
:040c7b00bf70de95d3
:040c7c00bf70e71747
:040c7d00bf70ef97be
:040c7e00bf70f81437
:040c7f00bf71008fb2
