:040000003f8000003d
:040001003f7fffff3f
:040002003f7ffffb42
:040003003f7ffff547
:040004003f7fffec4f
:040005003f7fffe159
:040006003f7fffd465
:040007003f7fffc474
:040008003f7fffb186
:040009003f7fff9c9a
:04000a003f7fff85b0
:04000b003f7fff6bc9
:04000c003f7fff4ee5
:04000d003f7fff3002
:04000e003f7fff0e23
:04000f003f7ffeea47
:040010003f7ffec46c
:040011003f7ffe9b94
:040012003f7ffe70be
:040013003f7ffe43ea
:040014003f7ffe1319
:040015003f7ffde04c
:040016003f7ffdab80
:040017003f7ffd73b7
:040018003f7ffd39f0
:040019003f7ffcfd2c
:04001a003f7ffcbe6a
:04001b003f7ffc7daa
:04001c003f7ffc39ed
:04001d003f7ffbf234
:04001e003f7ffbaa7b
:04001f003f7ffb5ec6
:040020003f7ffb1112
:040021003f7ffac162
:040022003f7ffa6eb4
:040023003f7ffa1908
:040024003f7ff9c160
:040025003f7ff967b9
:040026003f7ff90b14
:040027003f7ff8ac73
:040028003f7ff84ad4
:040029003f7ff7e638
:04002a003f7ff7809d
:04002b003f7ff71705
:04002c003f7ff6ac70
:04002d003f7ff63edd
:04002e003f7ff5ce4d
:04002f003f7ff55bbf
:040030003f7ff4e634
:040031003f7ff46eab
:040032003f7ff3f425
:040033003f7ff377a1
:040034003f7ff2f820
:040035003f7ff277a0
:040036003f7ff1f324
:040037003f7ff16caa
:040038003f7ff0e333
:040039003f7ff058bd
:04003a003f7fefca4b
:04003b003f7fef3ada
:04003c003f7feea76d
:04003d003f7fee1201
:04003e003f7fed7a99
:04003f003f7fece033
:040040003f7fec43cf
:040041003f7feba46e
:040042003f7feb020f
:040043003f7fea5eb3
:040044003f7fe9b859
:040045003f7fe90f01
:040046003f7fe863ad
:040047003f7fe7b55b
:040048003f7fe7050a
:040049003f7fe652bd
:04004a003f7fe59d72
:04004b003f7fe4e52a
:04004c003f7fe42be3
:04004d003f7fe36ea0
:04004e003f7fe2af5f
:04004f003f7fe1ed21
:040050003f7fe129e4
:040051003f7fe062ab
:040052003f7fdf9974
:040053003f7fdece3f
:040054003f7fde000c
:040055003f7fdd2fdd
:040056003f7fdc5cb0
:040057003f7fdb8785
:040058003f7fdaaf5d
:040059003f7fd9d537
:04005a003f7fd8f814
:04005b003f7fd819f2
:04005c003f7fd737d4
:04005d003f7fd653b8
:04005e003f7fd56c9f
:04005f003f7fd48388
:040060003f7fd39774
:040061003f7fd2a962
:040062003f7fd1b952
:040063003f7fd0c645
:040064003f7fcfd13a
:040065003f7fced932
:040066003f7fcdde2d
:040067003f7fcce12a
:040068003f7fcbe229
:040069003f7fcae02b
:04006a003f7fc9dc2f
:04006b003f7fc8d536
:04006c003f7fc7cc3f
:04006d003f7fc6c14a
:04006e003f7fc5b259
:04006f003f7fc4a269
:040070003f7fc38f7c
:040071003f7fc27992
:040072003f7fc161aa
:040073003f7fc047c4
:040074003f7fbf2ae1
:040075003f7fbe0b00
:040076003f7fbce923
:040077003f7fbbc547
:040078003f7fba9e6e
:040079003f7fb97597
:04007a003f7fb849c3
:04007b003f7fb71bf1
:04007c003f7fb5ea23
:04007d003f7fb4b756
:04007e003f7fb3828b
:04007f003f7fb24ac3
:040080003f7fb10ffe
:040081003f7fafd23c
:040082003f7fae937b
:040083003f7fad51bd
:040084003f7fac0d01
:040085003f7faac649
:040086003f7fa97d92
:040087003f7fa831de
:040088003f7fa6e32d
:040089003f7fa5927e
:04008a003f7fa43fd1
:04008b003f7fa2e928
:04008c003f7fa19180
:04008d003f7fa037da
:04008e003f7f9eda38
:04008f003f7f9d7a98
:040090003f7f9c18fa
:040091003f7f9ab45f
:040092003f7f994dc6
:040093003f7f97e430
:040094003f7f96789c
:040095003f7f950a0a
:040096003f7f93997c
:040097003f7f9226ef
:040098003f7f90b165
:040099003f7f8f39dd
:04009a003f7f8dbe59
:04009b003f7f8c41d6
:04009c003f7f8ac256
:04009d003f7f8940d8
:04009e003f7f87bb5e
:04009f003f7f8634e5
:0400a0003f7f84ab6f
:0400a1003f7f831ffb
:0400a2003f7f81918a
:0400a3003f7f80001b
:0400a4003f7f7e6daf
:0400a5003f7f7cd845
:0400a6003f7f7b40dd
:0400a7003f7f79a579
:0400a8003f7f780816
:0400a9003f7f7669b6
:0400aa003f7f74c759
:0400ab003f7f7322fe
:0400ac003f7f717ba6
:0400ad003f7f6fd250
:0400ae003f7f6e26fc
:0400af003f7f6c78ab
:0400b0003f7f6ac75d
:0400b1003f7f691410
:0400b2003f7f675fc6
:0400b3003f7f65a77f
:0400b4003f7f63ec3b
:0400b5003f7f622ff8
:0400b6003f7f606fb9
:0400b7003f7f5eae7b
:0400b8003f7f5ce941
:0400b9003f7f5b2208
:0400ba003f7f5959d2
:0400bb003f7f578d9f
:0400bc003f7f55bf6e
:0400bd003f7f53ee40
:0400be003f7f521b13
:0400bf003f7f5045ea
:0400c0003f7f4e6dc3
:0400c1003f7f4c939e
:0400c2003f7f4ab67c
:0400c3003f7f48d65d
:0400c4003f7f46f440
:0400c5003f7f451024
:0400c6003f7f43290c
:0400c7003f7f4140f6
:0400c8003f7f3f54e3
:0400c9003f7f3d66d2
:0400ca003f7f3b75c4
:0400cb003f7f3982b8
:0400cc003f7f378caf
:0400cd003f7f3594a8
:0400ce003f7f339aa3
:0400cf003f7f319da1
:0400d0003f7f2f9da2
:0400d1003f7f2d9ca4
:0400d2003f7f2b97aa
:0400d3003f7f2990b2
:0400d4003f7f2787bc
:0400d5003f7f257bc9
:0400d6003f7f236dd8
:0400d7003f7f215cea
:0400d8003f7f1f49fe
:0400d9003f7f1d3414
:0400da003f7f1b1c2d
:0400db003f7f190149
:0400dc003f7f16e468
:0400dd003f7f14c588
:0400de003f7f12a3ab
:0400df003f7f107fd0
:0400e0003f7f0e58f8
:0400e1003f7f0c2f22
:0400e2003f7f0a034f
:0400e3003f7f07d57f
:0400e4003f7f05a4b1
:0400e5003f7f0371e5
:0400e6003f7f013c1b
:0400e7003f7eff0455
:0400e8003f7efcc992
:0400e9003f7efa8cd0
:0400ea003f7ef84d10
:0400eb003f7ef60b53
:0400ec003f7ef3c799
:0400ed003f7ef180e1
:0400ee003f7eef372b
:0400ef003f7eeceb79
:0400f0003f7eea9dc8
:0400f1003f7ee84c1a
:0400f2003f7ee5f96f
:0400f3003f7ee3a4c5
:0400f4003f7ee14c1e
:0400f5003f7edef27a
:0400f6003f7edc95d8
:0400f7003f7eda3539
:0400f8003f7ed7d49c
:0400f9003f7ed56f02
:0400fa003f7ed30969
:0400fb003f7ed0a0d4
:0400fc003f7ece3441
:0400fd003f7ecbc6b1
:0400fe003f7ec95523
:0400ff003f7ec6e397
:040100003f7ec46d0d
:040101003f7ec1f587
:040102003f7ebf7b02
:040103003f7ebcfe81
:040104003f7eba7f01
:040105003f7eb7fd85
:040106003f7eb5790a
:040107003f7eb2f293
:040108003f7eb0691d
:040109003f7eaddeaa
:04010a003f7eab5039
:04010b003f7ea8c0cb
:04010c003f7ea62d5f
:04010d003f7ea397f7
:04010e003f7ea1008f
:04010f003f7e9e652c
:040110003f7e9bc9ca
:040111003f7e99296b
:040112003f7e96880e
:040113003f7e93e4b4
:040114003f7e913d5c
:040115003f7e8e9407
:040116003f7e8be9b4
:040117003f7e893b63
:040118003f7e868b15
:040119003f7e83d8ca
:04011a003f7e812380
:04011b003f7e7e6b3a
:04011c003f7e7bb1f6
:04011d003f7e78f4b5
:04011e003f7e763575
:04011f003f7e737438
:040120003f7e70b0fe
:040121003f7e6deac6
:040122003f7e6b2190
:040123003f7e68555e
:040124003f7e65882d
:040125003f7e62b700
:040126003f7e5fe5d4
:040127003f7e5d10aa
:040128003f7e5a3884
:040129003f7e575e60
:04012a003f7e54823e
:04012b003f7e51a31f
:04012c003f7e4ec103
:04012d003f7e4bdee8
:04012e003f7e48f7d1
:04012f003f7e460fba
:040130003f7e4323a8
:040131003f7e403697
:040132003f7e3d4689
:040133003f7e3a537e
:040134003f7e375e75
:040135003f7e34676e
:040136003f7e316d6a
:040137003f7e2e7168
:040138003f7e2b7269
:040139003f7e28716c
:04013a003f7e256d72
:04013b003f7e22677a
:04013c003f7e1f5e85
:04013d003f7e1c5392
:04013e003f7e1946a1
:04013f003f7e1636b3
:040140003f7e1324c7
:040141003f7e100fde
:040142003f7e0cf7f9
:040143003f7e09de14
:040144003f7e06c232
:040145003f7e03a353
:040146003f7e008276
:040147003f7dfd5e9d
:040148003f7dfa38c5
:040149003f7df710ef
:04014a003f7df3e51d
:04014b003f7df0b84c
:04014c003f7ded887e
:04014d003f7dea56b2
:04014e003f7de721e9
:04014f003f7de3ea23
:040150003f7de0b15e
:040151003f7ddd759c
:040152003f7dda36dd
:040153003f7dd6f521
:040154003f7dd3b266
:040155003f7dd06cae
:040156003f7dcd24f8
:040157003f7dc9da45
:040158003f7dc68c95
:040159003f7dc33de6
:04015a003f7dbfeb3b
:04015b003f7dbc9692
:04015c003f7db940ea
:04015d003f7db5e647
:04015e003f7db28aa5
:04015f003f7daf2c05
:040160003f7dabcc68
:040161003f7da868ce
:040162003f7da50335
:040163003f7da19ba0
:040164003f7d9e300d
:040165003f7d9ac47c
:040166003f7d9754ee
:040167003f7d93e263
:040168003f7d906ed9
:040169003f7d8cf852
:04016a003f7d897ece
:04016b003f7d86034b
:04016c003f7d8285cc
:04016d003f7d7f044f
:04016e003f7d7b82d4
:04016f003f7d77fc5d
:040170003f7d7474e7
:040171003f7d70ea74
:040172003f7d6d5e02
:040173003f7d69ce95
:040174003f7d663d28
:040175003f7d62a9bf
:040176003f7d5f1357
:040177003f7d5b7af3
:040178003f7d57de92
:040179003f7d544131
:04017a003f7d50a0d5
:04017b003f7d4cfe7a
:04017c003f7d495921
:04017d003f7d45b1cc
:04017e003f7d420778
:04017f003f7d3e5b27
:040180003f7d3aacd9
:040181003f7d36fb8d
:040182003f7d334743
:040183003f7d2f91fc
:040184003f7d2bd8b8
:040185003f7d281d75
:040186003f7d246035
:040187003f7d20a0f8
:040188003f7d1cddbe
:040189003f7d191984
:04018a003f7d15514f
:04018b003f7d11881b
:04018c003f7d0dbcea
:04018d003f7d09edbc
:04018e003f7d061c8f
:04018f003f7d024965
:040190003f7cfe733f
:040191003f7cfa9a1b
:040192003f7cf6c0f8
:040193003f7cf2e2d9
:040194003f7cef03ba
:040195003f7ceb219f
:040196003f7ce73c87
:040197003f7ce35571
:040198003f7cdf6c5d
:040199003f7cdb804c
:04019a003f7cd7923d
:04019b003f7cd3a131
:04019c003f7ccfae27
:04019d003f7ccbb820
:04019e003f7cc7c01b
:04019f003f7cc3c618
:0401a0003f7cbfc918
:0401a1003f7cbbca1a
:0401a2003f7cb7c81f
:0401a3003f7cb3c426
:0401a4003f7cafbd30
:0401a5003f7cabb43c
:0401a6003f7ca7a94a
:0401a7003f7ca39b5b
:0401a8003f7c9f8a6f
:0401a9003f7c9b7884
:0401aa003f7c97629d
:0401ab003f7c934bb7
:0401ac003f7c8f31d4
:0401ad003f7c8b14f4
:0401ae003f7c86f517
:0401af003f7c82d43b
:0401b0003f7c7eb062
:0401b1003f7c7a8a8b
:0401b2003f7c7661b7
:0401b3003f7c7236e5
:0401b4003f7c6e0816
:0401b5003f7c69d84a
:0401b6003f7c65a67f
:0401b7003f7c6171b7
:0401b8003f7c5d3af1
:0401b9003f7c59002e
:0401ba003f7c54c46e
:0401bb003f7c5085b0
:0401bc003f7c4c44f4
:0401bd003f7c48013a
:0401be003f7c43bb84
:0401bf003f7c3f73cf
:0401c0003f7c3b281d
:0401c1003f7c36db6e
:0401c2003f7c328bc1
:0401c3003f7c2e3916
:0401c4003f7c29e56e
:0401c5003f7c258ec8
:0401c6003f7c213425
:0401c7003f7c1cd984
:0401c8003f7c187ae6
:0401c9003f7c141a49
:0401ca003f7c0fb7b0
:0401cb003f7c0b5119
:0401cc003f7c06e985
:0401cd003f7c027ff2
:0401ce003f7bfe1263
:0401cf003f7bf9a3d6
:0401d0003f7bf5314b
:0401d1003f7bf0bdc3
:0401d2003f7bec473c
:0401d3003f7be7ceb9
:0401d4003f7be35337
:0401d5003f7bded5b9
:0401d6003f7bda553c
:0401d7003f7bd5d2c3
:0401d8003f7bd14d4b
:0401d9003f7bccc5d7
:0401da003f7bc83b64
:0401db003f7bc3aff4
:0401dc003f7bbf2086
:0401dd003f7bba8f1b
:0401de003f7bb5fcb2
:0401df003f7bb1664b
:0401e0003f7baccde8
:0401e1003f7ba83286
:0401e2003f7ba39527
:0401e3003f7b9ef5cb
:0401e4003f7b9a5370
:0401e5003f7b95ae19
:0401e6003f7b9107c3
:0401e7003f7b8c5e70
:0401e8003f7b87b220
:0401e9003f7b8304d1
:0401ea003f7b7e5386
:0401eb003f7b79a03d
:0401ec003f7b74eaf7
:0401ed003f7b7032b2
:0401ee003f7b6b7870
:0401ef003f7b66bb31
:0401f0003f7b61fcf4
:0401f1003f7b5d3ab9
:0401f2003f7b587681
:0401f3003f7b53b04b
:0401f4003f7b4ee718
:0401f5003f7b4a1be7
:0401f6003f7b454eb8
:0401f7003f7b407d8d
:0401f8003f7b3bab63
:0401f9003f7b36d63c
:0401fa003f7b31fe18
:0401fb003f7b2d24f5
:0401fc003f7b2848d5
:0401fd003f7b2369b8
:0401fe003f7b1e889d
:0401ff003f7b19a485
:040200003f7b14be6e
:040201003f7b0fd65a
:040202003f7b0aeb49
:040203003f7b05fe3a
:040204003f7b010e2d
:040205003f7afc1c24
:040206003f7af7281c
:040207003f7af23117
:040208003f7aed3715
:040209003f7ae83c14
:04020a003f7ae33d17
:04020b003f7ade3d1b
:04020c003f7ad93a22
:04020d003f7ad4342c
:04020e003f7acf2d37
:04020f003f7aca2246
:040210003f7ac51656
:040211003f7ac0066a
:040212003f7abaf580
:040213003f7ab5e198
:040214003f7ab0cbb2
:040215003f7aabb2cf
:040216003f7aa697ee
:040217003f7aa17910
:040218003f7a9c5934
:040219003f7a97375a
:04021a003f7a921283
:04021b003f7a8ceab0
:04021c003f7a87c1dd
:04021d003f7a82950d
:04021e003f7a7d6640
:04021f003f7a783575
:040220003f7a7302ac
:040221003f7a6dcce7
:040222003f7a689423
:040223003f7a635962
:040224003f7a5e1ca3
:040225003f7a58dde7
:040226003f7a539b2d
:040227003f7a4e5775
:040228003f7a4910c0
:040229003f7a43c70e
:04022a003f7a3e7c5d
:04022b003f7a392eaf
:04022c003f7a33dd05
:04022d003f7a2e8b5b
:04022e003f7a2936b4
:04022f003f7a23de11
:040230003f7a1e846f
:040231003f7a1928cf
:040232003f7a13c933
:040233003f7a0e6898
:040234003f7a090400
:040235003f7a039e6b
:040236003f79fe36d8
:040237003f79f8cb48
:040238003f79f35eb9
:040239003f79edee2e
:04023a003f79e87ca4
:04023b003f79e3081c
:04023c003f79dd9198
:04023d003f79d81815
:04023e003f79d29c96
:04023f003f79cd1e18
:040240003f79c79d9e
:040241003f79c21a25
:040242003f79bc95af
:040243003f79b70d3b
:040244003f79b183ca
:040245003f79abf75b
:040246003f79a668ee
:040247003f79a0d784
:040248003f799b431c
:040249003f7995adb7
:04024a003f79901454
:04024b003f798a79f4
:04024c003f7984dc96
:04024d003f797f3c3a
:04024e003f79799ae1
:04024f003f7973f58b
:040250003f796e4e36
:040251003f7968a5e4
:040252003f7962f995
:040253003f795d4b47
:040254003f79579afd
:040255003f7951e7b5
:040256003f794c326e
:040257003f79467a2b
:040258003f7940c0ea
:040259003f793b03ab
:04025a003f7935446f
:04025b003f792f8335
:04025c003f7929bffe
:04025d003f7923f9c9
:04025e003f791e3096
:04025f003f79186566
:040260003f79129838
:040261003f790cc80d
:040262003f7906f6e4
:040263003f790121bd
:040264003f78fb4a9a
:040265003f78f57178
:040266003f78ef9559
:040267003f78e9b73c
:040268003f78e3d622
:040269003f78ddf30a
:04026a003f78d80ef3
:04026b003f78d226e0
:04026c003f78cc3bd0
:04026d003f78c64fc1
:04026e003f78c060b5
:04026f003f78ba6eac
:040270003f78b47ba4
:040271003f78ae84a0
:040272003f78a88c9d
:040273003f78a2919d
:040274003f789c93a0
:040275003f789694a4
:040276003f789091ac
:040277003f788a8db5
:040278003f788486c1
:040279003f787e7dcf
:04027a003f787871e0
:04027b003f787263f3
:04027c003f786c5209
:04027d003f78663f21
:04027e003f78602a3b
:04027f003f785a1258
:040280003f7853f878
:040281003f784ddb9a
:040282003f7847bcbe
:040283003f78419be4
:040284003f783b770d
:040285003f78355138
:040286003f782f2965
:040287003f7828fe96
:040288003f7822d1c8
:040289003f781ca1fd
:04028a003f78166f34
:04028b003f78103a6e
:04028c003f780a04a9
:04028d003f7803cae9
:04028e003f77fd8f2a
:04028f003f77f7516d
:040290003f77f110b3
:040291003f77eacefb
:040292003f77e48846
:040293003f77de4192
:040294003f77d7f7e2
:040295003f77d1ab33
:040296003f77cb5c87
:040297003f77c50bdd
:040298003f77beb737
:040299003f77b86192
:04029a003f77b209ef
:04029b003f77abae50
:04029c003f77a551b2
:04029d003f779ef217
:04029e003f7798907e
:04029f003f77922ce7
:0402a0003f778bc554
:0402a1003f77855cc2
:0402a2003f777ef133
:0402a3003f777883a6
:0402a4003f7772131b
:0402a5003f776ba094
:0402a6003f77652b0e
:0402a7003f775eb48b
:0402a8003f77583a0a
:0402a9003f7751be8c
:0402aa003f774b400f
:0402ab003f7744bf96
:0402ac003f773e3c1e
:0402ad003f7737b6aa
:0402ae003f77312e37
:0402af003f772aa4c7
:0402b0003f77241759
:0402b1003f771d88ee
:0402b2003f7716f686
:0402b3003f7710631e
:0402b4003f7709ccbb
:0402b5003f77033458
:0402b6003f76fc99fa
:0402b7003f76f5fb9e
:0402b8003f76ef5b43
:0402b9003f76e8b9eb
:0402ba003f76e21594
:0402bb003f76db6e41
:0402bc003f76d4c4f1
:0402bd003f76ce19a1
:0402be003f76c76b55
:0402bf003f76c0ba0c
:0402c0003f76ba07c4
:0402c1003f76b3527f
:0402c2003f76ac9a3d
:0402c3003f76a5e0fd
:0402c4003f769f24be
:0402c5003f76986583
:0402c6003f7691a44a
:0402c7003f768ae113
:0402c8003f76841bde
:0402c9003f767d53ac
:0402ca003f7676887d
:0402cb003f766fbb50
:0402cc003f7668ec25
:0402cd003f76621afc
:0402ce003f765b46d6
:0402cf003f76546fb3
:0402d0003f764d9791
:0402d1003f7646bb73
:0402d2003f763fde56
:0402d3003f7638fe3c
:0402d4003f76321b24
:0402d5003f762b370e
:0402d6003f762450fb
:0402d7003f761d66eb
:0402d8003f76167add
:0402d9003f760f8cd1
:0402da003f76089cc7
:0402db003f7601a9c0
:0402dc003f75fab3bd
:0402dd003f75f3bcba
:0402de003f75ecc2ba
:0402df003f75e5c5bd
:0402e0003f75dec6c2
:0402e1003f75d7c5c9
:0402e2003f75d0c2d2
:0402e3003f75c9bcde
:0402e4003f75c2b3ed
:0402e5003f75bba9fd
:0402e6003f75b49c10
:0402e7003f75ad8c26
:0402e8003f75a67b3d
:0402e9003f759f6658
:0402ea003f75985074
:0402eb003f75913793
:0402ec003f758a1cb4
:0402ed003f7582fed9
:0402ee003f757bdeff
:0402ef003f7574bc27
:0402f0003f756d9752
:0402f1003f7566707f
:0402f2003f755f47ae
:0402f3003f75581be0
:0402f4003f7550ed15
:0402f5003f7549bc4c
:0402f6003f75428985
:0402f7003f753b54c0
:0402f8003f75341dfd
:0402f9003f752ce33e
:0402fa003f7525a681
:0402fb003f751e68c5
:0402fc003f7517270c
:0402fd003f750fe357
:0402fe003f75089da3
:0402ff003f750155f1
:040300003f74fa0b41
:040301003f74f2be95
:040302003f74eb6fea
:040303003f74e41d42
:040304003f74dcc99d
:040305003f74d573f9
:040306003f74ce1a58
:040307003f74c6bfba
:040308003f74bf621d
:040309003f74b80283
:04030a003f74b0a0ec
:04030b003f74a93b57
:04030c003f74a1d5c4
:04030d003f749a6b34
:04030e003f749300a5
:04030f003f748b921a
:040310003f74842290
:040311003f747caf0a
:040312003f74753a85
:040313003f746dc303
:040314003f74664983
:040315003f745ecd06
:040316003f74574f8a
:040317003f744fce12
:040318003f74484b9b
:040319003f7440c528
:04031a003f74393eb5
:04031b003f7431b347
:04031c003f742a27d9
:04031d003f7422986f
:04031e003f741b0706
:04031f003f741373a1
:040320003f740bdd3e
:040321003f740445dc
:040322003f73fcaa7f
:040323003f73f50d22
:040324003f73ed6ec8
:040325003f73e5cc71
:040326003f73de281b
:040327003f73d682c8
:040328003f73ced978
:040329003f73c72e29
:04032a003f73bf81dd
:04032b003f73b7d194
:04032c003f73b01f4c
:04032d003f73a86a08
:04032e003f73a0b4c5
:04032f003f7398fa86
:040330003f73913f47
:040331003f7389810c
:040332003f7381c1d3
:040333003f7379fe9d
:040334003f73723968
:040335003f736a7236
:040336003f7362a807
:040337003f735adcda
:040338003f73530eae
:040339003f734b3e85
:04033a003f73436b5f
:04033b003f733b953c
:04033c003f7333be1a
:04033d003f732be4fb
:04033e003f732407de
:04033f003f731c28c4
:040340003f731447ac
:040341003f730c6496
:040342003f73047e83
:040343003f72fc9673
:040344003f72f4ac64
:040345003f72ecbf58
:040346003f72e4d04e
:040347003f72dcde47
:040348003f72d4eb41
:040349003f72ccf53e
:04034a003f72c4fc3e
:04034b003f72bd013f
:04034c003f72b50443
:04034d003f72ad0549
:04034e003f72a50352
:04034f003f729cff5e
:040350003f7294f86c
:040351003f728cef7c
:040352003f7284e48e
:040353003f727cd7a2
:040354003f7274c7b9
:040355003f726cb5d2
:040356003f7264a0ee
:040357003f725c890c
:040358003f7254702c
:040359003f724c544f
:04035a003f72443773
:04035b003f723c169b
:04035c003f7233f4c5
:04035d003f722bcff1
:04035e003f7223a81f
:04035f003f721b7e50
:040360003f72135283
:040361003f720b24b8
:040362003f7202f4f0
:040363003f71fac12b
:040364003f71f28c67
:040365003f71ea54a6
:040366003f71e21ae7
:040367003f71d9de2b
:040368003f71d19f71
:040369003f71c95fb8
:04036a003f71c11b03
:04036b003f71b8d650
:04036c003f71b08e9f
:04036d003f71a844f0
:04036e003f719ff745
:04036f003f7197a89b
:040370003f718f57f3
:040371003f7187044d
:040372003f717eaeab
:040373003f7176560a
:040374003f716dfb6d
:040375003f71659fd0
:040376003f715d3f37
:040377003f7154dea0
:040378003f714c7a0b
:040379003f71441478
:04037a003f713bace8
:04037b003f7133415a
:04037c003f712ad4cf
:04037d003f71226446
:04037e003f7119f3bf
:04037f003f71117f3a
:040380003f710908b8
:040381003f71008f39
:040382003f70f814bc
:040383003f70ef9741
:040384003f70e717c8
:040385003f70de9552
:040386003f70d611dd
:040387003f70cd8a6c
:040388003f70c501fc
:040389003f70bc768f
:04038a003f70b3e924
:04038b003f70ab59bb
:04038c003f70a2c656
:04038d003f709a32f1
:04038e003f70919b90
:04038f003f70890230
:040390003f708066d4
:040391003f7077c87a
:040392003f706f2821
:040393003f706686cb
:040394003f705de178
:040395003f70553a26
:040396003f704c91d7
:040397003f7043e58b
:040398003f703b3740
:040399003f703286f9
:04039a003f7029d4b3
:04039b003f70211f6f
:04039c003f7018672f
:04039d003f700faef0
:04039e003f7006f2b4
:04039f003f6ffe347a
:0403a0003f6ff57343
:0403a1003f6fecb00e
:0403a2003f6fe3ebdb
:0403a3003f6fdb24a9
:0403a4003f6fd25a7b
:0403a5003f6fc98e4f
:0403a6003f6fc0bf26
:0403a7003f6fb7eeff
:0403a8003f6faf1bd9
:0403a9003f6fa646b6
:0403aa003f6f9d6e96
:0403ab003f6f949478
:0403ac003f6f8bb85c
:0403ad003f6f82d943
:0403ae003f6f79f82c
:0403af003f6f711516
:0403b0003f6f683003
:0403b1003f6f5f48f3
:0403b2003f6f565ee5
:0403b3003f6f4d71da
:0403b4003f6f4483d0
:0403b5003f6f3b92c9
:0403b6003f6f329ec5
:0403b7003f6f29a8c3
:0403b8003f6f20b0c3
:0403b9003f6f17b6c5
:0403ba003f6f0ebac9
:0403bb003f6f05bbd0
:0403bc003f6efcbada
:0403bd003f6ef3b6e6
:0403be003f6eeab0f4
:0403bf003f6ee1a804
:0403c0003f6ed89e16
:0403c1003f6ecf912b
:0403c2003f6ec68242
:0403c3003f6ebd715b
:0403c4003f6eb45d77
:0403c5003f6eab4795
:0403c6003f6ea22fb5
:0403c7003f6e9914d8
:0403c8003f6e8ff8fd
:0403c9003f6e86d825
:0403ca003f6e7db74e
:0403cb003f6e74937a
:0403cc003f6e6b6da8
:0403cd003f6e6245d8
:0403ce003f6e591a0b
:0403cf003f6e4fee40
:0403d0003f6e46be78
:0403d1003f6e3d8db1
:0403d2003f6e3459ed
:0403d3003f6e2b232b
:0403d4003f6e21eb6c
:0403d5003f6e18b0af
:0403d6003f6e0f73f4
:0403d7003f6e06343b
:0403d8003f6dfcf287
:0403d9003f6df3aed3
:0403da003f6dea6821
:0403db003f6de12071
:0403dc003f6dd7d5c5
:0403dd003f6dce881a
:0403de003f6dc53971
:0403df003f6dbbe7cc
:0403e0003f6db29328
:0403e1003f6da93d86
:0403e2003f6d9fe4e8
:0403e3003f6d968a4a
:0403e4003f6d8d2daf
:0403e5003f6d83cd18
:0403e6003f6d7a6c81
:0403e7003f6d7108ed
:0403e8003f6d67a15d
:0403e9003f6d5e39cd
:0403ea003f6d54ce41
:0403eb003f6d4b61b6
:0403ec003f6d41f22e
:0403ed003f6d3880a8
:0403ee003f6d2f0c24
:0403ef003f6d2596a3
:0403f0003f6d1c1d24
:0403f1003f6d12a2a8
:0403f2003f6d09252d
:0403f3003f6cffa6b6
:0403f4003f6cf62440
:0403f5003f6ceca0cd
:0403f6003f6ce31a5b
:0403f7003f6cd992ec
:0403f8003f6cd0077f
:0403f9003f6cc67a15
:0403fa003f6cbceaae
:0403fb003f6cb35947
:0403fc003f6ca9c5e4
:0403fd003f6ca02f82
:0403fe003f6c969624
:0403ff003f6c8cfcc7
:040400003f6c835e6c
:040401003f6c79bf14
:040402003f6c701ebd
:040403003f6c667a6a
:040404003f6c5cd419
:040405003f6c532bca
:040406003f6c49807e
:040407003f6c3fd334
:040408003f6c3624eb
:040409003f6c2c73a5
:04040a003f6c22bf62
:04040b003f6c190920
:04040c003f6c0f50e2
:04040d003f6c0596a5
:04040e003f6bfbd96c
:04040f003f6bf21a33
:040410003f6be858fe
:040411003f6bde94cb
:040412003f6bd4ce9a
:040413003f6bcb066a
:040414003f6bc13b3e
:040415003f6bb76f13
:040416003f6bada0eb
:040417003f6ba3cec6
:040418003f6b99fba2
:040419003f6b902580
:04041a003f6b864c62
:04041b003f6b7c7245
:04041c003f6b72952b
:04041d003f6b68b613
:04041e003f6b5ed5fd
:04041f003f6b54f1ea
:040420003f6b4b0cd7
:040421003f6b4124c8
:040422003f6b3739bc
:040423003f6b2d4db1
:040424003f6b235ea9
:040425003f6b196da3
:040426003f6b0f79a0
:040427003f6b05849e
:040428003f6afb8ca0
:040429003f6af191a4
:04042a003f6ae795a9
:04042b003f6add96b1
:04042c003f6ad395bb
:04042d003f6ac992c7
:04042e003f6abf8cd6
:04042f003f6ab585e6
:040430003f6aab7bf9
:040431003f6aa16e0f
:040432003f6a976026
:040433003f6a8d4f40
:040434003f6a833c5c
:040435003f6a79267b
:040436003f6a6f0f9b
:040437003f6a64f5bf
:040438003f6a5ad9e4
:040439003f6a50ba0c
:04043a003f6a469a35
:04043b003f6a3c7761
:04043c003f6a32528f
:04043d003f6a282ac0
:04043e003f6a1e01f2
:04043f003f6a13d528
:040440003f6a09a75f
:040441003f69ff769a
:040442003f69f543d6
:040443003f69eb0e14
:040444003f69e0d755
:040445003f69d69e97
:040446003f69cc62dc
:040447003f69c22423
:040448003f69b7e46d
:040449003f69ada1b9
:04044a003f69a35d06
:04044b003f69991656
:04044c003f698eccaa
:04044d003f698481fe
:04044e003f697a3355
:04044f003f696fe3af
:040450003f6965910a
:040451003f695b3d67
:040452003f6950e6c8
:040453003f69468d2a
:040454003f693c328e
:040455003f6931d4f6
:040456003f6927745f
:040457003f691d12ca
:040458003f6912ae38
:040459003f690848a7
:04045a003f68fddf1b
:04045b003f68f3748f
:04045c003f68e90705
:04045d003f68de977f
:04045e003f68d426f9
:04045f003f68c9b277
:040460003f68bf3cf6
:040461003f68b4c379
:040462003f68aa49fc
:040463003f689fcc83
:040464003f68954c0c
:040465003f688acb97
:040466003f68804724
:040467003f6875c2b3
:040468003f686b3945
:040469003f6860afd9
:04046a003f6856236e
:04046b003f684b9407
:04046c003f684103a1
:04046d003f68366f3f
:04046e003f682bdade
:04046f003f6821427f
:040470003f6816a823
:040471003f680c0cc8
:040472003f68016d71
:040473003f67f6cc1d
:040474003f67ec29c9
:040475003f67e18478
:040476003f67d6dd29
:040477003f67cc33dc
:040478003f67c18792
:040479003f67b6d94a
:04047a003f67ac2903
:04047b003f67a176c0
:04047c003f6796c17f
:04047d003f678c0a3f
:04047e003f67815102
:04047f003f677695c8
:040480003f676bd88f
:040481003f67611858
:040482003f67565525
:040483003f674b91f3
:040484003f6740cac4
:040485003f67360196
:040486003f672b366b
:040487003f67206942
:040488003f6715991c
:040489003f670ac7f8
:04048a003f66fff3d7
:04048b003f66f51db6
:04048c003f66ea4598
:04048d003f66df6a7d
:04048e003f66d48d64
:04048f003f66c9ae4d
:040490003f66becc39
:040491003f66b3e926
:040492003f66a90315
:040493003f669e1b07
:040494003f669330fc
:040495003f668844f2
:040496003f667d55eb
:040497003f667264e6
:040498003f666771e3
:040499003f665c7ce2
:04049a003f665184e4
:04049b003f66468ae8
:04049c003f663b8eee
:04049d003f663090f6
:04049e003f66258f01
:04049f003f661a8d0d
:0404a0003f660f881c
:0404a1003f6604802e
:0404a2003f65f97742
:0404a3003f65ee6c57
:0404a4003f65e35e6f
:0404a5003f65d84e89
:0404a6003f65cd3ba6
:0404a7003f65c227c4
:0404a8003f65b710e5
:0404a9003f65abf709
:0404aa003f65a0dc2e
:0404ab003f6595bf55
:0404ac003f658aa07e
:0404ad003f657f7eaa
:0404ae003f65745ad8
:0404af003f65693408
:0404b0003f655e0b3b
:0404b1003f6552e170
:0404b2003f6547b4a7
:0404b3003f653c85e0
:0404b4003f6531541b
:0404b5003f65262059
:0404b6003f651aeb99
:0404b7003f650fb3db
:0404b8003f6504791f
:0404b9003f64f93d66
:0404ba003f64edfeb0
:0404bb003f64e2bdfb
:0404bc003f64d77b47
:0404bd003f64cc3597
:0404be003f64c0eee9
:0404bf003f64b5a53c
:0404c0003f64aa5992
:0404c1003f649f0bea
:0404c2003f6493bb45
:0404c3003f648869a1
:0404c4003f647d1400
:0404c5003f6471be61
:0404c6003f646665c4
:0404c7003f645b0a29
:0404c8003f644fac92
:0404c9003f64444dfb
:0404ca003f6438eb68
:0404cb003f642d87d6
:0404cc003f64222146
:0404cd003f6416b9b9
:0404ce003f640b4e2e
:0404cf003f63ffe1a7
:0404d0003f63f4731f
:0404d1003f63e9019b
:0404d2003f63dd8e19
:0404d3003f63d21998
:0404d4003f63c6a11b
:0404d5003f63bb279f
:0404d6003f63afab26
:0404d7003f63a42dae
:0404d8003f6398ac3a
:0404d9003f638d2ac6
:0404da003f6381a556
:0404db003f63761ee7
:0404dc003f636a957b
:0404dd003f635f0911
:0404de003f63537baa
:0404df003f6347ec44
:0404e0003f633c5ae0
:0404e1003f6330c580
:0404e2003f63252f20
:0404e3003f631996c4
:0404e4003f630dfc69
:0404e5003f63025f10
:0404e6003f62f6c0bb
:0404e7003f62eb1e67
:0404e8003f62df7b15
:0404e9003f62d3d5c6
:0404ea003f62c82d78
:0404eb003f62bc832d
:0404ec003f62b0d7e4
:0404ed003f62a5289d
:0404ee003f62997858
:0404ef003f628dc516
:0404f0003f628210d5
:0404f1003f62765997
:0404f2003f626aa05b
:0404f3003f625ee422
:0404f4003f625326ea
:0404f5003f624766b5
:0404f6003f623ba482
:0404f7003f622fe051
:0404f8003f62241a21
:0404f9003f621851f5
:0404fa003f620c86cb
:0404fb003f6200b9a3
:0404fc003f61f4ea7e
:0404fd003f61e91959
:0404fe003f61dd4538
:0404ff003f61d16f19
:040500003f61c598fa
:040501003f61b9bedf
:040502003f61ade1c7
:040503003f61a203af
:040504003f6196229b
:040505003f618a4088
:040506003f617e5b78
:040507003f6172746a
:040508003f61668a5f
:040509003f615a9f55
:04050a003f614eb14e
:04050b003f6142c149
:04050c003f6136d045
:04050d003f612adb45
:04050e003f611ee546
:04050f003f6112ed49
:040510003f6106f24f
:040511003f60faf558
:040512003f60eef662
:040513003f60e2f56e
:040514003f60d6f27c
:040515003f60caec8d
:040516003f60bee59f
:040517003f60b2dbb4
:040518003f60a6cfcb
:040519003f609ac1e4
:04051a003f608eb000
:04051b003f60829e1d
:04051c003f6076893d
:04051d003f606a735e
:04051e003f605e5a82
:04051f003f60523ea9
:040520003f604621d1
:040521003f603a02fb
:040522003f602de029
:040523003f6021bc58
:040524003f60159689
:040525003f60096ebc
:040526003f5ffd44f2
:040527003f5ff11829
:040528003f5fe4e964
:040529003f5fd8b8a0
:04052a003f5fcc86dd
:04052b003f5fc0511d
:04052c003f5fb41960
:04052d003f5fa7e0a5
:04052e003f5f9ba5eb
:04052f003f5f8f6734
:040530003f5f83277f
:040531003f5f76e5cd
:040532003f5f6aa11c
:040533003f5f5e5b6d
:040534003f5f5212c1
:040535003f5f45c817
:040536003f5f397b6f
:040537003f5f2d2cc9
:040538003f5f20db26
:040539003f5f148884
:04053a003f5f0833e4
:04053b003f5efbdb49
:04053c003f5eef81ae
:04053d003f5ee32614
:04053e003f5ed6c87e
:04053f003f5eca68e9
:040540003f5ebe0557
:040541003f5eb1a1c7
:040542003f5ea53a39
:040543003f5e98d2ad
:040544003f5e8c6723
:040545003f5e7ffa9c
:040546003f5e738b16
:040547003f5e671a92
:040548003f5e5aa612
:040549003f5e4e3192
:04054a003f5e41b916
:04054b003f5e353f9b
:04054c003f5e28c323
:04054d003f5e1c45ac
:04054e003f5e0fc538
:04054f003f5e0343c5
:040550003f5df6be57
:040551003f5dea37e9
:040552003f5dddaf7d
:040553003f5dd12413
:040554003f5dc497ac
:040555003f5db80747
:040556003f5dab76e4
:040557003f5d9ee383
:040558003f5d924d24
:040559003f5d85b5c8
:04055a003f5d791b6d
:04055b003f5d6c7f15
:04055c003f5d5fe1bf
:04055d003f5d53416a
:04055e003f5d469e19
:04055f003f5d39fac9
:040560003f5d2d537b
:040561003f5d20aa30
:040562003f5d13ffe7
:040563003f5d07529f
:040564003f5cfaa35b
:040565003f5cedf218
:040566003f5ce13ed7
:040567003f5cd48998
:040568003f5cc7d15c
:040569003f5cbb1721
:04056a003f5cae5be9
:04056b003f5ca19db3
:04056c003f5c94dd7f
:04056d003f5c881a4d
:04056e003f5c7b561d
:04056f003f5c6e8ff0
:040570003f5c61c7c4
:040571003f5c54fc9b
:040572003f5c482f73
:040573003f5c3b604e
:040574003f5c2e8e2c
:040575003f5c21bb0b
:040576003f5c14e6ec
:040577003f5c080ecf
:040578003f5bfb34b6
:040579003f5bee589e
:04057a003f5be17a88
:04057b003f5bd49a74
:04057c003f5bc7b862
:04057d003f5bbad452
:04057e003f5baded45
:04057f003f5ba10538
:040580003f5b941a2f
:040581003f5b872d28
:040582003f5b7a3e23
:040583003f5b6d4d20
:040584003f5b605a1f
:040585003f5b536520
:040586003f5b466e23
:040587003f5b397429
:040588003f5b2c7930
:040589003f5b1f7b3a
:04058a003f5b127b46
:04058b003f5b057954
:04058c003f5af87565
:04058d003f5aeb6f77
:04058e003f5ade678b
:04058f003f5ad15ca2
:040590003f5ac450ba
:040591003f5ab741d5
:040592003f5aaa31f1
:040593003f5a9d1e10
:040594003f5a900931
:040595003f5a82f255
:040596003f5a75d97a
:040597003f5a68bea1
:040598003f5a5ba0cb
:040599003f5a4e81f6
:04059a003f5a415f24
:04059b003f5a343c53
:04059c003f5a271685
:04059d003f5a19eeba
:04059e003f5a0cc4f0
:04059f003f59ff9829
:0405a0003f59f26a63
:0405a1003f59e53a9f
:0405a2003f59d807de
:0405a3003f59cad31f
:0405a4003f59bd9c62
:0405a5003f59b064a6
:0405a6003f59a329ed
:0405a7003f5995ec37
:0405a8003f5988ad82
:0405a9003f597b6ccf
:0405aa003f596e291e
:0405ab003f5960e470
:0405ac003f59539cc4
:0405ad003f59465319
:0405ae003f59390870
:0405af003f592bbacb
:0405b0003f591e6a27
:0405b1003f59111885
:0405b2003f5903c5e5
:0405b3003f58f66f48
:0405b4003f58e916ad
:0405b5003f58dbbc14
:0405b6003f58ce607c
:0405b7003f58c102e6
:0405b8003f58b3a154
:0405b9003f58a63fc2
:0405ba003f5898da34
:0405bb003f588b74a6
:0405bc003f587e0b1b
:0405bd003f5870a093
:0405be003f5863330c
:0405bf003f5855c488
:0405c0003f58485305
:0405c1003f583ae085
:0405c2003f582d6a07
:0405c3003f581ff38b
:0405c4003f58127911
:0405c5003f5804fe99
:0405c6003f57f78024
:0405c7003f57ea01af
:0405c8003f57dc7f3e
:0405c9003f57cefbcf
:0405ca003f57c17561
:0405cb003f57b3edf6
:0405cc003f57a6638c
:0405cd003f5798d725
:0405ce003f578b48c0
:0405cf003f577db85d
:0405d0003f577026fb
:0405d1003f5762919d
:0405d2003f5754fb40
:0405d3003f574762e5
:0405d4003f5739c78d
:0405d5003f572c2a36
:0405d6003f571e8ce1
:0405d7003f5710eb8f
:0405d8003f5703483e
:0405d9003f56f5a3f1
:0405da003f56e7fba6
:0405db003f56da525b
:0405dc003f56cca713
:0405dd003f56bef9ce
:0405de003f56b14a89
:0405df003f56a39947
:0405e0003f5695e508
:0405e1003f56882fca
:0405e2003f567a788e
:0405e3003f566cbe55
:0405e4003f565f021d
:0405e5003f565144e8
:0405e6003f564384b5
:0405e7003f5635c284
:0405e8003f5627fe55
:0405e9003f561a3827
:0405ea003f560c70fc
:0405eb003f55fea5d5
:0405ec003f55f0d9ae
:0405ed003f55e30a89
:0405ee003f55d53a66
:0405ef003f55c76746
:0405f0003f55b99327
:0405f1003f55abbc0b
:0405f2003f559de3f1
:0405f3003f559009d7
:0405f4003f55822cc1
:0405f5003f55744dad
:0405f6003f55666c9b
:0405f7003f5558898b
:0405f8003f554aa47d
:0405f9003f553cbd71
:0405fa003f552ed467
:0405fb003f5520e860
:0405fc003f5512fb5a
:0405fd003f55050c55
:0405fe003f54f71a55
:0405ff003f54e92755
:040600003f54db3157
:040601003f54cd3a5b
:040602003f54bf4062
:040603003f54b1446b
:040604003f54a34775
:040605003f54954782
:040606003f54874591
:040607003f547941a2
:040608003f546b3bb5
:040609003f545d33ca
:04060a003f544f2ae0
:04060b003f54411dfa
:04060c003f54330f15
:04060d003f5424ff33
:04060e003f5416ed52
:04060f003f5408d973
:040610003f53fac397
:040611003f53ecaabd
:040612003f53de90e4
:040613003f53d0740d
:040614003f53c25539
:040615003f53b43566
:040616003f53a61296
:040617003f5397eec8
:040618003f5389c7fc
:040619003f537b9e32
:04061a003f536d7469
:04061b003f535f47a3
:04061c003f535118df
:04061d003f5342e71e
:04061e003f5334b55d
:04061f003f5326809f
:040620003f531849e3
:040621003f530a1029
:040622003f52fbd573
:040623003f52ed98bd
:040624003f52df5909
:040625003f52d11857
:040626003f52c2d5a8
:040627003f52b490fa
:040628003f52a6494e
:040629003f5297ffa6
:04062a003f5289b4fe
:04062b003f527b6758
:04062c003f526d18b4
:04062d003f525ec614
:04062e003f52507374
:04062f003f52421ed6
:040630003f5233c63c
:040631003f52256da2
:040632003f5217110b
:040633003f5208b476
:040634003f51fa54e4
:040635003f51ebf353
:040636003f51dd8fc4
:040637003f51cf2a36
:040638003f51c0c2ac
:040639003f51b25922
:04063a003f51a3ed9c
:04063b003f51957f17
:04063c003f51871093
:04063d003f51789e13
:04063e003f516a2a94
:04063f003f515bb517
:040640003f514d3d9c
:040641003f513ec324
:040642003f513047ad
:040643003f5121ca38
:040644003f51134ac5
:040645003f5104c855
:040646003f50f644e7
:040647003f50e7be7b
:040648003f50d9370f
:040649003f50caada7
:04064a003f50bc2140
:04064b003f50ad93dc
:04064c003f509f0379
:04064d003f50907119
:04064e003f5081ddbb
:04064f003f5073475e
:040650003f5064af04
:040651003f505615ab
:040652003f50477955
:040653003f5038db01
:040654003f502a3bae
:040655003f501b9a5d
:040656003f500cf60f
:040657003f4ffe50c3
:040658003f4fefa879
:040659003f4fe0fe31
:04065a003f4fd252ea
:04065b003f4fc3a4a6
:04065c003f4fb4f464
:04065d003f4fa64223
:04065e003f4f978de6
:04065f003f4f88d7aa
:040660003f4f7a1f6f
:040661003f4f6b6537
:040662003f4f5ca901
:040663003f4f4debcd
:040664003f4f3f2b9a
:040665003f4f30696a
:040666003f4f21a53c
:040667003f4f12df10
:040668003f4f0417e5
:040669003f4ef54dbe
:04066a003f4ee68198
:04066b003f4ed7b374
:04066c003f4ec8e451
:04066d003f4eba1230
:04066e003f4eab3e12
:04066f003f4e9c68f6
:040670003f4e8d90dc
:040671003f4e7eb6c4
:040672003f4e6fdaae
:040673003f4e60fc9a
:040674003f4e521c87
:040675003f4e433a77
:040676003f4e345669
:040677003f4e25705d
:040678003f4e168952
:040679003f4e079f4a
:04067a003f4df8b345
:04067b003f4de9c541
:04067c003f4ddad53f
:04067d003f4dcbe33f
:04067e003f4dbcf040
:04067f003f4dadfa44
:040680003f4d9f0249
:040681003f4d900950
:040682003f4d810d5a
:040683003f4d720f66
:040684003f4d631073
:040685003f4d540e83
:040686003f4d450a95
:040687003f4d3605a8
:040688003f4d26fdbf
:040689003f4d17f4d6
:04068a003f4d08e8f0
:04068b003f4cf9db0c
:04068c003f4ceacb2a
:04068d003f4cdbba49
:04068e003f4ccca66b
:04068f003f4cbd918e
:040690003f4cae79b4
:040691003f4c9f60db
:040692003f4c904504
:040693003f4c81282f
:040694003f4c72085d
:040695003f4c62e78d
:040696003f4c53c4be
:040697003f4c449ff1
:040698003f4c357826
:040699003f4c264e5e
:04069a003f4c172397
:04069b003f4c07f6d3
:04069c003f4bf8c711
:04069d003f4be99650
:04069e003f4bda6391
:04069f003f4bcb2fd3
:0406a0003f4bbbf819
:0406a1003f4bacbf60
:0406a2003f4b9d84a9
:0406a3003f4b8e47f4
:0406a4003f4b7f0940
:0406a5003f4b6fc890
:0406a6003f4b6085e1
:0406a7003f4b514133
:0406a8003f4b41fa89
:0406a9003f4b32b2df
:0406aa003f4b236738
:0406ab003f4b141b92
:0406ac003f4b04ccf0
:0406ad003f4af57c4f
:0406ae003f4ae62aaf
:0406af003f4ad6d513
:0406b0003f4ac77f77
:0406b1003f4ab827dd
:0406b2003f4aa8cd46
:0406b3003f4a9971b0
:0406b4003f4a8a131c
:0406b5003f4a7ab38b
:0406b6003f4a6b51fb
:0406b7003f4a5bed6e
:0406b8003f4a4c87e2
:0406b9003f4a3d1f58
:0406ba003f4a2db6d0
:0406bb003f4a1e4a4a
:0406bc003f4a0edcc7
:0406bd003f49ff6d45
:0406be003f49effbc6
:0406bf003f49e08847
:0406c0003f49d112cb
:0406c1003f49c19b51
:0406c2003f49b222d8
:0406c3003f49a2a663
:0406c4003f499329ee
:0406c5003f4983aa7c
:0406c6003f4974290b
:0406c7003f4964a69d
:0406c8003f49552130
:0406c9003f49459ac6
:0406ca003f4936115d
:0406cb003f492686f7
:0406cc003f4916fa92
:0406cd003f49076b2f
:0406ce003f48f7dad0
:0406cf003f48e84870
:0406d0003f48d8b314
:0406d1003f48c91db8
:0406d2003f48b9855f
:0406d3003f48a9ea09
:0406d4003f489a4eb3
:0406d5003f488ab060
:0406d6003f487b100e
:0406d7003f486b6ebf
:0406d8003f485bca72
:0406d9003f484c2426
:0406da003f483c7cdd
:0406db003f482cd395
:0406dc003f481d274f
:0406dd003f480d790c
:0406de003f47fdcacb
:0406df003f47ee188b
:0406e0003f47de654d
:0406e1003f47ceb011
:0406e2003f47bef9d7
:0406e3003f47af3f9f
:0406e4003f479f8469
:0406e5003f478fc735
:0406e6003f47800802
:0406e7003f477048d1
:0406e8003f476085a3
:0406e9003f4750c077
:0406ea003f4740fa4c
:0406eb003f47313123
:0406ec003f472167fc
:0406ed003f47119ad8
:0406ee003f4701ccb5
:0406ef003f46f1fc95
:0406f0003f46e22a75
:0406f1003f46d25658
:0406f2003f46c2803d
:0406f3003f46b2a824
:0406f4003f46a2ce0d
:0406f5003f4692f2f8
:0406f6003f468315e3
:0406f7003f467335d2
:0406f8003f466354c2
:0406f9003f465370b5
:0406fa003f46438ba9
:0406fb003f4633a49f
:0406fc003f4623bb97
:0406fd003f4613d091
:0406fe003f4603e38d
:0406ff003f45f3f48c
:040700003f45e4038a
:040701003f45d4118b
:040702003f45c41c8f
:040703003f45b42694
:040704003f45a42d9c
:040705003f459433a5
:040706003f458437b0
:040707003f457439bd
:040708003f456439cc
:040709003f455437dd
:04070a003f454433f0
:04070b003f45342e04
:04070c003f4524261b
:04070d003f45141d33
:04070e003f4504114e
:04070f003f44f4046b
:040710003f44e3f58a
:040711003f44d3e4aa
:040712003f44c3d1cc
:040713003f44b3bcf0
:040714003f44a3a516
:040715003f44938d3d
:040716003f44837267
:040717003f44735692
:040718003f446337c0
:040719003f445317ef
:04071a003f4442f521
:04071b003f4432d154
:04071c003f4422ab89
:04071d003f441283c0
:04071e003f44025af8
:04071f003f43f22e34
:040720003f43e20071
:040721003f43d1d1b0
:040722003f43c1a0f0
:040723003f43b16d32
:040724003f43a13876
:040725003f439101bc
:040726003f4380c805
:040727003f43708d4f
:040728003f4360519a
:040729003f435012e8
:04072a003f433fd238
:04072b003f432f9089
:04072c003f431f4cdc
:04072d003f430f0631
:04072e003f42febe8a
:04072f003f42ee74e3
:040730003f42de293d
:040731003f42cddb9b
:040732003f42bd8cf9
:040733003f42ad3b59
:040734003f429ce8bc
:040735003f428c9320
:040736003f427c3c86
:040737003f426be3ef
:040738003f425b8958
:040739003f424b2cc4
:04073a003f423ace32
:04073b003f422a6ea1
:04073c003f421a0b13
:04073d003f4209a787
:04073e003f41f942fc
:04073f003f41e8da74
:040740003f41d870ed
:040741003f41c80567
:040742003f41b798e4
:040743003f41a72863
:040744003f4196b7e4
:040745003f41864565
:040746003f4175d0ea
:040747003f41655970
:040748003f4154e1f8
:040749003f41446682
:04074a003f4133ea0e
:04074b003f41236c9b
:04074c003f4112ec2b
:04074d003f41026abc
:04074e003f40f1e750
:04074f003f40e161e5
:040750003f40d0da7c
:040751003f40c05015
:040752003f40afc5b0
:040753003f409f384c
:040754003f408ea9eb
:040755003f407e198a
:040756003f406d862d
:040757003f405cf2d1
:040758003f404c5c76
:040759003f403bc41e
:04075a003f402b2ac7
:04075b003f401a8e73
:04075c003f4009f021
:04075d003f3ff951d0
:04075e003f3fe8af82
:04075f003f3fd80c34
:040760003f3fc767e9
:040761003f3fb6c0a0
:040762003f3fa61758
:040763003f3f956d12
:040764003f3f84c0cf
:040765003f3f74128c
:040766003f3f63624c
:040767003f3f52b00e
:040768003f3f41fcd2
:040769003f3f314796
:04076a003f3f208f5e
:04076b003f3f0fd627
:04076c003f3eff1bf2
:04076d003f3eee5ebf
:04076e003f3edd9f8e
:04076f003f3eccde5f
:040770003f3ebc1b31
:040771003f3eab5705
:040772003f3e9a91db
:040773003f3e89c9b3
:040774003f3e78ff8d
:040775003f3e683368
:040776003f3e576645
:040777003f3e469625
:040778003f3e35c506
:040779003f3e24f2e9
:04077a003f3e141dcd
:04077b003f3e0346b4
:04077c003f3df26e9d
:04077d003f3de19388
:04077e003f3dd0b774
:04077f003f3dbfd962
:040780003f3daef952
:040781003f3d9e1743
:040782003f3d8d3436
:040783003f3d7c4e2c
:040784003f3d6b6723
:040785003f3d5a7e1c
:040786003f3d499317
:040787003f3d38a713
:040788003f3d27b812
:040789003f3d16c812
:04078a003f3d05d614
:04078b003f3cf4e219
:04078c003f3ce3ec1f
:04078d003f3cd2f427
:04078e003f3cc1fb30
:04078f003f3cb1003a
:040790003f3ca00347
:040791003f3c8f0456
:040792003f3c7e0367
:040793003f3c6d0179
:040794003f3c5bfc8f
:040795003f3c4af6a5
:040796003f3c39eebd
:040797003f3c28e4d7
:040798003f3c17d9f2
:040799003f3c06cb10
:04079a003f3bf5bc30
:04079b003f3be4ab51
:04079c003f3bd39874
:04079d003f3bc28498
:04079e003f3bb16dbf
:04079f003f3ba055e7
:0407a0003f3b8f3b11
:0407a1003f3b7e1f3d
:0407a2003f3b6d016b
:0407a3003f3b5be29b
:0407a4003f3b4ac1cc
:0407a5003f3b399eff
:0407a6003f3b287934
:0407a7003f3b17526b
:0407a8003f3b0629a4
:0407a9003f3af4ffe0
:0407aa003f3ae3d31c
:0407ab003f3ad2a55a
:0407ac003f3ac1759a
:0407ad003f3ab044db
:0407ae003f3a9f101f
:0407af003f3a8ddb65
:0407b0003f3a7ca4ac
:0407b1003f3a6b6cf4
:0407b2003f3a5a313f
:0407b3003f3a48f58c
:0407b4003f3a37b7da
:0407b5003f3a26772a
:0407b6003f3a15357c
:0407b7003f3a03f2d0
:0407b8003f39f2ac27
:0407b9003f39e1657e
:0407ba003f39d01dd6
:0407bb003f39bed232
:0407bc003f39ad858f
:0407bd003f399c37ed
:0407be003f398ae74e
:0407bf003f397995b0
:0407c0003f39684213
:0407c1003f3956ec7a
:0407c2003f394595e1
:0407c3003f39343c4a
:0407c4003f3922e1b6
:0407c5003f39118522
:0407c6003f39002790
:0407c7003f38eec702
:0407c8003f38dd6574
:0407c9003f38cc01e8
:0407ca003f38ba9c5e
:0407cb003f38a934d6
:0407cc003f3897cb50
:0407cd003f388661ca
:0407ce003f3874f448
:0407cf003f386386c6
:0407d0003f38521646
:0407d1003f3840a4c9
:0407d2003f382f304d
:0407d3003f381dbbd3
:0407d4003f380c435b
:0407d5003f37facae6
:0407d6003f37e95070
:0407d7003f37d7d3fe
:0407d8003f37c6558c
:0407d9003f37b4d51d
:0407da003f37a353af
:0407db003f3791cf44
:0407dc003f37804ad9
:0407dd003f376ec371
:0407de003f375d3a0a
:0407df003f374bafa6
:0407e0003f373a2342
:0407e1003f372894e2
:0407e2003f37170482
:0407e3003f37057324
:0407e4003f36f3dfca
:0407e5003f36e24a6f
:0407e6003f36d0b317
:0407e7003f36bf1ac0
:0407e8003f36ad7f6c
:0407e9003f369be319
:0407ea003f368a45c7
:0407eb003f3678a578
:0407ec003f36670429
:0407ed003f365560de
:0407ee003f3643bb94
:0407ef003f3632144b
:0407f0003f36206c04
:0407f1003f360ec1c0
:0407f2003f35fd157d
:0407f3003f35eb673c
:0407f4003f35d9b8fc
:0407f5003f35c806be
:0407f6003f35b65382
:0407f7003f35a49e48
:0407f8003f3592e710
:0407f9003f35812fd8
:0407fa003f356f75a3
:0407fb003f355db970
:0407fc003f354bfb3f
:0407fd003f353a3c0e
:0407fe003f35287be0
:0407ff003f3516b8b4
:040800003f3504f389
:040801003f34f32d60
:040802003f34e16539
:040803003f34cf9b14
:040804003f34bdcff1
:040805003f34ac02ce
:040806003f349a33ae
:040807003f34886290
:040808003f34768f74
:040809003f3464bb59
:04080a003f3452e540
:04080b003f34410d28
:04080c003f342f3412
:04080d003f341d58ff
:04080e003f340b7bed
:04080f003f33f99ddd
:040810003f33e7bccf
:040811003f33d5dac2
:040812003f33c3f6b7
:040813003f33b210ad
:040814003f33a029a5
:040815003f338e409f
:040816003f337c559b
:040817003f336a6899
:040818003f33587a98
:040819003f33468a99
:04081a003f3334989c
:04081b003f3322a5a0
:04081c003f3310afa7
:04081d003f32feb8b0
:04081e003f32ecc0b9
:04081f003f32dac5c5
:040820003f32c8c9d2
:040821003f32b6cbe1
:040822003f32a4ccf1
:040823003f3292ca04
:040824003f3280c718
:040825003f326ec32d
:040826003f325cbc45
:040827003f324ab45e
:040828003f3238aa79
:040829003f32269e96
:04082a003f321491b4
:04082b003f320282d4
:04082c003f31f071f7
:04082d003f31de5f1a
:04082e003f31cc4b3f
:04082f003f31ba3566
:040830003f31a81d8f
:040831003f319604b9
:040832003f3183e9e6
:040833003f3171cc14
:040834003f315fad44
:040835003f314d8d75
:040836003f313b6ba8
:040837003f312948dc
:040838003f31172213
:040839003f3104fb4c
:04083a003f30f2d386
:04083b003f30e0a8c2
:04083c003f30ce7cff
:04083d003f30bc4e3e
:04083e003f30aa1f7e
:04083f003f3097eec1
:040840003f3085bb05
:040841003f3073864b
:040842003f30615092
:040843003f304f18db
:040844003f303cde27
:040845003f302aa274
:040846003f301865c2
:040847003f30062612
:040848003f2ff3e665
:040849003f2fe1a4b8
:04084a003f2fcf600d
:04084b003f2fbd1a64
:04084c003f2faad3bd
:04084d003f2f988a17
:04084e003f2f863f73
:04084f003f2f73f3d1
:040850003f2f61a530
:040851003f2f4f5591
:040852003f2f3d03f4
:040853003f2f2ab059
:040854003f2f185bbf
:040855003f2f060526
:040856003f2ef3ad91
:040857003f2ee153fc
:040858003f2ecef76a
:040859003f2ebc9ad8
:04085a003f2eaa3b48
:04085b003f2e97dabb
:04085c003f2e85782e
:04085d003f2e7314a3
:04085e003f2e60ae1b
:04085f003f2e4e4793
:040860003f2e3bde0e
:040861003f2e29738a
:040862003f2e170707
:040863003f2e049987
:040864003f2df22909
:040865003f2ddfb88c
:040866003f2dcd4411
:040867003f2dbad097
:040868003f2da8591f
:040869003f2d95e1a9
:04086a003f2d836734
:04086b003f2d70ecc1
:04086c003f2d5e6f4f
:04086d003f2d4bf0e0
:04086e003f2d396f72
:04086f003f2d26ed06
:040870003f2d14699b
:040871003f2d01e432
:040872003f2cef5dcb
:040873003f2cdcd466
:040874003f2cca4902
:040875003f2cb7bda0
:040876003f2ca52f3f
:040877003f2c92a0e0
:040878003f2c800f82
:040879003f2c6d7c27
:04087a003f2c5ae7ce
:04087b003f2c485175
:04087c003f2c35b91f
:04087d003f2c2320c9
:04087e003f2c108576
:04087f003f2bfde826
:040880003f2beb4ad5
:040881003f2bd8aa87
:040882003f2bc6083a
:040883003f2bb364f0
:040884003f2ba0bfa7
:040885003f2b8e195e
:040886003f2b7b7019
:040887003f2b68c6d5
:040888003f2b561b91
:040889003f2b436d51
:04088a003f2b30be12
:04088b003f2b1e0ed3
:04088c003f2b0b5b98
:04088d003f2af8a75f
:04088e003f2ae5f226
:04088f003f2ad33bee
:040890003f2ac082b9
:040891003f2aadc786
:040892003f2a9b0b53
:040893003f2a884d23
:040894003f2a758ef4
:040895003f2a62cdc7
:040896003f2a500a9b
:040897003f2a3d4671
:040898003f2a2a8049
:040899003f2a17b823
:04089a003f2a04effe
:04089b003f29f224db
:04089c003f29df57ba
:04089d003f29cc899a
:04089e003f29b9b97c
:04089f003f29a6e85f
:0408a0003f29941543
:0408a1003f2981402a
:0408a2003f296e6913
:0408a3003f295b91fd
:0408a4003f2948b8e8
:0408a5003f2935ddd5
:0408a6003f292300c3
:0408a7003f291021b4
:0408a8003f28fd41a7
:0408a9003f28ea5f9b
:0408aa003f28d77c90
:0408ab003f28c49787
:0408ac003f28b1b080
:0408ad003f289ec87a
:0408ae003f288bde76
:0408af003f2878f274
:0408b0003f28660572
:0408b1003f28531673
:0408b2003f28402675
:0408b3003f282d3479
:0408b4003f281a407f
:0408b5003f28074b86
:0408b6003f27f45490
:0408b7003f27e15b9b
:0408b8003f27ce61a7
:0408b9003f27bb65b5
:0408ba003f27a868c4
:0408bb003f279569d5
:0408bc003f278268e8
:0408bd003f276f66fc
:0408be003f275c6212
:0408bf003f27495d29
:0408c0003f27365642
:0408c1003f27234d5d
:0408c2003f27104379
:0408c3003f26fd3798
:0408c4003f26ea2ab7
:0408c5003f26d71ad9
:0408c6003f26c40afb
:0408c7003f26b0f721
:0408c8003f269de347
:0408c9003f268ace6e
:0408ca003f2677b797
:0408cb003f26649ec2
:0408cc003f265184ee
:0408cd003f263e681c
:0408ce003f262b4a4c
:0408cf003f26182b7d
:0408d0003f26050ab0
:0408d1003f25f1e8e6
:0408d2003f25dec41c
:0408d3003f25cb9e54
:0408d4003f25b8778d
:0408d5003f25a54ec8
:0408d6003f25922404
:0408d7003f257ef843
:0408d8003f256bcb82
:0408d9003f25589bc4
:0408da003f25456b06
:0408db003f2532384b
:0408dc003f251f0491
:0408dd003f250bcfd9
:0408de003f24f89823
:0408df003f24e55f6e
:0408e0003f24d225ba
:0408e1003f24bee909
:0408e2003f24abac58
:0408e3003f24986da9
:0408e4003f24852cfc
:0408e5003f2471ea51
:0408e6003f245ea6a7
:0408e7003f244b60ff
:0408e8003f24381a57
:0408e9003f2424d1b3
:0408ea003f2411870f
:0408eb003f23fe3b6e
:0408ec003f23eaeece
:0408ed003f23d79f2f
:0408ee003f23c44f91
:0408ef003f23b0fcf7
:0408f0003f239da95c
:0408f1003f238a54c3
:0408f2003f2376fd2d
:0408f3003f2363a597
:0408f4003f23504b03
:0408f5003f233cef72
:0408f6003f232992e1
:0408f7003f23163352
:0408f8003f2302d3c5
:0408f9003f22ef7239
:0408fa003f22dc0eaf
:0408fb003f22c8a927
:0408fc003f22b5439f
:0408fd003f22a1db1a
:0408fe003f228e7196
:0408ff003f227b0613
:040900003f22679992
:040901003f22542b12
:040902003f2240bb95
:040903003f222d4a18
:040904003f2219d79e
:040905003f22066225
:040906003f21f2ecaf
:040907003f21df7439
:040908003f21cbfbc5
:040909003f21b88052
:04090a003f21a504e0
:04090b003f21918671
:04090c003f217e0603
:04090d003f216a8597
:04090e003f2157032b
:04090f003f21437ec3
:040910003f212ff95b
:040911003f211c71f5
:040912003f2108e990
:040913003f20f55e2e
:040914003f20e1d2cd
:040915003f20ce456c
:040916003f20bab60e
:040917003f20a725b1
:040918003f20939356
:040919003f208000fb
:04091a003f206c6aa4
:04091b003f2058d44d
:04091c003f20453bf8
:04091d003f2031a1a5
:04091e003f201e0652
:04091f003f200a6902
:040920003f1ff6cbb4
:040921003f1fe32b66
:040922003f1fcf891b
:040923003f1fbbe6d1
:040924003f1fa84188
:040925003f1f949b41
:040926003f1f80f3fc
:040927003f1f6d4ab7
:040928003f1f599f75
:040929003f1f45f334
:04092a003f1f3245f4
:04092b003f1f1e96b6
:04092c003f1f0ae57a
:04092d003f1ef73240
:04092e003f1ee37e07
:04092f003f1ecfc9cf
:040930003f1ebc1298
:040931003f1ea85964
:040932003f1e949f31
:040933003f1e80e300
:040934003f1e6d26cf
:040935003f1e5968a0
:040936003f1e45a774
:040937003f1e31e648
:040938003f1e1e221e
:040939003f1e0a5df6
:04093a003f1df697d0
:04093b003f1de2cfab
:04093c003f1dcf0686
:04093d003f1dbb3b64
:04093e003f1da76f43
:04093f003f1d93a124
:040940003f1d7fd107
:040941003f1d6c00ea
:040942003f1d582ecf
:040943003f1d445ab6
:040944003f1d30849f
:040945003f1d1cad89
:040946003f1d08d574
:040947003f1cf4fb62
:040948003f1ce11f50
:040949003f1ccd4240
:04094a003f1cb96332
:04094b003f1ca58325
:04094c003f1c91a219
:04094d003f1c7dbf0f
:04094e003f1c69da07
:04094f003f1c55f400
:040950003f1c420cfa
:040951003f1c2e23f6
:040952003f1c1a38f4
:040953003f1c064cf3
:040954003f1bf25ff4
:040955003f1bde6ff7
:040956003f1bca7ffa
:040957003f1bb68dff
:040958003f1ba29906
:040959003f1b8ea40e
:04095a003f1b7aad18
:04095b003f1b66b523
:04095c003f1b52bb30
:04095d003f1b3ec03e
:04095e003f1b2ac34e
:04095f003f1b16c55f
:040960003f1b02c671
:040961003f1aeec487
:040962003f1adac29c
:040963003f1ac6beb3
:040964003f1ab2b8cc
:040965003f1a9eb1e6
:040966003f1a8aa802
:040967003f1a769e1f
:040968003f1a62933d
:040969003f1a4e865d
:04096a003f1a3a777f
:04096b003f1a2667a2
:04096c003f1a1255c7
:04096d003f19fe42ee
:04096e003f19ea2e15
:04096f003f19d6183e
:040970003f19c20069
:040971003f19ade796
:040972003f1999cdc3
:040973003f1985b1f2
:040974003f19719422
:040975003f195d7554
:040976003f19495587
:040977003f193533bc
:040978003f19210ff3
:040979003f190ceb2b
:04097a003f18f8c466
:04097b003f18e49da0
:04097c003f18d073dd
:04097d003f18bc491a
:04097e003f18a81d59
:04097f003f1893ef9b
:040980003f187fc0dd
:040981003f186b8f21
:040982003f18575d66
:040983003f18432aac
:040984003f182ef5f5
:040985003f181abe3f
:040986003f18068789
:040987003f17f24dd7
:040988003f17de1225
:040989003f17c9d675
:04098a003f17b598c6
:04098b003f17a15918
:04098c003f178d186c
:04098d003f1778d6c2
:04098e003f17649318
:04098f003f17504e70
:040990003f173c07ca
:040991003f1727bf26
:040992003f17137682
:040993003f16ff2be1
:040994003f16eade42
:040995003f16d691a2
:040996003f16c24105
:040997003f16adf169
:040998003f16999fce
:040999003f16854b35
:04099a003f1670f69e
:04099b003f165c9f08
:04099c003f16484773
:04099d003f1633eee0
:04099e003f161f934e
:04099f003f160b37bd
:0409a0003f15f6d930
:0409a1003f15e27aa2
:0409a2003f15ce1916
:0409a3003f15b9b78c
:0409a4003f15a55402
:0409a5003f1590ef7b
:0409a6003f157c88f5
:0409a7003f1568216f
:0409a8003f1553b7ed
:0409a9003f153f4d6a
:0409aa003f152ae0eb
:0409ab003f1516736b
:0409ac003f150204ed
:0409ad003f14ed9373
:0409ae003f14d921f8
:0409af003f14c4ae7f
:0409b0003f14b03907
:0409b1003f149bc391
:0409b2003f14874b1c
:0409b3003f1472d2a9
:0409b4003f145e5836
:0409b5003f1449dcc6
:0409b6003f14355e57
:0409b7003f1420e0e9
:0409b8003f140c5f7d
:0409b9003f13f7de13
:0409ba003f13e35ba9
:0409bb003f13ced642
:0409bc003f13ba50db
:0409bd003f13a5c976
:0409be003f13914012
:0409bf003f137cb6b0
:0409c0003f13682a4f
:0409c1003f13539df0
:0409c2003f133f0f91
:0409c3003f132a7f35
:0409c4003f1315eeda
:0409c5003f13015b80
:0409c6003f12ecc729
:0409c7003f12d831d2
:0409c8003f12c39a7d
:0409c9003f12af0228
:0409ca003f129a68d6
:0409cb003f1285cd85
:0409cc003f12713035
:0409cd003f125c92e7
:0409ce003f1247f39a
:0409cf003f1233524e
:0409d0003f121eb004
:0409d1003f120a0cbb
:0409d2003f11f56775
:0409d3003f11e0c12f
:0409d4003f11cc19ea
:0409d5003f11b76fa8
:0409d6003f11a2c566
:0409d7003f118e1925
:0409d8003f11796be7
:0409d9003f1164bcaa
:0409da003f11500c6d
:0409db003f113b5a33
:0409dc003f1126a7fa
:0409dd003f1111f3c2
:0409de003f10fd3d8c
:0409df003f10e88558
:0409e0003f10d3cd24
:0409e1003f10bf13f1
:0409e2003f10aa57c1
:0409e3003f10959a92
:0409e4003f1080dc64
:0409e5003f106c1c37
:0409e6003f10575b0c
:0409e7003f104299e2
:0409e8003f102dd5ba
:0409e9003f10191092
:0409ea003f1004496d
:0409eb003f0fef814a
:0409ec003f0fdab827
:0409ed003f0fc5ed06
:0409ee003f0fb121e5
:0409ef003f0f9c53c7
:0409f0003f0f8784aa
:0409f1003f0f72b48e
:0409f2003f0f5de274
:0409f3003f0f490f5a
:0409f4003f0f343b42
:0409f5003f0f1f652c
:0409f6003f0f0a8e17
:0409f7003f0ef5b505
:0409f8003f0ee0dbf3
:0409f9003f0ecc00e1
:0409fa003f0eb723d2
:0409fb003f0ea245c4
:0409fc003f0e8d65b8
:0409fd003f0e7885ac
:0409fe003f0e63a2a3
:0409ff003f0e4ebf9a
:040a00003f0e39da92
:040a01003f0e24f38d
:040a02003f0e100c87
:040a03003f0dfb2385
:040a04003f0de63884
:040a05003f0dd14c84
:040a06003f0dbc5f85
:040a07003f0da77187
:040a08003f0d92818b
:040a09003f0d7d8f91
:040a0a003f0d689d97
:040a0b003f0d53a99f
:040a0c003f0d3eb3a9
:040a0d003f0d29bdb3
:040a0e003f0d14c5bf
:040a0f003f0cffcbce
:040a10003f0cead0dd
:040a11003f0cd5d4ed
:040a12003f0cc0d7fe
:040a13003f0cabd811
:040a14003f0c96d726
:040a15003f0c81d63b
:040a16003f0c6cd352
:040a17003f0c57cf6a
:040a18003f0c42c984
:040a19003f0c2dc29f
:040a1a003f0c18babb
:040a1b003f0c03b0d9
:040a1c003f0beea5f9
:040a1d003f0bd9981a
:040a1e003f0bc48b3b
:040a1f003f0baf7c5e
:040a20003f0b9a6b83
:040a21003f0b8559a9
:040a22003f0b7046d0
:040a23003f0b5b32f8
:040a24003f0b461c22
:040a25003f0b31054d
:040a26003f0b1bec7b
:040a27003f0b06d2a9
:040a28003f0af1b7d9
:040a29003f0adc9b09
:040a2a003f0ac77d3b
:040a2b003f0ab25e6e
:040a2c003f0a9d3da3
:040a2d003f0a881bd9
:040a2e003f0a72f811
:040a2f003f0a5dd34a
:040a30003f0a48ad84
:040a31003f0a3386bf
:040a32003f0a1e5efb
:040a33003f0a093439
:040a34003f09f40979
:040a35003f09dedcbb
:040a36003f09c9aefd
:040a37003f09b47f40
:040a38003f099f4e85
:040a39003f098a1dca
:040a3a003f0974e913
:040a3b003f095fb55b
:040a3c003f094a7fa5
:040a3d003f093548f0
:040a3e003f0920103c
:040a3f003f090ad68b
:040a40003f08f59bdb
:040a41003f08e05e2c
:040a42003f08cb207e
:040a43003f08b5e1d2
:040a44003f08a0a126
:040a45003f088b5f7c
:040a46003f08761cd3
:040a47003f0860d82c
:040a48003f084b9286
:040a49003f08364be1
:040a4a003f0821033d
:040a4b003f080bb99c
:040a4c003f07f66ffb
:040a4d003f07e1225c
:040a4e003f07cbd5be
:040a4f003f07b68621
:040a50003f07a13685
:040a51003f078be4ec
:040a52003f07769252
:040a53003f07613eba
:040a54003f074be825
:040a55003f0736928f
:040a56003f07213afb
:040a57003f070be06a
:040a58003f06f686d9
:040a59003f06e12a49
:040a5a003f06cbcdbb
:040a5b003f06b66e2e
:040a5c003f06a10ea2
:040a5d003f068bad18
:040a5e003f06764b8e
:040a5f003f0660e707
:040a60003f064b8280
:040a61003f06361cfa
:040a62003f0620b576
:040a63003f060b4cf3
:040a64003f05f5e273
:040a65003f05e076f3
:040a66003f05cb0a73
:040a67003f05b59cf6
:040a68003f05a02c7a
:040a69003f058abcff
:040a6a003f05754a85
:040a6b003f055fd70d
:040a6c003f054a6296
:040a6d003f0534ec21
:040a6e003f051f75ac
:040a6f003f0509fd39
:040a70003f04f484c7
:040a71003f04df0956
:040a72003f04c98de7
:040a73003f04b40f79
:040a74003f049e910c
:040a75003f048911a0
:040a76003f04738f37
:040a77003f045e0dcd
:040a78003f04488966
:040a79003f043304ff
:040a7a003f041d7e9a
:040a7b003f0407f637
:040a7c003f03f26dd5
:040a7d003f03dce374
:040a7e003f03c75714
:040a7f003f03b1cbb5
:040a80003f039c3d57
:040a81003f0386aefb
:040a82003f03711da0
:040a83003f035b8b47
:040a84003f0345f8ef
:040a85003f03306497
:040a86003f031ace42
:040a87003f030537ed
:040a88003f02ef9f9b
:040a89003f02da0648
:040a8a003f02c46bf8
:040a8b003f02aed0a8
:040a8c003f0299325a
:040a8d003f0283940d
:040a8e003f026df4c2
:040a8f003f02585377
:040a90003f0242b12e
:040a91003f022d0ee5
:040a92003f0217699f
:040a93003f0201c35a
:040a94003f01ec1c16
:040a95003f01d674d3
:040a96003f01c0ca92
:040a97003f01ab1f51
:040a98003f01957312
:040a99003f017fc5d5
:040a9a003f016a1797
:040a9b003f0154675c
:040a9c003f013eb523
:040a9d003f012903e9
:040a9e003f01134fb2
:040a9f003f00fd9a7d
:040aa0003f00e7e448
:040aa1003f00d22d13
:040aa2003f00bc74e1
:040aa3003f00a6bab0
:040aa4003f0090ff80
:040aa5003f007b4350
:040aa6003f00658523
:040aa7003f004fc6f7
:040aa8003f003a06cb
:040aa9003f002445a1
:040aaa003f000e8279
:040aab003efff17d9c
:040aac003effc5f351
:040aad003eff9a6707
:040aae003eff6ed8c1
:040aaf003eff43467d
:040ab0003eff17b23c
:040ab1003efeec1cfd
:040ab2003efec083c1
:040ab3003efe94e887
:040ab4003efe694a4f
:040ab5003efe3daa1a
:040ab6003efe1207e7
:040ab7003efde662b8
:040ab8003efdbabb8a
:040ab9003efd8f115e
:040aba003efd636535
:040abb003efd37b60f
:040abc003efd0c04eb
:040abd003efce051ca
:040abe003efcb49bab
:040abf003efc88e28f
:040ac0003efc5d2774
:040ac1003efc31695d
:040ac2003efc05aa47
:040ac3003efbd9e736
:040ac4003efbae2225
:040ac5003efb825b17
:040ac6003efb56920b
:040ac7003efb2ac602
:040ac8003efafef7fd
:040ac9003efad326f8
:040aca003efaa753f6
:040acb003efa7b7df7
:040acc003efa4fa5fa
:040acd003efa23cbff
:040ace003ef9f7ee08
:040acf003ef9cc0e12
:040ad0003ef9a02d1e
:040ad1003ef974492d
:040ad2003ef948623f
:040ad3003ef91c7953
:040ad4003ef8f08e6a
:040ad5003ef8c4a083
:040ad6003ef898b09e
:040ad7003ef86cbdbc
:040ad8003ef840c8dc
:040ad9003ef814d1fe
:040ada003ef7e8d724
:040adb003ef7bcdb4b
:040adc003ef790dc75
:040add003ef764dca0
:040ade003ef738d8cf
:040adf003ef70cd3ff
:040ae0003ef6e0cb33
:040ae1003ef6b4c069
:040ae2003ef688b3a1
:040ae3003ef65ca4db
:040ae4003ef6309317
:040ae5003ef6047f56
:040ae6003ef5d86899
:040ae7003ef5ac50dc
:040ae8003ef5803522
:040ae9003ef554176b
:040aea003ef527f8b6
:040aeb003ef4fbd505
:040aec003ef4cfb154
:040aed003ef4a38aa6
:040aee003ef47761fa
:040aef003ef44b3551
:040af0003ef41f07aa
:040af1003ef3f2d707
:040af2003ef3c6a465
:040af3003ef39a6fc5
:040af4003ef36e3827
:040af5003ef341fe8d
:040af6003ef315c2f4
:040af7003ef2e9845e
:040af8003ef2bd43ca
:040af9003ef2910038
:040afa003ef264bba9
:040afb003ef238731c
:040afc003ef20c2991
:040afd003ef1dfdd0a
:040afe003ef1b38e84
:040aff003ef1873d00
:040b00003ef15aea7e
:040b01003ef12e94ff
:040b02003ef1023c82
:040b03003ef0d5e209
:040b04003ef0a98591
:040b05003ef07d261b
:040b06003ef050c5a8
:040b07003ef0246137
:040b08003eeff7fbca
:040b09003eefcb935d
:040b0a003eef9f28f3
:040b0b003eef72bc8b
:040b0c003eef464c26
:040b0d003eef19dbc3
:040b0e003eeeed6763
:040b0f003eeec0f105
:040b10003eee9479a8
:040b11003eee67fe4f
:040b12003eee3b81f7
:040b13003eee0f02a1
:040b14003eede28050
:040b15003eedb5fc00
:040b16003eed8976b1
:040b17003eed5cee65
:040b18003eed30631b
:040b19003eed03d6d4
:040b1a003eecd7478f
:040b1b003eecaab54d
:040b1c003eec7e210c
:040b1d003eec518bce
:040b1e003eec24f392
:040b1f003eebf85859
:040b20003eebcbbb22
:040b21003eeb9f1cec
:040b22003eeb727aba
:040b23003eeb45d68a
:040b24003eeb19305b
:040b25003eeaec8830
:040b26003eeabfdd07
:040b27003eea9330df
:040b28003eea6681ba
:040b29003eea39d097
:040b2a003eea0d1c76
:040b2b003ee9e06659
:040b2c003ee9b3ae3d
:040b2d003ee986f423
:040b2e003ee95a370b
:040b2f003ee92d78f6
:040b30003ee900b7e3
:040b31003ee8d3f4d3
:040b32003ee8a72ec4
:040b33003ee87a66b8
:040b34003ee84d9cae
:040b35003ee820d0a6
:040b36003ee7f401a1
:040b37003ee7c7319d
:040b38003ee79a5d9d
:040b39003ee76d889e
:040b3a003ee740b1a1
:040b3b003ee713d7a7
:040b3c003ee6e6fbb0
:040b3d003ee6ba1db9
:040b3e003ee68d3cc6
:040b3f003ee6605ad4
:040b40003ee63375e5
:040b41003ee6068ef8
:040b42003ee5d9a40f
:040b43003ee5acb926
:040b44003ee57fcb40
:040b45003ee552db5c
:040b46003ee525e97a
:040b47003ee4f8f59b
:040b48003ee4cbfebe
:040b49003ee49f05e2
:040b4a003ee4720a09
:040b4b003ee4450d32
:040b4c003ee4180e5d
:040b4d003ee3eb0c8c
:040b4e003ee3be08bc
:040b4f003ee39102ee
:040b50003ee363fa23
:040b51003ee336f059
:040b52003ee309e392
:040b53003ee2dcd5cd
:040b54003ee2afc40a
:040b55003ee282b149
:040b56003ee2559b8b
:040b57003ee22884ce
:040b58003ee1fb6a15
:040b59003ee1ce4e5d
:040b5a003ee1a130a7
:040b5b003ee17410f3
:040b5c003ee146ee42
:040b5d003ee119c993
:040b5e003ee0eca3e6
:040b5f003ee0bf7a3b
:040b60003ee0924f92
:040b61003ee06522eb
:040b62003ee037f248
:040b63003ee00ac1a5
:040b64003edfdd8d06
:040b65003edfb05768
:040b66003edf831fcc
:040b67003edf55e533
:040b68003edf28a99b
:040b69003edefb6a07
:040b6a003edece2a73
:040b6b003edea0e7e3
:040b6c003ede73a254
:040b6d003ede465bc7
:040b6e003ede19123c
:040b6f003eddebc7b5
:040b70003eddbe792f
:040b71003edd912aaa
:040b72003edd63d829
:040b73003edd3684a9
:040b74003edd092e2b
:040b75003edcdbd6b1
:040b76003edcae7c37
:040b77003edc811fc0
:040b78003edc53c14b
:040b79003edc2660d8
:040b7a003edbf8fd69
:040b7b003edbcb98fa
:040b7c003edb9e318d
:040b7d003edb70c823
:040b7e003edb435dba
:040b7f003edb15f054
:040b80003edae880f1
:040b81003edabb0f8e
:040b82003eda8d9b2f
:040b83003eda6025d1
:040b84003eda32ad76
:040b85003eda05331c
:040b86003ed9d7b7c6
:040b87003ed9aa3970
:040b88003ed97cb91d
:040b89003ed94f37cb
:040b8a003ed921b27d
:040b8b003ed8f42c30
:040b8c003ed8c6a3e6
:040b8d003ed899189d
:040b8e003ed86b8b57
:040b8f003ed83dfc13
:040b90003ed8106bd0
:040b91003ed7e2d891
:040b92003ed7b54352
:040b93003ed787ac16
:040b94003ed75a13db
:040b95003ed72c77a4
:040b96003ed6feda6f
:040b97003ed6d13a3b
:040b98003ed6a39909
:040b99003ed675f5da
:040b9a003ed6484fac
:040b9b003ed61aa781
:040b9c003ed5ecfd59
:040b9d003ed5bf5230
:040b9e003ed591a40b
:040b9f003ed563f3e9
:040ba0003ed53641c7
:040ba1003ed5088da8
:040ba2003ed4dad78c
:040ba3003ed4ad1f70
:040ba4003ed47f6458
:040ba5003ed451a841
:040ba6003ed423ea2c
:040ba7003ed3f6291a
:040ba8003ed3c86709
:040ba9003ed39aa2fb
:040baa003ed36cdbef
:040bab003ed33f13e3
:040bac003ed31148db
:040bad003ed2e37cd5
:040bae003ed2b5add1
:040baf003ed287dccf
:040bb0003ed25a09ce
:040bb1003ed22c34d0
:040bb2003ed1fe5ed4
:040bb3003ed1d085da
:040bb4003ed1a2aae2
:040bb5003ed174cdec
:040bb6003ed146eef8
:040bb7003ed1190d05
:040bb8003ed0eb2a16
:040bb9003ed0bd4528
:040bba003ed08f5e3c
:040bbb003ed0617552
:040bbc003ed0338a6a
:040bbd003ed0059d84
:040bbe003ecfd7aea1
:040bbf003ecfa9bdbf
:040bc0003ecf7bcadf
:040bc1003ecf4dd501
:040bc2003ecf1fde25
:040bc3003ecef1e54c
:040bc4003ecec3ea74
:040bc5003ece95ed9e
:040bc6003ece67eeca
:040bc7003ece39edf8
:040bc8003ece0bea28
:040bc9003ecddde55b
:040bca003ecdafde8f
:040bcb003ecd81d5c5
:040bcc003ecd53cafd
:040bcd003ecd25be36
:040bce003eccf7af73
:040bcf003eccc99eb1
:040bd0003ecc9b8bf1
:040bd1003ecc6d7633
:040bd2003ecc3f6076
:040bd3003ecc1147bc
:040bd4003ecbe32c05
:040bd5003ecbb50f4f
:040bd6003ecb86f19b
:040bd7003ecb58d0e9
:040bd8003ecb2aae38
:040bd9003ecafc898b
:040bda003ecace63de
:040bdb003ecaa03a34
:040bdc003eca72108b
:040bdd003eca43e4e5
:040bde003eca15b541
:040bdf003ec9e7859f
:040be0003ec9b953fe
:040be1003ec98b1f5f
:040be2003ec95ce9c3
:040be3003ec92eb128
:040be4003ec900778f
:040be5003ec8d23bf9
:040be6003ec8a3fd65
:040be7003ec875bed1
:040be8003ec8477c40
:040be9003ec81938b1
:040bea003ec7eaf325
:040beb003ec7bcac99
:040bec003ec78e6210
:040bed003ec7601788
:040bee003ec731ca03
:040bef003ec7037b7f
:040bf0003ec6d529ff
:040bf1003ec6a6d680
:040bf2003ec6788201
:040bf3003ec64a2b85
:040bf4003ec61bd20c
:040bf5003ec5ed7795
:040bf6003ec5bf1b1e
:040bf7003ec590bdaa
:040bf8003ec5625c38
:040bf9003ec533fac8
:040bfa003ec5059659
:040bfb003ec4d730ed
:040bfc003ec4a8c883
:040bfd003ec47a5e1a
:040bfe003ec44bf2b4
:040bff003ec41d854e
:040c00003ec3ef15eb
:040c01003ec3c0a48a
:040c02003ec392312a
:040c03003ec363bbce
:040c04003ec3354472
:040c05003ec306cb19
:040c06003ec2d851c1
:040c07003ec2a9d46c
:040c08003ec27b5518
:040c09003ec24cd5c6
:040c0a003ec21e5375
:040c0b003ec1efce29
:040c0c003ec1c148dc
:040c0d003ec192c092
:040c0e003ec1643748
:040c0f003ec135ab02
:040c10003ec1071ebc
:040c11003ec0d88e7b
:040c12003ec0a9fd3a
:040c13003ec07b6afa
:040c14003ec04cd5bd
:040c15003ec01e3e81
:040c16003ebfefa549
:040c17003ebfc10b10
:040c18003ebf926fda
:040c19003ebf63d0a7
:040c1a003ebf353074
:040c1b003ebf068f43
:040c1c003ebed7eb16
:040c1d003ebea945e9
:040c1e003ebe7a9ebe
:040c1f003ebe4bf595
:040c20003ebe1d4a6d
:040c21003ebdee9d49
:040c22003ebdbfee26
:040c23003ebd913d04
:040c24003ebd628be4
:040c25003ebd33d7c6
:040c26003ebd0521a9
:040c27003ebcd66990
:040c28003ebca7af78
:040c29003ebc78f461
:040c2a003ebc4a364c
:040c2b003ebc1b7739
:040c2c003ebbecb629
:040c2d003ebbbdf419
:040c2e003ebb8f2f0b
:040c2f003ebb6069ff
:040c30003ebb31a0f6
:040c31003ebb02d6ee
:040c32003ebad40be7
:040c33003ebaa53de3
:040c34003eba766ee0
:040c35003eba479ddf
:040c36003eba18cae0
:040c37003eb9e9f5e4
:040c38003eb9bb1ee8
:040c39003eb98c46ee
:040c3a003eb95d6cf6
:040c3b003eb92e9000
:040c3c003eb8ffb20d
:040c3d003eb8d0d31a
:040c3e003eb8a1f12a
:040c3f003eb8730e3a
:040c40003eb8442a4c
:040c41003eb8154361
:040c42003eb7e65b78
:040c43003eb7b77091
:040c44003eb78884ab
:040c45003eb75997c6
:040c46003eb72aa7e4
:040c47003eb6fbb604
:040c48003eb6ccc325
:040c49003eb69dce48
:040c4a003eb66ed86c
:040c4b003eb63fe092
:040c4c003eb610e6ba
:040c4d003eb5e1eae5
:040c4e003eb5b2ec11
:040c4f003eb583ed3e
:040c50003eb554ec6d
:040c51003eb525e99e
:040c52003eb4f6e5d1
:040c53003eb4c7de06
:040c54003eb498d63c
:040c55003eb469cd73
:040c56003eb43ac1ad
:040c57003eb40bb4e8
:040c58003eb3dca526
:040c59003eb3ad9465
:040c5a003eb37e82a5
:040c5b003eb34f6ee7
:040c5c003eb320582b
:040c5d003eb2f14072
:040c5e003eb2c227b9
:040c5f003eb2930c02
:040c60003eb263ef4e
:040c61003eb234d09b
:040c62003eb205b0e9
:040c63003eb1d68e3a
:040c64003eb1a76b8b
:040c65003eb17845df
:040c66003eb1491e34
:040c67003eb119f58c
:040c68003eb0eacbe5
:040c69003eb0bb9f3f
:040c6a003eb08c719b
:040c6b003eb05d41f9
:040c6c003eb02e1058
:040c6d003eaffeddbb
:040c6e003eafcfa81e
:040c6f003eafa07282
:040c70003eaf713ae8
:040c71003eaf420050
:040c72003eaf12c5ba
:040c73003eaee38727
:040c74003eaeb44993
:040c75003eae850802
:040c76003eae55c673
:040c77003eae2682e5
:040c78003eadf73c5a
:040c79003eadc7f5d0
:040c7a003ead98ac47
:040c7b003ead6962bf
:040c7c003ead3a153a
:040c7d003ead0ac7b7
:040c7e003eacdb7835
:040c7f003eacac27b4
